:100000000C948A120C94CA120C94CA120C94CA1240
:100010000C94CA120C94CA120C94CA120C94CA12F0
:100020000C94CA120C94EBA00C94EBA00C94EBA0D3
:100030000C94CA120C94CA120C94CA120C94CA12D0
:100040000C94CA120C94BB230C94CA120C94CA12BE
:100050000C94CA120C94BB220C94CA120C949CA847
:100060000C94CA120C942A440C9420440C94CA1286
:100070000C94CA120C94CA120C94CA120C94CA1290
:100080000C9426370C94CA120C94CA120C94CA12FF
:100090000C94CA120C94CA120C94CA120C94CA1270
:1000A0000C94CA120C94CA120C94F8360C94CA120E
:1000B0000C94CA120C94CA120C94CA120C94CA1250
:1000C0000C94CA120C94CA120C94CA120C94CA1240
:1000D0000C94CA120C94CA120C94CA120C94CA1230
:1000E0000C94CA12084AD73B3BCE016E84BCBFFDBC
:1000F000C12F3D6C74319ABD56833DDA3D00C77FF8
:1001000011BED9E4BB4C3E916BAAAABE0000008090
:100110003F05A84CCDB2D44EB93836A9020C50B91F
:10012000918688083CA6AAAA2ABE000000803F004B
:100130004E414E494E495459494E46CDCCCC3D0ACC
:10014000D7233C17B7D13877CC2B329595E6241FAF
:10015000B14F0A000020410000C84200401C462068
:10016000BCBE4CCA1B0E5AAEC59D74434F4D4D5577
:100170004E49434154494F4E0044525952554E0046
:100180004552524F525300494E464F004543484F47
:10019000004572726F722077726974696E6720749D
:1001A0006F20454550524F4D210A005072696E74C0
:1001B00065722073746F7070656420647565207457
:1001C0006F206572726F72732E2046697820746892
:1001D00065206572726F7220616E64207573652090
:1001E0004D39393920746F20726573746172742EC1
:1001F000202854656D70657261747572652069732D
:100200002072657365742E205365742069742061B3
:10021000667465722072657374617274696E6729A1
:100220000A004E6F20436865636B73756D207769B4
:100230007468206C696E65206E756D6265722C2025
:100240004C617374204C696E653A20004E6F2043F8
:100250006865636B73756D2077697468206C696E6F
:1002600065206E756D6265722C204C617374204C34
:10027000696E653A2000636865636B73756D206D08
:1002800069736D617463682C204C617374204C69D0
:100290006E653A20004C696E65204E756D62657220
:1002A000206973206E6F74204C617374204C696EEA
:1002B00065204E756D6265722B312C204C61737414
:1002C000204C696E653A20004D3131300053657223
:1002D00069616C20737461747573206D69736D61ED
:1002E0007463680A00534420726561642065727209
:1002F0006F720A002121204B494C4C2063617573B9
:10030000656420627920746F6F206D756368206961
:100310006E6163746976652074696D65202D206354
:10032000757272656E7420636F6D6D616E643A20D4
:1003300000627573793A2070617573656420666F29
:100340007220696E7075740A00627573793A207054
:10035000617573656420666F7220757365720A003B
:10036000627573793A2070726F63657373696E6733
:100370000A006563686F3A004572726F723A004F07
:100380004646004F4E0042696C696E656172204CB2
:100390006576656C696E6720477269643A0A004C3D
:1003A0004F570048494748004F4B004572726F72E3
:1003B0003A20416C6C200020636F6E6E6563746937
:1003C0006F6E2E2E2E200054657374696E672000A8
:1003D0004C4F570048494748004F4B004572726FD9
:1003E000723A20416C6C200020636F6E6E656374FE
:1003F000696F6E2E2E2E200054657374696E67200F
:10040000004C4F570048494748004F4B0045727217
:100410006F723A20416C6C200020636F6E6E6563D2
:1004200074696F6E2E2E2E200054657374696E678A
:1004300020004C4F570048494748004F4B00457239
:10044000726F723A20416C6C200020636F6E6E6593
:100450006374696F6E2E2E2E200054657374696E5E
:100460006720004C4F570048494748004F4B004514
:1004700072726F723A20416C6C200020636F6E6E56
:10048000656374696F6E2E2E2E2000546573746937
:100490006E672000426564204C6576656C696E6706
:1004A00020004661696C656420746F20656E61622E
:1004B0006C6520426564204C6576656C696E670AE0
:1004C00000496E76616C6964206D6573682E0A0060
:1004D0002E0A002F0050726F62696E67206D65737F
:1004E0006820706F696E742000202844525952555C
:1004F0004E2900473239204175746F2042656420CF
:100500004C6576656C696E67003F20284C2C522C38
:10051000462C4229206F7574206F6620626F756EBD
:1005200064732E0A003F2856296572626F73652036
:100530006C6576656C20696D706C61757369626C51
:10054000652028302D34292E0A00426164205A206B
:1005500076616C75650A004E6F2062696C696E6524
:10056000617220677269640A0020440020204D32C5
:10057000303020540020204D3230302053002028CD
:1005800044697361626C6564293A0046696C616D07
:10059000656E742073657474696E67730020204DF6
:1005A0003230312058004D617820416363656C65BD
:1005B000726174696F6E2028756E6974732F73325F
:1005C000290020204D3230332058004D61782066BC
:1005D00065656472617465732028756E6974732F24
:1005E00073290020520020204D3230342050004129
:1005F0006363656C65726174696F6E2028756E69DE
:1006000074732F7332292028503C7072696E742DD8
:10061000616363656C3E20523C7265747261637401
:100620002D616363656C3E20543C74726176656C29
:100630002D616363656C3E29005741524E494E4718
:1006400021204C6F77205A204A65726B206D6179AA
:10065000206C65616420746F20756E77616E7465BF
:1006600064207061757365732E0A00205400205356
:100670000020204D323035204200416476616E63A7
:1006800065642028423C6D696E5F7365676D656EB9
:10069000745F74696D655F75733E20533C6D696E60
:1006A0005F66656564726174653E20543C6D696E79
:1006B0005F74726176656C5F6665656472617465AE
:1006C0003E20583C6D61785F6A65726B3E20593CF4
:1006D0006D61785F6A65726B3E205A3C6D61785F30
:1006E0006A65726B3E20453C6D61785F6A65726B2E
:1006F0003E290020204D32313700546F6F6C2D633E
:1007000068616E67696E670020204D323138205471
:1007100000486F74656E64206F666673657473005D
:1007200020440020490020204D3330312050004823
:100730006F74656E64205049440020204D61783A02
:100740002000200020204D696E3A2000203B200030
:1007500020204D323131205300536F667420656E76
:100760006473746F7073007370726561644379634E
:100770006C6500737465616C746843686F70002009
:10078000647269766572206D6F64653A09007370F2
:10079000726561644379636C6500737465616C7440
:1007A0006843686F700020647269766572206D6FAF
:1007B00064653A09007370726561644379636C65BE
:1007C00000737465616C746843686F7000206472B4
:1007D00069766572206D6F64653A090073707265A1
:1007E00061644379636C6500737465616C7468431C
:1007F000686F700020647269766572206D6F646541
:100800003A09007370726561644379636C650073C3
:100810007465616C746843686F70002064726976F7
:100820006572206D6F64653A0900202E68737472DA
:10083000743A2000202E68656E643A2000206368B8
:100840006F70706572202E746F66663A2000202EDD
:1008500068737472743A2000202E68656E643A20C2
:10086000002063686F70706572202E746F66663A40
:100870002000202E68737472743A2000202E686560
:100880006E643A20002063686F70706572202E7469
:100890006F66663A2000202E68737472743A2000E6
:1008A000202E68656E643A20002063686F70706562
:1008B00072202E746F66663A2000202E6873747260
:1008C000743A2000202E68656E643A200020636828
:1008D0006F70706572202E746F66663A20003F5309
:1008E000206F7574206F662072616E6765202831F5
:1008F0002E2E38290A003F50206F7574206F662015
:1009000072616E676520282D332E2E3132290A0040
:100910003F4F206F7574206F662072616E6765208F
:1009200028312E2E3135290A003B200020496E76D1
:10093000616C696420657874727564657220004723
:10094000322F47332062616420706172616D65747B
:100950006572730A0047323800205A3A2000205945
:100960003A200042656420583A20004D65736820A3
:10097000706F696E74206F7574206F662072616E7F
:1009800067650A00456E642066696C65206C697352
:10099000740A00426567696E2066696C65206C693F
:1009A00073740A004E6F206D656469610A00286ED9
:1009B0006F2066696C65290043757272656E7420DC
:1009C00066696C653A20005344207072696E7469E0
:1009D0006E67206279746520004E6F742053442046
:1009E0007072696E74696E670A002E0A0044656C45
:1009F0006574696F6E206661696C65642C20466958
:100A00006C653A200046696C652064656C657465A8
:100A1000643A005072696E742074696D653A200002
:100A20000A53746174733A2046696C616D656E7423
:100A300020757365643A20002C204C6F6E676573D7
:100A400074206A6F623A2000546F74616C2074697C
:100A50006D653A200053746174733A20002C20466F
:100A600061696C65643A20002C2046696E69736880
:100A700065643A20005072696E74733A20005374B2
:100A80006174733A20006F6B006F6666008C01879B
:100A900001800179016B0144454255473A004D31CF
:100AA00031322053687574646F776E004D31313385
:100AB0002053002F2F0046523A0020466C6F773AA1
:100AC00020003A200020536572766F2000206F7559
:100AD00074206F662072616E67650A0053657276D6
:100AE0006F200050726F6265204F666673657420D8
:100AF0005A0050726F6265204F6666736574205AA3
:100B000000496E76616C69642065787472756465FD
:100B1000720A0064697300656E0043290A0061620D
:100B20006C656420286D696E2074656D70200043CB
:100B30006F6C64206578747275646573206172658A
:100B400020004D34323120696E636F7272656374B8
:100B500020706172616D657465722075736167657F
:100B60000A004D65736820706F696E74206F75742C
:100B7000206F662072616E67650A00546F6F206691
:100B800061722066726F6D207265666572656E6354
:100B90006520706F696E740A00454550524F4D20B4
:100BA0004F4B0A00290A0020746F20003F5A206F23
:100BB0007574206F662072616E6765202800290AAF
:100BC0000020746F20003F59206F7574206F6620DD
:100BD00072616E676520282D00290A0020746F203D
:100BE000003F58206F7574206F662072616E6765D4
:100BF00020282D00206472697665722063757272F8
:100C0000656E743A2000206472697665722063759F
:100C10007272656E743A2000206472697665722083
:100C200063757272656E743A20002064726976652D
:100C3000722063757272656E743A20002064726966
:100C40007665722063757272656E743A20004D3855
:100C50003400446F6E65207072696E74696E67202F
:100C600066696C650A004D3737004D33310020202E
:100C70004D323036205800486F6D65206F666673C0
:100C80006574004361703A00434F4E4649475F45E3
:100C900058504F5254004D4541545041434B00432E
:100CA0004F4F4C45525F54454D504552415455525B
:100CB00045004348414D4245525F54454D504552D1
:100CC00041545552450042414259535445505049B0
:100CD0004E470041524353004D4F54494F4E5F4DD4
:100CE0004F44455300544845524D414C5F50524F7C
:100CF00054454354494F4E00455854454E4445448D
:100D00005F4D323000435553544F4D5F4649524D6D
:100D1000574152455F55504C4F4144004C464E5F41
:100D20005752495445004C4F4E475F46494C454E3B
:100D3000414D45004155544F5245504F52545F5319
:100D4000445F5354415455530053445F57524954E0
:100D50004500524550454154004D554C54495F564D
:100D60004F4C554D45005344434152440050524F5F
:100D70004D50545F535550504F525400484F5354A8
:100D80005F414354494F4E5F434F4D4D414E445395
:100D900000454D455247454E43595F5041525345DA
:100DA0005200434153455F4C494748545F425249C2
:100DB0004748544E45535300544F47474C455F4CAA
:100DC000494748545300534F4654574152455F508A
:100DD0004F574552004255494C445F504552434598
:100DE0004E54004C4556454C494E475F4441544192
:100DF000005A5F50524F42450052554E4F555400D5
:100E00004155544F4C4556454C005052494E545F45
:100E10004A4F420050524F47524553530041555498
:100E20004F5245504F52545F54454D500041555418
:100E30004F5245504F52545F504F5300564F4C55F0
:100E40004D455452494300454550524F4D0042498B
:100E50004E4152595F46494C455F5452414E5346AC
:100E600045520053455249414C5F584F4E5F584FD1
:100E70004646004649524D574152455F4E414D4509
:100E80003A4D61726C696E206275676669782D32C1
:100E90002E302E7820284A756E20203620323032AF
:100EA000322031323A33383A31372920534F5552B4
:100EB00043455F434F44455F55524C3A67697468F8
:100EC00075622E636F6D2F4D61726C696E4669722B
:100ED0006D776172652F4D61726C696E2050524F53
:100EE000544F434F4C5F56455253494F4E3A312E63
:100EF00030204D414348494E455F545950453A4A88
:100F0000756C69612050726F204475616C2041429C
:100F10004C203234562055415254206A756D70650C
:100F20007273207769746820544D4332323039200F
:100F30006F6E204D4B532047656E4C2076322E311C
:100F40002045585452554445525F434F554E543AEC
:100F50003220555549443A63656465326132662DE5
:100F6000343161322D343734382D396231322D63CA
:100F700035356336326633363766660A00203B0005
:100F800020204D3835312058005A2D50726F62653F
:100F9000204F6666736574002569730025696D20AE
:100FA000256973002569682025696D20256973000E
:100FB000256964202569682025696D2025697300ED
:100FC00025697920256964202569682025696D20B7
:100FD0002569730020573A0020573A00236465665C
:100FE000696E652044454641554C545F004B642072
:100FF000004B6920004B702000504944204175741B
:101000006F74756E652066696E697368656421200A
:1010100050757420746865206C617374204B702C5B
:10102000204B6920616E64204B6420636F6E737483
:10103000616E74732066726F6D2062656C6F7720CD
:10104000696E746F20436F6E66696775726174694B
:101050006F6E2E680A00504944204175746F747594
:101060006E65206661696C6564212074696D656FC9
:1010700075740A00504944204175746F74756E652B
:10108000206661696C6564212054656D70657261CC
:101090007475726520746F6F20686967680A002034
:1010A0004B643A2000204B693A2000204B703A20D4
:1010B0000020436C617373696320504944200A0027
:1010C0002054753A2000204B753A2000206D61783D
:1010D0003A2000206D696E3A200020643A200020FA
:1010E000626961733A2000504944204175746F74FD
:1010F000756E652073746172740A00504944204112
:1011000075746F74756E65206661696C6564212005
:1011100054656D706572617475726520746F6F20AF
:10112000686967680A00504944204175746F747596
:101130006E65206661696C65642120426164206887
:1011400065617465722069640A006F70656E005491
:101150005249474745524544003A20007A5F707231
:101160006F6265007A5F6D617800795F6D6178000C
:10117000785F6D696E005265706F7274696E67207A
:10118000656E6473746F70207374617475730A0094
:101190000080BB430080C5430080CA4300000000BC
:1011A000000000000000000020746F6F206C6F6E64
:1011B0006720657874727573696F6E2070726576DA
:1011C000656E7465640A0020636F6C6420657874D2
:1011D000727573696F6E2070726576656E74656482
:1011E0000A00000020C20080C5430080CA43576146
:1011F000726E696E673A20486F6D696E672042753E
:101200006D702044697669736F72203C20310A004A
:101210000202040080BB430080C5430080CA430033
:1012200000A0400000A040000000400000000100BD
:1012300000000100008000555555000000400033BB
:10124000333300AAAA2A004992240000002000C7D4
:10125000711C0099991900D1451700555515003B8F
:10126000B113002449120011111100000010000FE9
:101270000F0F00E3380E0043790D00CCCC0C00C3F7
:10128000300C00E8A20B0064210B00AAAA0A00702F
:101290003D0A009DD80900427B090092240900DC28
:1012A000D30800888808001042080000000800F0F9
:1012B000C107008787070075500700711C07003EB3
:1012C000EB0600A1BC060069900600666606007089
:1012D0003E06006118060017F4050074D105005B96
:1012E000B00500B290050062720500555505007802
:1012F000390500B81E0500050505004EEC04008701
:10130000D40400A1BD040090A7040049920400C1C8
:101310007D0400EE690400C7560400444404005CE8
:101320003204000821040041100400000004003FC2
:10133000F00300F8E0030026D20300C3C30300CC8F
:10134000B503003AA803000A9B0300388E0300C0CF
:101350008103009F750300D0690300505E03001DE8
:1013600053030034480300913D0300333303001658
:10137000290300381F030097150300300C030003F6
:101380000303000BFA020049F10200BAE802005C14
:10139000E002002DD802002DD0020059C80200B092
:1013A000C0020031B90200DAB10200AAAA0200A00C
:1013B000A30200BC9C0200FA9502005C8F0200DFD1
:1013C00088020082820200457C0200277602002704
:1013D000700200436A02007C640200D05E02003F9B
:1013E000590200C8530200FFFDFCFAF8F6F4F2F0CF
:1013F000EEECEAE9E7E5E3E1E0DEDCDAD9D7D5D4E3
:10140000D2D0CFCDCBCAC8C7C5C3C2C0BFBDBCBA7E
:10141000B9B7B6B4B3B2B0AFADACAAA9A8A6A5A4EB
:10142000A2A1A09E9D9C9A99989795949392908F33
:101430008E8D8B8A8988878684838281807F7E7D5A
:101440007B7A797877767574737271706F6E6D6C64
:101450006B6A696867666564636261605F5E5D5C54
:101460005B5A5958585756555453525150504F4E35
:101470004D4C4B4A4A4948474646454443424241FF
:10148000403F3E3E3D3C3B3B3A39383837363535B8
:10149000343332323130302F2E2E2D2C2B2B2A2963
:1014A0002928272726252524232322212120201F00
:1014B0001E1E1D1C1C1B1B1A191918181716161591
:1014C0001514131312121111100F0F0E0E0D0D0C17
:1014D0000C0B0A0A09090808070706060505040493
:1014E0000303020201000020746F6F206C6F6E67AF
:1014F00020657874727573696F6E20707265766599
:101500006E7465640A0020636F6C64206578747281
:101510007573696F6E2070726576656E7465640AA6
:1015200000290A002062797465733B20637263208E
:101530000053657474696E67732053746F726564C9
:10154000202800454550524F4D20496E697469610D
:101550006C697A65640A0048617264636F646564EB
:101560002044656661756C742053657474696E6798
:1015700073204C6F616465640020286D6D29002024
:101580003B204C6576656C696E67200020204D34E9
:1015900032302053004175746F20426564204C65E1
:1015A00076656C696E670020204D39303600205416
:1015B000312045002054302045005374657070651B
:1015C00072206472697665722063757272656E74DA
:1015D0000020204D3536392053310054312045004C
:1015E000543020450020580044726976657220739B
:1015F00074657070696E67206D6F646500204A00C5
:101600002020473239205720490020204D313439DD
:101610002043203B20556E69747320696E2043651A
:101620006C736975730A0054656D706572617475C9
:10163000726520556E697473002020473231203B5B
:10164000004C696E65617220556E69747300454582
:1016500050524F4D206461746173697A65206572E0
:10166000726F722E0A00290A002062797465733B3A
:101670002063726320002073746F72656420736549
:101680007474696E677320726574726965766564D7
:10169000202800202863616C63756C61746564297F
:1016A000210A0020213D2000454550524F4D204346
:1016B0005243206D69736D61746368202D20287317
:1016C000746F7265642920002053697A653A20009E
:1016D000496E6465783A2000000096430000964306
:1016E0000000C841000034420000C8420000C84267
:1016F000F0F7FB4300000C43B80B0000B80B0000F0
:101700006400000010270000204D61726C696E3D7E
:10171000563836290A00454550524F4D207665729D
:1017200073696F6E206D69736D61746368202845FD
:101730004550524F4D3D0024F4D43050C38E20C24A
:10174000A24017828B7011127A910D816CD90AA870
:1017500061E108C7586607615143061E4B5D05C12C
:1017600045A7041A411104093D980371393103401A
:1017700036DB0265339102D4305402802E1D0263A1
:101780002CEE01752AC501B028A001102781018F18
:101790002564012B244B01E0223401AC211F018D73
:1017A000200D01801FFC00841EED00971DDF00B896
:1017B0001CD200E61BC600201BBC00641AB200B29B
:1017C00019A8000A19A0006A189900D117910040C1
:1017D000178B00B516840031167E00B31579003AD8
:1017E000157300C7146F0058146A00EE1366008862
:1017F00013630025135E00C7125B006C12570015BF
:10180000125400C111510070114F0021114B00D62C
:101810001049008D1047004610440002104200C0DD
:101820000F4000800F3E00420F3C00060F3B00CBF4
:101830000E3800930E37005C0E3500270E3400F38F
:101840000D3200C10D3100900D3000600D2E0032C0
:101850000D2D00050D2C00D90C2B00AE0C29008598
:101860000C29005C0C2700350C27000E0C2600E824
:101870000B2400C40B2400A00B23007D0B23005A73
:101880000B2100390B2100180B2000F80A1F00D98A
:101890000A1E00BB0A1E009D0A1D00800A1D00636F
:1018A0000A1C00470A1B002C0A1B00110A1A00F729
:1018B000091A00DD091900C4091900AB09190092C1
:1018C0000917007B091800630917004C0916003638
:1018D000091600200916000A091500F5081500E090
:1018E000081400CC081400B8081400A408140090D0
:1018F0000813007D0812006B0813005808120046F8
:101900000812003408110023081100120811000108
:10191000081100F0071000E0071000D0071000C009
:10192000071000B0070F00A107100091070E0083F9
:10193000070F0074070F0065070E0057070E0049D8
:10194000070E003B070D002E070E0020070D0013A9
:10195000070D0006070D00F9060C00ED060D00E06E
:10196000060C00D4060C00C8060C00BC060C00B027
:10197000060C00A4060B0099060C008D060B0082D5
:10198000060B0077060B006C060B0061060A005779
:10199000060B004C060A0042060A0038060A002E12
:1019A000060A0024060A001A060A001006090007A3
:1019B000060A00FD050900F4050900EB050900E22F
:1019C000050900D9050900D0050900C7050900BEB1
:1019D000050900B5050800AD050800A50509009C2E
:1019E000050800940508008C050800840508007CA3
:1019F000050800740508006C050700650508005D12
:101A0000050700560508004E05070047050700407A
:101A100005080038050700310507002A05070023DF
:101A20000507001C050600160507000F050700083E
:101A300005060002050700FB040600F5040700EE9A
:101A4000040600E8040600E2040700DB040600D5F3
:101A5000040600CF040600C9040600C3040600BD46
:101A6000040600B7040600B1040500AC040600A695
:101A7000040600A00405009B0406009504050090E0
:101A80000406008A04050085040500800406007A27
:101A900004050075040500700405006B040500666C
:101AA000040500610405005C0405005704050052AC
:101AB0000405004D04050048040500430405003EEC
:101AC0000404003A04050035040500300404002C29
:101AD00004050027040400230405001E0404001A62
:101AE00004040016040500110404000D0404000998
:101AF0000405000404040000040400FC030400F8CE
:101B0000030400F4030400F0030400EC030400E801
:101B1000030400E4030400E0030400DC030400D831
:101B2000030400D4030400D0030400CC030400C861
:101B3000030300C503030024F404D9201BC40C5C78
:101B40000E9804C4095F0265077101F405F900FBF2
:101B500004B30048048700C103690058035500031B
:101B6000034500BE023A008402310053022A0029D4
:101B700002250004022000E4011C00C8011900AF86
:101B80000117009801140084011300710110006115
:101B900001100051010E0043010D0036010B002B16
:101BA000010B0020010B00150109000C01090003C5
:101BB000010800FB000800F3000800EB000700E448
:101BC000000600DE000600D8000600D2000600CCA9
:101BD000000500C7000500C2000500BD000400B9F3
:101BE000000400B5000400B1000400AD000400A929
:101BF000000400A5000300A20003009F0004009B56
:101C00000003009800030095000200930003009079
:101C10000003008D0002008B000300880002008694
:101C200000020084000300810002007F0002007DAA
:101C30000002007B000200790002007700010076BC
:101C40000002007400020072000100710002006FC7
:101C50000002006D0001006C0002006A00010069D2
:101C600000020067000100660001006500010064D9
:101C70000002006200010061000100600001005FDD
:101C80000002005D0001005C0001005B0001005AE1
:101C900000010059000100580001005700010056E2
:101CA00000010055000100540001005300000053E2
:101CB0000001005200010051000100500001004FDE
:101CC0000001004E0000004E0001004D0001004CDC
:101CD0000001004B0000004B0001004A00010049D8
:101CE00000010048000000480001004700010046D4
:101CF00000000046000100450000004500010044CE
:101D000000010043000000430001004200000042C7
:101D10000001004100000041000100400001003FBF
:101D20000000003F0001003E0000003E0001003DB9
:101D30000000003D0001003C0000003C0000003CB1
:101D40000001003B0000003B0001003A0000003AA7
:101D5000000100390000003900010038000000389F
:101D60000000003800010037000000370001003695
:101D7000000000360000003600010035000000358C
:101D80000000003500010034000000340000003481
:101D90000001003300000033000000330001003276
:101DA000000000320000003200010031000000316C
:101DB0000000003100010030000000300000003061
:101DC0000001002F0000002F0000002F0000002F56
:101DD0000001002E0000002E0000002E0001002D4A
:101DE0000000002D0000002D0000002D0001002C3F
:101DF0000000002C0000002C0000002C0001002B33
:101E00000000002B0000002B0000002B0001002A26
:101E10000000002A0000002A0000002A000100291A
:101E2000000000290000002900000029000000290E
:101E30000001002800000028000000280000002801
:101E400000000028000100270000002700000027F4
:101E500000000027000000270001002600000026E7
:101E600000000026000000260000002600010025DA
:101E700000000025000000250000002500000025CE
:101E800000000025000100240000002400000024C0
:101E900000000024000000240001002300000023B3
:101EA00000000023000000230000002300000023A6
:101EB0000000002300010022000000220000002298
:101EC000000000220000002200000022000100218A
:101ED000000000210000002100000021000000217E
:101EE000000000210000002100010020000000206F
:101EF0000000002000000020000000200000002062
:101F000000000020000000200001001F0000001F52
:101F10000000001F0000001F0000001F0000001F45
:101F20000000001F0001001E0000001E0000001E37
:101F30000000001E0000003930000033250000873B
:101F4000190000B00F0000DB080000BD04000074A1
:101F50000200003F010000423A0020436F756E749A
:101F600020413A004500626564002C207379737447
:101F7000656D2073746F70706564212048656174AD
:101F800065725F49443A200048656174696E672054
:101F90004661696C65640048656174696E672066B6
:101FA00061696C6564004572723A204D4158544530
:101FB0004D50004D415854454D502074726967672B
:101FC00065726564004572723A204D494E54454D24
:101FD00050004D494E54454D5020747269676765F5
:101FE00072656400202F002040002042403A00200B
:101FF000403A00496E76616C696420657874727548
:102000006465720A0041637469766520457874726C
:10201000756465723A20007C3C3E5E2B3D3F2F5B31
:102020005D3B2C2A225C0043616E6E6F74206F70E2
:10203000656E207375626469722000534420636189
:102040007264206F6B0A006F70656E526F6F742040
:102050006661696C65640A00766F6C756D652E69E2
:102060006E6974206661696C65640A004E6F205366
:102070004420636172640A002E0A006F70656E204E
:102080006661696C65642C2046696C653A2000467F
:10209000696C652073656C65637465640A00205320
:1020A000697A653A200046696C65206F70656E65D7
:1020B000643A2000454E4420535542524F555449EE
:1020C0004E450A002220706F7300222070617265F5
:1020D0006E743A2200535542524F5554494E452092
:1020E00043414C4C207461726765743A2200537509
:1020F0006263616C6C204F766572666C6F77004529
:1021000078636565646564206D617820535542523B
:102110004F5554494E452064657074683A005772B3
:102120006974696E6720746F2066696C653A200077
:10213000667265736800646F696E67002066696C1B
:10214000653A20004E6F7720000A4D3234004D3240
:1021500033202573002F6175746F25632E6700107F
:1021600000600350012C0190012201D001180110E0
:10217000020E0170020401E002FA006003F00000A8
:1021800004E600B004DC00A005D200B006C80000E0
:1021900008BE00A009B400800BAA00D00DA00090DA
:1021A000109600C0138C0070178200901B780010EE
:1021B000206E00C0246400E02D500080353C00A05B
:1021C0003A2800A03D1400003F0000A03FECFF2093
:1021D00020506C616E6E65724275666665724279FA
:1021E0007465733A20002046726565204D656D6FF9
:1021F00072793A200020436F6D70696C65643A20F3
:102200004A756E20203620323032320A00204C616E
:10221000737420557064617465643A2032303232D0
:102220002D30332D3134207C20417574686F723A23
:102230002028467261636B74616C20576F726B73F8
:102240002C2064656661756C7420636F6E666967C7
:10225000290A004D61726C696E2062756766697843
:102260002D322E302E780A0020536F6674776172FB
:10227000652052657365740A002057617463686451
:102280006F672052657365740A002042726F776E23
:10229000206F75742052657365740A002045787448
:1022A00065726E616C2052657365740A00506F77B9
:1022B000657255700A0073746172740A004732388F
:1022C0005859004D31303031006F6B006572726FBC
:1022D000722077726974696E6720746F2066696C0A
:1022E000650A00446F6E6520736176696E672066CB
:1022F000696C652E0A004D32390020503A00205A90
:102300003A0020593A0020583A00656E6473746FA1
:102310007073206869743A200000002100240027AF
:10232000002A002D003000330001010000040107E5
:10233000010A0100000A0B02090C0D0E0807030434
:10234000010000000000000000000000000000008C
:10235000000000000000000000000000000000126B
:10236000111000000000000000000000000000004C
:1023700000000000000000000000002000230026F4
:102380000029002C002F003200000100000301068C
:1023900001090100002200250028002B002E003139
:1023A00000340002010000050108010B01050505CC
:1023B00005070508080808020202020A0A080804BC
:1023C00004040401010101010101010303030303EA
:1023D000030303040707070C0C0C0C0C0C0C0C0279
:1023E00002020206060606060606060B0B0B0B0B80
:1023F0000B0B0B0102102020080810204010204079
:1024000080020102010804020101020408102040B8
:1024100080804020100804020180040201804020D6
:1024200010080402010804020101020408102040FF
:10243000800102040810204080486F6D696E67209B
:102440004661696C656400FF010150726F62696EDC
:1024500067204661696C65640A00205A3A200020B2
:10246000593A200042656420583A2000220A00555B
:102470006E6B6E6F776E20636F6D6D616E643A2068
:102480002200204500205A0020590020204D3932DA
:1024900020580053746570732070657220756E69E2
:1024A0007400544845524D414C2052554E415741BD
:1024B0005900546865726D616C2052756E61776168
:1024C0007900486F6D652025732573257320466953
:1024D0007273740020453A00205A3A0020593A009D
:1024E000583A006F6B0A00526573656E643A2000BB
:1024F0005072696E7465722068616C7465642E2018
:102500006B696C6C28292063616C6C6564210A001E
:1025100059BCA6C711241FBECFEFD1E2DEBFCDBF8D
:1025200000E00CBF84B780937E1514BE0FB6F894FC
:10253000A89580916000886180936000109260008F
:102540000FBE13E0A0E0B2E0E0EEF9EA01E00BBF5D
:1025500002C007900D92A43AB107D9F725E1A4EA89
:10256000B3E001C01D92AE37B207E1F712E1C9E84E
:10257000D2E100E006C021970109802FFE010E94F0
:1025800069D1C838D10780E00807A9F70E94CDBEFD
:102590000C94DFD40C94000012988D5F21E030E0A1
:1025A00001C0220F8A95EAF78091FA0A822B809364
:1025B000FA0A08958F929F92AF92BF92CF92DF92C4
:1025C000EF92FF920F931F93DC011896CD90DD9050
:1025D000ED90FC901B974D915D916D917C911397BF
:1025E00014960D911D912D913C911797EAEEFAE00A
:1025F0004A015B01800E911EA21EB31E8082918251
:10260000A282B382401B510B620B730B4483558330
:1026100066837783C086D186E286F3861C968D9189
:102620009D910D90BC91A02D84879587A687B78733
:102630001F910F91FF90EF90DF90CF90BF90AF90E0
:102640009F908F900895BC012091DB0A3091DC0AA5
:102650004091DB0A5091DC0A2417350731F481E000
:102660002617370709F080E008959A01F1CFEF921D
:10267000FF920F931F93E092B103F092B203009385
:10268000B3031093B4036093B5037093B6038093C0
:10269000B7039FEFFF27621B730B840B30F4809509
:1026A00070956195790B890B99279093B003A6E0FB
:1026B0006A9F0092A403512DEE277A9F500DE11DD1
:1026C0008A9FE00D5093A503E093A603AFE06A9FB5
:1026D0000092A803512DEE277A9F500DE11D8A9F8D
:1026E000E00D5093A903E093AA03AAE06A9F009229
:1026F000AC03512DEE277A9F500DE11D8A9FE00D0E
:102700005093AD03E093AE031F910F91FF90EF90B4
:10271000089593E0980F21E030E002C0220F331FAC
:102720009A95E2F7209530959091FA0A2923209303
:10273000FA0A882321F0813021F081E00895129A6D
:10274000FCCF479AFACF882319F0813019F0089509
:1027500080E022CF47988091FA0A80618093FA0A3C
:10276000089521E030E0082E02C0220F331F0A94A2
:10277000E2F7209530959091FA0A29232093FA0ADE
:10278000813051F0823069F05F9A8091490C8E7FE0
:102790008093490C81E008958A9A8091490C8D7F3D
:1027A000F7CF809108018095817080930601809118
:1027B000490C8B7FEDCF813079F0823079F05F98D2
:1027C00021E030E001C0220F8A95EAF78091FA0AF1
:1027D000822B8093FA0A08958A98F2CF909108018B
:1027E000917090930601ECCF9F92AF92BF92CF92DF
:1027F000DF92EF92FF920F931F93CF93DF9300D05E
:102800001F921F92CDB7DEB7E7EEF3E10027BB279B
:10281000462F572FA82FAA2341F4A52F542FB85F76
:10282000AA2319F4A52F5527B85FA03138F4529583
:10283000A295452F4F70507FA42BBC5FA03428F485
:10284000550FAA1F550FAA1FBE5FA03818F4550FC9
:10285000AA1FB395550FAA1FEA0FF01F449151E02C
:10286000AA27B85079F1C0F0B0FF02C0440F551F3D
:10287000B1FF04C0440F551F440F551FB2FF06C0DF
:1028800052954295142F1F70407F512BB3FF1AC0F1
:10289000A52F542F442716C0B195B0FF02C05595FF
:1028A0004795B1FF04C05595479555954795B2FF9B
:1028B00005C05295407F4295452B5F70B3FF02C023
:1028C000452F5527DD24CC24BB24B2E0649FD018CB
:1028D000C108B00AB00B749FC018B108B00B849F38
:1028E000B018B109659FC018B108B00B759FB0183A
:1028F000B109859FB0196A9FB018B1097A9FB019C4
:102900004D9DA12C99243327992722275D9DA00C4A
:10291000911C301F901F201FAD9D900C311D901FEA
:10292000201F4C9DA00C911C301F901F201F5C9DF0
:10293000900C311D901F201FAC9D300D911D201F4C
:102940004B9D900C311D901F201F5B9D300D911DE4
:10295000201FAB9D900D211D4B9F300D911D201F01
:102960005B9F900D211DAB9F200DB1E0BB24CC24BB
:10297000DD24639FD018C108B00AB00B739FC01844
:10298000B108B00B839FB018B109699FC018B10896
:10299000B00B799FB018B109899FB019629FB01828
:1029A000B109729FB019D61AC70AB80A20F0B1E06F
:1029B0003B0F901F201F1124792F632F90E0822F4F
:1029C0000F900F900F900F900F90DF91CF911F916C
:1029D0000F91FF90EF90DF90CF90BF90AF909F90BE
:1029E0000895AF92BF92CF92DF92EF92FF920F9332
:1029F0001F93CF93DF93CDE4DCE002E614E08DE596
:102A0000A82E8CE0B82EC12CD12C7601C3946991EC
:102A10007991899199910E9409CD288939894A89AA
:102A20005B890E946ACD0E94F1D2F8016193719393
:102A3000819391938F01C616D706E806F90610F424
:102A40006B017C01AC16BD0611F76FEF7FEFCB0178
:102A5000A70196010E94DFD0209372043093730483
:102A60004093740450937504DF91CF911F910F919F
:102A7000FF90EF90DF90CF90BF90AF9008957F923E
:102A80008F929F92AF92BF92CF92DF92EF92FF927E
:102A90000F931F93CF93DF9370902E0AC6E5D4E077
:102AA0009FE1C92E92E0D92E23E2E22E22E0F22EFF
:102AB00006E21AE0772009F45EC0F8018080918078
:102AC000A280B38020E030E0A901C501B4010E94DA
:102AD00005CD882309F44FC020E030E040E05FE3FB
:102AE000C501B4010E946ACD9B01AC010E946ACD70
:102AF0002BED3FE049E450E40E946ACD9B01AC011C
:102B000060E070E080E89FE30E9484D24B015C01AA
:102B100089929992A992B992F601619171916F018E
:102B2000072E000C880B990B0E940BCD2AE037ED85
:102B300043E25CE30E946ACDA50194010E946ACD44
:102B4000F70161937193819391937F010C5F1F4F04
:102B5000F4E0CE35DF0709F0ADCFDF91CF911F91C3
:102B60000F91FF90EF90DF90CF90BF90AF909F902C
:102B70008F907F900895812C912C80E8A82E8FE370
:102B8000B82EC6CF8091EB109091EC10891B8F70FE
:102B900019F490E080E008959091E810992351F0A5
:102BA000833030F48FEF890F19F08093E810F1CF64
:102BB0001092E8108091EC1028E5829FC00111244A
:102BC0008A579B4FFC01208120FDE3CF2091EC1020
:102BD0002F5F2F702093E9103091EC102091EA10B4
:102BE000321304C02091E9102093EA1008959091C7
:102BF0006F0081E091FD02C080E0089590916F0028
:102C00009D7F90936F000895FC017081472F50E0E5
:102C1000062E02C0559547950A94E2F740FF14C06E
:102C20004091830B50E0062E02C0559547950A94BB
:102C3000E2F740FF09C021E030E001C0220F6A95B1
:102C4000EAF72095272320830895CF93DF9324E08C
:102C5000829FC0011124EC01CB56D34FFC01EA5CEA
:102C6000F34F865B9B4FDC012D913D914D915C9123
:102C700060817181828193810E94A8D16883798368
:102C80008A839B83DF91CF91089580914604909130
:102C90004704A0914804B091490480934D02909359
:102CA0004E02A0934F02B093500280914404909141
:102CB000450490931E0280931D02089580914D0259
:102CC00090914E02A0914F02B09150028093460421
:102CD00090934704A0934804B093490480911D0247
:102CE00090911E02909345048093440484E690E002
:102CF00090931E0280931D020895CF93DF939091CD
:102D0000370491111BC0C0911B02D0911C02219766
:102D100097E1899FF0011124EB5AF44F20E030E055
:102D200040E05FE364817581868197810E94A8D12C
:102D30000E94ECD221E06C177D070CF020E0822F7E
:102D4000DF91CF910895CF93DF93DB01F9019C913F
:102D50009130C1F0943080F094509C938830D1F43D
:102D600080819181009771F0019791838083480F52
:102D7000591FEA01188206C08C3539F49C5F9C9378
:102D8000943041F4DF91CF9108958B3339F781E08E
:102D90008C93F8CF20813181B9016F5F7F4F7183B0
:102DA0006083420F531FEA018883808191818F35B0
:102DB00091056CF7E7CF0F931F9381E000911711F6
:102DC000109118112091191130911A11409113117D
:102DD0005091141160911511709116110417150777
:102DE0002607370708F480E01F910F91089590E0BF
:102DF00080E0089520910D04833021F425FD0CC05E
:102E000024FD0CC030E0A90102C0559547958A9574
:102E1000E2F7CA018170089581E0089580E0089585
:102E20008091290484FD0BC080912B0487FD07C08D
:102E300090912C04937081E019F480E0089581E072
:102E400008952FEB280F2A3108F047C0E22FF0E059
:102E50008091290490912A04A0912B04B0912C0414
:102E600004C0B695A795979587952A95D2F780FDCA
:102E700002C081700895E15FFB4FE081EE2341F1D4
:102E800080914B0C90914C0CE80FF92FF11D808133
:102E900090ED980F9A3030F08E3251F4818180534A
:102EA0008A3098F4F0930604E093050481E00895D5
:102EB0008D3211F08B3249F4818190ED980F9A3068
:102EC00088F38E3211F48281EACFF0E0E0E0EACFBD
:102ED0001092060410920504E9CF80E00895B1DF56
:102EE000882341F081E02091050430910604232BD2
:102EF00009F480E008958F929F92AF92BF92CF9293
:102F0000DF92EF92FF92C090770AD090780AE0901B
:102F1000790AF0907A0A20E030E0A901C701B601F1
:102F20000E9405CD8823E1F1A701960160E070E0E1
:102F300080E89FE30E9484D26B017C0180907B0A31
:102F400090907C0AA0907D0AB0907E0A20E030E04C
:102F5000A901C501B4010E9405CD882329F1A5016D
:102F6000940160E070E080E89FE30E9484D2C09208
:102F7000F803D092F903E092FA03F092FB03609316
:102F8000FC037093FD038093FE039093FF03FF9077
:102F9000EF90DF90CF90BF90AF909F908F9008956B
:102FA000C12CD12C7601CACF60E070E0CB01DFCF1D
:102FB0002F923F924F925F926F927F928F929F9249
:102FC000AF92BF92CF92DF92EF92FF920F931F9337
:102FD000CF93DF93CDB7DEB72E970FB6F894DEBF51
:102FE0000FBECDBF8A83162F4983822E262F30E055
:102FF0003A872987E4E08E9FC00111249C878B8744
:10300000FC01E20FF31FEE0FFF1FEE0FFF1FE15D4C
:10301000F54F60817181828193819B01AC010E9497
:1030200054D4882309F42EC19A81E9819E0F882DFA
:10303000810F24E0929FF0011124A985BA85AE0F7B
:10304000BF1FAA0FBB1FAA0FBB1FA15DB54FAC903E
:103050001196BC9011971296CC9012971396DC9013
:103060003981930F24E0929FA0011124A985BA858C
:10307000A40FB51FAA0FBB1FAA0FBB1FA15DB54FA1
:10308000EC901196FC90119712960C911297139652
:103090001C91282F30E0AB85BC85A20FB31FAA0F6F
:1030A000BB1FAA0FBB1FA15DB54F9C9011967C90D2
:1030B000119712966C90129713965C90880D90E081
:1030C000AB85BC85A80FB91FAA0FBB1FAA0FBB1FDA
:1030D000A15DB54F8C9011964C90119712963C9033
:1030E000129713962C90E20FF31FEE0FFF1FEE0FB7
:1030F000FF1FE15DF54F3081398321812A833281C1
:103100003B8323812C83FA01E80FF91FEE0FFF1F89
:10311000EE0FFF1FE15DF54F30813D8381818E838E
:1031200092819F83238128879701A801B701C80155
:103130000E9454D4882321F0E12CF12C00E010E00F
:103140009501A601B501C6010E9454D4882311F04F
:1031500057016801282D342D432D522D682D742DD3
:10316000832D922D0E9454D4882321F0812C412C50
:10317000312C212C292D372D462D552D692D772DBC
:10318000862D952D0E9454D4882321F0982C742CE0
:10319000632C522C2D813E814F8158856D817E811B
:1031A0008F8198850E9454D4882321F01D821E822D
:1031B0001F82188629813A814B815C8169817A81DD
:1031C0008B819C810E9454D4882341F03D813983B6
:1031D0008E818A839F819B83E885EC832B853C8548
:1031E00089859A85280F391F220F331F220F331F1D
:1031F000215D354F3A8729879501A601B501C601A2
:103200000E94A8D19701A8010E94A7D16B017C015F
:10321000292D372D462D552D692D772D862D952D50
:103220000E94A8D1282D342D432D522D0E94A7D1C4
:103230009B01AC01C701B6010E94A8D16B017C01C2
:1032400029813A814B815C8169817A818B819C8162
:103250000E94A8D12D813E814F8158850E94A7D11F
:103260009B01AC01C701B6010E94A8D120E030E06B
:1032700040E450E40E9484D2E985FA85608371833A
:10328000828393832E960FB6F894DEBF0FBECDBF18
:10329000DF91CF911F910F91FF90EF90DF90CF9032
:1032A000BF90AF909F908F907F906F905F904F9066
:1032B0003F902F900895682F880F770B880B990BFC
:1032C0000C94F09A0F931F938091130A813019F593
:1032D0000E94A8A30091070A1091080A2091090AE8
:1032E00030910A0A601B710B820B930B28EE33E0BE
:1032F00040E050E00E94DFD060910B0A70910C0A10
:1033000080910D0A90910E0A620F731F841F951F02
:103310001F910F91089560910F0A7091100A80918A
:10332000110A9091120AD6CFCF93DF93C091520B1E
:10333000D091530B209729F160914E0B70914F0B58
:103340008091500B9091510B0E94ECD26E5F7F4F99
:1033500024976C177D07ACF470932B0B60932A0BAA
:103360000E94A8A36058774C8E4F9F4F60932C0B00
:1033700070932D0B80932E0B90932F0BDF91CF9199
:10338000089510922C0B10922D0B10922E0B109270
:103390002F0BF4CF0F931F93CF93DF93062F10E0E3
:1033A000F801EE0FFF1FE35EFC4FC081D1812F9724
:1033B0008C179D070CF4EC0187E1809FF001819F41
:1033C000F00D1124EB5AF44FD187C087209729F1D3
:1033D00064817581868197810E94ECD26E5F7F4FF8
:1033E00025976C177D07CCF486E0809FE001819FD4
:1033F000D00D1124C05DD44F798368830E94A8A3A7
:1034000060547B428E4F9F4F6A837B838C839D8366
:10341000DF91CF911F910F91089586E0809FF00179
:10342000819FF00D1124E05DF44F1282138214820B
:103430001582EECF0F931F93CF93DF9301E61CE02D
:10344000C6E7D4E0F80121913191419151918F016A
:1034500060E070E080E89FE30E9484D269937993F2
:1034600089939993F4E0C638DF0761F70E942E9C98
:10347000DF91CF911F910F91B4CA2F923F924F923B
:103480005F926F927F928F929F92AF92BF92CF92F4
:10349000DF92EF92FF920F931F93CF93DF93CDB7FD
:1034A000DEB76C970FB6F894DEBF0FBECDBF8C01B0
:1034B0005B015A834983FC01E95BFF4F2081318125
:1034C0004281538129873A874B875C87CA01B901BA
:1034D0000E9409CD6B017C01D5012D913D914D914B
:1034E0005C910E946ACD0E946ED22B013C01E98161
:1034F000FA812081318142815381C701B6010E9446
:103500006ACD0E946ED24B015C01C301B2010E94E0
:10351000F1D2698B7A8B8B8B9C8B68377105810517
:10352000910540F428E730E040E050E0298B3A8BE9
:103530004B8B5C8BC501B4010E94F1D26D877E87F5
:103540008F87988B683771058105910540F448E7AE
:1035500050E060E070E04D875E876F87788BF80100
:10356000ED5AFF4F4080518062807380C301B201E9
:103570000E940BCD69837A838B839C8369897A89C6
:103580008B899C890E9409CD6D8B7E8B8F8B988F48
:1035900020E030E0A90169817A818B819C810E94C1
:1035A00005CD882309F4E1C1A7019601C701B60141
:1035B0000E946ACD4B015C012D893E894F89588D4F
:1035C000CA01B9010E946ACD9B01AC01C501B401D9
:1035D0000E94A7D14B015C0129813A814B815C811A
:1035E000CA01B9010E94A8D19B01AC01C501B40177
:1035F0000E9484D20E946ED20E94F1D26D837E839B
:103600008F83988766277727CB0164197509860908
:1036100097090E940BCD4B015C016D857E858F85DE
:1036200098890E9409CD2B013C0120E030E0A901DE
:10363000C501B4010E9405CD882309F49AC1A301F4
:103640009201C301B2010E946ACD698F7A8F8B8F7C
:103650009C8FA7019601C701B6010E946ACD9B010C
:10366000AC01698D7A8D8B8D9C8D0E94A7D16B01E9
:103670007C01A5019401C501B4010E94A8D19B0160
:10368000AC01C701B6010E9484D20E941DD3D801AB
:1036900095968D909D90AD90BC9098977501640122
:1036A0002D813E814F815885C21AD30AE40AF50A5A
:1036B0000E94F1D2C61AD70AE80AF90AF7FE8EC0AC
:1036C0002D893E894F89588DCA01B9010E946ACD62
:1036D0006B017C0129813A814B815C81CA01B9016E
:1036E0000E94A8D169877A878B879C8720E030E089
:1036F000A90169817A818B819C810E9405CD8823F3
:1037000009F43BC1C501B4010E9409CD29853A8560
:103710004B855C850E946ACDA70196010E94A7D1C6
:103720006D837E838F839887A3019201C301B201C9
:103730000E946ACD9B01AC016D817E818F8198854D
:103740000E94A8D12B013C0120E030E040E850E489
:1037500069817A818B819C810E946ACD9B01AC0139
:10376000C301B2010E9484D20E946ED22B013C019F
:1037700020E030E0A9010E94CED318161CF0412CA5
:10378000512C3201C301B2010E94F1D26D837E83BC
:103790008F83988786169706A806B90620F48D822F
:1037A0009E82AF82B8866D817E818F8198850E94CE
:1037B00009CD29853A854B855C850E946ACDA70194
:1037C00096010E94A8D10E9413D40E94F1D2698769
:1037D0007A878B879C87C12CD12C760169857A8565
:1037E0008B859C8529893A894B895C89621B730B7F
:1037F000840B950B0E9409CD29813A814B815C8114
:103800000E9484D220E034E244EF59E40E946ACD61
:103810000E94F1D24B015C0169857A858B859C857C
:103820002D853E854F855889621B730B840B950B44
:103830000E9409CD29813A814B815C810E9484D20A
:1038400020E034E244EF59E40E946ACD0E94F1D2B4
:103850002B013C013FE683169104A104B10408F05A
:1038600090C0F401EE0FFF1FEE0FFF1FE55DFD4E50
:1038700085919591A591B4918983292E3A2EBD8B7E
:103880004FE6441651046104710408F083C0F2014C
:10389000EE0FFF1FEE0FFF1FE55DFD4E45915591A9
:1038A000659174919A01CB014D815E816F8178851C
:1038B000D8019A964D935D936D937C939D974C0D93
:1038C0005D1D6E1D7F1DF80146A757A760AB71AB4C
:1038D000E55BFF4F49895A896B897C894083518315
:1038E00062837383D6968D929D92AD92BC92D99746
:1038F000F80142AE53AE64AE75AEFE964981408388
:10390000218232825D89538334962083318382837E
:10391000938369857A858B859C85D2966D937D93FB
:103920008D939C93D5973D962D853E854F855889DF
:1039300020833183428353836C960FB6F894DEBFA5
:103940000FBECDBFDF91CF911F910F91FF90EF90F0
:10395000DF90CF90BF90AF909F908F907F906F90AF
:103960005F904F903F902F90089560E070E0CB0102
:1039700041CE60E070E0CB0188CE60E070E0CB012A
:10398000F3CEC501B4010E94F4136983272E382EAB
:103990009D8B76CFC301B2010E94F4139B0184CFAB
:1039A0004F925F926F927F928F929F92AF92BF924F
:1039B000CF92DF92EF92FF920F931F93CF93DF93FB
:1039C000EC0120916F0A3091700A4091710A509178
:1039D000720A688179818A819B810E94A7D16B01DB
:1039E0007C012091730A3091740A4091750A5091BC
:1039F000760A6C817D818E819F810E94A7D14B01C7
:103A00005C01A7019601609104027091050280910A
:103A10000602909107020E9405CD882309F459C03F
:103A2000C0920402D0920502E0920602F0920702D0
:103A30002091F8033091F9034091FA035091FB0370
:103A4000C701B6010E946ACD2B013C010E941DD323
:103A50006B017C0120E030E0A9010E9405CD87FDCB
:103A600079C020E030E040E450E4C701B6010E9494
:103A7000CED318162CF4C12CD12CA0E4EA2EFE2CA7
:103A8000A7019601C301B2010E94A7D12B013C01FD
:103A900020E030E0A9010E9405CD87FD5FC0409283
:103AA000F0035092F1036092F2037092F303C701A6
:103AB000B6010E94ECD26093EE03062E000C770B49
:103AC0006F5F7F4F6330710514F063E070E06093C7
:103AD000EC03D0910202C091EE03A5019401609124
:103AE00008027091090280910A0290910B020E94D3
:103AF00005CD81113CC0DC1393C02091D4033091DB
:103B0000D5034091D6035091D7036091F003709193
:103B1000F1038091F2039091F3030E946ACD20910A
:103B2000D8033091D9034091DA035091DB030E940E
:103B3000A8D1DF91CF911F910F91FF90EF90DF906F
:103B4000CF90BF90AF909F908F907F906F905F903D
:103B50004F900895C12CD12C760192CF1092F00392
:103B60001092F1031092F2031092F303A0CF80920F
:103B7000080290920902A0920A02B0920B022091D0
:103B8000FC033091FD034091FE035091FF03C501FA
:103B9000B4010E946ACD4B015C010E941DD36B01F0
:103BA0007C0120E030E0A9010E9405CD87FDFDC029
:103BB00020E030E040E450E4C701B6010E94CED3DB
:103BC00018162CF4C12CD12CF0E4EF2EFE2CA701FA
:103BD0009601C501B4010E94A7D14B015C0120E010
:103BE00030E0A9010E9405CD87FDE3C08092F40377
:103BF0009092F503A092F603B092F703C701B601C5
:103C00000E94ECD26093EF03062E000C770B6F5FDF
:103C10007F4F6330710514F063E070E06093ED0353
:103C20000091EF03DC1305C080910302801709F4B3
:103C300071C08091EE039091EF0390930302809303
:103C40000202002E000C110B24E0C202C00111245C
:103C5000FC01E00FF11FEE0FFF1FEE0FFF1FE15DF4
:103C6000F54F20813181428153812093E8033093C5
:103C7000E9034093EA035093EB03C091ED030C2E4C
:103C8000000CDD0BFC01EC0FFD1FEE0FFF1FEE0F14
:103C9000FF1FE15DF54F60817181828193810E94F8
:103CA000A7D16093E4037093E5038093E6039093B8
:103CB000E7038091EC0324E08202C0011124FC019F
:103CC000E00FF11FEE0FFF1FEE0FFF1FE15DF54F3D
:103CD00020813181428153812093E0033093E103BD
:103CE0004093E2035093E303C80FD91FCC0FDD1FAD
:103CF000CC0FDD1FC15DD54F688179818A819B81A1
:103D00000E94A7D16093DC037093DD038093DE03F0
:103D10009093DF038090F4039090F503A090F60356
:103D2000B090F7032091E4033091E5034091E6035E
:103D30005091E703C501B4010E946ACD2091E803C8
:103D40003091E9034091EA035091EB030E94A8D11E
:103D50006B017C01C092D803D092D903E092DA03C0
:103D6000F092DB032091DC033091DD034091DE0310
:103D70005091DF03C501B4010E946ACD2091E00398
:103D80003091E1034091E2035091E3030E94A8D1F6
:103D9000A70196010E94A7D16093D4037093D50325
:103DA0008093D6039093D703A8CEC12CD12C760153
:103DB0000ECF1092F4031092F5031092F6031092B6
:103DC000F7031CCFCF93DF932091840B222371F054
:103DD000EC01E6DD9B01AC01688579858A859B85D0
:103DE0000E94A7D1688779878A879B87DF91CF91C7
:103DF00008952F923F924F925F926F927F928F928F
:103E00009F92AF92BF92CF92DF92EF92FF920F9369
:103E10001F93CF93DF93D62FC72FFC018080918013
:103E2000A280B380C501B40120E831E541E050E053
:103E30000E94DFD0C9016DE671E00E9442D16B01A2
:103E40007C01C501B40120E13EE040E050E00E9469
:103E5000DFD0CA01B90128E130E040E050E00E9423
:103E6000DFD0362E272E062F172F8CE3482E512C0D
:103E7000612C712CC501B401A30192010E94DFD015
:103E8000B62EA72ECA01B901A30192010E94DFD06C
:103E9000CB01C114D10479F1AF92BF927F936F939C
:103EA0002F923F92FF92EF92DF92CF9280EC9FE0B1
:103EB0009F938F93CF93DF930E94D6CC8DB79EB7FD
:103EC0000E960FB6F8949EBF0FBE8DBF8D2F9C2F00
:103ED000DF91CF911F910F91FF90EF90DF90CF90E6
:103EE000BF90AF909F908F907F906F905F904F901A
:103EF0003F902F900895E114F104C9F0AF92BF9262
:103F00007F936F932F923F92FF92EF9280EB9FE00F
:103F10009F938F93CF93DF930E94D6CCEDB7FEB7DC
:103F20003C960FB6F894FEBF0FBEEDBFCFCF012B6E
:103F3000B9F0AF92BF927F936F932F923F9284EA32
:103F40009FE09F938F93CF93DF930E94D6CC8DB742
:103F50009EB70A960FB6F8949EBF0FBE8DBFB6CF20
:103F6000892BA9F0AF92BF927F936F938CE99FE06A
:103F70009F938F93CF93DF930E94D6CCEDB7FEB77C
:103F800038960FB6F894FEBF0FBEEDBF9FCFAF922D
:103F9000BF9288E99FE09F938F93CF93DF930E9416
:103FA000D6CC0F900F900F900F900F900F908ECF58
:103FB0008091050490910604009731F04AE050E0AA
:103FC00070E060E00C943ACA60E070E0CB010895C4
:103FD000EFDF97FD0AC0ECDF6F3F710581059105AA
:103FE00009F02CF4E5DF862F089580E008958FEF27
:103FF0000895CF93C62F0E946F17882311F0CF9199
:10400000E7CF8C2FCF9108958091050490910604FD
:10401000892B39F0DDDF91E0811101C090E0892F1B
:10402000089591E0FCCFCF93DF93C82FD62F0E9445
:104030006F17882319F0DF91CF91E6CF8C2F0E9464
:104040002117811101C08D2FDF91CF910895B0DF2D
:10405000CB010895CF93DF93EB010E946F17882364
:1040600019F0DF91CF91F3CFCE01DF91CF91089579
:104070000F931F93CF9380910504909106040097AE
:10408000E9F0FC018F01C1912C2F2F7D81F0C53407
:1040900011F0C536B9F7F801108270E060E00E94B7
:1040A000E5C8F801C083CF911F910F91089570E08A
:1040B00060E0CF911F910F910C94E5C860E070E033
:1040C000CB01F1CFCF92DF92EF92FF926A017B0199
:1040D0000E946F17882329F0FF90EF90DF90CF9018
:1040E000C7CFC701B601FF90EF90DF90CF90089542
:1040F0008F929F92AF92BF92CF92DF92EF92FF92F8
:104100000F931F93CF9381EAE82E8BE0F82E08E6F9
:1041100012E095E9C92E9CE0D92EC0E088E58C0F0D
:104120000E946F17882309F4A3C0A2DF4B015C0132
:104130008C2F0E94FA16882309F490C0F801208180
:10414000318142815381C501B4010E94A8D1F70198
:104150006083718382839383CF5FF4E0EF0EF11C61
:104160000C5F1F4F84E0C80ED11CC330B9F685E444
:104170000E946F17882309F486C07ADF6B017C01E7
:1041800083E00E94FA16882371F020917402309126
:1041900075024091760250917702C701B6010E94E4
:1041A000A8D16B017C01C092AD0BD092AE0BE09216
:1041B000AF0BF092B00B40E050E0BA0186E482DF32
:1041C00020E030E0A9010E94CED318167CF450DF25
:1041D00020E030E040E752E40E9484D260934D0238
:1041E00070934E0280934F02909350028091060A82
:1041F00083FD28C08091210C882321F12091740235
:104200003091750240917602509177026091AD0B2A
:104210007091AE0B8091AF0B9091B00B0E94A7D123
:1042200020912E0C30912F0C4091300C5091310C7C
:104230000E94A8D160932E0C70932F0C8093300CA9
:104240009093310CCF911F910F91FF90EF90DF90E1
:10425000CF90BF90AF909F908F900895F6012081EE
:10426000318142815381C501B4010E94A7D16FCF32
:10427000F80180819181A281B381F70180839183CC
:10428000A283B38369CF8091740290917502A0914B
:104290007602B09177028093AD0B9093AE0BA09312
:1042A000AF0BB093B00B87CFCF92DF92EF92FF921C
:1042B0000F931F93CF93DF936B017A01EC01C454EA
:1042C000DC4F28813CE0389F8001399F100D11247C
:1042D00027FF24C0FB011182108288818F5F8883B1
:1042E00088819801280F311D87FD3A95C9012091D9
:1042F000D610F6012817190629F024F088818C3091
:104300000CF43CC080819181049680349C4908F46F
:1043100075C0F60180819181049672C088819801F0
:10432000280F311D87FD3A95C9012091D610281715
:10433000190699F294F28881A801480F511D87FD52
:104340005A95FA01EE0FFF1FE40FF51FE257FF4EDB
:10435000808187FFC2CF8881F801E80FF11D87FDBA
:10436000FA95CF01EE0FFF1FE80FF91FE257FF4E3E
:10437000808160E08F770E9467A1AFCF80819181BB
:104380002881A801420F511D27FD5A959A01FA0173
:10439000EE0FFF1FE20FF31FE257FF4E2181328124
:1043A000820F931FF7019183808388819801280FE2
:1043B000311D87FD3A95F901EE0FFF1FE20FF31F44
:1043C000E257FF4E808187FF20C08881080F111DB2
:1043D00087FD1A95F801EE0FFF1FE00FF11FE2575E
:1043E000FF4E808161E08F77DF91CF911F910F9118
:1043F000FF90EF90DF90CF900C9467A180E49CE950
:10440000F701918380838FEF8883DF91CF911F9194
:104410000F91FF90EF90DF90CF9008958F929F9231
:10442000AF92BF92CF92DF92EF92FF920F931F93C2
:10443000CF93DF93DC0170E0FB01EE0FFF1FE75D20
:10444000FC4F20813181695D7C4FFB019081D92E29
:1044500080E0E82EF12CB7016D0D711D7595679503
:10446000611119C0F901329665917491072E000C03
:10447000880B990B0E940BCDDF91CF911F910F916B
:10448000FF90EF90DF90CF90BF90AF909F908F9074
:104490000895D62EE0CF681711F0D6120CC0492F20
:1044A0004150550BFA01EE0FFF1FEE0FFF1F329622
:1044B000E20FF31FD9CFAB0141505109440F551FF3
:1044C000440F551FF901E40FF51F05911491FA01EE
:1044D0003496E20FF31FC591D491A017B107CCF227
:1044E000862FCA17DB070CF4B4CFFA013296E20F1D
:1044F000F31FE590F490FA013696E20FF31FC59092
:10450000D490BD01601B710B072E000C880B990B1A
:104510000E940BCD4B015C01B6016E197F09072E7D
:10452000000C880B990B0E940BCD9B01AC01C501BF
:10453000B4010E946ACD4B015C01BE01601B710B8E
:10454000072E000C880B990B0E940BCD9B01AC0130
:10455000C501B4010E9484D24B015C01B701FF0C7C
:10456000880B990B0E940BCD9B01AC01C501B401D6
:104570000E94A8D181CF0F930FB70F9300916E00C7
:104580000D7F00936E0078940F930BB70F930CB7C9
:104590000F921F922F933F934F935F936F937F934D
:1045A0008F939F93AF93BF93EF93FF9311248FD378
:1045B000FF91EF91BF91AF919F918F917F916F91FB
:1045C0005F914F913F912F911F900F900CBF0F91D2
:1045D0000BBF0F910260F89400936E000F910FBF14
:1045E0000F911895EF92FF920F931F93CF93DF9344
:1045F00010923D0B60E090E080E00E94CA19C5E592
:10460000DBE01A8661E090E080E00E94CA1919A2FE
:104610002C9802E011E0F80180818071C0E0D1E0C7
:1046200088838AE4E82E8BE0F82EF7011186108645
:104630000E949419F7011286F801808180728883A4
:10464000DF91CF911F910F91FF90EF9008958F927E
:104650009F92AF92BF92CF92DF92EF92FF920F9311
:104660001F93CF93DF93BCE1A0E06A2F70E0AB0112
:104670004B0F511D55954795411119C0E1E6F1E2E7
:1046800065917491072E000C880B990B0E940BCD3D
:10469000DF91CF911F910F91FF90EF90DF90CF901E
:1046A000BF90AF909F908F900895B42FE0CFA41744
:1046B00011F0B41303C0EDECF1E2E2CF9A01215006
:1046C0003109220F331F220F331FF901E15AFE4D2A
:1046D000E590F490F901ED59FE4DC591D4918E15F8
:1046E0009F051CF3A42FC817D9070CF4BECFF901FE
:1046F000EF59FE4D05911491F901EB59FE4DC5900E
:10470000D490BC016E197F09072E000C880B990B01
:104710000E940BCD4B015C01B601601B710B072E93
:10472000000C880B990B0E940BCD9B01AC01C501BD
:10473000B4010E946ACD4B015C01BE016E197F0974
:10474000072E000C880B990B0E940BCD9B01AC012E
:10475000C501B4010E9484D26B017C01B801110F24
:10476000880B990B0E940BCD9B01AC01C701B601D0
:104770000E94A8D18DCF0F930FB70F9300916E00B9
:104780000F930D7F00936E0000916F000D7F0093DB
:104790006F000F930BB70F930CB70F921F922F93CD
:1047A0003F934F935F936F937F938F939F93AF93B9
:1047B000BF93EF93FF931124EFD3FF91EF91BF913C
:1047C000AF919F918F917F916F915F914F913F91A9
:1047D0002F911F900F900CBF0F910BBF0F91026094
:1047E000F89400936F000F9100936E000F910FBF2C
:1047F0000F91189500008091340C80FF27C0899A92
:104800008FEF8093930A8091340C81FF22C08F9A9E
:104810008FEF8093940A8091340C82FF1DC08091A9
:104820000B0180958270809309018FEF8093950A28
:104830008091970A9091340C93FF17C0811113C097
:1048400016988FEF8093960A00000895899881E06A
:10485000D8CF8F9881E0DDCF80910B01827080935B
:10486000090181E0E3CF439AECCF811103C0169A8E
:1048700081E0E8CF4398FCCFCF92DF92EF92FF9296
:104880000F931F93CF93DF9344EC50E070E060E010
:1048900082E590E10E9405AA02E510E1F80113AE5D
:1048A00043E051E860E070E1C8010E9439AAC0EB22
:1048B000D4E0F801D2AFC1AFC12CD12CE12C8FE3F1
:1048C000F82EC586D686E786F08A60EB74E0C801CC
:1048D0000E942EA964E0C8010E94A798C8010E9406
:1048E0005E9C60E8C8010E94E6A844E25EE06DE0DC
:1048F00078ECC8010E94D1A9C8010E94529C68ECC2
:1049000070E080E090E00E941DA344EC50E070E075
:1049100060E086E190E10E9405AA06E110E1F8015D
:1049200013AE43E051E860E070E1C8010E9439AA8B
:10493000F801D2AFC1AFC586D686E786F08A60EBB4
:1049400074E0C8010E942EA964E0C8010E94A798E3
:10495000C8010E945E9C60E8C8010E94E6A844E28B
:104960005EE06DE078ECC8010E94D1A9C8010E9408
:10497000529C68EC70E080E090E00E941DA344EC43
:1049800050E070E060E08AED9FE00E9405AA0AED29
:104990001FE0F80113AE43E051E860E070E1C801A8
:1049A0000E9439AAF801D2AFC1AFC586D686E78684
:1049B000F08A60EB74E0C8010E942EA964E0C8018F
:1049C0000E94A798C8010E945E9C60E8C8010E94EE
:1049D000E6A844E25EE06DE078ECC8010E94D1A94F
:1049E000C8010E94529C68EC70E080E090E00E9458
:1049F0001DA344EC50E070E060E08EE99FE00E946F
:104A000005AA0EE91FE0F80113AE43E051E860E0AB
:104A100070E1C8010E9439AAF801D2AFC1AFC586C2
:104A2000D686E786F08A60EB74E0C8010E942EA962
:104A300064E0C8010E94A798C8010E945E9C60E8DB
:104A4000C8010E94E6A844E25EE06DE078ECC8018F
:104A50000E94D1A9C8010E94529C68EC70E080E0DD
:104A600090E00E941DA344EC50E070E060E082E61C
:104A70009FE00E9405AA02E61FE0F80113AE43E0A2
:104A800051E860E070E1C8010E9439AAF801D2AF94
:104A9000C1AFC586D686E786F08A60EB74E0C801B0
:104AA0000E942EA964E0C8010E94A798C8010E9434
:104AB0005E9C60E8C8010E94E6A844E25EE06DE00A
:104AC00078ECC8010E94D1A9C8010E94529C68ECF0
:104AD00070E080E090E00E941DA3DF91CF911F91D4
:104AE0000F91FF90EF90DF90CF9084CE80E00E94F6
:104AF000891381E00C94891380E00E94B11381E056
:104B00000E94B11382E00E94B113F0CFCF93DF93E4
:104B10002091840B222379F0EC010E94D01C9B0190
:104B2000AC01688579858A859B850E94A8D16887B4
:104B300079878A879B87DF91CF910895EFE6F0E030
:104B400080818260808308950F931F93CF93DF93BA
:104B5000C82F0E94F715D82F4091EA0A5091EB0A0E
:104B60006091EC0A7091ED0A8091EE0A9091EF0A43
:104B7000A091F00AB091F10AC13031F58A019B0190
:104B8000081B190B2A0B3B0BC901B8010E940BCD66
:104B900020E030E040E05FE30E946ACD0E94ECD26A
:104BA00014E0C19FF0011124E252F54F608371833C
:104BB0008283938381E08093DD0ADD2361F0DF91BE
:104BC000CF911F910F91BACF8C019D01040F151F3A
:104BD000261F371FD9CFDF91CF911F910F910895D5
:104BE000CF93DF938091330C811105C08091350CF8
:104BF000882309F469C080913604659B55C08160A3
:104C000080933604909103018091360490FF4EC04A
:104C100082608093360480913604639B49C088602B
:104C200080933604809136044A9B44C0846080930C
:104C30003604C091CE0AC0FF0FC08091340C85FFAE
:104C40000BC08091360480FF07C08091480C8160C2
:104C50008093480C80E078DFC1FF0FC08091340C56
:104C600086FD0BC08091360481FF07C08091480CFF
:104C700082608093480C81E067DFC2FF25C080918D
:104C8000340C82FF19C08091350C8823E9F08091A3
:104C9000360483FF19C08091480C88608093480CCB
:104CA00082E0DF91CF9150CF8E7FAACF8D7FB1CFA1
:104CB000877FB6CF8B7FBBCF8091360482FF04C045
:104CC0008091480C8460EACFDF91CF910895DF9204
:104CD000EF92FF920F931F93CF93DF938091320255
:104CE0008F3708F446C08F5790915F0B9093480B15
:104CF000992309F43CC02C9A2091760B2093490B00
:104D00009091020121119095907190930001209152
:104D1000540B2093470B90910201211190959072B2
:104D2000909300018F5F809332028091460B91E057
:104D300089278093460B9091310221E0290F97300B
:104D40000CF020E0983008F042C0E92F092E000C4A
:104D5000FF0B8827E155F94D8F4F0C9469D1DF2661
:104D60007B2787279A279F27B227B727CF262C98FC
:104D7000C3CF9091480B891708F02C989091490B5C
:104D8000891728F090910201907190930001909101
:104D9000470B891708F4C6CF90910201C0CF8091CC
:104DA000450B811103C083E08093450B8091450B37
:104DB00081508093450B882351F0292F08C08091A2
:104DC00030028F5F80310CF068C0809330022093F6
:104DD000310210E000E0E801CC0FDD1FFE01E15CD4
:104DE000F44FE080F180E114F10409F43CC0F89440
:104DF000023009F02CC0809109018270D82E82E027
:104E00000E94DB13000080910B011E141F040CF0A4
:104E10008095827080930901000080910B0180953C
:104E200088708093090100C000008EE090E0019737
:104E3000F0F780910B018870809309010000809148
:104E40000B01D11080958270809309010000789445
:104E5000C15CD44F888199811E141F040CF09AC044
:104E60000197998388830F5F1F4F0330110509F065
:104E7000B2CFB6DE8091450C9091460C009729F098
:104E800001979093460C8093450CDF91CF911F9131
:104E90000F91FF90EF90DF90089510923002809173
:104EA0003E0B81111BC08091550B9091560B909336
:104EB000580B8093570B80916C0B90916D0B9093D6
:104EC0006F0B80936E0B80914A0B90914B0B9093DC
:104ED0004D0B80934C0B81E080933E0B1092560B50
:104EE0001092550B10926D0B10926C0B10924B0B95
:104EF00010924A0B6CCF88E080937B0087E480930C
:104F00007C0080917A00806480937A0060CF8091E9
:104F10007A0086FD52CF40917800509179008091BF
:104F2000550B9091560B840F951F9093560B8093C1
:104F3000550B4DCF88E080937B0086E4E0CF8091D5
:104F40007A0086FD3ACF40917800509179008091A7
:104F50004A0B90914B0B840F951F90934B0B8093B2
:104F60004A0B35CF88E080937B0085E4C8CF8091E1
:104F70007A0086FD22CF409178005091790080918F
:104F80006C0B90916D0B840F951F90936D0B80931C
:104F90006C0B1DCF019665CF2F923F924F925F927F
:104FA0006F927F928F929F92AF92BF92CF92DF9239
:104FB000EF92FF920F931F93CF93DF93CDB7DEB79E
:104FC00063970FB6F894DEBF0FBECDBF8FEF9FEF94
:104FD00090938900809388002AE02983312C212C2A
:104FE00078948091D70A9091D80AA091D90AB0916B
:104FF000DA0A892B8A2B8B2B09F0D7C18091DD0A25
:105000008823D1F08091DB0A9091DC0A1092DD0AAE
:10501000892B91F01092DC0A1092DB0A1092CE0AD2
:105020009091EB108091EC10981731F08091EC107A
:105030008F5F8F708093EC108091DB0A9091DC0A77
:10504000892B09F4B2C14091D30A5091D40A6091DE
:10505000D50A7091D60A8091CF0A9091D00AA0917A
:10506000D10AB091D20A0091C50A10E030E020E0E8
:10507000841B950BA60BB70B081719072A073B07CC
:1050800010F4D901C8018A8B840F951FA61FB71F82
:105090008093D30A9093D40AA093D50AB093D60AEA
:1050A000E1E0C0909C0AD0909D0AE0909E0AF090AA
:1050B0009F0A8091AC0A9091AD0AA091AE0AB0917E
:1050C000AF0AC80ED91EEA1EFB1EC092AC0AD092CF
:1050D000AD0AE092AE0AF092AF0AF7FC33C04091FD
:1050E000930A042E000C550B660B770B8091EA0A8D
:1050F0009091EB0AA091EC0AB091ED0A840F951FF4
:10510000A61FB71F8093EA0A9093EB0AA093EC0ABC
:10511000B093ED0A8091980A9091990AA0919A0A09
:10512000B0919B0AB701A601481B590B6A0B7B0B78
:10513000DB01CA018093AC0A9093AD0AA093AE0A3A
:10514000B093AF0A0091A00A1091A10A2091A20A7F
:105150003091A30A8091B00A9091B10AA091B20A4D
:10516000B091B30A080F191F2A1F3B1F0093B00A02
:105170001093B10A2093B20A3093B30A37FD33C0BB
:105180004091940A042E000C550B660B770B80910E
:10519000EE0A9091EF0AA091F00AB091F10A840F03
:1051A000951FA61FB71F8093EE0A9093EF0AA09356
:1051B000F00AB093F10A8091980A9091990AA0910F
:1051C0009A0AB0919B0A28013901481A590A6A0AB9
:1051D0007B0AD301C2018093B00A9093B10AA093D5
:1051E000B20AB093B30A4091A40A5091A50A609103
:1051F000A60A7091A70A8091B40A9091B50AA0916D
:10520000B60AB091B70A480F591F6A1F7B1F409317
:10521000B40A5093B50A6093B60A7093B70A77FD43
:1052200033C08090950A082C000C9908AA08BB0886
:105230008091F20A9091F30AA091F40AB091F50AD4
:10524000880D991DAA1DBB1D8093F20A9093F30A45
:10525000A093F40AB093F50A8091980A9091990A64
:10526000A0919A0AB0919B0A3A014B01681A790AF7
:105270008A0A9B0AD401C3018093B40A9093B50AA9
:10528000A093B60AB093B70A8090A80A9090A90A92
:10529000A090AA0AB090AB0A8091B80A9091B90A7E
:1052A000A091BA0AB091BB0A880D991DAA1DBB1D19
:1052B0008093B80A9093B90AA093BA0AB093BB0A34
:1052C000B7FD33C04090960A042C000C55086608C0
:1052D00077088090F60A9090F70AA090F80AB090AC
:1052E000F90A840C951CA61CB71C8092F60A9092B1
:1052F000F70AA092F80AB092F90A8090980A909062
:10530000990AA0909A0AB0909B0A2C013D01481876
:1053100059086A087B08530142018092B80A9092AA
:10532000B90AA092BA0AB092BB0AE11104C0E09196
:105330008400F0918500F7FE889A37FF8E9A77FDFA
:1053400006C0E0910B01E095E870E0930901B7FD1C
:1053500005C0E091970AE1119EC0149AE091840083
:10536000F0918500E0918400F0918500F7FE889827
:1053700037FF8E9877FD05C020910B012870209390
:105380000901B7FD05C08091970A811186C0149864
:105390005A88552021F080918400909185002A89B7
:1053A00021502A8BE0E021117CCE8091D70A909188
:1053B000D80AA091D90AB091DA0A892B8A2B8B2BB3
:1053C00009F0C4C64090DB0A5090DC0A5B8A4A8A26
:1053D000452809F42FC78091D30A9091D40AA0914F
:1053E000D50AB091D60A4091CF0A5091D00A609167
:1053F000D10A7091D20A84179507A607B70708F457
:105400004EC01092DC0A1092DB0A1092CE0A9091E4
:10541000EB108091EC10981709F40CC78091EC10F8
:105420008F5F8F708093EC1010EDC12E17E0D12E9E
:10543000E12CF12C8091DB0A9091DC0A892B09F098
:105440007DC60E94C2159093DC0A8093DB0A892BEB
:1054500009F474C64090DB0A5090DC0A5B8A4A8AE1
:10546000D2018C9183FF0BC5C20145960E94DA12CE
:105470001092DC0A1092DB0A1092CE0A9091EB1087
:105480008091EC109817E9F28091EC108F5F8F708B
:105490008093EC10D6CF419A61CF419879CF40915B
:1054A000CA0A5091CB0A6091CC0A7091CD0A481774
:1054B00059076A077B0708F40EC24091C60A50914B
:1054C000C70A6091C80A7091C90AEA89FB8986A94E
:1054D00097A9A0ADB1AD481759076A077B0708F037
:1054E000D0C1411551056105710509F066C0809074
:1054F000B5039090B603A090B703B090B80387E3CC
:105500009FE1A1E0FC0105911591259134910815C9
:1055100019052A053B0558F4B694A79497948794E7
:10552000AA0F0496E3E5FFE1E817F90759F7A093FE
:10553000C50AF0E28F169104A104B10428F4F0E248
:105540008F2E912CA12CB12C20E2821A9108A10857
:10555000B108811438E09306A104B10408F49AC19B
:10556000A4E09A9EC0011124895C944EFC013296FD
:1055700025913491B82DEE27B39F8001B29F010D84
:105580001E1F06940E1F1E1F112430E020E0FC0198
:10559000C590D490F12CE12CC01AD10AE20AF30A8A
:1055A0004C0D5D1D6E1D7F1D4093C60A5093C70AAA
:1055B0006093C80A7093C90A3DCF00E01A81942F06
:1055C000852E862FBC81AD81FE81EF8138852985AE
:1055D0004B80E091B103E99FA12DFF273091B203E9
:1055E000399FA00DF11D1090B303199EF00DE89D99
:1055F000A00DF11D389DF00DE89FF00D4A2EBF2F34
:105600004A9EE12D332722274F9EE00D311D201F9A
:10561000BA9FE00D311D201FBF9F300D211D432E6D
:10562000B22F4A9E112D332722274F9E100D311D78
:10563000201FBA9F100D311D201FBF9F300D211D4F
:10564000432EB22FEE279091B5038090B603809140
:10565000B7030090B003002A09F483C03091AC0373
:10566000349DE119900B800A800B2091AD03249D9D
:10567000E0199109800A800B1091AE03149D9019D6
:105680008108800B3B9FE0199109800A800B2B9FBA
:1056900090198108800B1B9F801881094A9E112D4B
:1056A000332722274F9E100D311D201FBA9F100D4A
:1056B000311D201FBF9F300D211D432EB22F309171
:1056C000A803349DE10D901F801E801F2091A90327
:1056D000249DE00D911D801E801F1091AA03149D32
:1056E000900D811C801F3B9FE00D911D801E801F2F
:1056F0002B9F900D811C801F1B9F800C811D4A9E3B
:10570000112D332722274F9E100D311D201FBA9FC8
:10571000100D311D201FBF9F300D211D432EB22FB4
:105720003091A403349DE119900B800A800B2091E5
:10573000A503249DE0199109800A800B1091A6030E
:10574000149D90198108800B3B9FE0199109800AF4
:10575000800B2B9F90198108800B1B9F801881095B
:1057600082C03091AC03349DE10D901F801E801FDC
:105770002091AD03249DE00D911D801E801F10918E
:10578000AE03149D900D811C801F3B9FE00D911D69
:10579000801E801F2B9F900D811C801F1B9F800CE3
:1057A000811D4A9E112D332722274F9E100D311D3A
:1057B000201FBA9F100D311D201FBF9F300D211DCE
:1057C000432EB22F3091A803349DE119900B800A2B
:1057D000800B2091A903249DE0199109800A800B78
:1057E0001091AA03149D90198108800B3B9FE0192A
:1057F0009109800A800B2B9F90198108800B1B9FB9
:10580000801881094A9E112D332722274F9E100DA3
:10581000311D201FBA9F100D311D201FBF9F300D5D
:10582000211D432EB22F3091A403349DE10D901F12
:10583000801E801F2091A503249DE00D911D801ED8
:10584000801F1091A603149D900D811C801F3B9F0B
:10585000E00D911D801E801F2B9F900D811C801FCD
:105860001B9F800C811D11244B821A83BC83AD8346
:10587000FE83EF8338872987982C892EB12CA82E98
:105880003ECEAA89BB89D2968D909D90AD90BC905A
:10589000D59735CED501C401B695A795979587952F
:1058A0008C7F895C984EFC01C590D490FC013296A7
:1058B00025913491E82DE770E29FC001E39F900DA0
:1058C0001124E3E096958795EA95E1F7C81AD90A7D
:1058D000F12CE12C65CE4091C10A5091C20A609131
:1058E000C30A7091C40A481759076A077B0708F072
:1058F00030C28090BC0A9090BD0AA090BE0AB090C1
:10590000BF0A8091C00AEA89FB8981117CC0EE5BE5
:10591000FF4FE080F18002811381EA89FB89E15B1E
:10592000FF4F2081318142815381AA89BB89D29660
:105930006D917D918D919C91D5970E943713B1E027
:10594000B093C00AEA89FB8942A953A964A975A941
:1059500087E39FE1A1E0FC01059115912591349128
:10596000041715072607370758F476956795579556
:105970004795AA0F0496E3E5FFE1E817F90759F701
:10598000A093C50A403251056105710520F440E23B
:1059900050E060E070E04052510961097109411521
:1059A000F8E05F076105710508F4B3C124E0529F78
:1059B000C0011124895C944EFC01329625913491EA
:1059C000AA27439FF001429FE10DFA1F0694EA1FA8
:1059D000FA1F1124AF0170E060E0FC01C590D49083
:1059E000F12CE12CC41AD50AE60AF70A8C0C9D1C8E
:1059F000AE1CBF1C8092BC0A9092BD0AA092BE0A47
:105A0000B092BF0A17CD82AD93ADA4ADB5AD8816E7
:105A10009906AA06BB0608F072C181149104A1047C
:105A2000B10449F44091B5035091B6036091B703B6
:105A30007091B8038DCFA0E0FA85982D492D8A2D5D
:105A4000EB857C856D85BE855F8538892989509178
:105A5000B103599F612DBB273091B203399F600D6F
:105A6000B11D1090B303199EB00D549F600DB11D70
:105A7000349FB00D589FB00DE62F7B2FE69F512D20
:105A800033272227EB9F500D311D2A1F769F500D83
:105A9000311D2A1F7B9F300D211DE32F722FE69FA2
:105AA000F12D33272227EB9FF00D311D2A1F769F02
:105AB000F00D311D2A1F7B9F300D211DE32F722F0A
:105AC00055279091B5034091B6038091B70300909C
:105AD000B0030A2A09F483C03091AC033E9F5119E8
