:100000000C9441160C9481160C9481160C94811654
:100010000C9481160C9481160C9481160C94811604
:100020000C9481160C94C99E0C94C99E0C94C99E84
:100030000C9481160C9481160C9481160C948116E4
:100040000C9481160C94F8220C9481160C94811651
:100050000C9481160C944DAA0C9481160C94F7A361
:100060000C9481160C9422950C9418950C9481167E
:100070000C9481160C9481160C9481160C948116A4
:100080000C940B380C9481160C9481160C948116E8
:100090000C9481160C9481160C9481160C94811684
:1000A0000C9481160C9481160C94DD370C948116F7
:1000B0000C9481160C9481160C9481160C94811664
:1000C0000C9481160C9481160C9481160C94811654
:1000D0000C9481160C9481160C9481160C94811644
:1000E0000C948116084AD73B3BCE016E84BCBFFD01
:1000F000C12F3D6C74319ABD56833DDA3D00C77FF8
:1001000011BED9E4BB4C3E916BAAAABE0000008090
:100110003F05A84CCDB2D44EB93836A9020C50B91F
:10012000918688083CA6AAAA2ABE000000803F004B
:100130004E414E494E495459494E46CDCCCC3D0ACC
:10014000D7233C17B7D13877CC2B329595E6241FAF
:10015000B14F0A000020410000C84200401C462068
:10016000BCBE4CCA1B0E5AAEC59D74434F4D4D5577
:100170004E49434154494F4E0044525952554E0046
:100180004552524F525300494E464F004543484F47
:10019000004572726F722077726974696E6720749D
:1001A0006F20454550524F4D210A00363726033CFB
:1001B0003D380F2E303E13061A1C1824221E24220E
:1001C0001E24221E0A4507392F432D3A09084400F0
:1001D000015072696E7465722073746F707065641B
:1001E0002064756520746F206572726F72732E20A3
:1001F00046697820746865206572726F7220616E3E
:100200006420757365204D39393920746F2072650B
:1002100073746172742E202854656D7065726174F8
:100220007572652069732072657365742E2053653D
:1002300074206974206166746572207265737461DC
:100240007274696E67290A004E6F20436865636B9C
:1002500073756D2077697468206C696E65206E75A2
:100260006D6265722C204C617374204C696E653A26
:100270002000636865636B73756D206D69736D61D4
:100280007463682C204C617374204C696E653A204D
:10029000004C696E65204E756D6265722069732031
:1002A0006E6F74204C617374204C696E65204E75BE
:1002B0006D6265722B312C204C617374204C696E19
:1002C000653A20004D3131300053657269616C2010
:1002D000737461747573206D69736D617463680AFA
:1002E00000746F6F206D75636820696E6163746957
:1002F00076652074696D65202D2063757272656E58
:100300007420636F6D6D616E643A20002121204B73
:10031000494C4C20636175736564206279200062EA
:100320007573793A2070617573656420666F722009
:10033000696E7075740A00627573793A2070617520
:1003400073656420666F7220757365720A0062754A
:1003500073793A2070726F63657373696E670A0010
:100360006563686F3A004572726F723A004F464695
:10037000004F4E0042696C696E656172204C657673
:10038000656C696E6720477269643A0A004C4F5782
:100390000048494748004F4B004572726F723A203F
:1003A000416C6C200020636F6E6E656374696F6EC4
:1003B0002E2E2E200054657374696E6720004C4FFA
:1003C000570048494748004F4B004572726F723AD8
:1003D00020416C6C200020636F6E6E656374696FE2
:1003E0006E2E2E2E200054657374696E6720004CAB
:1003F0004F570048494748004F4B004572726F7293
:100400003A20416C6C200020636F6E6E65637469E6
:100410006F6E2E2E2E200054657374696E67200057
:100420004C4F570048494748004F4B004572726F88
:10043000723A20416C6C200020636F6E6E656374AD
:10044000696F6E2E2E2E200054657374696E6720BE
:10045000004C4F570048494748004F4B00457272C7
:100460006F723A20416C6C200020636F6E6E656382
:1004700074696F6E2E2E2E200054657374696E673A
:100480002000426564204C6576656C696E672000CB
:100490004661696C656420746F20656E61626C658D
:1004A00020426564204C6576656C696E670A004978
:1004B0006E76616C6964206D6573682E0A002E0A81
:1004C000002F0050726F62696E67206D657368203F
:1004D000706F696E742000202844525952554E297D
:1004E00000473239204175746F20426564204C65A5
:1004F00076656C696E67003F20284C2C522C462C88
:100500004229206F7574206F6620626F756E647368
:100510002E0A003F2856296572626F7365206C654C
:1005200076656C20696D706C61757369626C6520AD
:1005300028302D34292E0A00426164205A20766129
:100540006C75650A004E6F2062696C696E65617238
:1005500020677269640A0020440020204D32303048
:1005600020540020204D3230302053002028446990
:100570007361626C6564293A0046696C616D656EF1
:10058000742073657474696E67730020204D323077
:10059000312058004D617820416363656C6572615C
:1005A00074696F6E2028756E6974732F7332290019
:1005B00020204D3230332058004D6178206665652B
:1005C0006472617465732028756E6974732F732962
:1005D0000020520020204D3230342050004163630F
:1005E000656C65726174696F6E2028756E697473CD
:1005F0002F7332292028503C7072696E742D61630C
:1006000063656C3E20523C726574726163742D6147
:100610006363656C3E20543C74726176656C2D6139
:100620006363656C3E290020540020530020204D58
:10063000323035204200416476616E636564202863
:10064000423C6D696E5F7365676D656E745F74695A
:100650006D655F75733E20533C6D696E5F666565C1
:1006600064726174653E20543C6D696E5F747261A2
:1006700076656C5F66656564726174653E20583CA2
:100680006D61785F6A65726B3E20593C6D61785F81
:100690006A65726B3E205A3C6D61785F6A65726B69
:1006A0003E20453C6D61785F6A65726B3E29002093
:1006B000204D32313700546F6F6C2D6368616E6767
:1006C000696E670020204D323138205400486F7425
:1006D000656E64206F666673657473002044002045
:1006E000490020500020204D333031204500486F14
:1006F00074656E64205049440050574D3A202025BF
:1007000034640050574D3A20202534640050574D32
:100710003A20202534640050574D3A202025346477
:100720000050574D3A20202534640050574D3A2050
:10073000202534640050574D3A2020253464005061
:10074000574D3A20202534640050574D3A2020253B
:1007500034640050574D3A20202534640050574DE2
:100760003A20202534640050574D3A202025346427
:100770000050574D3A20202534640050574D3A2000
:10078000202534640050574D3A2020253464005011
:10079000574D3A2020253464003A200020202020A4
:1007A000434F4D002020206E6F6E2D7374616E6478
:1007B0006172642050574D206D6F646500202020C9
:1007C000636F6D7061726520696E746572727570A9
:1007D0007420656E61626C6564002020206F766510
:1007E00072666C6F7720696E7465727275707420B2
:1007F000656E61626C6564003A2000202020205400
:10080000494D534B00423A200020202020544343BE
:100810005200413A2000202020205443435200201F
:1008200020202043533A20002020202057474D3AD3
:10083000200050574D3A20202534640050574D3A3F
:1008400020202534640047004800000088008A000A
:100850008C00B300B400000098009A009C00A8002F
:10086000AA00AC0028012A012C0120202020544994
:100870004D455200440045006E00800081006F002D
:10088000B000B1007000900091007100A000A100C4
:10089000720020012101730020697320616C736F65
:1008A000207469656420746F2074686973207069AE
:1008B0006E0054494D45523143000A202E0020203D
:1008C000002020506F72743A20004C4F5700484966
:1008D000474800446F6E652E0A0050756C73696E50
:1008E0006720202000556E746F7563686564200072
:1008F0005A5F50524F42455F534552564F5F4E52DA
:10090000206E6F74207365742075702E0A00202D80
:1009100020005761746368696E672070696E0020FB
:100920006973007320617265002070726F74656373
:100930007465642E205573652027492720746F2025
:100940006F766572726964652E0A0053706563691B
:10095000666965642070696E0064697300656E0085
:1009600061626C65640A00656E6473746F70206DFB
:100970006F6E69746F722000616C736F20656E61B9
:10098000626C6564290A002E0A0023182A2C272C81
:10099000242C206E6F742064697361626C65642E10
:1009A000205368617265642077697468007370729F
:1009B0006561644379636C6500737465616C746828
:1009C00043686F700020647269766572206D6F6491
:1009D000653A09007370726561644379636C650000
:1009E000737465616C746843686F70002064726929
:1009F000766572206D6F64653A0900737072656187
:100A0000644379636C6500737465616C74684368F2
:100A10006F700020647269766572206D6F64653A4C
:100A200009007370726561644379636C6500737467
:100A300065616C746843686F7000206472697665E4
:100A400072206D6F64653A0900737072656164436A
:100A500079636C6500737465616C746843686F706A
:100A60000020647269766572206D6F64653A0900D2
:100A7000202E68737472743A2000202E68656E64AC
:100A80003A20002063686F70706572202E746F6664
:100A9000663A2000202E68737472743A2000202E6B
:100AA00068656E643A20002063686F70706572201C
:100AB0002E746F66663A2000202E68737472743A42
:100AC0002000202E68656E643A20002063686F70F5
:100AD000706572202E746F66663A2000202E68734F
:100AE0007472743A2000202E68656E643A200020EB
:100AF00063686F70706572202E746F66663A2000AE
:100B0000202E68737472743A2000202E68656E641B
:100B10003A20002063686F70706572202E746F66D3
:100B2000663A20003F53206F7574206F6620726113
:100B30006E67652028312E2E38290A003F50206F1D
:100B40007574206F662072616E676520282D332EC4
:100B50002E3132290A003F4F206F7574206F6620B6
:100B600072616E67652028312E2E3135290A003BCF
:100B7000200020496E76616C696420657874727516
:100B8000646572200047322F473320626164207011
:100B90006172616D65746572730A00473238005A7C
:100BA0002050726F6265205061737420426564004A
:100BB000205A3A200020593A200042656420583AD1
:100BC00020004D65736820706F696E74206F7574B6
:100BD000206F662072616E67650A005072696E74DC
:100BE0002074696D653A20000A53746174733A2069
:100BF00046696C616D656E7420757365643A20009A
:100C00002C204C6F6E67657374206A6F623A200007
:100C1000546F74616C2074696D653A20005374617F
:100C200074733A20002C204661696C65643A200098
:100C30002C2046696E69736865643A2000507269B9
:100C40006E74733A200053746174733A20006F6BB2
:100C5000006F6666008C018701800179016B014499
:100C6000454255473A004D3131322053687574641E
:100C70006F776E004D3131332053002F2F00206CE1
:100C8000696D6974656420746F2000204D6178205F
:100C900000416363656C65726174696F6E005741F2
:100CA000524E494E4721204C6F77205A204A657298
:100CB0006B206D6179206C65616420746F20756EA6
:100CC00077616E746564207061757365732E0A00B8
:100CD00020204D61783A2000200020204D696E3A96
:100CE0002000203B200020204D3231312053005382
:100CF0006F667420656E6473746F707300250A00EC
:100D000046523A0020466C6F773A20003A20002085
:100D1000536572766F2000206F7574206F662072A5
:100D2000616E67650A00536572766F200050726FBE
:100D30006265204F6666736574205A0050726F6258
:100D400065204F6666736574205A00496E76616C43
:100D500069642065787472756465720A00646973E9
:100D600000656E0043290A0061626C656420286D8D
:100D7000696E2074656D702000436F6C6420657827
:100D80007472756465732061726520004D34323170
:100D900020696E636F727265637420706172616D39
:100DA000657465722075736167650A004D657368C7
:100DB00020706F696E74206F7574206F6620726189
:100DC0006E67650A00546F6F206661722066726FED
:100DD0006D207265666572656E636520706F696E01
:100DE000740A00454550524F4D204F4B0A00290AC6
:100DF0000020746F20003F5A206F7574206F6620AA
:100E000072616E67652028003F59206D75737420EC
:100E10006265203020284E4F5A5A4C455F41535F3F
:100E200050524F4245292E0A003F58206D75737469
:100E3000206265203020284E4F5A5A4C455F41535E
:100E40005F50524F4245292E0A002E0A00202830BA
:100E50002D313029002076616C7565206F75742006
:100E60006F662072616E676500416476616E6365CE
:100E7000204B3D0020647269766572206375727242
:100E8000656E743A2000206472697665722063751D
:100E90007272656E743A2000206472697665722001
:100EA00063757272656E743A2000206472697665AB
:100EB000722063757272656E743A200020647269E4
:100EC0007665722063757272656E743A20006F6B7E
:100ED0000020204D323036205800486F6D65206F5D
:100EE0006666736574004361703A00434F4E46492D
:100EF000475F4558504F5254004D4541545041436F
:100F00004B00434F4F4C45525F54454D5045524165
:100F100054555245004348414D4245525F54454D5A
:100F2000504552415455524500424142595354454F
:100F30005050494E470041524353004D4F54494F82
:100F40004E5F4D4F44455300544845524D414C5F10
:100F500050524F54454354494F4E00455854454E06
:100F60004445445F4D323000435553544F4D5F4626
:100F700049524D574152455F55504C4F4144004CEA
:100F8000464E5F5752495445004C4F4E475F4649C5
:100F90004C454E414D45004155544F5245504F52DE
:100FA000545F53445F5354415455530053445F5767
:100FB0005249544500524550454154005344434121
:100FC00052440050524F4D50545F535550504F5261
:100FD0005400484F53545F414354494F4E5F434F71
:100FE0004D4D414E445300454D455247454E4359A2
:100FF0005F50415253455200434153455F4C49476E
:1010000048545F4252494748544E45535300544F49
:1010100047474C455F4C494748545300534F46544B
:10102000574152455F504F574552004255494C4435
:101030005F50455243454E54004C4556454C494E31
:10104000475F44415441005A5F50524F424500525D
:10105000554E4F5554004155544F4C4556454C0044
:101060005052494E545F4A4F420050524F475245EA
:101070005353004155544F5245504F52545F5445BD
:101080004D50004155544F5245504F52545F504FB0
:101090005300564F4C554D45545249430045455019
:1010A000524F4D0042494E4152595F46494C455FAF
:1010B0005452414E534645520053455249414C5FAC
:1010C000584F4E5F584F4646004649524D57415281
:1010D000455F4E414D453A4D61726C696E20322E2E
:1010E000312E322E312028417567202039203230B0
:1010F00032342031363A33333A35382920534F557C
:101100005243455F434F44455F55524C3A676974BB
:101110006875622E636F6D2F4D61726C696E4669E2
:10112000726D776172652F4D61726C696E205052DD
:101130004F544F434F4C5F56455253494F4E3A31EF
:101140002E30204D414348494E455F545950453A51
:10115000465720566F6C74657272612034303020AF
:10116000414C48202D20546573742030393038327A
:101170003032342045585452554445525F434F5500
:101180004E543A3420555549443A6365646532619A
:1011900032662D343161322D343734382D39623195
:1011A000322D633535633632663336376666002056
:1011B0003B0020204D383531205830205930205AFE
:1011C000005A2D50726F6265204F66667365740019
:1011D0002569730025696D202569730025696820DC
:1011E00025696D20256973002569642025696820BB
:1011F00025696D202569730025697920256964209A
:101200002569682025696D202569730020573A00FB
:1012100020573A00206661696C6564212042616450
:10122000206865617465722069640A005049442031
:101230004175746F74756E650023646566696E65CB
:101240002044454641554C545F004B6420004B6997
:1012500020004B7020002066696E69736865642108
:101260002050757420746865206C617374204B7015
:101270002C204B6920616E64204B6420636F6E7379
:1012800074616E74732066726F6D2062656C6F7727
:1012900020696E746F20436F6E6669677572617442
:1012A000696F6E2E680A00504944204175746F744E
:1012B000756E6500206661696C6564212074696DD6
:1012C000656F75740A00504944204175746F7475D8
:1012D0006E6500206661696C6564212054656D70DF
:1012E0006572617475726520746F6F2068696768D4
:1012F0000A00504944204175746F74756E65002072
:101300004B643A2000204B693A2000204B703A2071
:101310000020436C617373696320504944200A00C4
:101320002054753A2000204B753A2000206D6178DA
:101330003A2000206D696E3A200020643A20002097
:10134000626961733A20002073746172740A0050FC
:101350004944204175746F74756E6500206661693B
:101360006C6564212054656D706572617475726579
:1013700020746F6F20686967680A005049442041F3
:1013800075746F74756E65006F70656E00545249A8
:10139000474745524544003A20007A5F70726F62B9
:1013A00065007A5F6D617800795F6D617800785FC4
:1013B0006D696E005265706F7274696E6720656E3C
:1013C0006473746F70207374617475730A00000025
:1013D000C8430000C8430000D643000000000000DE
:1013E00000000000000020746F6F206C6F6E67209B
:1013F000657874727573696F6E2070726576656E4C
:101400007465640A0020636F6C642065787472757B
:1014100073696F6E2070726576656E7465640A001C
:10142000000000000000C8430000D6435761726E00
:10143000696E673A20486F6D696E672042756D70FE
:101440002044697669736F72203C20310A000202E1
:10145000040000C8430000C8430000D6430000A0B9
:10146000400000A04000000040000000010000001B
:101470000100008000555555000000400033333313
:1014800000AAAA2A004992240000002000C7711C6B
:101490000099991900D1451700555515003BB11316
:1014A000002449120011111100000010000F0F0F4D
:1014B00000E3380E0043790D00CCCC0C00C3300C97
:1014C00000E8A20B0064210B00AAAA0A00703D0AE2
:1014D000009DD80900427B090092240900DCD30852
:1014E00000888808001042080000000800F0C107CA
:1014F000008787070075500700711C07003EEB0648
:1015000000A1BC06006990060066660600703E06F3
:10151000006118060017F4050074D105005BB005E2
:1015200000B2900500627205005555050078390536
:1015300000B81E0500050505004EEC040087D40424
:1015400000A1BD040090A7040049920400C17D04DD
:1015500000EE690400C7560400444404005C3204F1
:10156000000821040041100400000004003FF003C3
:1015700000F8E0030026D20300C3C30300CCB50388
:10158000003AA803000A9B0300388E0300C08103C1
:10159000009F750300D0690300505E03001D5303D4
:1015A0000034480300913D03003333030016290340
:1015B00000381F030097150300300C0300030303DA
:1015C000000BFA020049F10200BAE802005CE002F6
:1015D000002DD802002DD0020059C80200B0C00270
:1015E0000031B90200DAB10200AAAA0200A0A302E7
:1015F00000BC9C0200FA9502005C8F0200DF8802AA
:101600000082820200457C020027760200277002D9
:1016100000436A02007C640200D05E02003F59026F
:1016200000C8530200FFFDFCFAF8F6F4F2F0EEEC0D
:10163000EAE9E7E5E3E1E0DEDCDAD9D7D5D4D2D0D8
:10164000CFCDCBCAC8C7C5C3C2C0BFBDBCBAB9B76E
:10165000B6B4B3B2B0AFADACAAA9A8A6A5A4A2A1D6
:10166000A09E9D9C9A99989795949392908F8E8D19
:101670008B8A8988878684838281807F7E7D7B7A3E
:10168000797877767574737271706F6E6D6C6B6A42
:10169000696867666564636261605F5E5D5C5B5A32
:1016A0005958585756555453525150504F4E4D4C0F
:1016B0004B4A4A4948474646454443424241403FD7
:1016C0003E3E3D3C3B3B3A3938383736353534338E
:1016D00032323130302F2E2E2D2C2B2B2A29292837
:1016E000272726252524232322212120201F1E1ED3
:1016F0001D1C1C1B1B1A1919181817161615151462
:10170000131312121111100F0F0E0E0D0D0C0C0BE6
:101710000A0A090908080707060605050404030361
:10172000020201000020746F6F206C6F6E672065ED
:101730007874727573696F6E2070726576656E74F9
:1017400065640A0020636F6C642065787472757339
:10175000696F6E2070726576656E7465640A002923
:101760000A002062797465733B2063726320005322
:10177000657474696E67732053746F726564202892
:1017800000454550524F4D20496E697469616C693E
:101790007A65640A0048617264636F64656420441A
:1017A000656661756C742053657474696E67732027
:1017B0004C6F616465640020286D6D2900203B201A
:1017C0004C6576656C696E67200020204D343230A0
:1017D0002053004175746F20426564204C65766526
:1017E0006C696E670020204D39303600205431205E
:1017F0004500205430204500537465707065722098
:101800006472697665722063757272656E74002009
:10181000204D3536392053310054312045005430A5
:101820002045002058004472697665722073746503
:101830007070696E67206D6F64650020204D3930CF
:1018400030204B004C696E65617220416476616E98
:10185000636500204A002020473239205720490084
:1018600020204D3134392043203B20556E6974735C
:1018700020696E2043656C736975730A0054656D49
:10188000706572617475726520556E69747300209D
:1018900020473231203B004C696E65617220556EE5
:1018A00069747300454550524F4D206461746173F3
:1018B000697A65206572726F722E0A002028636152
:1018C0006C63756C6174656429210A0020213D20D8
:1018D00000454550524F4D20435243206D69736D72
:1018E00061746368202D202873746F7265642920E9
:1018F00000454550524F4D20436F72727570740A07
:10190000002053697A653A2000496E6465783A2070
:1019100000290A002062797465733B20637263209A
:10192000002073746F7265642073657474696E67E8
:101930007320726574726965766564202800000002
:101940004843000048430000A0410000F04200006E
:10195000C8420000C8420000C8430080AC43DC0518
:101960000000DC05000064000000401F0000204D66
:1019700061726C696E3D563838290A0045455052EF
:101980004F4D2076657273696F6E206D69736D615E
:101990007463682028454550524F4D3D0010004566
:1019A00000F03F450045315F53455249414C5F527D
:1019B000585F50494E0045315F53455249414C5F95
:1019C00054585F50494E0045305F53455249414C91
:1019D0005F52585F50494E0045305F534552494170
:1019E0004C5F54585F50494E005A5F53455249412D
:1019F0004C5F52585F50494E005A5F53455249411F
:101A00004C5F54585F50494E00595F53455249410D
:101A10004C5F52585F50494E00595F5345524941FF
:101A20004C5F54585F50494E00585F5345524941EE
:101A30004C5F52585F50494E00585F5345524941E0
:101A40004C5F54585F50494E005A5F535445505FA5
:101A500050494E005A5F454E41424C455F50494EF9
:101A6000005A5F4449525F50494E00595F535445F4
:101A7000505F50494E00595F454E41424C455F50C2
:101A8000494E00595F4449525F50494E00585F53D8
:101A90005445505F50494E00585F454E41424C45B9
:101AA0005F50494E00585F4449525F50494E005ABA
:101AB0005F4D494E5F50524F42455F50494E004581
:101AC000315F444941475F50494E0045305F4449CA
:101AD00041475F50494E005A5F444941475F504972
:101AE0004E00595F444941475F50494E00585F449A
:101AF0004941475F50494E005A5F53544F505F5021
:101B0000494E005A5F4D41585F50494E00595F534E
:101B1000544F505F50494E00595F4D41585F5049F6
:101B20004E00585F53544F505F50494E00585F4D20
:101B3000494E5F50494E00534552564F335F50490E
:101B40004E00534552564F325F50494E0053455256
:101B5000564F315F50494E00534552564F305F50FB
:101B6000494E0053445F53535F50494E0053445312
:101B7000530053445F53434B5F50494E0053445FFF
:101B80004D4F53495F50494E0053445F4D49534FA9
:101B90005F50494E004D4F534645545F445F504996
:101BA0004E004D4F534645545F435F50494E004DE4
:101BB0004F534645545F425F50494E004D4F534688
:101BC00045545F415F50494E004C45445F50494E7B
:101BD000004845415445525F4245445F50494E00DC
:101BE0004845415445525F335F50494E0048454196
:101BF0005445525F325F50494E004845415445526A
:101C00005F315F50494E004845415445525F305F57
:101C100050494E0046414E5F50494E0045335F5398
:101C20005445505F50494E0045335F454E41424C4C
:101C3000455F50494E0045335F4449525F50494E1D
:101C40000045325F535445505F50494E0045325F66
:101C5000454E41424C455F50494E0045325F444934
:101C6000525F50494E0045315F535445505F5049D3
:101C70004E0045315F454E41424C455F50494E0054
:101C800045315F4449525F50494E0045305F5354DF
:101C900045505F50494E0045305F454E41424C45EE
:101CA0005F50494E0045305F4449525F50494E00F5
:101CB000455850325F30385F50494E0045585032D9
:101CC0005F30375F50494E00455850325F30365FC5
:101CD00050494E00455850325F30355F50494E00F4
:101CE000455850325F30345F50494E0045585032AD
:101CF0005F30335F50494E00455850325F30325F9D
:101D000050494E00455850325F30315F50494E00C7
:101D1000455850315F30385F50494E00455850317A
:101D20005F30375F50494E00455850315F30365F65
:101D300050494E00455850315F30355F50494E0094
:101D4000455850315F30345F50494E00455850314E
:101D50005F30335F50494E00455850315F30325F3D
:101D600050494E00455850315F30315F50494E0068
:101D70004156525F53535F50494E004156525F5394
:101D8000434B5F50494E004156525F4D4F53495FA0
:101D900050494E004156525F4D49534F5F50494E96
:101DA0000054454D505F4245445F50494E005445F4
:101DB0004D505F335F50494E0054454D505F325F88
:101DC00050494E0054454D505F315F50494E0054CC
:101DD000454D505F305F50494E0046494C5749448D
:101DE00054485F50494E00545844300052584430D3
:101DF0000024F404D9201BC40C5C0E9804C4095FB1
:101E00000265077101F405F900FB04B3004804877B
:101E100000C10369005803550003034500BE023AA0
:101E2000008402310053022A002902250004022006
:101E300000E4011C00C8011900AF0117009801144B
:101E40000084011300710110006101100051010EA6
:101E50000043010D0036010B002B010B0020010B8C
:101E600000150109000C01090003010800FB00082E
:101E700000F3000800EB000700E4000600DE0006A7
:101E800000D8000600D2000600CC000500C70005FF
:101E900000C2000500BD000400B9000400B5000444
:101EA00000B1000400AD000400A9000400A5000377
:101EB00000A20003009F0004009B000300980003A1
:101EC000009500020093000300900003008D0002C3
:101ED000008B0003008800020086000200840003DB
:101EE00000810002007F0002007D0002007B0002F2
:101EF0000079000200770001007600020074000201
:101F00000072000100710002006F0002006D00010C
:101F1000006C0002006A0001006900020067000115
:101F2000006600010065000100640002006200011B
:101F30000061000100600001005F0002005D00011F
:101F4000005C0001005B0001005A00010059000123
:101F50000058000100570001005600010055000123
:101F60000054000100530000005300010052000122
:101F70000051000100500001004F0001004E000020
:101F8000004E0001004D0001004C0001004B00001C
:101F9000004B0001004A0001004900010048000018
:101FA0000048000100470001004600000046000113
:101FB000004500000045000100440001004300000E
:101FC0000043000100420000004200010041000007
:101FD0000041000100400001003F0000003F0001FF
:101FE000003E0000003E0001003D0000003D0001F9
:101FF000003C0000003C0000003C0001003B0000F1
:10200000003B0001003A0000003A000100390000E6
:1020100000390001003800000038000000380001DD
:1020200000370000003700010036000000360000D5
:1020300000360001003500000035000000350001C9
:1020400000340000003400000034000100330000C0
:1020500000330000003300010032000000320000B5
:1020600000320001003100000031000000310001A9
:10207000003000000030000000300001002F0000A0
:10208000002F0000002F0000002F0001002E000094
:10209000002E0000002E0001002D0000002D000089
:1020A000002D0000002D0001002C0000002C00007D
:1020B000002C0000002C0001002B0000002B000071
:1020C000002B0000002B0001002A0000002A000065
:1020D000002A0000002A0001002900000029000059
:1020E000002900000029000000290001002800004C
:1020F000002800000028000000280000002800013F
:102100000027000000270000002700000027000033
:102110000027000100260000002600000026000025
:102120000026000000260001002500000025000018
:10213000002500000025000000250000002500010A
:1021400000240000002400000024000000240000FF
:1021500000240001002300000023000000230000F1
:1021600000230000002300000023000000230001E2
:1021700000220000002200000022000000220000D7
:1021800000220000002200010021000000210000C8
:1021900000210000002100000021000000210000BB
:1021A00000210001002000000020000000200000AD
:1021B000002000000020000000200000002000009F
:1021C00000200001001F0000001F0000001F000091
:1021D000001F0000001F0000001F0000001F000182
:1021E000001E0000001E0000001E0000001E000077
:1021F0000024F4D43050C38E20C2A24017828B70CA
:1022000011127A910D816CD90AA861E108C758664C
:1022100007615143061E4B5D05C145A7041A4111D4
:1022200004093D9803713931034036DB026533916F
:1022300002D4305402802E1D02632CEE01752AC593
:1022400001B028A001102781018F2564012B244BA8
:1022500001E0223401AC211F018D200D01801FFC03
:1022600000841EED00971DDF00B81CD200E61BC6DF
:1022700000201BBC00641AB200B219A8000A19A001
:10228000006A189900D117910040178B00B5168489
:102290000031167E00B31579003A157300C7146F2C
:1022A0000058146A00EE1366008813630025135E5D
:1022B00000C7125B006C12570015125400C1115177
:1022C0000070114F0021114B00D61049008D1047AE
:1022D000004610440002104200C00F4000800F3E34
:1022E00000420F3C00060F3B00CB0E3800930E3728
:1022F000005C0E3500270E3400F30D3200C10D31A5
:1023000000900D3000600D2E00320D2D00050D2CBB
:1023100000D90C2B00AE0C2900850C29005C0C2781
:1023200000350C27000E0C2600E80B2400C40B24FB
:1023300000A00B23007D0B23005A0B2100390B2139
:1023400000180B2000F80A1F00D90A1E00BB0A1E45
:10235000009D0A1D00800A1D00630A1C00470A1B1D
:10236000002C0A1B00110A1A00F7091A00DD0919CE
:1023700000C4091900AB091900920917007B09185C
:1023800000630917004C09160036091600200916CB
:10239000000A091500F5081500E0081400CC08141F
:1023A00000B8081400A4081400900813007D081257
:1023B000006B081300580812004608120034081178
:1023C00000230811001208110001081100F0071085
:1023D00000E0071000D0071000C0071000B0070F82
:1023E00000A107100091070E0083070F0074070F6C
:1023F0000065070E0057070E0049070E003B070D4A
:10240000002E070E0020070D0013070D0006070D14
:1024100000F9060C00ED060D00E0060C00D4060CD9
:1024200000C8060C00BC060C00B0060C00A4060B8D
:102430000099060C008D060B0082060B0077060B38
:10244000006C060B0061060A0057060B004C060ADA
:102450000042060A0038060A002E060A0024060A70
:10246000001A060A001006090007060A00FD050901
:1024700000F4050900EB050900E2050900D905098A
:1024800000D0050900C7050900BE050900B505080B
:1024900000AD050800A50509009C05080094050885
:1024A000008C050800840508007C050800740508F8
:1024B000006C050700650508005D05070056050866
:1024C000004E0507004705070040050800380507CE
:1024D00000310507002A050700230507001C050633
:1024E00000160507000F050700080506000205078E
:1024F00000FB040600F5040700EE040600E80406ED
:1025000000E2040700DB040600D5040600CF040641
:1025100000C9040600C3040600BD040600B7040693
:1025200000B1040500AC040600A6040600A00405E2
:10253000009B04060095040500900406008A04052B
:102540000085040500800406007A04050075040572
:1025500000700405006B04050066040500610405B5
:10256000005C04050057040500520405004D0405F5
:102570000048040500430405003E0404003A040535
:102580000035040500300404002C04050027040471
:1025900000230405001E0404001A040400160405A8
:1025A00000110404000D04040009040500040404DF
:1025B0000000040400FC030400F8030400F4030416
:1025C00000F0030400EC030400E8030400E4030447
:1025D00000E0030400DC030400D8030400D4030477
:1025E00000D0030400CC030400C8030300C50303A8
:1025F00000423A0020436F756E7420413A00450056
:10260000626564002C2073797374656D2073746F38
:102610007070656421204865617465725F49443A51
:1026200020004572723A204D415854454D50004D9E
:10263000415854454D5020747269676765726564EE
:102640000048656174696E67204661696C65640065
:1026500048656174696E67206661696C6564001025
:1026600000600350012C0190012201D001180110DB
:10267000020E0170020401E002FA006003F00000A3
:1026800004E600B004DC00A005D200B006C80000DB
:1026900008BE00A009B400800BAA00D00DA00090D5
:1026A000109600C0138C0070178200901B780010E9
:1026B000206E00C0246400E02D500080353C00A056
:1026C0003A2800A03D1400003F0000A03FECFF4569
:1026D00072723A204D494E54454D50004D494E546A
:1026E000454D50207472696767657265640054488F
:1026F00045524D414C2052554E4157415900546866
:1027000065726D616C2052756E61776179000A0A9D
:102710000020205A5F4D494E5F50524F42453A00CB
:1027200020205A5F4D41583A002020595F4D4158B2
:102730003A002020585F4D494E3A00202F0020409B
:10274000002042403A0020403A00496E76616C69B0
:10275000642065787472756465720A0041637469F7
:1027600076652045787472756465723A2000300B86
:102770000000F00C3200900E640000109600601112
:10278000C800B012FA00E0132C0100155E0100161B
:1027900090010017C201F017F4012020506C616E07
:1027A0006E657242756666657242797465733A2029
:1027B000002046726565204D656D6F72793A200084
:1027C00020436F6D70696C65643A20417567202005
:1027D0003920323032340A00204C61737420557035
:1027E00064617465643A20323032332D30352D31D6
:1027F00036207C20417574686F723A2028467261D9
:10280000636B74616C20576F726B732C2064656608
:1028100061756C7420636F6E666967290A004D618B
:10282000726C696E20322E312E322E310A00205306
:102830006F6674776172652052657365740A002053
:102840005761746368646F672052657365740A002A
:102850002042726F776E206F7574205265736574B5
:102860000A002045787465726E616C20526573654C
:10287000740A00506F77657255700A007374617244
:10288000740A0020503A00205A3A0020593A002099
:10289000583A00656E6473746F7073206869743A97
:1028A000200000002100240027002A002D00300015
:1028B000330001010000040107010A0100000A0BB6
:1028C00002090C0D0E0807030401000000000000BF
:1028D00000000000000000000000000000000000F8
:1028E00000000000000000001211100000000000B5
:1028F00000000000000000000000000000000000D8
:102900000000000020002300260029002C002F00DA
:10291000320000010000030106010901000022004D
:10292000250028002B002E00310034000201000099
:10293000050108010B01050505050705080808083C
:10294000020202020A0A0808040404040101010147
:102950000101010103030303030303030407070742
:102960000C0C0C0C0C0C0C0C0202020206060606E7
:10297000060606060B0B0B0B0B0B0B0B01021020B4
:1029800020080810204010204080020102010804A5
:102990000201010204081020408080402010080439
:1029A0000201800402018040201008040201080492
:1029B00002010102040810204080010204081020D6
:1029C0004080702600009B1E0000C3150000C70D4C
:1029D0000000F40700004F04000040020000260140
:1029E0000000486F6D696E67204661696C65640020
:1029F000FF010150726F62696E67204661696C6504
:102A0000640A00205A3A200020593A2000426564A6
:102A100020583A200020202000202020416E616CA8
:102A20006F6720696E203D2025356C64003C756E13
:102A3000757365642F756E6B6E6F776E3E00202820
:102A40004125326429202000253364200050494E5E
:102A50003A20004F75747075742000496E7075745B
:102A6000202000416E616C6F6720696E203D20253B
:102A7000356C640070726F74656374656420002047
:102A80002841253264292020002533642000504944
:102A90004E3A2000EC1D0001E71D0101DA1D3B004C
:102AA000CF1D4500C41D3900B91D4300AE1D3A00BD
:102AB000A11D4400941D3201871D33017B1D34018B
:102AC000701D3501641D2501581D23014C1D110188
:102AD000401D1001341D1701281D19011C1D1B016B
:102AE000101D1D01041D3201F81C3401EC1C1F01D6
:102AF000E01C3501D41C2101C81C3301BC1C310170
:102B0000B01C2901A51C1C01971C18018B1C1A0163
:102B1000801C2201721C1E01661C24015B1C220108
:102B20004D1C1E01411C2401361C2201281C1E01C3
:102B30001C1C2401141C0901071C0A01FA1B0701B3
:102B4000ED1B2F01E01B2D01D11B0801C91B0D013D
:102B5000BC1B0A01AF1B0901A21B0801951B070141
:102B6000891B32017D1B3301721B34016D1B350142
:102B7000631B3501581B0B014D1B1501421B27011F
:102B8000371B20012D1B0301221B0301181B0F0102
:102B90000D1B0F01031B1301F81A1301ED1A03019A
:102BA000E21A0E01D71A1201CB1A0201BF1A0F0145
:102BB000AF1A0601A51A3701981A26018D1A360197
:102BC000831A3D01761A38016B1A3C01611A3001F3
:102BD000541A3E01491A2E01391A2801291A3F01B7
:102BE000191A3B01091A4001F9192A01E919410191
:102BF000D8192C01C7194201B6191401A5190C01E5
:102C0000486F6D6520257320466972737400220A2F
:102C100000556E6B6E6F776E20636F6D6D616E64C5
:102C20003A202200204500205A0020590020204D43
:102C300039322058005374657073207065722075A6
:102C40006E6974006F6B0A00526573656E643A209A
:102C50000020453A00205A3A0020593A00583A00DC
:102C60005072696E7465722068616C7465642E20A0
:102C70006B696C6C28292063616C6C6564210A00A7
:102C8000EAB511241FBECFEFD1E2DEBFCDBF00E019
:102C90000CBF84B780938E1214BE0FB6F894A8951B
:102CA00080916000886180936000109260000FBE88
:102CB00013E0A0E0B2E0EEEBF5E901E00BBF02C0EB
:102CC00007900D92A03BB107D9F722E1A0EBB3E04A
:102CD00001C01D92AE38B207E1F716E1C1E4D6E1BA
:102CE00000E006C021970109802FFE010E94A7C7BE
:102CF000C034D10780E00807A9F70E943EB80C94C1
:102D0000DDCA0C940000EF92FF920F931F93E092A4
:102D1000BD03F092BE030093BF031093C003609302
:102D2000C1037093C2038093C3039FEFFF27621B0D
:102D3000730B840B30F4809570956195790B890B3A
:102D400099279093BC03A6E06A9F0092B003512D8F
:102D5000EE277A9F500DE11D8A9FE00D5093B1033D
:102D6000E093B203AFE06A9F0092B403512DEE27C7
:102D70007A9F500DE11D8A9FE00D5093B503E093BB
:102D8000B603AAE06A9F0092B803512DEE277A9FFE
:102D9000500DE11D8A9FE00D5093B903E093BA03F3
:102DA0001F910F91FF90EF90089593E0980FE92FF6
:102DB000F0E021E030E002C0220F331F9A95E2F7E5
:102DC0002095309590913405922390933405ED5CD5
:102DD000FC4F2081922321E019F020E0822F0895FA
:102DE000823031F0833021F0813011F0129AF6CF29
:102DF000479AF4CFE82FF0E021E030E0082E02C03F
:102E0000220F331F0A94E2F72095309590913405F4
:102E1000922390933405ED5CFC4F2081922321E0B6
:102E200019F020E0822F08958130A1F060F0823007
:102E3000C9F7909108019095917090930601909137
:102E4000B3079B7F04C05F9A9091B3079E7F9093D6
:102E5000B307E8CF8A9A9091B3079D7FF8CF9F92EE
:102E6000AF92BF92CF92DF92EF92FF920F931F9398
:102E7000CF93DF9300D01F921F92CDB7DEB7E5E26C
:102E8000F6E10027BB27462F572FA82FAA2341F48E
:102E9000A52F542FB85FAA2319F4A52F5527B85F83
:102EA000A03138F45295A295452F4F70507FA42B36
:102EB000BC5FA03428F4550FAA1F550FAA1FBE5F90
:102EC000A03818F4550FAA1FB395550FAA1FEA0F83
:102ED000F01F449151E0AA27B85079F1C0F0B0FF3B
:102EE00002C0440F551FB1FF04C0440F551F440FCB
:102EF000551FB2FF06C052954295142F1F70407F98
:102F0000512BB3FF1AC0A52F542F442716C0B195DB
:102F1000B0FF02C055954795B1FF04C05595479540
:102F200055954795B2FF05C05295407F4295452B78
:102F30005F70B3FF02C0452F5527DD24CC24BB248E
:102F4000B2E0649FD018C108B00AB00B749FC018DB
:102F5000B108B00B849FB018B109659FC018B108C3
:102F6000B00B759FB018B109859FB0196A9FB01852
:102F7000B1097A9FB0194D9DA12C99243327992727
:102F800022275D9DA00C911C301F901F201FAD9D1E
:102F9000900C311D901F201F4C9DA00C911C301FC8
:102FA000901F201F5C9D900C311D901F201FAC9D19
:102FB000300D911D201F4B9D900C311D901F201F27
:102FC0005B9D300D911D201FAB9D900D211D4B9FD2
:102FD000300D911D201F5B9F900D211DAB9F200D7B
:102FE000B1E0BB24CC24DD24639FD018C108B00A13
:102FF000B00B739FC018B108B00B839FB018B10914
:10300000699FC018B108B00B799FB018B109899FAA
:10301000B019629FB018B109729FB019D61AC70AC9
:10302000B80A20F0B1E03B0F901F201F1124792F28
:10303000632F90E0822F0F900F900F900F900F90C2
:10304000DF91CF911F910F91FF90EF90DF90CF9084
:10305000BF90AF909F900895AF92BF92CF92DF92B2
:10306000EF92FF920F931F93CF93DF93C0EDD7E0C2
:1030700000E814E080EEA82E87E0B82EC12CD12CF9
:103080007601C39469917991899199910E9447C37E
:10309000288939894A895B890E94A8C30E942FC95F
:1030A000F80161937193819391938F01C616D706AE
:1030B000E806F90610F46B017C01AC16BD0611F7A9
:1030C0006FEF7FEFCB01A70196010E941DC72093F0
:1030D0009004309391044093920450939304DF91B1
:1030E000CF911F910F91FF90EF90DF90CF90BF9005
:1030F000AF9008957F928F929F92AF92BF92CF929E
:10310000DF92EF92FF920F931F93CF93DF93709014
:10311000E004CCE6D4E095E1C92E92E0D92E2DE171
:10312000E22E22E0F22E00ED14E0772009F45EC0DA
:10313000F80180809180A280B38020E030E0A90176
:10314000C501B4010E9443C3882309F44FC020E0A5
:1031500030E040E05FE3C501B4010E94A8C39B01D9
:10316000AC010E94A8C32BED3FE049E450E40E946B
:10317000A8C39B01AC0160E070E080E89FE30E947F
:10318000C2C84B015C0189929992A992B992F60149
:10319000619171916F01072E000C880B990B0E94B1
:1031A00049C32AE037ED43E25CE30E94A8C3A501CE
:1031B00094010E94A8C3F701619371938193919345
:1031C0007F010C5F1F4FF4E0CC37DF0709F0ADCF74
:1031D000DF91CF911F910F91FF90EF90DF90CF90F3
:1031E000BF90AF909F908F907F900895812C912CED
:1031F00080E8A82E8FE3B82EC6CF809172119091EF
:103200007311891B8F7019F490E080E008959091FC
:103210006F11992351F0833030F48FEF890F19F03B
:1032200080936F11F1CF10926F118091731122E68C
:10323000829FC0011124885E974FFC01208120FDF0
:10324000E3CF209173112F5F2F7020937011309175
:10325000731120917111321304C0209170112093C9
:1032600071110895FC017081472F50E0062E02C0B5
:10327000559547950A94E2F740FF14C04091DA054E
:1032800050E0062E02C0559547950A94E2F740FF9C
:1032900009C021E030E001C0220F6A95EAF72095CD
:1032A000272320830895CF93DF9324E0829FC001DA
:1032B0001124EC01CF5DD04FFC01EF53F84F805A41
:1032C0009B4FDC012D913D914D915C91608171810D
:1032D000828193810E94E6C7688379838A839B8376
:1032E000DF91CF91089580915C0490915D04A0914D
:1032F0005E04B0915F048093580290935902A093AA
:103300005A02B0935B0280915A0490915B049093AF
:1033100014028093130208958091580290915902EB
:10332000A0915A02B0915B0280935C0490935D047B
:10333000A0935E04B0935F048091130290911402F5
:1033400090935B0480935A0484E690E09093140277
:10335000809313020895CF93DF9390914D049111C0
:103360001BC0C0911102D091120221979CE2899F4B
:10337000F0011124E95BF04F20E030E040E05FE332
:1033800064817581868197810E94E6C70E942AC95F
:1033900021E06C177D070CF020E0822FDF91CF91A8
:1033A000089590E080E00895409122045091230414
:1033B000833021F445FD10C044FD0CC021E030E015
:1033C00002C0220F331F8A95E2F72423352381E0C0
:1033D000232B09F480E0089581E0089580913F0453
:1033E00084FD0BC08091410487FD07C09091420489
:1033F000937081E019F480E0089581E00895E7E496
:10340000FFE081E0838787AB8093AA0F8093D60F7C
:1034100008952FEB280F2A3108F047C0E22FF0E083
:1034200080913F0490914004A0914104B0914204E6
:1034300004C0B695A795979587952A95D2F780FDF4
:1034400002C081700895EB5DFB4FE081EE2341F1F6
:103450008091CE079091CF07E80FF92FF11D808161
:1034600090ED980F9A3030F08E3251F48181805374
:103470008A3098F4F0931F04E0931E0481E00895CD
:103480008D3211F08B3249F4818190ED980F9A3092
:1034900088F38E3211F48281EACFF0E0E0E0EACFE7
:1034A00010921F0410921E04E9CF80E00895B1DF4E
:1034B000882341F081E020911E0430911F04232BCA
:1034C00009F480E00895EDE0F4E080EF9FEFA9E7D4
:1034D000B4EC84839583A683B78380839183A2838E
:1034E000B383E7EFF3E08DE98183808308958F92C2
:1034F0009F92AF92BF92CF92DF92EF92FF92FC0128
:1035000098E0A2ECB4E001900D929A95E1F788E082
:10351000FB01A9EBB4E001900D928A95E1F7C09010
:10352000C204D090C304E090C404F090C50420E02D
:1035300030E0A901C701B6010E9443C38823E1F12D
:10354000A701960160E070E080E89FE30E94C2C896
:103550006B017C018090C6049090C704A090C804C1
:10356000B090C90420E030E0A901C501B4010E9477
:1035700043C3882329F1A501940160E070E080E84D
:103580009FE30E94C2C8C0920504D0920604E09254
:103590000704F09208046093090470930A0480936E
:1035A0000B0490930C04FF90EF90DF90CF90BF90AE
:1035B000AF909F908F900895C12CD12C7601CACFE7
:1035C00060E070E0CB01DFCF1092BD041092BE042A
:1035D0001092BF041092C0041092B9041092BA0461
:1035E0001092BB041092BC041092C6041092C7043F
:1035F0001092C8041092C9041092C2041092C3041D
:103600001092C4041092C504E1EEF4E080E090E072
:10361000A0ECBFE780839183A283B38384839583E7
:10362000A683B78380879187A287B387848795878E
:10363000A687B787709625E0E132F20759F708951B
:103640000F931F93CF93DF9304EE17E0C5E9D4E007
:10365000F80121913191419151918F0160E070E029
:1036600080E89FE30E94C2C86993799389939993F4
:10367000F4E0C53ADF0761F70E945B9BDF91CF91D1
:103680001F910F91E9CC2F923F924F925F926F92D0
:103690007F928F929F92AF92BF92CF92DF92EF92E2
:1036A000FF920F931F93CF93DF93CDB7DEB7A09711
:1036B0000FB6F894DEBF0FBECDBF1C017B015E8349
:1036C0004D83FC01EF5AFF4F2081318142815381AC
:1036D00029833A834B835C83CA01B9010E9447C3A3
:1036E0004B015C01D7012D913D914D915C910E9460
:1036F000A8C30E94ACC82B013C01ED81FE81208152
:10370000318142815381C501B4010E94A8C30E9446
:10371000ACC86B017C01C301B2010E942FC96D8747
:103720007E878F87988B683771058105910540F4F6
:1037300028E730E040E050E02D873E874F87588BE8
:10374000C701B6010E942FC96D837E838F8398873E
:10375000683771058105910540F488E790E0A0E0A5
:10376000B0E08D839E83AF83B887D10195962D916C
:103770003D914D915C91989729873A874B875C875B
:10378000F101E35AFF4F608171818281938161155C
:1037900071058105910509F4FCC10E9449C36D8B37
:1037A0007E8B8F8B988F9B01AC0160E070E080E88E
:1037B0009FE30E94C2C8698F7A8F8B8F9C8F20E015
:1037C00030E040E05FE30E94A8C36B017C01A501EB
:1037D0009401C501B4010E94A8C32B013C016D8175
:1037E0007E818F8198850E9447C39B01AC010E9416
:1037F000A8C39B01AC01C301B2010E94E5C7A701A8
:1038000096010E94A8C34B015C016D857E858F8562
:1038100098890E9447C39B01AC010E94A8C36D8F89
:103820007E8F8F8F98A39B01AC01C301B2010E94D0
:10383000E5C7A70196010E94A8C32B013C010E9485
:10384000ACC80E942FC96B017C01C501B4010E9464
:103850005BC90E942FC9698B7A8B8B8B9C8BDC0197
:10386000CB018C0D9D1DAE1DBF1D29853A854B8555
:103870005C85281B390B4A0B5B0BDA01C901B7FFCA
:1038800061C069857A858B859C850E9447C3A301A9
:1038900092010E94E6C7A50194010E94E5C720E0BD
:1038A00030E040E05FE30E94A8C30E94ACC86B0117
:1038B0007C0120E030E0A9010E940CCA18161CF01F
:1038C000C12CD12C7601C701B6010E942FC96B0112
:1038D0007C0189859A85AB85BC858C159D05AE05D7
:1038E000BF0510F46C017D0129853A854B855C8507
:1038F0002C193D094E095F09298B3A8B4B8B5C8B48
:10390000C701B6010E9447C34B015C012D893E8966
:103910004F89588DCA01B9010E94E6C79B01AC01CD
:10392000C501B4010E94A8C32D8D3E8D4F8D58A1B5
:103930000E94E6C70E9451CA0E942FC969837A83F8
:103940008B839C8320E034E244EF59E4698D7A8DC7
:103950008B8D9C8D0E94A8C34B015C0169817A818B
:103960008B819C812D853E854F855889621B730B09
:10397000840B950B0E9447C3A50194010E94A8C324
:103980000E942FC92B013C0169817A818B819C8126
:103990002D813E814F815885621B730B840B950BE3
:1039A0000E9447C3A50194010E94A8C30E942FC989
:1039B0004B015C013FE6431651046104710408F0B9
:1039C000F4C0F201EE0FFF1FEE0FFF1FE759FB4E91
:1039D00085919591A591B4918C01AD8BB9874FE6F6
:1039E00084169104A104B10408F0E6C0F401EE0FBE
:1039F000FF1FEE0FFF1FE759FB4E45915591659153
:103A00007491342F252F698F7D8FD1019A96CD9295
:103A1000DD92ED92FC929D979596CD90DD90ED9084
:103A2000FC909897B701A60189899A89AB89BC89CE
:103A3000481B590B6A0B7B0BD1019E964D935D93EE
:103A40006D937C93D197F101EB5AFF4F8D859E8545
:103A5000AF85B88980839183A283B383D101D69641
:103A60004D925D926D927C92D997F10182AE93AEA8
:103A7000A4AEB5AEFE96008311834D89428359856D
:103A80005383349630832183898D82839D8D9383E4
:103A900029813A814B815C81D2962D933D934D9340
:103AA0005C93D59777962D813E814F8158852083F1
:103AB000318342835383719780819181A281B38145
:103AC000892B8A2B8B2B09F44BC0D10191966D91D8
:103AD0007D918D919C9194970E9447C32091CC0435
:103AE0003091CD044091CE045091CF040E94A8C3E0
:103AF0004B015C01C701B6010E9447C39B01AC01A9
:103B0000C501B4010E94C2C86B017C01F101E35BF5
:103B1000FF4FFA87E98769817A818B819C810E94B6
:103B200047C3A70196010E94A8C30E942FC9A98577
:103B3000BA856D937C93F101E15BFF4FFA83E983D2
:103B40006D817E818F8198850E9447C3A701960170
:103B50000E94A8C30E942FC9A981BA816D937C934A
:103B6000A0960FB6F894DEBF0FBECDBFDF91CF9108
:103B70001F910F91FF90EF90DF90CF90BF90AF908B
:103B80009F908F907F906F905F904F903F902F907D
:103B90000895198E1A8E1B8E1C8E198A1A8A1B8AFA
:103BA0001C8AC12CD12C7601CDCEC301B20157D9CC
:103BB0008B018D8B998713CFC501B40150D9362F56
:103BC000272F898F9D8F21CF4F925F926F927F9287
:103BD0008F929F92AF92BF92CF92DF92EF92FF921D
:103BE0000F931F93CF93DF93EC012091B904309191
:103BF000BA044091BB045091BC04688179818A81E8
:103C00009B810E94E5C76B017C012091BD0430912E
:103C1000BE044091BF045091C0046C817D818E81AF
:103C20009F810E94E5C74B015C01A701960160914D
:103C30000D0470910E0480910F04909110040E9465
:103C400043C3882309F450C0C0920D04D0920E04DF
:103C5000E0920F04F09210042091050430910604C4
:103C60004091070450910804C701B6010E94A8C3FF
:103C70002B013C010E945BC96B017C0120E030E01C
:103C8000A9010E9443C387FD70C020E030E040E0FE
:103C900050E4C701B6010E940CCA18162CF4C12CBE
:103CA000D12CE12CA0E4FA2EA7019601C301B201A8
:103CB0000E94E5C76093FD037093FE038093FF03AA
:103CC00090930004C701B6010E942AC96093FB03C8
:103CD000062E000C770B6F5F7F4F6330710514F079
:103CE00063E070E06093F903D091F703C091FB03A8
:103CF000A501940160911104709112048091130444
:103D0000909114040E9443C3811133C0DC1381C01D
:103D10002091DF033091E0034091E1035091E203F1
:103D20006091FD037091FE038091FF039091000468
:103D30000E94A8C32091E3033091E4034091E5037E
:103D40005091E6030E94E6C7DF91CF911F910F913A
:103D5000FF90EF90DF90CF90BF90AF909F908F90AB
:103D60007F906F905F904F900895C12CD12C760179
:103D70009BCF8092110490921204A0921304B092EF
:103D800014042091090430910A0440910B045091CD
:103D90000C04C501B4010E94A8C34B015C010E9440
:103DA0005BC96B017C0120E030E0A9010E9443C3A4
:103DB00087FDF4C020E030E040E050E4C701B601E8
:103DC0000E940CCA18162CF4C12CD12CE12CF0E462
:103DD000FF2EA7019601C501B4010E94E5C76093BB
:103DE0000104709302048093030490930404C701B8
:103DF000B6010E942AC96093FC03062E000C770BC3
:103E00006F5F7F4F6330710514F063E070E0609383
:103E1000FA030091FC03DC1305C08091F8038017BE
:103E200009F471C08091FB039091FC039093F80317
:103E30008093F703002E000C110B24E0C202C00196
:103E40001124FC01E00FF11FEE0FFF1FEE0FFF1F0B
:103E5000EF51FB4F20813181428153812093F30345
:103E60003093F4034093F5035093F603C091FA03A3
:103E70000C2E000CDD0BFC01EC0FFD1FEE0FFF1FE5
:103E8000EE0FFF1FEF51FB4F6081718182819381A3
:103E90000E94E5C76093EF037093F0038093F103F2
:103EA0009093F2038091F90324E08202C00111246F
:103EB000FC01E00FF11FEE0FFF1FEE0FFF1FEF5190
:103EC000FB4F20813181428153812093EB0330935A
:103ED000EC034093ED035093EE03C80FD91FCC0FB2
:103EE000DD1FCC0FDD1FCF51DB4F688179818A81C7
:103EF0009B810E94E5C76093E7037093E80380937A
:103F0000E9039093EA038090010490900204A0904A
:103F10000304B09004042091EF033091F00340912A
:103F2000F1035091F203C501B4010E94A8C320918E
:103F3000F3033091F4034091F5035091F6030E948E
:103F4000E6C76B017C01C092E303D092E403E092E8
:103F5000E503F092E6032091E7033091E8034091F6
:103F6000E9035091EA03C501B4010E94A8C320915E
:103F7000EB033091EC034091ED035091EE030E946E
:103F8000E6C7A70196010E94E5C76093DF0370931F
:103F9000E0038093E1039093E203BACEC12CD12CCD
:103FA000760117CF2F923F924F925F926F927F923E
:103FB0008F929F92AF92BF92CF92DF92EF92FF9239
:103FC0000F931F93CF93DF93D62FC72FFC018080D1
:103FD0009180A280B380C501B40120E831E541E0C1
:103FE00050E00E941DC7C9016DE671E00E9480C7C4
:103FF0006B017C01C501B40120E13EE040E050E0EE
:104000000E941DC7CA01B90128E130E040E050E03C
:104010000E941DC7362E272E062F172F8CE3482E01
:10402000512C612C712CC501B401A30192010E9495
:104030001DC7B62EA72ECA01B901A30192010E9485
:104040001DC7CB01C114D10479F1AF92BF927F9308
:104050006F932F923F92FF92EF92DF92CF9288EF71
:1040600091E19F938F93CF93DF930E9414C38DB7F9
:104070009EB70E960FB6F8949EBF0FBE8DBF8D2FC4
:104080009C2FDF91CF911F910F91FF90EF90DF90C8
:10409000CF90BF90AF909F908F907F906F905F90E8
:1040A0004F903F902F900895E114F104C9F0AF9222
:1040B000BF927F936F932F923F92FF92EF9288EE81
:1040C00091E19F938F93CF93DF930E9414C3EDB739
:1040D000FEB73C960FB6F894FEBF0FBEEDBFCFCF34
:1040E000012BB9F0AF92BF927F936F932F923F92C3
:1040F0008CED91E19F938F93CF93DF930E9414C334
:104100008DB79EB70A960FB6F8949EBF0FBE8DBFAF
:10411000B6CF892BA9F0AF92BF927F936F9384EDB6
:1041200091E19F938F93CF93DF930E9414C3EDB7D8
:10413000FEB738960FB6F894FEBF0FBEEDBF9FCF07
:10414000AF92BF9280ED91E19F938F93CF93DF93D6
:104150000E9414C30F900F900F900F900F900F902C
:104160008ECFAF92BF92CF92DF92EF92FF920F93DA
:104170001F93CF935C016B018A0188539C4F7C0194
:10418000DC01CC91C7FF3DC0FB0111821082CF5FE3
:10419000D701CC93CC300CF053C08CE08A9DF00159
:1041A0008B9DF00D1124CF018C0F911DC7FD9A95A9
:1041B00020916B112817190609F00CF441C0F60183
:1041C00020813181FC01EE0FFF1FE80FF91FED5D2B
:1041D000FE4E81819281820F931FD80111969C938C
:1041E0008E93808187FF3DC061E08F77CF911F91D3
:1041F0000F91FF90EF90DF90CF90BF90AF900C9415
:104200006E9F8CE08A9DF0018B9DF00D1124CF01F3
:104210008C0F911DC7FD9A9520916B1128171906D7
:1042200009F00CF4B4CFFC01EE0FFF1FE80FF91FEB
:10423000ED5DFE4E808160E08F770E946E9FA7CF7C
:10424000F6018081918104968034FCE99F0710F487
:1042500080E49CE9D80111969C938E938FEFF7012F
:104260008083CF911F910F91FF90EF90DF90CF90BF
:10427000BF90AF90089580911E0490911F04009705
:1042800031F04AE050E070E060E00C9483C060E000
:1042900070E0CB010895EFDF97FD0AC0ECDF6F3FC0
:1042A00071058105910509F02CF4E5DF862F08954D
:1042B00080E008958FEF0895CF93C62FF8D8882314
:1042C00011F0CF91E8CF8C2FCF91089580911E04EB
:1042D00090911F04892B39F0DEDF91E0811101C03C
:1042E00090E0892F089591E0FCCFCF93DF93C82F02
:1042F000D62FDDD8882319F0DF91CF91E7CF8C2F0F
:1043000088D8811101C08D2FDF91CF910895B3DF3F
:10431000CB010895CF93DF9385E47BD8811121C031
:1043200080E040913F0450914004609141047091BD
:104330004204972F9170C92F90E0D92FCC0FDD1F29
:1043400071FB222720F930E0220F331F220F331F89
:10435000C22B67FB442740F9C42B8C2BDF91CF91F4
:10436000089580911E0490911F04892B59F0CFDF8E
:104370008430B0F693E0980F81E001C0880F9A95E1
:10438000EAF7CFCF88E7CDCFCF93DF93EB018FD87C
:10439000882319F0DF91CF91BACFCE01DF91CF9171
:1043A00008950F931F93CF9380911E0490911F0443
:1043B000009709F1FC018F01C1912C2F2F7DA1F0F5
:1043C000C53431F0C53621F0C83511F0C83799F73A
:1043D000F801108270E060E00E942EBFF801C083F7
:1043E000CF911F910F91089570E060E0CF911F91E0
:1043F0000F910C942EBF60E070E0CB01F1CFCF9213
:10440000DF92EF92FF926A017B0151D8882329F055
:10441000FF90EF90DF90CF90C4CFC701B601FF901F
:10442000EF90DF90CF9008954F925F926F927F92BE
:10443000AF92BF92CF92DF92EF92FF920F931F93B2
:10444000CF938AE3A82E83E0B82E9FE0E92E96E072
:10445000F92E02E812E021E2C22E2FE0D22EC0E0B7
:10446000F50181915F0123D8882309F4A5C099DF64
:104470002B013C018C2F0E94D419882309F492C08F
:10448000F8012081318142815381C301B2010E9430
:10449000E6C7F7016083718382839383CF5FF4E083
:1044A000EF0EF11C0C5F1F4F84E0C80ED11CC3300F
:1044B000B9F685E40E94571A882309F488C071DF91
:1044C0006B017C0183E00E94D419882371F0209154
:1044D0008E0230918F024091900250919102C7015B
:1044E000B6010E94E6C76B017C01C0921B06D09208
:1044F0001C06E0921D06F0921E0640E050E0BA0154
:1045000086E47DDF20E030E0A9010E940CCA181685
:104510007CF447DF20E030E040E752E40E94C2C86C
:10452000609358027093590280935A0290935B02F1
:104530008091260683FD28C080912006882321F1E2
:1045400020918E0230918F02409190025091910201
:1045500060911B0670911C0680911D0690911E06AD
:104560000E94E5C72091420F3091430F4091440FC4
:104570005091450F0E94E6C76093420F7093430F1E
:104580008093440F9093450FCF911F910F91FF900F
:10459000EF90DF90CF90BF90AF907F906F905F9043
:1045A0004F900895F6012081318142815381C301EA
:1045B000B2010E94E5C76DCFF80180819181A2818F
:1045C000B381F70180839183A283B38367CF809106
:1045D0008E0290918F02A0919002B09191028093EF
:1045E0001B0690931C06A0931D06B0931E0685CF54
:1045F0000F930FB70F9300916E000F930D7F0093F1
:104600006E0000916F000D7F00936F000F930BB74A
:104610000F930CB70F921F922F933F934F935F937B
:104620006F937F938F939F93AF93BF93EF93FF937A
:104630001124B7D4FF91EF91BF91AF919F918F91CA
:104640007F916F915F914F913F912F911F900F90AC
:104650000CBF0F910BBF0F910260F89400936F0095
:104660000F9100936E000F910FBF0F9118950000EE
:104670008091230680FF2AC089988FEF809362057E
:104680008091230681FF25C08F988FEF809363056B
:104690008091230682FF20C080910B01827080935D
:1046A00009018FEF80936405809161059091230645
:1046B00093FF20C08130D1F0B8F08230C9F0833050
:1046C000B9F08FEF8093650500000895899A81E025
:1046D000D5CF8F9A81E0DACF80910B0180958270DF
:1046E0008093090181E0DECF1698EBCF439AE9CFA2
:1046F0004398E7CF813049F030F0823041F0833089
:1047000031F081E0DFCF169AFCCF4398FACF439A7D
:10471000F8CF80E00E94D51681E00E94D51682E095
:104720000E94D51683E00C94D51680E00E94FA16FC
:1047300081E00E94FA1682E00E94FA16EACF8330E6
:1047400009F060E0860F21E030E001C0220F8A9579
:10475000EAF780913405822B8093340508958230E6
:1047600059F0833061F0813019F080E00C9462B22E
:10477000479861E083E0E3CF479862E0FBCF47983A
:1047800063E0F8CF813039F020F0823031F060E022
:10479000D6CF5F98FCCF8A98FACF9091080191709C
:1047A00090930601F4CFCF93DF932091C10422238D
:1047B00071F0EC0109DA9B01AC01688579858A8585
:1047C0009B850E94E6C7688779878A879B87DF91E8
:1047D000CF91089590916F0081E091FD02C080E03B
:1047E000089590916F009D7F90936F000895EFE67C
:1047F000F0E080818260808308958F929F92AF92D3
:10480000BF92CF92DF92EF92FF920F931F93CF93BD
:10481000DF93182F84E0189FE0011124123008F074
:1048200046C0D8DF082FD6DF809098059090990574
:10483000A0909A05B0909B058111D9DFCBDFC09085
:104840009C05D0909D05E0909E05F0909F058111FC
:10485000CEDF0111CCDF113019F5C501B4016C199F
:104860007D098E099F090E9449C320E030E040E0A5
:104870005FE30E94A8C3CB56DB4F288139814A8170
:104880005B810E94A8C3DF91CF911F910F91FF9090
:10489000EF90DF90CF90BF90AF909F908F90089552
:1048A000C701B601680D791D8A1D9B1DDCCF92DF03
:1048B000FE01E856FA4FC080D180E280F38081117A
:1048C00096DFC701B6010E9449C3D5CF8F929F9250
:1048D000AF92BF92CF92DF92EF92FF921F93CF934E
:1048E000DF93CDB7DEB760970FB6F894DEBF0FBE8B
:1048F000CDBF182F80E081DF4B015C0180924E0418
:1049000090924F04A0925004B092510481E075DF60
:104910006B017C01C0925204D0925304E092540483
:10492000F092550482E069DF609356047093570457
:1049300080935804909359041D861E861F86188AFA
:1049400089829A82AB82BC82CD82DE82EF82F88637
:1049500069877A878B879C8783E04FDF6D877E87A7
:104960008F87988B8091C104882379F0CE010196BE
:104970002BD99B01AC0169857A858B859C850E942A
:10498000E5C769877A878B879C871E3FD9F480E1CA
:10499000FE013196A2E8B2E001900D928A95E1F70E
:1049A00060960FB6F894DEBF0FBECDBFDF91CF91FA
:1049B0001F91FF90EF90DF90CF90BF90AF909F90AE
:1049C0008F90089584E0189FF0011124DF01AE5705
:1049D000BD4F81E090E08C0F9D1FE80FF91F4081D3
:1049E0005181628173814D935D936D937C93139795
:1049F000D7CFCF92DF92EF92FF92CF93DF93C82F62
:104A0000E9DE94E0C99FE0011124FE01E457FA4F6A
:104A1000C080D180E280F3808111E9DECB56DB4F8C
:104A2000C701B6010E9449C3288139814A815B814F
:104A30000E94A8C3DF91CF91FF90EF90DF90CF90BD
:104A40000895CF93DF93CDB7DEB72C970FB6F894C8
:104A5000DEBF0FBECDBF0E94669ABCDE9CE0E8E9D7
:104A6000F5E0DE01119601900D929A95E1F7811122
:104A7000BEDECE0101960E9467B22C960FB6F89466
:104A8000DEBF0FBECDBFDF91CF910895CF93DF93EF
:104A90001F92CDB7DEB7898360E0CE0101960E94F8
:104AA000321961E0CE0101960E94321962E0CE0116
:104AB00001960E94321989810F90DF91CF9108955C
:104AC0008F929F92AF92BF92CF92DF92EF92FF921E
:104AD000CF93DF9320913E02222309F48EC0EC0194
:104AE0008091DA05E82E80FF2CC0809040029090E3
:104AF0004102A0904202B0904302288139814A814C
:104B00005B81C501B4010E940CCA181624F4888286
:104B10009982AA82BB8280904C0290904D02A09014
:104B20004E02B0904F02288139814A815B81C501D4
:104B3000B4010E9443C387FF04C088829982AA827D
:104B4000BB82E1FE2CC08090440290904502A09070
:104B50004602B09047022C813D814E815F81C501A4
:104B6000B4010E940CCA181624F48C829D82AE8275
:104B7000BF828090500290905102A0905202B0905B
:104B800053022C813D814E815F81C501B4010E9499
:104B900043C387FF04C08C829D82AE82BF82E2FE47
:104BA0002CC0C0904802D0904902E0904A02F09098
:104BB0004B02288539854A855B85C701B6010E946D
:104BC0000CCA181624F4C886D986EA86FB86C090DB
:104BD0005402D0905502E0905602F090570228857A
:104BE00039854A855B85C701B6010E9443C387FFAB
:104BF00004C0C886D986EA86FB86DF91CF91FF90F4
:104C0000EF90DF90CF90BF90AF909F908F900895DE
:104C1000CF92DF92EF92FF920F931F93CF93DF9388
:104C2000E82FF0E0EF01CC0FDD1FCC0FDD1F4617A2
:104C300039F0823009F049C0C12CD12C760117C05F
:104C40008230D1F3A091B2078A2F90E0DC01AA0F45
:104C5000BB1FA80FB91FAE0FBF1FAA0FBB1FAA0F04
:104C6000BB1FA152BA4FCD90DD90ED90FC908F010B
:104C7000000F111F000F111FF801E652FC4E259185
:104C8000359145915491C25CDD4FC701B6010E9438
:104C9000E6C76A837B838C839D83F801E253FC4ED5
:104CA0002591359145915491C701B6010E94E6C7FF
:104CB0006E877F87888B998BDF91CF911F910F91A2
:104CC000FF90EF90DF90CF90089550E0DA01AA0FA7
:104CD000BB1FA40FB51FAE0FBF1FAA0FBB1FAA0F8C
:104CE000BB1FA152BA4F862F90E0BC01660F771F01
:104CF000680F791FE60FF71FEE0FFF1FEE0FFF1F64
:104D0000E152FA4F20813181428153816D917D9131
:104D10008D919C910E94E5C76B017C01C25CDD4FC7
:104D2000AC019B016A817B818C819D810E94E6C7D9
:104D30006A837B838C839D83A70196016E857F8523
:104D400088899989B3CF4F925F926F927F928F92A9
:104D50009F92AF92BF92CF92DF92EF92FF92CF934A
:104D6000DF9300D01F921F92CDB7DEB74090820232
:104D70005090830260908402709085028090860239
:104D800090908702A0908802B0908902C0908A0219
:104D9000D0908B02E0908C02F0908D0280918E0278
:104DA00090918F02A0919002B091910289839A8391
:104DB000AB83BC830E942C180E94FF190E947A18B2
:104DC0001D828D810E94531940E060E08D8120DFBB
:104DD0009D819F5F9D839330A1F70E94631A0E947B
:104DE000201BA30192016091820270918302809145
:104DF0008402909185020E9443C381112CC0A501B9
:104E0000940160918602709187028091880290914E
:104E100089020E9443C381111EC0A70196016091BF
:104E20008A0270918B0280918C0290918D020E9477
:104E300043C3811110C029813A814B815C8160910B
:104E40008E0270918F0280919002909191020E9447
:104E500043C38823A1F00F900F900F900F900F90F5
:104E6000DF91CF91FF90EF90DF90CF90BF90AF9008
:104E70009F908F907F906F905F904F90E2CD0F90BA
:104E80000F900F900F900F90DF91CF91FF90EF90C8
:104E9000DF90CF90BF90AF909F908F907F906F905A
:104EA0005F904F9008950C945B9B80912206811136
:104EB00005C08091B407882309F472C080914C0426
:104EC000659B5EC0816080934C049091030180914A
:104ED0004C0490FF57C0826080934C049091000175
:104EE00080914C0493FF50C0886080934C04809163
:104EF0004C044A9B4BC0846080934C0480917B059A
:104F000080FF10C08091230687FF0CC080914C0465
:104F100080FF08C08091AF0781608093AF0780E079
:104F20000E949BB280917B0581FF12C08091230675
:104F30009091240690FD0CC080914C0481FF08C024
:104F40008091AF0782608093AF0781E00E949BB29F
:104F500080917B0582FF24C08091230682FF18C0C8
:104F60008091B4078823E1F080914C0483FF18C03E
:104F70008091AF0788608093AF0782E00C949BB26A
:104F80008E7FA1CF8D7FA8CF877FAFCF8B7FB4CF10
:104F900080914C0482FF04C08091AF078460EBCF06
:104FA00008952F923F924F925F926F927F928F92CD
:104FB0009F92AF92BF92CF92DF92EF92FF920F93A8
:104FC0001F93CF93DF93CDB7DEB762970FB6F894F8
:104FD000DEBF0FBECDBF8FEF9FEF90938900809310
:104FE00088000AE00A8B312C212C78948091850569
:104FF00090918605A0918705B0918805892B8A2B11
:105000008B2B09F025C280918B05882381F180913B
:10501000890590918A0510928B05892B09F418C295
:1050200010928A051092890510927C0510927B05DA
:105030009091721180917311981731F080917311D2
:105040008F5F8F70809373112FEF3FEFA901209333
:10505000360230933702409338025093390220933E
:1050600032023093330240933402509335028091E0
:10507000890590918A05892B09F4EAC1409181053F
:1050800050918205609183057091840580917D0522
:1050900090917E05A0917F05B09180054817590732
:1050A0006A077B0708F0D4C10091AE0710E030E03A
:1050B00020E0841B950BA60BB70B081719072A07CE
:1050C0003B0710F4D901C801282F840F951FA61F94
:1050D000B71F8093810590938205A0938305B093B9
:1050E000840531E0C0903D05D0903E05E0903F053D
:1050F000F090400580914D0590914E05A0914F058F
:10510000B0915005C80ED91EEA1EFB1EC0924D0577
:10511000D0924E05E0924F05F0925005F7FC18C072
:105120008091390590913A05A0913B05B0913C05DD
:10513000B701A601481B590B6A0B7B0BDB01CA01A7
:1051400080934D0590934E05A0934F05B093500565
:10515000409141055091420560914305709144058D
:105160008091510590915205A0915305B09154053D
:10517000480F591F6A1F7B1F4093510550935205DA
:10518000609353057093540577FD18C080913905DD
:1051900090913A05A0913B05B0913C052A013B0155
:1051A000481A590A6A0A7B0AD301C2018093510541
:1051B00090935205A0935305B093540580904505F4
:1051C00090904605A0904705B09048058091550500
:1051D00090915605A0915705B0915805880D991DDD
:1051E000AA1DBB1D8093550590935605A0935705A6
:1051F000B0935805B7FD18C08090390590903A05D6
:10520000A0903B05B0903C052C013D014818590881
:105210006A087B0853014201809255059092560519
:10522000A0925705B09258054090490550904A0504
:1052300060904B0570904C058090590590905A05F0
:10524000A0905B05B0905C05840C951CA61CB71C57
:105250008092590590925A05A0925B05B0925C0528
:10526000B7FC38C04090390550903A0560903B0536
:1052700070903C0584189508A608B70880925905D7
:1052800090925A05A0925B05B0925C05E091890569
:10529000F0918A05E85BFF4F80809180A280B38007
:1052A00089288A288B2809F46CC180906F0590901A
:1052B0007005A0907105B090720501E0801A910808
:1052C000A108B10880926F0590927005A0927105B7
:1052D000B0927205198A311104C0E0918400F091F6
:1052E0008500F7FC1CC040906205042C000C55089A
:1052F000660877088090980590909905A0909A0587
:10530000B0909B05840C951CA61CB71C8092980538
:1053100090929905A0929A05B0929B05889A77FD84
:105320001CC040906305042C000C550866087708E3
:1053300080909C0590909D05A0909E05B0909F0543
:10534000840C951CA61CB71C80929C0590929D0510
:10535000A0929E05B0929F058E9AB7FD21C0409005
:105360006405042C000C5508660877088090A00599
:105370009090A105A090A205B090A305840C951C67
:10538000A61CB71C8092A0059092A105A092A20530
:10539000B092A30530910B0130953870309309011C
:1053A0003989332341F140906505042C000C5508E0
:1053B000660877088090A4059090A505A090A605A2
:1053C000B090A705840C951CA61CB71C8092A40560
:1053D0009092A505A092A605B092A705309161050F
:1053E000313009F4D3C008F4CFC0323009F4CEC054
:1053F000333009F4CBC0E0918400F0918500E09156
:105400008400F0918500F7FE889877FF8E98B7FDAD
:1054100005C080910B01887080930901498944235C
:1054200069F080916105813009F4B4C008F4B0C01E
:10543000823009F4AFC0833009F4ACC0222321F0DC
:105440008091840090918500215030E009F04ACE8F
:105450008091360290913702A0913802B0913902C2
:105460000097A105B10509F09FC040915D055091DD
:105470005E0560915F0570916005809135059091A2
:105480003605A0913705B0913805840F951FA61FEA
:10549000B71F80935D0590935E05A0935F05B09361
:1054A0006005B7FD5DC040916505042E000C550BED
:1054B000660B770B0091A4051091A5052091A60518
:1054C0003091A705040F151F261F371F0093A40551
:1054D0001093A5052093A6053093A70500916F05AD
:1054E000109170052091710530917205400F511F88
:1054F000621F731F40936F05509370056093710591
:10550000709372054091390550913A0560913B05C1
:1055100070913C05841B950BA60BB70B80935D0522
:1055200090935E05A0935F05B0936005809161053F
:105530008130A1F188F1823089F1833079F1809155
:1055400084009091850080918400909185008091E5
:105550006105813039F120F1823021F1833011F180
:105560008091320290913302A0913402B0913502C1
:105570008093360290933702A0933802B093390299
:1055800018C011E0198BA7CE149A35CF419A33CFAA
:10559000149854CF419852CF149AD1CF419ACFCF7B
:1055A0001498DECF4198DCCF8F3F9F4FAF4FBF4F56
:1055B000B9F28091850590918605A0918705B091FB
:1055C0008805892B8A2B8B2B09F0A8C2E0918905CD
:1055D000F0918A053097E1F18091810590918205E3
:1055E000A0918305B091840540917D0550917E0581
:1055F00060917F057091800584179507A607B7070E
:1056000070F110928A051092890510927C05109213
:105610007B059091721180917311981731F08091F0
:1056200073118F5F8F70809373116FEF7FEFCB01DA
:105630006093360270933702809338029093390258
:105640006093320270933302809334029093350258
:1056500090ED892E97E0992EA12CB12C8BC0409112
:105660007705509178056091790570917A05481712
:1056700059076A077B0708F42AC480917305909143
:105680007405A0917505B091760546A957A960AD3E
:1056900071AD84179507A607B70708F013C40097E4
:1056A000A105B10509F0AAC2C090C103D090C20300
:1056B000E090C303F090C403C701B6010E948FB30A
:1056C0004B015C018091730590917405A091750563
:1056D000B0917605880D991DAA1DBB1D8093730599
:1056E00090937405A0937505B09376052091890574
:1056F00030918A05F901E85BFF4F80819181A28199
:10570000B3810097A105B105A9F1235B3F4FF901D2
:1057100040805180712C612C00916F0510917005B3
:105720002091710530917205041515052605370580
:105730001CF080E090E0DC01BC01CD016C0D7D1D12
:105740008E1D9F1D0E943FB3E0918905F0918A054F
:10575000E45BFF4F208104C0660F771F881F991FED
:105760002A95D2F760933202709333028093340209
:10577000909335028091890590918A05892B09F0D3
:10578000C5C10E94FD1890938A0580938905892BD5
:1057900009F4BCC1E0918905F0918A05808183FFFD
:1057A00001C050C6C588D688E788F08C418C528CE1
:1057B000638C748CDF01AA5BBF4F2D913C9181E01B
:1057C00090E0C414D504E604F70409F068C690E03C
:1057D00080E0C114D104E104F10479F0522F51703A
:1057E000C90196958795482F417071E060E0541388
:1057F00070E0872F962F541352C6858C968CA78CF9
:10580000B0A081149104A104B10409F084609093C4
:105810007C0580937B0510926605109267051092B7
:105820006805109269051092730510927405109224
:1058300075051092760585A196A1A7A1B0A58093C4
:105840007D0590937E05A0937F05B0938005442746
:105850005527BA01481B590B6A0B7B0B40935D051A
:1058600050935E0560935F057093600540934D050E
:1058700050934E0560934F0570935005409351052A
:10588000509352056093530570935405409355050A
:1058900050935605609357057093580540935905EA
:1058A00050935A0560935B0570935C0541A152A12A
:1058B00063A174A1440F551F661F771FCC0CDD1C1C
:1058C000EE1CFF1CC0923D05D0923E05E0923F05C4
:1058D000F0924005440C551C661C771C4092410513
:1058E000509242056092430570924405880C991CC1
:1058F000AA1CBB1C8092450590924605A0924705C4
:10590000B09248054093490550934A0560934B0572
:1059100070934C05880F991FAA1FBB1F80933905F0
:1059200090933A05A0933B05B0933C0510928105F6
:1059300010928205109283051092840582A593A58A
:10594000A4A5B5A58093770590937805A0937905D4
:10595000B0937A0586A597A5A0A9B1A980936B05F8
:1059600090936C05A0936D05B0936E0581A580930F
:10597000610590912D02891741F010926F051092E8
:1059800070051092710510927205DF01A85BBF4F80
:10599000CD90DD90ED90FC90CD28CE28CF2891F0D1
:1059A000E45BFF4FE08104C0440F551F661F771F63
:1059B000EA95D2F740933505509336056093370545
:1059C00070933805409123065091240642175307DF
:1059D00011F4891741F080932D023093240620930F
:1059E00023060E94372361DA66246A94762C4301E9
:1059F00060922E0270922F028092300290923102B9
:105A0000E0918905F0918A05DF01DE96ED90FD9029
:105A10000D911C9122A933A944A955A9EB5AFF4F16
:105A200060817181828193810E94831610926A0540
:105A3000E0918905F0918A05EB5AFF4F60817181F1
:105A4000828193810E948FB34B015C018091730529
:105A500090917405A0917505B0917605880D991DFA
:105A6000AA1DBB1D8093730590937405A0937505C3
:105A7000B09376058091890590918A05FC01E85BD9
:105A8000FF4F40815181628173814115510561054C
:105A90007105E1F135960081118130E020E0C09080
:105AA0006F05D0907005E0907105F0907205C016FA
:105AB000D106E206F3061CF040E050E0BA018B5A32
:105AC0009F4FFC0180819181A281B3812A013B011A
:105AD000480E591E6A1E7B1EC301B2010E943FB3CD
