:100000000C947C160C94BC160C94BC160C94BC1668
:100010000C94BC160C94BC160C94BC160C94BC1618
:100020000C94BC160C9478990C9478990C9478994B
:100030000C94BC160C94BC160C94BC160C94BC16F8
:100040000C94BC160C948A220C94BC160C94BC160E
:100050000C94BC160C9479A50C94BC160C94AB9E15
:100060000C94BC160C94B28E0C94A88E0C94BC16F6
:100070000C94BC160C94BC160C94BC160C94BC16B8
:100080000C9491340C94BC160C94BC160C94BC16B5
:100090000C94BC160C94BC160C94BC160C94BC1698
:1000A0000C94BC160C94BC160C9463340C94BC16C3
:1000B0000C94BC160C94BC160C94BC160C94BC1678
:1000C0000C94BC160C94BC160C94BC160C94BC1668
:1000D0000C94BC160C94BC160C94BC160C94BC1658
:1000E0000C94BC16084AD73B3BCE016E84BCBFFDC6
:1000F000C12F3D6C74319ABD56833DDA3D00C77FF8
:1001000011BED9E4BB4C3E916BAAAABE0000008090
:100110003F05A84CCDB2D44EB93836A9020C50B91F
:10012000918688083CA6AAAA2ABE000000803F004B
:100130004E414E494E495459494E46CDCCCC3D0ACC
:10014000D7233C17B7D13877CC2B329595E6241FAF
:10015000B14F0A000020410000C84200401C462068
:10016000BCBE4CCA1B0E5AAEC59D74434F4D4D5577
:100170004E49434154494F4E0044525952554E0046
:100180004552524F525300494E464F004543484F47
:10019000004572726F722077726974696E6720749D
:1001A0006F20454550524F4D210A00363726033CFB
:1001B0003D380F2E303E13061A1C1824221E0A3A10
:1001C0000739040844432F00015072696E74657248
:1001D0002073746F707065642064756520746F207F
:1001E0006572726F72732E2046697820746865207C
:1001F0006572726F7220616E6420757365204D396F
:10020000393920746F20726573746172742E2028DE
:1002100054656D70657261747572652069732072C2
:10022000657365742E20536574206974206166744B
:1002300065722072657374617274696E67290A0051
:100240004E6F20436865636B73756D2077697468C2
:10025000206C696E65206E756D6265722C204C6134
:100260007374204C696E653A2000636865636B7334
:10027000756D206D69736D617463682C204C6173BA
:1002800074204C696E653A20004C696E65204E758D
:100290006D626572206973206E6F74204C61737497
:1002A000204C696E65204E756D6265722B312C2075
:1002B0004C617374204C696E653A20004D313130C9
:1002C0000053657269616C20737461747573206D7D
:1002D00069736D617463680A00746F6F206D756374
:1002E0006820696E6163746976652074696D652044
:1002F0002D2063757272656E7420636F6D6D616E13
:10030000643A20002121204B494C4C2063617573D5
:1003100065642062792000627573793A2070617596
:1003200073656420666F7220696E7075740A00626E
:100330007573793A2070617573656420666F7220F9
:10034000757365720A00627573793A2070726F6313
:10035000657373696E670A006563686F3A0045727A
:10036000726F723A004F4646004F4E0042696C6908
:100370006E656172204C6576656C696E67204772A8
:1003800069643A0A004C4F570048494748004F4BB0
:10039000004572726F723A20416C6C200020636FCE
:1003A0006E6E656374696F6E2E2E2E200054657319
:1003B00074696E6720004C4F570048494748004F0A
:1003C0004B004572726F723A20416C6C20002063C2
:1003D0006F6E6E656374696F6E2E2E2E20005465ED
:1003E0007374696E6720004C4F57004849474800B6
:1003F0004F4B004572726F723A20416C6C200020A6
:10040000636F6E6E656374696F6E2E2E2E200054BE
:10041000657374696E6720004C4F57004849474820
:10042000004F4B004572726F723A20416C6C200095
:1004300020636F6E6E656374696F6E2E2E2E2000C2
:1004400054657374696E6720004C4F5700484947E4
:1004500048004F4B004572726F723A20416C6C201D
:100460000020636F6E6E656374696F6E2E2E2E2092
:100470000054657374696E672000426564204C65A2
:1004800076656C696E6720004661696C65642074EE
:100490006F20656E61626C6520426564204C6576F4
:1004A000656C696E670A00496E76616C6964206DDF
:1004B0006573682E0A002E0A002F0050726F626961
:1004C0006E67206D65736820706F696E7420002000
:1004D0002844525952554E290047323920417574EB
:1004E0006F20426564204C6576656C696E67003FDD
:1004F00020284C2C522C462C4229206F7574206FDA
:100500006620626F756E64732E0A003F2856296557
:1005100072626F7365206C6576656C20696D706CB6
:1005200061757369626C652028302D34292E0A00AC
:10053000426164205A2076616C75650A004E6F2016
:1005400062696C696E65617220677269640A002075
:10055000440020204D32303020540020204D3230D5
:1005600030205300202844697361626C6564293A25
:100570000046696C616D656E742073657474696E94
:1005800067730020204D3230312058004D617820B3
:10059000416363656C65726174696F6E2028756E66
:1005A0006974732F7332290020204D323033205864
:1005B000004D6178206665656472617465732028FA
:1005C000756E6974732F73290020520020204D32FC
:1005D0003034205000416363656C65726174696FEB
:1005E0006E2028756E6974732F7332292028503C51
:1005F0007072696E742D616363656C3E20523C724B
:100600006574726163742D616363656C3E20543C54
:1006100074726176656C2D616363656C3E290020A0
:10062000540020530020204D3230352042004164D8
:1006300076616E6365642028423C6D696E5F736508
:10064000676D656E745F74696D655F75733E205389
:100650003C6D696E5F66656564726174653E2054C9
:100660003C6D696E5F74726176656C5F666565642A
:10067000726174653E20583C6D61785F6A65726B8B
:100680003E20593C6D61785F6A65726B3E205A3C32
:100690006D61785F6A65726B3E20453C6D61785F85
:1006A0006A65726B3E290020204D32313700546F4D
:1006B0006F6C2D6368616E67696E670020204D3234
:1006C0003138205400486F74656E64206F6666731D
:1006D0006574730020440020490020500020204D04
:1006E000333031204500486F74656E6420504944B2
:1006F0000050574D3A20202534640050574D3A2081
:10070000202534640050574D3A2020253464005091
:10071000574D3A20202534640050574D3A2020256B
:1007200034640050574D3A20202534640050574D12
:100730003A20202534640050574D3A202025346457
:100740000050574D3A20202534640050574D3A2030
:10075000202534640050574D3A2020253464005041
:10076000574D3A20202534640050574D3A2020251B
:1007700034640050574D3A20202534640050574DC2
:100780003A20202534640050574D3A202025346407
:10079000003A200020202020434F4D002020206ED2
:1007A0006F6E2D7374616E646172642050574D20BA
:1007B0006D6F646500202020636F6D70617265202D
:1007C000696E7465727275707420656E61626C65B5
:1007D00064002020206F766572666C6F7720696EEA
:1007E0007465727275707420656E61626C65640008
:1007F0003A20002020202054494D534B00423A20FB
:1008000000202020205443435200413A2000202061
:10081000202054434352002020202043533A2000FC
:100820002020202057474D3A200050574D3A202095
:100830002534640050574D3A202025346400470089
:100840004800000088008A008C00B300B40000005B
:1008500098009A009C00A800AA00AC0028012A0178
:100860002C012020202054494D45520044004500D1
:100870006E00800081006F00B000B1007000900039
:1008800091007100A000A1007200200121017300FD
:1008900020697320616C736F207469656420746FC4
:1008A00020746869732070696E0054494D45523157
:1008B00043000A202E002020002020506F72743A3E
:1008C00020004C4F57004849474800446F6E652E42
:1008D0000A0050756C73696E6720202000556E7495
:1008E0006F756368656420005A5F50524F42455FE0
:1008F000534552564F5F4E52206E6F74207365748D
:100900002075702E0A00202D2000576174636869DD
:100910006E672070696E00206973007320617265D4
:10092000002070726F7465637465642E2055736562
:100930002027492720746F206F766572726964657D
:100940002E0A005370656369666965642070696E7C
:100950000064697300656E0061626C65640A00651D
:100960006E6473746F70206D6F6E69746F722000A7
:1009700020204D61783A2000200020204D696E3AF9
:100980002000203B200020204D32313120530053E5
:100990006F667420656E6473746F70730073707229
:1009A0006561644379636C6500737465616C746838
:1009B00043686F700020647269766572206D6F64A1
:1009C000653A09007370726561644379636C650010
:1009D000737465616C746843686F70002064726939
:1009E000766572206D6F64653A0900737072656197
:1009F000644379636C6500737465616C7468436803
:100A00006F700020647269766572206D6F64653A5C
:100A100009007370726561644379636C6500737477
:100A200065616C746843686F7000206472697665F4
:100A300072206D6F64653A0900737072656164437A
:100A400079636C6500737465616C746843686F707A
:100A50000020647269766572206D6F64653A0900E2
:100A6000202E68737472743A2000202E68656E64BC
:100A70003A20002063686F70706572202E746F6674
:100A8000663A2000202E68737472743A2000202E7B
:100A900068656E643A20002063686F70706572202C
:100AA0002E746F66663A2000202E68737472743A52
:100AB0002000202E68656E643A20002063686F7005
:100AC000706572202E746F66663A2000202E68735F
:100AD0007472743A2000202E68656E643A200020FB
:100AE00063686F70706572202E746F66663A2000BE
:100AF000202E68737472743A2000202E68656E642C
:100B00003A20002063686F70706572202E746F66E3
:100B1000663A20003F53206F7574206F6620726123
:100B20006E67652028312E2E38290A003F50206F2D
:100B30007574206F662072616E676520282D332ED4
:100B40002E3132290A003F4F206F7574206F6620C6
:100B500072616E67652028312E2E3135290A003BDF
:100B6000200020496E76616C696420657874727526
:100B7000646572200047322F473320626164207021
:100B80006172616D65746572730A00473238005A8C
:100B90002050726F6265205061737420426564005A
:100BA000205A3A200020593A200042656420583AE1
:100BB00020004D65736820706F696E74206F7574C6
:100BC000206F662072616E67650A005072696E74EC
:100BD0002074696D653A20000A53746174733A2079
:100BE00046696C616D656E7420757365643A2000AA
:100BF0002C204C6F6E67657374206A6F623A200018
:100C0000546F74616C2074696D653A20005374618F
:100C100074733A20002C204661696C65643A2000A8
:100C20002C2046696E69736865643A2000507269C9
:100C30006E74733A200053746174733A20006F6BC2
:100C4000006F6666008C018701800179016B0144A9
:100C5000454255473A004D3131322053687574642E
:100C60006F776E004D3131332053002F2F00206CF1
:100C7000696D6974656420746F2000204D6178206F
:100C800000416363656C65726174696F6E00574102
:100C9000524E494E4721204C6F77205A204A6572A8
:100CA0006B206D6179206C65616420746F20756EB6
:100CB00077616E746564207061757365732E0A00C8
:100CC000250A0046523A0020466C6F773A20003AD7
:100CD000200020536572766F2000206F7574206F9E
:100CE000662072616E67650A00536572766F200038
:100CF00050726F6265204F6666736574205A0050AB
:100D0000726F6265204F6666736574205A00496E83
:100D100076616C69642065787472756465720A0026
:100D200064697300656E0043290A0061626C656442
:100D300020286D696E2074656D702000436F6C64AF
:100D40002065787472756465732061726520004D4A
:100D500034323120696E636F727265637420706122
:100D600072616D657465722075736167650A004D07
:100D700065736820706F696E74206F7574206F667C
:100D80002072616E67650A00546F6F206661722081
:100D900066726F6D207265666572656E6365207040
:100DA0006F696E740A00454550524F4D204F4B0AF3
:100DB00000290A0020746F20003F5A206F757420AC
:100DC0006F662072616E67652028003F59206D753F
:100DD0007374206265203020284E4F5A5A4C455F6C
:100DE00041535F50524F4245292E0A003F58206D13
:100DF000757374206265203020284E4F5A5A4C4536
:100E00005F41535F50524F4245292E0A00206472C1
:100E1000697665722063757272656E743A2000207F
:100E20006472697665722063757272656E743A20B9
:100E300000206472697665722063757272656E74E3
:100E40003A2000206472697665722063757272655B
:100E50006E743A2000206472697665722063757240
:100E600072656E743A20006F6B0020204D32303670
:100E7000205800486F6D65206F6666736574004387
:100E800061703A00434F4E4649475F4558504F52B4
:100E900054004D4541545041434B00434F4F4C4546
:100EA000525F54454D5045524154555245004348B8
:100EB000414D4245525F54454D5045524154555263
:100EC0004500424142595354455050494E47004114
:100ED000524353004D4F54494F4E5F4D4F4445537D
:100EE00000544845524D414C5F50524F5445435475
:100EF000494F4E00455854454E4445445F4D3230AD
:100F000000435553544F4D5F4649524D574152454A
:100F10005F55504C4F4144004C464E5F5752495428
:100F200045004C4F4E475F46494C454E414D4500AC
:100F30004155544F5245504F52545F53445F5354A0
:100F4000415455530053445F57524954450052454C
:100F500050454154005344434152440050524F4D78
:100F600050545F535550504F525400484F53545FA4
:100F7000414354494F4E5F434F4D4D414E44530002
:100F8000454D455247454E43595F50415253455296
:100F900000434153455F4C494748545F42524947DB
:100FA00048544E45535300544F47474C455F4C49B6
:100FB0004748545300534F4654574152455F504F92
:100FC000574552004255494C445F50455243454EA7
:100FD00054004C4556454C494E475F4441544100EE
:100FE0005A5F50524F42450052554E4F55540041A2
:100FF00055544F4C4556454C005052494E545F4A4B
:101000004F420050524F4752455353004155544FA1
:101010005245504F52545F54454D50004155544F26
:101020005245504F52545F504F5300564F4C554D00
:10103000455452494300454550524F4D0042494E98
:101040004152595F46494C455F5452414E534645C3
:10105000520053455249414C5F584F4E5F584F46DE
:1010600046004649524D574152455F4E414D453A23
:101070004D61726C696E20322E312E322E31202855
:1010800041707220203520323032342030353A31F0
:10109000323A34372920534F555243455F434F442A
:1010A000455F55524C3A6769746875622E636F6D7F
:1010B0002F4D61726C696E4669726D776172652F32
:1010C0004D61726C696E2050524F544F434F4C5FCC
:1010D00056455253494F4E3A312E30204D414348E8
:1010E000494E455F545950453A536F75746865725F
:1010F0006E20566F6C7465727261203234562055C2
:10110000415254206A756D706572732077697468F6
:1011100020544D4332323039206F6E204D4B5320D6
:1011200047656E4C2076322E312045585452554436
:1011300045525F434F554E543A3220555549443A33
:1011400063656465326132662D343161322D343726
:1011500034382D396231322D63353563363266339A
:101160003637666600203B0020204D383531205848
:1011700030205930205A005A2D50726F6265204F2E
:101180006666736574002569730025696D2025699D
:1011900073002569682025696D202569730025691C
:1011A00064202569682025696D20256973002569FB
:1011B0007920256964202569682025696D202569C5
:1011C000730020573A0020573A00206661696C6529
:1011D00064212042616420686561746572206964DD
:1011E0000A00504944204175746F74756E65002380
:1011F000646566696E652044454641554C545F0000
:101200004B6420004B6920004B7020002066696E03
:101210006973686564212050757420746865206C5A
:10122000617374204B702C204B6920616E64204BDD
:101230006420636F6E7374616E74732066726F6D79
:101240002062656C6F7720696E746F20436F6E66E5
:10125000696775726174696F6E2E680A005049443F
:10126000204175746F74756E6500206661696C65E8
:1012700064212074696D656F75740A0050494420BB
:101280004175746F74756E6500206661696C656484
:10129000212054656D706572617475726520746F7C
:1012A0006F20686967680A00504944204175746F6F
:1012B00074756E6500204B643A2000204B693A201B
:1012C00000204B703A200020436C617373696320E7
:1012D000504944200A002054753A2000204B753AAA
:1012E0002000206D61783A2000206D696E3A200060
:1012F00020643A200020626961733A2000207374F0
:101300006172740A00504944204175746F74756E9F
:101310006500206661696C6564212054656D7065A7
:1013200072617475726520746F6F20686967680AEE
:1013300000504944204175746F74756E65006F707C
:10134000656E00545249474745524544003A2000D3
:101350007A5F70726F6265007A5F6D617800795FA5
:101360006D617800785F6D696E005265706F7274A0
:10137000696E6720656E6473746F70207374617436
:1013800075730A000080C5430000C8430080CF4346
:1013900000000000000000000000000020746F6FDB
:1013A000206C6F6E6720657874727573696F6E203C
:1013B00070726576656E7465640A0020636F6C6494
:1013C00020657874727573696F6E207072657665CA
:1013D0006E7465640A00000020C20000C8430080EB
:1013E000CF435761726E696E673A20486F6D696EC0
:1013F000672042756D702044697669736F72203C76
:1014000020310A000202040080C5430000C84300E6
:1014100080CF430000A0400000A04000000040003A
:10142000000001000000010000800055555500003B
:1014300000400033333300AAAA2A00499224000056
:10144000002000C7711C0099991900D1451700555B
:101450005515003BB1130024491200111111000071
:101460000010000F0F0F00E3380E0043790D00CC81
:10147000CC0C00C3300C00E8A20B0064210B00AAC6
:10148000AA0A00703D0A009DD80900427B0900921B
:10149000240900DCD30800888808001042080000F6
:1014A000000800F0C107008787070075500700712A
:1014B0001C07003EEB0600A1BC0600699006006612
:1014C000660600703E06006118060017F4050074F9
:1014D000D105005BB00500B29005006272050055B1
:1014E00055050078390500B81E0500050505004EB4
:1014F000EC040087D40400A1BD040090A7040049B7
:10150000920400C17D0400EE690400C75604004443
:101510004404005C3204000821040041100400006F
:101520000004003FF00300F8E0030026D20300C3EC
:10153000C30300CCB503003AA803000A9B0300389C
:101540008E0300C08103009F750300D06903005023
:101550005E03001D53030034480300913D03003334
:1015600033030016290300381F03009715030030CA
:101570000C0300030303000BFA020049F10200BA56
:10158000E802005CE002002DD802002DD0020059D4
:10159000C80200B0C0020031B90200DAB10200AAEC
:1015A000AA0200A0A30200BC9C0200FA9502005C03
:1015B0008F0200DF88020082820200457C02002741
:1015C00076020027700200436A02007C640200D0A9
:1015D0005E02003F590200C8530200FFFDFCFAF80A
:1015E000F6F4F2F0EEECEAE9E7E5E3E1E0DEDCDA7E
:1015F000D9D7D5D4D2D0CFCDCBCAC8C7C5C3C2C026
:10160000BFBDBCBAB9B7B6B4B3B2B0AFADACAAA99E
:10161000A8A6A5A4A2A1A09E9D9C9A9998979594EE
:101620009392908F8E8D8B8A89888786848382811E
:10163000807F7E7D7B7A797877767574737271702E
:101640006F6E6D6C6B6A6968676665646362616022
:101650005F5E5D5C5B5A595858575655545352510A
:1016600050504F4E4D4C4B4A4A49484746464544D8
:1016700043424241403F3E3E3D3C3B3B3A39383895
:1016800037363535343332323130302F2E2E2D2C43
:101690002B2B2A29292827272625252423232221E5
:1016A0002120201F1E1E1D1C1C1B1B1A1919181877
:1016B000171616151514131312121111100F0F0E01
:1016C0000E0D0D0C0C0B0A0A09090808070706067F
:1016D000050504040303020201000020746F6F205B
:1016E0006C6F6E6720657874727573696F6E2070A9
:1016F000726576656E7465640A0020636F6C6420A1
:10170000657874727573696F6E2070726576656E38
:101710007465640A00290A002062797465733B20AD
:10172000637263200053657474696E677320537429
:101730006F726564202800454550524F4D20496E18
:10174000697469616C697A65640A004861726463EE
:101750006F6465642044656661756C7420536574BC
:1017600074696E6773204C6F616465640020286D36
:101770006D2900203B204C6576656C696E67200002
:1017800020204D3432302053004175746F20426563
:1017900064204C6576656C696E670020204D393099
:1017A0003600205431204500205430204500537429
:1017B00065707065722064726976657220637572F7
:1017C00072656E740020204D353639205331005437
:1017D000312045005430204500205800447269767D
:1017E0006572207374657070696E67206D6F6465D3
:1017F00000204A002020473239205720490020206D
:101800004D3134392043203B20556E697473206973
:101810006E2043656C736975730A0054656D70655D
:1018200072617475726520556E697473002020476B
:101830003231203B004C696E65617220556E6974CF
:101840007300454550524F4D206461746173697A4D
:1018500065206572726F722E0A00202863616C63C6
:10186000756C6174656429210A0020213D200045C2
:101870004550524F4D20435243206D69736D617442
:101880006368202D202873746F72656429200045D9
:101890004550524F4D20436F72727570740A00208C
:1018A00053697A653A2000496E6465783A200029C8
:1018B0000A002062797465733B2063726320002004
:1018C00073746F7265642073657474696E677320D6
:1018D000726574726965766564202800000048436B
:1018E000000048430000A041000034420000C8420C
:1018F0000000C842F0F7FB4300000C43DC05000089
:10190000DC0500006400000010270000204D61721B
:101910006C696E3D563838290A00454550524F4D86
:101920002076657273696F6E206D69736D61746383
:10193000682028454550524F4D3D0045315F534585
:101940005249414C5F52585F50494E0045315F53F8
:10195000455249414C5F54585F50494E0045305FF5
:1019600053455249414C5F52585F50494E004530F3
:101970005F53455249414C5F54585F50494E005A9D
:101980005F53455249414C5F52585F50494E005A8F
:101990005F53455249414C5F54585F50494E00597E
:1019A0005F53455249414C5F52585F50494E005970
:1019B0005F53455249414C5F54585F50494E00585F
:1019C0005F53455249414C5F52585F50494E005851
:1019D0005F53455249414C5F54585F50494E005A3D
:1019E0005F535445505F50494E005A5F454E414247
:1019F0004C455F50494E005A5F4449525F50494E32
:101A000000595F535445505F50494E00595F454E51
:101A100041424C455F50494E00595F4449525F5026
:101A2000494E00585F535445505F50494E00585F2F
:101A3000454E41424C455F50494E00585F44495223
:101A40005F50494E005A5F4D494E5F50524F4245DC
:101A50005F50494E0045315F444941475F50494E10
:101A60000045305F444941475F50494E005A5F444A
:101A70004941475F50494E00595F444941475F50D3
:101A8000494E00585F444941475F50494E005A5FF4
:101A900053544F505F50494E005A5F4D41585F506C
:101AA000494E00595F53544F505F50494E00595FA3
:101AB0004D41585F50494E00585F53544F505F504E
:101AC000494E00585F4D494E5F50494E00534552B4
:101AD000564F335F50494E00534552564F325F5078
:101AE000494E00534552564F315F50494E005345C1
:101AF00052564F305F50494E0053445F53535F502E
:101B0000494E00534453530053445F53434B5F507B
:101B1000494E0053445F4D4F53495F50494E005367
:101B2000445F4D49534F5F50494E004D4F5346451A
:101B3000545F445F50494E004D4F534645545F43F8
:101B40005F50494E004D4F534645545F425F5049E8
:101B50004E004D4F534645545F415F50494E00542F
:101B6000454D505F305F43535F50494E004C4544F4
:101B70005F50494E004845415445525F4348414DEE
:101B80004245525F50494E004845415445525F42DC
:101B900045445F50494E004845415445525F325FCD
:101BA00050494E004845415445525F315F50494EBF
:101BB000004845415445525F305F50494E00464110
:101BC0004E5F50494E0045335F43535F50494E00CE
:101BD00045325F43535F50494E0045335F53544590
:101BE000505F50494E0045335F454E41424C455F82
:101BF00050494E0045335F4449525F50494E0045BD
:101C0000325F535445505F50494E0045325F454E58
:101C100041424C455F50494E0045325F4449525F56
:101C200050494E0045315F535445505F50494E0076
:101C300045315F454E41424C455F50494E0045316C
:101C40005F4449525F50494E0045305F5354455000
:101C50005F50494E0045305F454E41424C455F5014
:101C6000494E0045305F4449525F50494E00455847
:101C700050325F30385F50494E00455850325F3027
:101C8000375F50494E00455850325F30365F5049FB
:101C90004E00455850325F30355F50494E00455830
:101CA00050325F30345F50494E00455850325F30FB
:101CB000335F50494E00455850325F30325F5049D3
:101CC0004E00455850325F30315F50494E00455804
:101CD00050315F30385F50494E00455850315F30C9
:101CE000375F50494E00455850315F30365F50499C
:101CF0004E00455850315F30355F50494E004558D1
:101D000050315F30345F50494E00455850315F309C
:101D1000335F50494E00455850315F30325F504973
:101D20004E00455850315F30315F50494E004156AA
:101D3000525F53535F50494E004156525F53434BDD
:101D40005F50494E004156525F4D4F53495F5049D5
:101D50004E004156525F4D49534F5F50494E00541B
:101D6000454D505F4348414D4245525F50494E00FA
:101D700054454D505F4245445F50494E0054454DD7
:101D8000505F325F50494E0054454D505F315F50B7
:101D9000494E0054454D505F305F50494E00464912
:101DA0004C57494454485F50494E00545844300001
:101DB0005258443000423A0020436F756E742041FF
:101DC0003A004500626564006368616D6265720097
:101DD0002C2073797374656D2073746F70706564F3
:101DE00021204865617465725F49443A200045725C
:101DF000723A204D415854454D50004D415854457C
:101E00004D5020747269676765726564004865614A
:101E100074696E67204661696C6564004865617429
:101E2000696E67206661696C65640010006003502C
:101E3000012C0190012201D001180110020E017045
:101E4000020401E002FA006003F0000004E600B0C2
:101E500004DC00A005D200B006C8000008BE00A047
:101E600009B400800BAA00D00DA00090109600C00D
:101E7000138C0070178200901B780010206E00C039
:101E8000246400E02D500080353C00A03A2800A0DA
:101E90003D1400003F0000A03FECFF4572723A2065
:101EA0004D494E54454D50004D494E54454D5020DE
:101EB00074726967676572656400544845524D41A4
:101EC0004C2052554E4157415900546865726D611E
:101ED0006C2052756E61776179000A0A0020205AE1
:101EE0005F4D494E5F50524F42453A0020205A5FA5
:101EF0004D41583A002020595F4D41583A0020206A
:101F0000585F4D494E3A00202F00204000204340AA
:101F10003A002042403A0020403A00496E76616C17
:101F200069642065787472756465720A004163742F
:101F30006976652045787472756465723A20000090
:101F4000000000300E0100C00E0A00500F1400D037
:101F50000F1E0060102800E010320070113C00F0ED
:101F60001146007012500000135A008013640000E4
:101F7000146E00901478001015820090158C0010DB
:101F80001696009016A0001017AA009017B4001023
:101F900018BE009018C8001019D2009019DC00106B
:101FA0001AE600801AF000001BFA00801B0401F002
:101FB0001B0E01701C1801F01C2201601D2C01E099
:101FC0001D3601501E4001D01E4A01401F5401B071
:101FD0001F5E0130206801A020720110217C019059
:101FE000218601002290016026F401902A58028087
:101FF0002EBC0250322003E03584035039E80380C0
:102000003C4C042020506C616E6E657242756666B1
:10201000657242797465733A2000204672656520C6
:102020004D656D6F72793A200020436F6D70696C59
:1020300065643A2041707220203520323032340AF3
:1020400000204C61737420557064617465643A209B
:10205000323032332D30352D3136207C20417574AD
:10206000686F723A2028467261636B74616C205706
:102070006F726B732C2064656661756C7420636F7E
:102080006E666967290A004D61726C696E20322E96
:10209000312E322E310A0020536F667477617265DB
:1020A0002052657365740A00205761746368646F19
:1020B000672052657365740A002042726F776E2044
:1020C0006F75742052657365740A002045787465D5
:1020D000726E616C2052657365740A00506F77658B
:1020E0007255700A0073746172740A0020503A00CD
:1020F000205A3A0020593A0020583A00656E64731D
:10210000746F7073206869743A2000000021002405
:102110000027002A002D00300033000101000004D8
:102120000107010A0100000A0B02090C0D0E080745
:102130000304010000000000000000000000000097
:10214000000000000000000000000000000000008F
:10215000001211100000000000000000000000004C
:10216000000000000000000000000000002000232C
:1021700000260029002C002F00320000010000037F
:10218000010601090100002200250028002B002E75
:10219000003100340002010000050108010B0105B7
:1021A000050505070508080808020202020A0A08D0
:1021B00008040404040101010101010101030303F6
:1021C0000303030303040707070C0C0C0C0C0C0C93
:1021D0000C0202020206060606060606060B0B0B9A
:1021E0000B0B0B0B0B0102102020080810204010D5
:1021F00020408002010201080402010102040810CB
:1022000020408080402010080402018004020180E8
:102210004020100804020108040201010204081011
:10222000204080010204081020408024F404D920BA
:102230001BC40C5C0E9804C4095F0265077101F4AD
:1022400005F900FB04B30048048700C10369005886
:1022500003550003034500BE023A008402310053D7
:10226000022A002902250004022000E4011C00C803
:10227000011900AF011700980114008401130071C7
:102280000110006101100051010E0043010D0036E4
:10229000010B002B010B0020010B00150109000CA4
:1022A00001090003010800FB000800F3000800EB2F
:1022B000000700E4000600DE000600D8000600D299
:1022C000000600CC000500C7000500C2000500BDE7
:1022D000000400B9000400B5000400B1000400AD22
:1022E000000400A9000400A5000300A20003009F51
:1022F0000004009B00030098000300950002009377
:10230000000300900003008D0002008B0003008892
:102310000002008600020084000300810002007FAA
:102320000002007D0002007B0002007900020077BD
:1023300000010076000200740002007200010071CA
:102340000002006F0002006D0001006C0002006AD4
:1023500000010069000200670001006600010065DD
:1023600000010064000200620001006100010060E1
:102370000001005F0002005D0001005C0001005BE5
:102380000001005A000100590001005800010057E7
:1023900000010056000100550001005400010053E7
:1023A00000000053000100520001005100010050E4
:1023B0000001004F0001004E0000004E0001004DE2
:1023C0000001004C0001004B0000004B0001004ADE
:1023D00000010049000100480000004800010047DA
:1023E00000010046000000460001004500000045D5
:1023F00000010044000100430000004300010042CE
:1024000000000042000100410000004100010040C6
:102410000001003F0000003F0001003E0000003EC0
:102420000001003D0000003D0001003C0000003CB8
:102430000000003C0001003B0000003B0001003AAE
:102440000000003A000100390000003900010038A6
:10245000000000380000003800010037000000379D
:102460000001003600000036000000360001003593
:102470000000003500000035000100340000003489
:10248000000000340001003300000033000000337E
:102490000001003200000032000000320001003173
:1024A0000000003100000031000100300000003069
:1024B000000000300001002F0000002F0000002F5E
:1024C0000000002F0001002E0000002E0000002E52
:1024D0000001002D0000002D0000002D0000002D47
:1024E0000001002C0000002C0000002C0000002C3B
:1024F0000001002B0000002B0000002B0000002B2F
:102500000001002A0000002A0000002A0000002A22
:102510000001002900000029000000290000002916
:102520000000002900010028000000280000002809
:1025300000000028000000280001002700000027FC
:1025400000000027000000270000002700010026EF
:1025500000000026000000260000002600000026E3
:1025600000010025000000250000002500000025D6
:1025700000000025000000250001002400000024C8
:1025800000000024000000240000002400010023BB
:1025900000000023000000230000002300000023AF
:1025A00000000023000000230001002200000022A0
:1025B0000000002200000022000000220000002293
:1025C0000001002100000021000000210000002186
:1025D0000000002100000021000000210001002077
:1025E000000000200000002000000020000000206B
:1025F0000000002000000020000000200001001F5B
:102600000000001F0000001F0000001F0000001F4E
:102610000000001F0000001F0001001E0000001E3F
:102620000000001E0000001E00000024F4D4305002
:10263000C38E20C2A24017828B7011127A910D8135
:102640006CD90AA861E108C7586607615143061EA4
:102650004B5D05C145A7041A411104093D9803715A
:102660003931034036DB0265339102D430540280A5
:102670002E1D02632CEE01752AC501B028A00110A1
:102680002781018F2564012B244B01E0223401AC0A
:10269000211F018D200D01801FFC00841EED00977D
:1026A0001DDF00B81CD200E61BC600201BBC006466
:1026B0001AB200B219A8000A19A0006A189900D12C
:1026C00017910040178B00B516840031167E00B3B9
:1026D0001579003A157300C7146F0058146A00EE9C
:1026E0001366008813630025135E00C7125B006C3D
:1026F00012570015125400C111510070114F0021E2
:10270000114B00D61049008D1047004610440002BE
:10271000104200C00F4000800F3E00420F3C0006F8
:102720000F3B00CB0E3800930E37005C0E350027B0
:102730000E3400F30D3200C10D3100900D300060F9
:102740000D2E00320D2D00050D2C00D90C2B00AEE6
:102750000C2900850C29005C0C2700350C27000E85
:102760000C2600E80B2400C40B2400A00B23007DE2
:102770000B23005A0B2100390B2100180B2000F805
:102780000A1F00D90A1E00BB0A1E009D0A1D0080F8
:102790000A1D00630A1C00470A1B002C0A1B0011BB
:1027A0000A1A00F7091A00DD091900C4091900AB5B
:1027B000091900920917007B091800630917004CDA
:1027C00009160036091600200916000A091500F539
:1027D000081500E0081400CC081400B8081400A480
:1027E000081400900813007D0812006B08130058AD
:1027F00008120046081200340811002308110012C4
:1028000008110001081100F0071000E0071000D0C7
:10281000071000C0071000B0070F00A107100091BB
:10282000070E0083070F0074070F0065070E00579F
:10283000070E0049070E003B070D002E070E002073
:10284000070D0013070D0006070D00F9060C00ED3B
:10285000060D00E0060C00D4060C00C8060C00BCF7
:10286000060C00B0060C00A4060B0099060C008DA7
:10287000060B0082060B0077060B006C060B00614E
:10288000060A0057060B004C060A0042060A0038EA
:10289000060A002E060A0024060A001A060A00107C
:1028A00006090007060A00FD050900F4050900EB0A
:1028B000050900E2050900D9050900D0050900C78E
:1028C000050900BE050900B5050800AD050800A50D
:1028D0000509009C050800940508008C0508008483
:1028E0000508007C050800740508006C05070065F4
:1028F0000508005D050700560508004E050700475E
:102900000507004005080038050700310507002AC3
:10291000050700230507001C050600160507000F24
:102920000507000805060002050700FB040600F580
:10293000040700EE040600E8040600E2040700DBDA
:10294000040600D5040600CF040600C9040600C32F
:10295000040600BD040600B7040600B1040500AC7F
:10296000040600A6040600A00405009B04060095CA
:10297000040500900406008A040500850405008013
:102980000406007A04050075040500700405006B58
:1029900004050066040500610405005C0405005799
:1029A000040500520405004D0405004804050043D9
:1029B0000405003E0404003A040500350405003017
:1029C0000404002C04050027040400230405001E51
:1029D0000404001A04040016040500110404000D88
:1029E000040400090405000404040000040400FCBD
:1029F000030400F8030400F4030400F0030400ECF3
:102A0000030400E8030400E4030400E0030400DC22
:102A1000030400D8030400D4030400D0030400CC52
:102A2000030400C8030300C5030300722900007CEF
:102A3000200000AD160000270E000012080000570D
:102A40000400004102000026010000486F6D696E1D
:102A500067204661696C656400FF010150726F6216
:102A6000696E67204661696C65640A00205A3A20E5
:102A70000020593A200042656420583A2000202066
:102A80002000202020416E616C6F6720696E203D20
:102A90002025356C64003C756E757365642F756E0A
:102AA0006B6E6F776E3E002028412532642920200E
:102AB00000253364200050494E3A20004F75747051
:102AC00075742000496E707574202000416E616C31
:102AD0006F6720696E203D2025356C640070726F31
:102AE00074656374656420002028412532642920C0
:102AF0002000253364200050494E3A2000B01D00CC
:102B000001AB1D01019E1D3B00931D3A00881D393C
:102B1000007D1D4500701D44005F1D4300521D32A5
:102B200001451D3301391D34012E1D3501221D259E
:102B300001161D23010A1D1101FE1C1001F21C17B4
:102B400001E61C1901DA1C1B01CE1C1D01C21C323E
:102B500001B61C3401AA1C1F019E1C3501921C21C8
:102B600001861C33017A1C31016E1C2901631C1C77
:102B700001551C1801491C1A013E1C2201301C1E63
:102B800001241C2401191C22010B1C1E01FF1B2403
:102B900001F41B2201E61B1E01DA1B2401D01B2CB1
:102BA00001C61B2C01BE1B0401B11B0A01A41B079B
:102BB00001971B2D01881B0801751B2F016D1B0D33
:102BC000015F1B4201521B0A01451B0901381B080A
:102BD000012B1B07011F1B3201131B3301081B3480
:102BE00001031B3501F91A3501EE1A0B01E31A1521
:102BF00001D81A2701CD1A2001C31A0301B81A03FC
:102C000001AE1A0F01A31A0F01991A13018E1A139C
:102C100001831A0301781A0E016D1A1201611A025A
:102C200001551A0F01451A06013B1A37012E1A26C3
:102C300001231A3601191A3D010C1A3801011A3CF8
:102C400001F7193001EA193E01DF192E01CF1928C9
:102C500001BF193F01AF193B019F1940018F192A8C
:102C6000017F1941016E192C015D1942014C1914A3
:102C7000013B190C01486F6D652025732046697270
:102C8000737400220A00556E6B6E6F776E20636F4F
:102C90006D6D616E643A202200204500205A0020AC
:102CA000590020204D39322058005374657073202C
:102CB00070657220756E6974006F6B0A00526573DF
:102CC000656E643A200020453A00205A3A002059A7
:102CD0003A00583A005072696E7465722068616CEF
:102CE0007465642E206B696C6C28292063616C6CA0
:102CF0006564210A000038B011241FBECFEFD1E275
:102D0000DEBFCDBF00E00CBF84B78093FD1014BEC2
:102D10000FB6F894A8958091600088618093600058
:102D2000109260000FBE13E0A0E0B2E0E0E1FCE82A
:102D300001E00BBF02C007900D92A437B107D9F78D
:102D400020E1A4E7B3E001C01D92AD3FB207E1F777
:102D500016E1CCE7D6E100E006C021970109802FFB
:102D6000FE010E94D0C2CB37D10780E00807A9F747
:102D70000E94D9B20C9406C60C940000EF92FF9208
:102D80000F931F93E0928103F092820300938303D9
:102D90001093840360938503709386038093870365
:102DA0009FEFFF27621B730B840B30F480957095A7
:102DB0006195790B890B992790938003A6E06A9F10
:102DC00000927403512DEE277A9F500DE11D8A9FCA
:102DD000E00D50937503E0937603AFE06A9F009295
:102DE0007803512DEE277A9F500DE11D8A9FE00D4B
:102DF00050937903E0937A03AAE06A9F00927C03E0
:102E0000512DEE277A9F500DE11D8A9FE00D5093C2
:102E10007D03E0937E031F910F91FF90EF90089543
:102E200093E0980F21E030E002C0220F331F9A9503
:102E3000E2F7209530959091490529232093490583
:102E4000882321F0813021F081E00895129AFCCF8F
:102E5000479AFACF21E030E0082E02C0220F331F3C
:102E60000A94E2F720953095909149052923209303
:102E70004905813061F020F0823071F081E00895E1
:102E80005F9A80913B078E7F80933B07F7CF8A9AAA
:102E900080913B078D7FF8CF8091080180958170EC
:102EA0008093060180913B078B7FEECF9F92AF927C
:102EB000BF92CF92DF92EF92FF920F931F93CF9327
:102EC000DF9300D01F921F92CDB7DEB7EBEDF5E197
:102ED0000027BB27462F572FA82FAA2341F4A52F41
:102EE000542FB85FAA2319F4A52F5527B85FA03136
:102EF00038F45295A295452F4F70507FA42BBC5F9C
:102F0000A03428F4550FAA1F550FAA1FBE5FA03882
:102F100018F4550FAA1FB395550FAA1FEA0FF01FFB
:102F2000449151E0AA27B85079F1C0F0B0FF02C037
:102F3000440F551FB1FF04C0440F551F440F551FC8
:102F4000B2FF06C052954295142F1F70407F512B3F
:102F5000B3FF1AC0A52F542F442716C0B195B0FF58
:102F600002C055954795B1FF04C0559547955595B5
:102F70004795B2FF05C05295407F4295452B5F7043
:102F8000B3FF02C0452F5527DD24CC24BB24B2E07B
:102F9000649FD018C108B00AB00B749FC018B10864
:102FA000B00B849FB018B109659FC018B108B00B71
:102FB000759FB018B109859FB0196A9FB018B10903
:102FC0007A9FB0194D9DA12C992433279927222748
:102FD0005D9DA00C911C301F901F201FAD9D900C7B
:102FE000311D901F201F4C9DA00C911C301F901F65
:102FF000201F5C9D900C311D901F201FAC9D300D3B
:10300000911D201F4B9D900C311D901F201F5B9D1B
:10301000300D911D201FAB9D900D211D4B9F300D3C
:10302000911D201F5B9F900D211DAB9F200DB1E0D6
:10303000BB24CC24DD24639FD018C108B00AB00B98
:10304000739FC018B108B00B839FB018B109699F76
:10305000C018B108B00B799FB018B109899FB01999
:10306000629FB018B109729FB019D61AC70AB80A80
:1030700020F0B1E03B0F901F201F1124792F632F08
:1030800090E0822F0F900F900F900F900F90DF9194
:10309000CF911F910F91FF90EF90DF90CF90BF9055
:1030A000AF909F900895AF92BF92CF92DF92EF9230
:1030B000FF920F931F93CF93DF93C8E5D7E00BE305
:1030C00014E088E6A82E87E0B82EC12CD12C76011A
:1030D000C39469917991899199910E9470BE2889D0
:1030E00039894A895B890E94D1BE0E9458C4F8017F
:1030F00061937193819391938F01C616D706E80669
:10310000F90610F46B017C01AC16BD0611F76FEFE8
:103110007FEFCB01A70196010E9446C220934B048A
:1031200030934C0440934D0450934E04DF91CF9163
:103130001F910F91FF90EF90DF90CF90BF90AF90D5
:1031400008957F928F929F92AF92BF92CF92DF921B
:10315000EF92FF920F931F93CF93DF9370908F04A2
:10316000CFE2D4E095E1C92E92E0D92E29E1E22EFA
:1031700022E0F22E07E814E0772009F45EC0F8019F
:1031800080809180A280B38020E030E0A901C50159
:10319000B4010E946CBE882309F44FC020E030E0E7
:1031A00040E05FE3C501B4010E94D1BE9B01AC01C8
:1031B0000E94D1BE2BED3FE049E450E40E94D1BE15
:1031C0009B01AC0160E070E080E89FE30E94EBC3EC
:1031D0004B015C0189929992A992B992F601619191
:1031E00071916F01072E000C880B990B0E9472BE23
:1031F0002AE037ED43E25CE30E94D1BEA5019401D1
:103200000E94D1BEF70161937193819391937F01E5
:103210000C5F1F4FF4E0C733DF0709F0ADCFDF913C
:10322000CF911F910F91FF90EF90DF90CF90BF90C3
:10323000AF909F908F907F900895812C912C80E883
:10324000A82E8FE3B82EC6CF809102109091031064
:10325000891B8F7019F490E080E008959091FF0F22
:10326000992351F0833030F48FEF890F19F0809358
:10327000FF0FF1CF1092FF0F8091031028E5829F7E
:10328000C00111248056984FFC01208120FDE3CF1E
:10329000209103102F5F2F702093001030910310A6
:1032A00020910110321304C02091001020930110CE
:1032B0000895FC017081472F50E0062E02C05595FD
:1032C00047950A94E2F740FF14C040917B0550E017
:1032D000062E02C0559547950A94E2F740FF09C0B3
:1032E00021E030E001C0220F6A95EAF720952723FC
:1032F00020830895CF93DF9324E0829FC00111249F
:10330000EC01C75FD14FFC01E75BF84F8D5D9B4F30
:10331000DC012D913D914D915C91608171818281A3
:1033200093810E940FC3688379838A839B83DF9193
:10333000CF91089580911F0490912004A0912104C1
:10334000B09122048093440290934502A0934602D8
:10335000B093470280911D0490911E049093140233
:103360008093130208958091440290914502A091A8
:103370004602B091470280931F0490932004A093CB
:103380002104B0932204809113029091140290932F
:103390001E0480931D0484E690E0909314028093B1
:1033A00013020895CF93DF939091100491111BC0E5
:1033B000C0911102D091120221979CE2899FF001E5
:1033C0001124E15DF14F20E030E040E05FE36481F3
:1033D0007581868197810E940FC30E9453C421E0AA
:1033E0006C177D070CF020E0822FDF91CF910895BC
:1033F00090E080E008952091E603833021F425FDDC
:103400000CC024FD0CC030E0A90102C055954795C1
:103410008A95E2F7CA018170089581E0089580E0FD
:1034200008958091020484FD0BC08091040487FDFF
:1034300007C090910504937081E019F480E008952D
:1034400081E00895EFE2FEE081E0838787AB089595
:103450002FEB280F2A3108F047C0E22FF0E08091CF
:10346000020490910304A0910404B091050404C0E7
:10347000B695A795979587952A95D2F780FD02C0B6
:1034800081700895E851FC4FE081EE2341F1809175
:10349000560790915707E80FF92FF11D808190EDA5
:1034A000980F9A3030F08E3251F4818180538A30F7
:1034B00098F4F093E303E093E20381E008958D3202
:1034C00011F08B3249F4818190ED980F9A3088F396
:1034D0008E3211F48281EACFF0E0E0E0EACF109280
:1034E000E3031092E203E9CF80E00895B1DF88237F
:1034F00041F081E02091E2033091E303232B09F4B2
:1035000080E00895E1EDF3E080EF9FEFA9E7B4ECF0
:1035100084839583A683B78380839183A283B383B7
:10352000EBEBF3E08DE98183808308958F929F9286
:10353000AF92BF92CF92DF92EF92FF92FC0198E0A0
:10354000ADE7B4E001900D929A95E1F788E0FB01B8
:10355000A4E7B4E001900D928A95E1F7C0907D0454
:10356000D0907E04E0907F04F090800420E030E072
:10357000A901C701B6010E946CBE8823E1F1A70131
:10358000960160E070E080E89FE30E94EBC36B016E
:103590007C018090810490908204A0908304B0907C
:1035A000840420E030E0A901C501B4010E946CBE92
:1035B000882329F1A501940160E070E080E89FE391
:1035C0000E94EBC3C092C903D092CA03E092CB031E
:1035D000F092CC036093CD037093CE038093CF031E
:1035E0009093D003FF90EF90DF90CF90BF90AF907B
:1035F0009F908F900895C12CD12C7601CACF60E0A6
:1036000070E0CB01DFCF1092780410927904109211
:103610007A0410927B041092740410927504109234
:103620007604109277041092810410928204109212
:1036300083041092840410927D0410927E041092F0
:103640007F0410928004E0E9F4E080E090E0A0ECD8
:10365000BFE780839183A283B38384839583A6830A
:10366000B78380879187A287B38784879587A6874A
:10367000B787709624E0E03DF20759F70895882354
:1036800019F0813021F0089580E00C9474AD4798D2
:103690008091490580618093490508950F931F9398
:1036A000CF93DF930CE617E0C0E5D4E0F801219159
:1036B0003191419151918F0160E070E080E89FE38A
:1036C0000E94EBC36993799389939993F4E0C03690
:1036D000DF0761F70E949495DF91CF911F910F91C1
:1036E000E2CC2F923F924F925F926F927F928F9295
:1036F0009F92AF92BF92CF92DF92EF92FF920F9381
:103700001F93CF93DF93CDB7DEB7A0970FB6F89492
:10371000DEBF0FBECDBF1C017B015E834D83FC016C
:10372000E95BFF4F208131814281538129833A83B4
:103730004B835C83CA01B9010E9470BE4B015C01DE
:10374000D7012D913D914D915C910E94D1BE0E9477
:10375000D5C32B013C01ED81FE8120813181428165
:103760005381C501B4010E94D1BE0E94D5C36B0133
:103770007C01C301B2010E9458C469877A878B8794
:103780009C87683771058105910540F428E730E092
:1037900040E050E029873A874B875C87C701B60134
:1037A0000E9458C46D877E878F87988B6837710514
:1037B0008105910548F428E7C22ED12CE12CF12C8B
:1037C000CD86DE86EF86F88AD1019596CD90DD9084
:1037D000ED90FC909897CD82DE82EF82F886F10121
:1037E000ED5AFF4F6081718182819381611571056E
:1037F0008105910509F49FC10E9472BE6D8B7E8B7D
:103800008F8B988F9B01AC0160E070E080E89FE3B4
:103810000E94EBC3698F7A8F8B8F9C8F20E030E002
:1038200040E05FE30E94D1BE6B017C01A5019401E1
:10383000C501B4010E94D1BE2B013C016D857E857E
:103840008F8598890E9470BE9B01AC010E94D1BEF9
:103850009B01AC01C301B2010E940EC3A7019601F6
:103860000E94D1BE4B015C0169857A858B859C8560
:103870000E9470BE9B01AC010E94D1BE6D8F7E8FF5
:103880008F8F98A39B01AC01C301B2010E940EC3AC
:10389000A70196010E94D1BE2B013C010E94D5C315
:1038A0000E9458C46B017C01C501B4010E9484C40C
:1038B0000E9458C4698B7A8B8B8B9C8BDC01CB016B
:1038C0008C0D9D1DAE1DBF1D2D813E814F815885E4
:1038D000281B390B4A0B5B0BDA01C901B7FF61C02A
:1038E0006D817E818F8198850E9470BEA3019201B7
:1038F0000E940FC3A50194010E940EC320E030E096
:1039000040E05FE30E94D1BE0E94D5C36B017C0101
:1039100020E030E0A9010E9435C518161CF0C12C2A
:10392000D12C7601C701B6010E9458C46B017C01FD
:103930004D815E816F8178854C155D056E057F0533
:1039400010F46A017B016D817E818F8198856C19ED
:103950007D098E099F09698B7A8B8B8B9C8BC701A4
:10396000B6010E9470BE4B015C012D893E894F89D2
:10397000588DCA01B9010E940FC39B01AC01C5015A
:10398000B4010E94D1BE2D8D3E8D4F8D58A10E9455
:103990000FC30E947AC50E9458C469837A838B83BF
:1039A0009C8320E034E244EF59E4698D7A8D8B8D5D
:1039B0009C8D0E94D1BE4B015C0169817A818B8113
:1039C0009C8129853A854B855C85621B730B840B32
:1039D000950B0E9470BEA50194010E94D1BE0E9469
:1039E00058C42B013C0169817A818B819C812D8592
:1039F0003E854F855889621B730B840B950B0E9483
:103A000070BEA50194010E94D1BE0E9458C44B0112
:103A10005C013FE6431651046104710408F097C04D
:103A2000F201EE0FFF1FEE0FFF1FE15EFB4E8591CF
:103A30009591A591B4918C01AD8BBD834FE6841611
:103A40009104A104B10408F089C0F401EE0FFF1F36
:103A5000EE0FFF1FE15EFB4E45915591659174910C
:103A60009A01CB01D1019A96CD92DD92ED92FC9212
:103A70009D9795964D915D916D917C919897C98890
:103A8000DA88EB88FC884C195D096E097F099E96DF
:103A90004D935D936D937C93D197F101E55BFF4F5F
:103AA000C984DA84EB84FC84C082D182E282F3820E
:103AB000D6964D925D926D927C92D997F10182AE2D
:103AC00093AEA4AEB5AEFE9600831183CD88C282BC
:103AD000DD80D38234962083318382839383C980AF
:103AE000DA80EB80FC80D296CD92DD92ED92FC9252
:103AF000D5973D96CD84DE84EF84F888C082D1824C
:103B0000E282F382A0960FB6F894DEBF0FBECDBF5F
:103B1000DF91CF911F910F91FF90EF90DF90CF90A9
:103B2000BF90AF909F908F907F906F905F904F90DD
:103B30003F902F900895198E1A8E1B8E1C8E198A15
:103B40001A8A1B8A1C8AC12CD12C76012ACFC30168
:103B5000B201ACD98B018D8B9D8370CFC501B401AF
:103B6000A5D99B017FCF4F925F926F927F928F92E8
:103B70009F92AF92BF92CF92DF92EF92FF920F93FC
:103B80001F93CF93DF93EC0120917404309175045F
:103B90004091760450917704688179818A819B8174
:103BA0000E940EC36B017C0120917804309179044E
:103BB00040917A0450917B046C817D818E819F813C
:103BC0000E940EC34B015C01A70196016091D103D5
:103BD0007091D2038091D3039091D4030E946CBE64
:103BE000882309F450C0C092D103D092D203E0924E
:103BF000D303F092D4032091C9033091CA034091BA
:103C0000CB035091CC03C701B6010E94D1BE2B015A
:103C10003C010E9484C46B017C0120E030E0A901DA
:103C20000E946CBE87FD70C020E030E040E050E4B0
:103C3000C701B6010E9435C518162CF4C12CD12C31
:103C4000E12CA0E4FA2EA7019601C301B2010E9463
:103C50000EC36093C1037093C2038093C303909318
:103C6000C403C701B6010E9453C46093BF03062E6C
:103C7000000C770B6F5F7F4F6330710514F063E0CA
:103C800070E06093BD03D091BB03C091BF03A50159
:103C900094016091D5037091D6038091D7039091E0
:103CA000D8030E946CBE811133C0DC1381C0209107
:103CB000A3033091A4034091A5035091A603609102
:103CC000C1037091C2038091C3039091C4030E9409
:103CD000D1BE2091A7033091A8034091A903509130
:103CE000AA030E940FC3DF91CF911F910F91FF9004
:103CF000EF90DF90CF90BF90AF909F908F907F908C
:103D00006F905F904F900895C12CD12C76019BCF7E
:103D10008092D5039092D603A092D703B092D80395
:103D20002091CD033091CE034091CF035091D00329
:103D3000C501B4010E94D1BE4B015C010E9484C444
:103D40006B017C0120E030E0A9010E946CBE87FD80
:103D5000F4C020E030E040E050E4C701B6010E942A
:103D600035C518162CF4C12CD12CE12CF0E4FF2E13
:103D7000A7019601C501B4010E940EC36093C5035B
:103D80007093C6038093C7039093C803C701B6011D
:103D90000E9453C46093C003062E000C770B6F5F24
:103DA0007F4F6330710514F063E070E06093BE03F1
:103DB0000091C003DC1305C08091BC03801709F497
:103DC00071C08091BF039091C0039093BC03809316
:103DD000BB03002E000C110B24E0C202C001112411
:103DE000FC01E00FF11FEE0FFF1FEE0FFF1FE0576A
:103DF000FB4F20813181428153812093B70330935F
:103E0000B8034093B9035093BA03C091BE030C2E7C
:103E1000000CDD0BFC01EC0FFD1FEE0FFF1FEE0F82
:103E2000FF1FE057FB4F60817181828193810E9467
:103E30000EC36093B3037093B4038093B503909360
:103E4000B6038091BD0324E08202C0011124FC016D
:103E5000E00FF11FEE0FFF1FEE0FFF1FE057FB4FAC
:103E600020813181428153812093AF033093B0038D
:103E70004093B1035093B203C80FD91FCC0FDD1F7D
:103E8000CC0FDD1FC057DB4F688179818A819B8110
:103E90000E940EC36093AB037093AC038093AD0399
:103EA0009093AE038090C5039090C603A090C70383
:103EB000B090C8032091B3033091B4034091B5038F
:103EC0005091B603C501B4010E94D1BE2091B70341
:103ED0003091B8034091B9035091BA030E940FC3C7
:103EE0006B017C01C092A703D092A803E092A903C2
:103EF000F092AA032091AB033091AC034091AD0343
:103F00005091AE03C501B4010E94D1BE2091AF0310
:103F10003091B0034091B1035091B2030E940FC39E
:103F2000A70196010E940EC36093A3037093A4039C
:103F30008093A5039093A603BACEC12CD12C760111
:103F400017CF2F923F924F925F926F927F928F92F4
:103F50009F92AF92BF92CF92DF92EF92FF920F9318
:103F60001F93CF93DF93D62FC72FFC0180809180C2
:103F7000A280B380C501B40120E831E541E050E002
:103F80000E9446C2C9016DE671E00E94A9C26B01A0
:103F90007C01C501B40120E13EE040E050E00E9418
:103FA00046C2CA01B90128E130E040E050E00E9479
:103FB00046C2362E272E062F172F8CE3482E512C63
:103FC000612C712CC501B401A30192010E9446C26B
:103FD000B62EA72ECA01B901A30192010E9446C2C2
:103FE000CB01C114D10479F1AF92BF927F936F934B
:103FF0002F923F92FF92EF92DF92CF928EEA91E161
:104000009F938F93CF93DF930E943DBE8DB79EB752
:104010000E960FB6F8949EBF0FBE8DBF8D2F9C2FAE
:10402000DF91CF911F910F91FF90EF90DF90CF9094
:10403000BF90AF909F908F907F906F905F904F90C8
:104040003F902F900895E114F104C9F0AF92BF9210
:104050007F936F932F923F92FF92EF928EE991E1BF
:104060009F938F93CF93DF930E943DBEEDB7FEB732
:104070003C960FB6F894FEBF0FBEEDBFCFCF012B1D
:10408000B9F0AF92BF927F936F932F923F9282E9E4
:1040900091E19F938F93CF93DF930E943DBE8DB7A5
:1040A0009EB70A960FB6F8949EBF0FBE8DBFB6CFCF
:1040B000892BA9F0AF92BF927F936F938AE891E129
:1040C0009F938F93CF93DF930E943DBEEDB7FEB7D2
:1040D00038960FB6F894FEBF0FBEEDBF9FCFAF92DC
:1040E000BF9286E891E19F938F93CF93DF930E94D5
:1040F0003DBE0F900F900F900F900F900F908ECFAE
:10410000AF92BF92CF92DF92EF92FF920F931F93E5
:10411000CF935C016B018A0184579C4F7C01DC01C9
:10412000CC91C7FF3DC0FB0111821082CF5FD70148
:10413000CC93CC300CF053C08CE08A9DF0018B9D69
:10414000F00D1124CF018C0F911DC7FD9A95209180
:10415000FB0F2817190609F00CF441C0F601208165
:104160003181FC01EE0FFF1FE80FF91FED54F04FF6
:1041700081819281820F931FD80111969C938E9317
:10418000808187FF3DC061E08F77CF911F910F91B4
:10419000FF90EF90DF90CF90BF90AF900C941D9A5E
:1041A0008CE08A9DF0018B9DF00D1124CF018C0FC6
:1041B000911DC7FD9A952091FB0F2817190609F04C
:1041C0000CF4B4CFFC01EE0FFF1FE80FF91FED5404
:1041D000F04F808160E08F770E941D9AA7CFF60193
:1041E0008081918104968034FCE99F0710F480E47B
:1041F0009CE9D80111969C938E938FEFF7018083F1
:10420000CF911F910F91FF90EF90DF90CF90BF90D3
:10421000AF9008958091E2039091E303009731F00D
:104220004AE050E070E060E00C94ACBB60E070E00D
:10423000CB010895EFDF97FD0AC0ECDF6F3F7105FA
:104240008105910509F02CF4E5DF862F089580E0C3
:1042500008958FEF0895CF93C62F48D9882311F082
:10426000CF91E8CF8C2FCF9108958091E203909168
:10427000E303892B39F0DEDF91E0811101C090E08A
:10428000892F089591E0FCCFCF93DF93C82FD62FCD
:104290002DD9882319F0DF91CF91E7CF8C2FD8D873
:1042A000811101C08D2FDF91CF910895B3DFCB0134
:1042B0000895CF93DF93EB0119D9882319F0DF918B
:1042C000CF91F4CFCE01DF91CF9108950F931F933B
:1042D000CF938091E2039091E303009709F1FC01F1
:1042E0008F01C1912C2F2F7DA1F0C53431F0C5363F
:1042F00021F0C83511F0C83799F7F801108270E045
:1043000060E00E9457BAF801C083CF911F910F91CE
:10431000089570E060E0CF911F910F910C9457BA0F
:1043200060E070E0CB01F1CFCF92DF92EF92FF928D
:104330006A017B01DBD8882329F0FF90EF90DF90A2
:10434000CF90C4CFC701B601FF90EF90DF90CF9020
:1043500008954F925F926F927F92AF92BF92CF92E9
:10436000DF92EF92FF920F931F93CF9389E0A82ED5
:1043700083E0B82E98E9E92E95E0F92E00E612E0E8
:1043800029E0C22E2EE0D22EC0E0F50181915F011E
:10439000ADD8882309F4A2C099DF2B013C018C2FF2
:1043A0002AD8882309F490C0F80120813181428104
:1043B0005381C301B2010E940FC3F701608371836F
:1043C00082839383CF5FF4E0EF0EF11C0C5F1F4FED
:1043D00084E0C80ED11CC330C1F685E487D8882399
:1043E00009F487C073DF6B017C0183E004D8882364
:1043F00071F020916C0230916D0240916E025091EB
:104400006F02C701B6010E940FC36B017C01C0920D
:10441000A405D092A505E092A605F092A70540E07C
:1044200050E0BA0186E480DF20E030E0A9010E947C
:1044300035C518167CF44ADF20E030E040E752E44E
:104440000E94EBC36093440270934502809346023E
:10445000909347028091AE0583FD28C08091A90505
:10446000882321F120916C0230916D0240916E02FF
:1044700050916F026091A4057091A5058091A605E9
:104480009091A7050E940EC320912A0E30912B0E09
:1044900040912C0E50912D0E0E940FC360932A0E56
:1044A00070932B0E80932C0E90932D0ECF911F9115
:1044B0000F91FF90EF90DF90CF90BF90AF907F90E3
:1044C0006F905F904F900895F60120813181428175
:1044D0005381C301B2010E940EC36FCFF8018081E6
:1044E0009181A281B381F70180839183A283B383F9
:1044F00069CF80916C0290916D02A0916E02B09193
:104500006F028093A4059093A505A093A605B09390
:10451000A70585CF0F930FB70F9300916E000F93F0
:104520000D7F00936E0000916F000D7F00936F0070
:104530000F930BB70F930CB70F921F922F933F93CC
:104540004F935F936F937F938F939F93AF93BF939B
:10455000EF93FF93112486D4FF91EF91BF91AF9118
:104560009F918F917F916F915F914F913F912F918B
:104570001F900F900CBF0F910BBF0F910260F8942A
:1045800000936F000F9100936E000F910FBF0F917A
:10459000189500008091AC0580FF26C089988FEFA8
:1045A0008093E3048091AC0581FF21C08F988FEF49
:1045B0008093E4048091AC0582FF1CC080910B01C4
:1045C0008270809309018FEF8093E5048091E70466
:1045D0009091AC0593FF18C0811114C016988FEF0D
:1045E0008093E60400000895899A81E0D9CF8F9ADC
:1045F00081E0DECF80910B0180958270809309016C
:1046000081E0E2CF439AEBCF811103C0169A81E09B
:10461000E7CF4398FCCF80E00E94101781E00C9414
:10462000101780E00E942A1781E00E942A1782E07A
:104630000E942A17F0CF813089F070F0823081F02B
:1046400021E030E001C0220F8A95EAF78091490508
:10465000822B8093490508955F98F2CF8A98F0CF16
:1046600090910801917090930601EACFCF93DF9368
:1046700020917C04222371F0EC0175DA9B01AC01DE
:10468000688579858A859B850E940FC368877987AD
:104690008A879B87DF91CF91089590916F0081E089
:1046A00091FD02C080E0089590916F009D7F9093EE
:1046B0006F000895EFE6F0E08081826080830895C6
:1046C0008F929F92AF92BF92CF92DF92EF92FF9222
:1046D0000F931F93CF93DF93182F84E0189FE0016F
:1046E0001124123008F046C0D8DF082FD6DF8090A2
:1046F000390590903A05A0903B05B0903C0581119A
:10470000D9DFCBDFC0903D05D0903E05E0903F055E
:10471000F09040058111CEDF0111CCDF113019F589
:10472000C501B4016C197D098E099F090E9472BEF2
:1047300020E030E040E05FE30E94D1BEC05BDB4F91
:10474000288139814A815B810E94D1BEDF91CF915E
:104750001F910F91FF90EF90DF90CF90BF90AF909F
:104760009F908F900895C701B601680D791D8A1D2D
:104770009B1DDCCF92DFFE01E75CFA4FC080D18049
:10478000E280F380811196DFC701B6010E9472BEFC
:10479000D5CF8F929F92AF92BF92CF92DF92EF923E
:1047A000FF921F93CF93DF93CDB7DEB760970FB61D
:1047B000F894DEBF0FBECDBF182F80E081DF4B0124
:1047C0005C018092110490921204A0921304B092A2
:1047D000140481E075DF6B017C01C0921504D09256
:1047E0001604E0921704F092180482E069DF6093E7
:1047F000190470931A0480931B0490931C041D8663
:104800001E861F86188A89829A82AB82BC82CD82DC
:10481000DE82EF82F88669877A878B879C8783E0C0
:104820004FDF6D877E878F87988B80917C048823EC
:1048300079F0CE01019697D99B01AC0169857A8503
:104840008B859C850E940EC369877A878B879C879E
:104850001E3FD9F480E1FE013196A0E6B2E001905E
:104860000D928A95E1F760960FB6F894DEBF0FBE01
:10487000CDBFDF91CF911F91FF90EF90DF90CF9050
:10488000BF90AF909F908F90089584E0189FF001A3
:104890001124DF01A05ABD4F81E090E08C0F9D1FD5
:1048A000E80FF91F40815181628173814D935D93BF
:1048B0006D937C931397D7CFCF92DF92EF92FF92B5
:1048C000CF93DF93C82FE9DE94E0C99FE001112464
:1048D000FE01E35DFA4FC080D180E280F380811158
:1048E000E9DEC05BDB4FC701B6010E9472BE2881C2
:1048F00039814A815B810E94D1BEDF91CF91FF90C7
:10490000EF90DF90CF900895CF93DF93CDB7DEB7D0
:104910002C970FB6F894DEBF0FBECDBF0E949F94B8
:10492000BCDE9CE0E9E3F5E0DE01119601900D921A
:104930009A95E1F78111BEDECE0101960E9482AD0B
:104940002C960FB6F894DEBF0FBECDBFDF91CF918E
:104950000895CF93DF931F92CDB7DEB7898360E0D0
:10496000CE0101960E94591961E0CE0101960E9484
:10497000591962E0CE0101960E94591989810F9060
:10498000DF91CF9108958F929F92AF92BF92CF9275
:10499000DF92EF92FF92CF93DF9320912A0222239E
:1049A00009F48EC0EC0180917B05E82E80FF2CC0BD
:1049B00080902C0290902D02A0902E02B0902F0299
:1049C000288139814A815B81C501B4010E9435C5C6
:1049D000181624F488829982AA82BB8280903802B9
:1049E00090903902A0903A02B0903B022881398120
:1049F0004A815B81C501B4010E946CBE87FF04C07F
:104A000088829982AA82BB82E1FE2CC0809030020B
:104A100090903102A0903202B09033022C813D81FF
:104A20004E815F81C501B4010E9435C5181624F47A
:104A30008C829D82AE82BF8280903C0290903D022B
:104A4000A0903E02B0903F022C813D814E815F815B
:104A5000C501B4010E946CBE87FF04C08C829D8298
:104A6000AE82BF82E2FE2CC0C0903402D0903502EC
:104A7000E0903602F0903702288539854A855B85BB
:104A8000C701B6010E9435C5181624F4C886D98618
:104A9000EA86FB86C0904002D0904102E09042023C
:104AA000F0904302288539854A855B85C701B601A8
:104AB0000E946CBE87FF04C0C886D986EA86FB8642
:104AC000DF91CF91FF90EF90DF90CF90BF90AF90AC
:104AD0009F908F900895CF92DF92EF92FF920F9365
:104AE0001F93CF93DF93E82FF0E0EF01CC0FDD1F92
:104AF000CC0FDD1F461739F0823009F049C0C12CB8
:104B0000D12C760117C08230D1F3A0913A078A2FB9
:104B100090E0DC01AA0FBB1FA80FB91FAE0FBF1F8B
:104B2000AA0FBB1FAA0FBB1FA058BA4FCD90DD9094
:104B3000ED90FC908F01000F111F000F111FF80165
:104B4000E057FC4E2591359145915491C65DDD4F5E
:104B5000C701B6010E940FC36A837B838C839D8348
:104B6000F801EC57FC4E2591359145915491C701C0
:104B7000B6010E940FC36E877F87888B998BDF9168
:104B8000CF911F910F91FF90EF90DF90CF900895FC
:104B900050E0DA01AA0FBB1FA40FB51FAE0FBF1F55
:104BA000AA0FBB1FAA0FBB1FA058BA4F862F90E0B9
:104BB000BC01660F771F680F791FE60FF71FEE0F16
:104BC000FF1FEE0FFF1FE058FA4F20813181428115
:104BD00053816D917D918D919C910E940EC36B01CB
:104BE0007C01C65DDD4FAC019B016A817B818C81BC
:104BF0009D810E940FC36A837B838C839D83A70161
:104C000096016E857F8588899989B3CF4F925F928F
:104C10006F927F928F929F92AF92BF92CF92DF92CC
:104C2000EF92FF92CF93DF9300D01F921F92CDB7E8
:104C3000DEB7409060025090610260906202709016
:104C400063028090640290906502A0906602B0902A
:104C50006702C0906802D0906902E0906A02F0900A
:104C60006B0280916C0290916D02A0916E02B091E6
:104C70006F0289839A83AB83BC830E9453180E947E
:104C8000221A0E94A1181D828D810E947A1940E08B
:104C900060E08D8120DF9D819F5F9D839330A1F730
:104CA0000E94821A0E944E1BA30192016091600231
:104CB0007091610280916202909163020E946CBEC9
:104CC00081112CC0A501940160916402709165026C
:104CD00080916602909167020E946CBE81111EC095
:104CE000A7019601609168027091690280916A0241
:104CF00090916B020E946CBE811110C029813A8193
:104D00004B815C8160916C0270916D0280916E02AA
:104D100090916F020E946CBE8823A1F00F900F90BB
:104D20000F900F900F90DF91CF91FF90EF90DF9059
:104D3000CF90BF90AF909F908F907F906F905F903B
:104D40004F90E2CD0F900F900F900F900F90DF914A
:104D5000CF91FF90EF90DF90CF90BF90AF909F905A
:104D60008F907F906F905F904F9008950C949495E2
:104D70008091AB05811105C080913C07882309F41F
:104D800070C080910F04659B5CC0816080930F04AC
:104D90009091030180910F0490FF55C08260809331
:104DA0000F049091000180910F0493FF4EC0886022
:104DB00080930F0480910F044A9B49C084608093C4
:104DC0000F0480911D0580FF10C08091AC0585FF08
:104DD0000CC080910F0480FF08C08091370781606C
:104DE0008093370780E00E94B6AD80911D0581FF5A
:104DF00010C08091AC0586FD0CC080910F0481FF2E
:104E000008C08091370782608093370781E00E9455
:104E1000B6AD80911D0582FF24C08091AC0582FF54
:104E200018C080913C078823E1F080910F0483FF34
:104E300018C08091370788608093370782E00C9410
:104E4000B6AD8E7FA3CF8D7FAACF877FB1CF8B7F6B
:104E5000B6CF80910F0482FF04C080913707846031
:104E6000EBCF08952F923F924F925F926F927F9275
:104E70008F929F92AF92BF92CF92DF92EF92FF926A
:104E80000F931F93CF93DF93CDB7DEB762970FB623
:104E9000F894DEBF0FBECDBF8FEF9FEF90938900D8
:104EA000809388002AE0298B312C212C78948091E2
:104EB000260590912705A0912805B0912905892BF9
:104EC0008A2B8B2B09F0DFC180912C058823D1F030
:104ED00080912A0590912B0510922C05892B91F039
:104EE00010922B0510922A0510921D059091021028
:104EF00080910310981731F0809103108F5F8F70AD
:104F00008093031080912A0590912B05892B09F439
:104F1000BAC14091220550912305609124057091FA
:104F2000250580911E0590911F05A0912005B09147
:104F30002105481759076A077B0708F0A4C10091AB
:104F4000360710E030E020E0841B950BA60BB70B72
:104F5000081719072A073B0710F4D901C8018A8BE3
:104F6000840F951FA61FB71F8093220590932305DA
:104F7000A0932405B0932505E1E0C090EC04D09007
:104F8000ED04E090EE04F090EF048091FC04909129
:104F9000FD04A091FE04B091FF04C80ED91EEA1EC4
:104FA000FB1EC092FC04D092FD04E092FE04F0923D
:104FB000FF04F7FC18C08091E8049091E904A091E7
:104FC000EA04B091EB04B701A601481B590B6A0B28
:104FD0007B0BDB01CA018093FC049093FD04A0933A
:104FE000FE04B093FF040091F0041091F1042091AD
:104FF000F2043091F3048091000590910105A09195
:105000000205B0910305080F191F2A1F3B1F0093CB
:10501000000510930105209302053093030537FD29
:1050200018C08091E8049091E904A091EA04B0913D
:10503000EB0428013901481A590A6A0A7B0AD3018C
:10504000C2018093000590930105A0930205B093DF
:1050500003054091F4045091F5046091F6047091B9
:10506000F7048091040590910505A0910605B09183
:105070000705480F591F6A1F7B1F40930405509373
:105080000505609306057093070577FD18C08091AC
:10509000E8049091E904A091EA04B091EB043A018C
:1050A0004B01681A790A8A0A9B0AD401C3018093CA
:1050B000040590930505A0930605B093070580901D
:1050C000F8049090F904A090FA04B090FB04809149
:1050D000080590910905A0910A05B0910B05880D6E
:1050E000991DAA1DBB1D8093080590930905A093E7
:1050F0000A05B0930B05B7FD18C08090E8049090A6
:10510000E904A090EA04B090EB042C013D0148189A
:1051100059086A087B085301420180920805909261
:105120000905A0920A05B0920B05E11104C0E091B7
:105130008400F0918500F7FC1CC04090E304042C2F
:10514000000C5508660877088090390590903A055C
:10515000A0903B05B0903C05840C951CA61CB71C88
:105160008092390590923A05A0923B05B0923C0599
:10517000889A37FD1CC04090E404042C000C5508AC
:105180006608770880903D0590903E05A0903F0509
:10519000B0904005840C951CA61CB71C80923D0560
:1051A00090923E05A0923F05B09240058E9A77FD01
:1051B00021C04090E504042C000C550866087708CF
:1051C0008090410590904205A0904305B090440521
:1051D000840C951CA61CB71C809241059092420538
:1051E000A0924305B0924405E0910B01E095E87070
:1051F000E0930901B7FD20C04090E604042C000CA8
:105200005508660877088090450590904605A0905F
:105210004705B0904805840C951CA61CB71C8092CD
:10522000450590924605A0924705B0924805E09149
:10523000E704E11104C2149AE0918400F091850022
:10524000E0918400F0918500F7FE889837FF8E98F2
:1052500077FD05C020910B01287020930901B7FD4F
:1052600005C08091E7048111ECC114985A8855203B
:1052700021F080918400909185002A8921502A8B09
:10528000E0E021117ACE8091260590912705A0912A
:105290002805B0912905892B8A2B8B2B09F081C118
:1052A000E0912A05F0912B05309709F490C5809183
:1052B000220590912305A0912405B09125054091E8
:1052C0001E0550911F0560912005709121058417DE
:1052D0009507A607B70708F4B6C110922B051092E0
:1052E0002A0510921D0590910210809103109817C5
:1052F00009F46DC5809103108F5F8F708093031048
:1053000070EDC72E77E0D72EE12CF12C80912A0585
:1053100090912B05892B09F03CC10E942419909390
:105320002B0580932A05892B09F433C1E0912A05C6
:10533000F0912B05808183FD2EC5458956896789AB
:10534000708DC18CD28CE38CF48CDF01AA5BBF4FD3
:105350008C918A8B81E04C155D056E057F0509F007
:1053600032C580E0411551056105710551F02A896A
:1053700021709A899695917081E0291380E0291314
:1053800022C5058D168D278D30A10115110521052A
:10539000310509F0846080931D0510920C05109270
:1053A0000D0510920E0510920F0510921505109222
:1053B0001605109217051092180585A196A1A7A1B0
:1053C000B0A580931E0590931F05A0932005B09370
:1053D0002105882499245401881A990AAA0ABB0A2B
:1053E0008092FC049092FD04A092FE04B092FF040F
:1053F0008092000590920105A0920205B0920305EB
:105400008092040590920505A0920605B0920705CA
:105410008092080590920905A0920A05B0920B05AA
:1054200081A092A0A3A0B4A0880C991CAA1CBB1CAC
:10543000440F551F661F771F4093EC045093ED04F3
:105440006093EE047093EF04CC0CDD1CEE1CFF1C8B
:10545000C092F004D092F104E092F204F092F304CE
:10546000000F111F221F331F0093F4041093F50443
:105470002093F6043093F7048092F8049092F90494
:10548000A092FA04B092FB04880F991FAA1FBB1FB9
:105490008093E8049093E904A093EA04B093EB04AA
:1054A00010922205109223051092240510922505D2
:1054B00082A593A5A4A5B5A58093190590931A0577
:1054C000A0931B05B0931C0586A597A5A0A9B1A91B
:1054D0008093110590931205A0931305B0931405C2
:1054E00081A58093E7049091AC05AA899A1304C022
:1054F00090912102891731F080932102BA89B093EB
:10550000AC0547D835DC44244A94542C32014092EF
:105510002202509223026092240270922502E091AE
:105520002A05F0912B05DF01DE96ED90FD900D919F
:105530001C9122A933A944A955A9E55BFF4F6081BD
:105540007181828193810E94BE1610921005E091B4
:105550002A05F0912B05E55BFF4F60817181828107
:1055600093810E9403996B017C01809115059091B4
:105570001605A0911705B09118058C0D9D1DAE1D47
:10558000BF1D8093150590931605A0931705B09342
:105590001805C0922605D0922705E0922805F092C2
:1055A00029058091260590912705A0912805B091A5
:1055B0002905AC01BD01009721E0A207B10520F04B
:1055C0004FEF5FEF60E070E0841B950BA60BB70B0D
:1055D0008093260590932705A0932805B09329056D
:1055E000F8948091840090918500409639893150DB
:1055F000398B332309F4E9C3240E351E28163906E6
:1056000008F454CC309289002092880062960FB63C
:10561000F894DEBF0FBECDBFDF91CF911F910F91E8
:10562000FF90EF90DF90CF90BF90AF909F908F90C2
:105630007F906F905F904F903F902F900895419A88
:10564000FBCD419813CE4091190550911A056091F8
:105650001B0570911C05481759076A077B0708F45A
:10566000A2C14091150550911605609117057091E2
:10567000180586A997A9A0ADB1AD481759076A07C3
:105680007B0708F08BC1411551056105710529F5AE
:105690008091850390918603A0918703B091880340
:1056A000BC012A2F9B2F822F0E9403996B017C0142
:1056B0008091150590911605A0911705B0911805D8
:1056C0008C0D9D1DAE1DBF1D809315059093160575
:1056D000A0931705B093180519CEF0E0E981CA012F
:1056E000262FAA817B816C815D814E81BF813885A7
:1056F00040918103489F612D5527B0918203B89F47
:10570000600D511D10908303189E500D499F600D30
:10571000511DB99F500D429F500DA62F752FA69F6A
:10572000412DBB273327A59F400DB11D3F1F769FFD
:10573000400DB11D3F1F759FB00D311DAB2F732F55
:10574000A69FE12DBB273327A59FE00DB11D3F1F6D
:10575000769FE00DB11D3F1F759FB00D311DAB2F22
:10576000732F4427809185039091860320918703AE
:10577000009080030F2A09F483C0B0917C03BA9F84
:1057800041198F0B9F0B2F0B30917D033A9F4019CE
:1057900081099F0B2F0BE0917E03EA9F80199109ED
:1057A0002F0BB79F401981099F0B2F0B379F801933
:1057B00091092F0BE79F90192109A69FE12DBB2787
:1057C0003327A59FE00DB11D3F1F769FE00DB11D52
:1057D0003F1F759FB00D311DAB2F732FB091780314
:1057E000BA9F410D8F1F9F1F2F1F309179033A9F42
:1057F000400D811D9F1F2F1FE0917A03EA9F800DAE
:10580000911D2F1FB79F400D811D9F1F2F1F379F79
:10581000800D911D2F1FE79F900D211DA69FE12D4B
:10582000BB273327A59FE00DB11D3F1F769FE00DDD
:10583000B11D3F1F759FB00D311DAB2F732FB09160
:105840007403BA9F41198F0B9F0B2F0B3091750377
:105850003A9F401981099F0B2F0BE0917603EA9F35
:10586000801991092F0BB79F401981099F0B2F0BAE
:10587000379F801991092F0BE79F9019210982C04A
:10588000B0917C03BA9F410D8F1F9F1F2F1F309136
:105890007D033A9F400D811D9F1F2F1FE0917E03C6
:1058A000EA9F800D911D2F1FB79F400D811D9F1FE7
:1058B0002F1F379F800D911D2F1FE79F900D211DDA
:1058C000A69FE12DBB273327A59FE00DB11D3F1FEC
:1058D000769FE00DB11D3F1F759FB00D311DAB2FA1
:1058E000732FB0917803BA9F41198F0B9F0B2F0B29
:1058F000309179033A9F401981099F0B2F0BE0915A
:105900007A03EA9F801991092F0BB79F40198109EB
:105910009F0B2F0B379F801991092F0BE79F901931
:105920002109A69FE12DBB273327A59FE00DB11DBF
:105930003F1F769FE00DB11D3F1F759FB00D311DBC
:10594000AB2F732FB0917403BA9F410D8F1F9F1F10
:105950002F1F309175033A9F400D811D9F1F2F1FF0
:10596000E0917603EA9F800D911D2F1FB79F400D98
:10597000811D9F1F2F1F379F800D911D2F1FE79F98
:10598000900D211D1124E983AA837B836C835D83A1
:105990004E83BF833887B0E0A22F82CE62A973A95D
:1059A00024A995A980CE40911105509112056091CE
:1059B000130570911405481759076A077B0708F00B
:1059C000C7C180911005811138C0DF01AE5BBF4FA8
:1059D000ED90FD900D911C9113971D962D913D9189
:1059E0004D915C9162A973A984A995A90E94BE16E4
:1059F00031E030931005E0912A05F0912B0562A962
:105A000073A924A995A9822F0E9403996B017C0197
:105A100080910C0590910D05A0910E05B0910F0598
:105A20008C0D9D1DAE1DBF1D80930C0590930D0523
:105A3000A0930E05B0930F0569CC40910C055091D1
:105A40000D0560910E0570910F0582AD93ADA4AD6B
:105A5000B5AD481759076A077B0708F072C14115B1
:105A600051056105710561F480918503909186036C
:105A7000A0918703B0918803BC012A2F9B2FC3CF2D
:105A8000E0E0F985CA01262FBA85AB857C856D8556
:105A90005E854F85388950918103589F712D662707
:105AA00040918203489F700D611D10908303189EE2
:105AB000600D599F700D611D499F600D529F600DD3
:105AC000B72FA62FB79F512D44273327B69F500DD0
:105AD000411D3E1FA79F500D411D3E1FA69F400D1B
