:100000000C9492150C94D2150C94D2150C94D21514
:100010000C94D2150C94D2150C94D2150C94D215C4
:100020000C94D2150C94F98B0C94F98B0C94F98BDD
:100030000C94D2150C94D2150C94D2150C94D215A4
:100040000C94D2150C9431A20C94D2150C94D215A8
:100050000C94D2150C9430960C94D2150C940B91F0
:100060000C94D2150C9434810C942A810C94D215E2
:100070000C94D2150C94D2150C94D2150C94D21564
:100080000C94F12C0C94D2150C94D2150C94D2151E
:100090000C94D2150C94D2150C94D2150C94D21544
:1000A0000C94D2150C94D2150C94C32C0C94D2152C
:1000B0000C94D2150C94D2150C94D2150C94D21524
:1000C0000C94D2150C94D2150C94D2150C94D21514
:1000D0000C94D2150C94D2150C94D2150C94D21504
:1000E0000C94D215084AD73B3BCE016E84BCBFFDB1
:1000F000C12F3D6C74319ABD56833DDA3D00C77FF8
:1001000011BED9E4BB4C3E916BAAAABE0000008090
:100110003F05A84CCDB2D44EB93836A9020C50B91F
:10012000918688083CA6AAAA2ABE000000803F004B
:100130004E414E494E495459494E46CDCCCC3D0ACC
:10014000D7233C17B7D13877CC2B329595E6241FAF
:10015000B14F0A000020410000C84200401C462068
:10016000BCBE4CCA1B0E5AAEC59D7445315F53458B
:100170005249414C5F52585F50494E0045315F53E0
:10018000455249414C5F54585F50494E0045315FDC
:10019000444941475F50494E0045305F53455249FD
:1001A000414C5F52585F50494E0045305F534552B5
:1001B00049414C5F54585F50494E0045305F4449B7
:1001C00041475F50494E005A5F53455249414C5F89
:1001D00052585F50494E005A5F53455249414C5F57
:1001E00054585F50494E00595F53455249414C5F46
:1001F00052585F50494E00595F53455249414C5F38
:1002000054585F50494E00585F53455249414C5F26
:1002100052585F50494E00585F53455249414C5F18
:1002200054585F50494E005A5F4D494E5F50524FEF
:1002300042455F50494E005A5F53544F505F5049FA
:100240004E005A5F535445505F50494E005A5F4428
:100250004941475F50494E005A5F4D41585F5049F0
:100260004E005A5F454E41424C455F50494E005A40
:100270005F4449525F50494E00595F53544F505F9D
:1002800050494E00595F535445505F50494E0059F4
:100290005F444941475F50494E00595F4D41585FA7
:1002A00050494E00595F454E41424C455F50494EC2
:1002B00000595F4449525F50494E00585F53544FB4
:1002C000505F50494E00585F535445505F50494E5F
:1002D00000585F444941475F50494E00585F4D49BF
:1002E0004E5F50494E00585F454E41424C455F506D
:1002F000494E00585F4449525F50494E00534552A1
:10030000564F335F50494E00534552564F325F505F
:10031000494E00534552564F315F50494E005345A8
:1003200052564F305F50494E0053445353004D4F87
:10033000534645545F445F50494E004D4F53464528
:10034000545F435F50494E004D4F534645545F4202
:100350005F50494E004D4F534645545F415F5049F1
:100360004E0054454D505F305F43535F50494E003F
:100370004C45445F50494E004845415445525F4208
:1003800045445F50494E004845415445525F335FF4
:1003900050494E004845415445525F325F50494EE6
:1003A000004845415445525F315F50494E00484531
:1003B000415445525F305F50494E0046414E5F50B8
:1003C000494E0045335F535445505F50494E0045F8
:1003D000335F454E41424C455F50494E0045335FC7
:1003E0004449525F50494E0045325F535445505F77
:1003F00050494E0045325F454E41424C455F5049A1
:100400004E0045325F4449525F50494E0045315FCE
:10041000535445505F50494E0045315F454E41426F
:100420004C455F50494E0045315F4449525F504949
:100430004E0045305F535445505F50494E004530A3
:100440005F454E41424C455F50494E0045305F4448
:1004500049525F50494E004156525F53535F5049D5
:100460004E004156525F53434B5F50494E00415638
:10047000525F4D4F53495F50494E004156525F4DB8
:1004800049534F5F50494E0054454D505F424544DB
:100490005F50494E0054454D505F335F50494E0008
:1004A00054454D505F325F50494E0054454D505FAA
:1004B000315F50494E0054454D505F305F50494EBA
:1004C0000046494C57494454485F50494E005458DF
:1004D0004430005258443000434F4D4D554E49432F
:1004E0004154494F4E0044525952554E00455252C4
:1004F0004F525300494E464F004543484F00457206
:10050000726F722077726974696E6720746F20450C
:100510004550524F4D210A00363726033C3D380FD7
:100520002E303E13061A1C1824221E24221E2422BA
:100530001E0A3A07392F432D450408440001507222
:10054000696E7465722073746F7070656420647571
:100550006520746F206572726F72732E2046697801
:1005600020746865206572726F7220616E642075F8
:100570007365204D39393920746F20726573746149
:1005800072742E202854656D706572617475726581
:100590002069732072657365742E20536574206919
:1005A0007420616674657220726573746172746917
:1005B0006E67290A004E6F20436865636B73756D23
:1005C0002077697468206C696E65206E756D626550
:1005D000722C204C617374204C696E653A20006364
:1005E0006865636B73756D206D69736D61746368A5
:1005F0002C204C617374204C696E653A20004C6964
:100600006E65204E756D626572206973206E6F7421
:10061000204C617374204C696E65204E756D626567
:10062000722B312C204C617374204C696E653A201A
:10063000004D3131300053657269616C2073746113
:10064000747573206D69736D617463680A0021218C
:10065000204B494C4C20636175736564206279209E
:10066000746F6F206D75636820696E61637469765D
:10067000652074696D65202D2063757272656E74D6
:1006800020636F6D6D616E643A2000627573793A14
:100690002070617573656420666F7220696E707575
:1006A000740A00627573793A20706175736564200D
:1006B000666F7220757365720A00627573793A20ED
:1006C00070726F63657373696E670A006563686F44
:1006D0003A004572726F723A004F4646004F4E0024
:1006E00042696C696E656172204C6576656C696EF5
:1006F0006720477269643A0A004C4F5700484947DF
:1007000048004F4B004572726F723A20416C6C206A
:100710000020636F6E6E656374696F6E2E2E2E20DF
:100720000054657374696E6720004C4F5700484948
:100730004748004F4B004572726F723A20416C6C13
:10074000200020636F6E6E656374696F6E2E2E2EAF
:10075000200054657374696E6720004C4F57004841
:10076000494748004F4B004572726F723A20416C06
:100770006C200020636F6E6E656374696F6E2E2E41
:100780002E200054657374696E6720004C4F57002B
:1007900048494748004F4B004572726F723A2041FA
:1007A0006C6C200020636F6E6E656374696F6E2ED3
:1007B0002E2E200054657374696E6720004C4F57CD
:1007C0000048494748004F4B004572726F723A200B
:1007D000416C6C200020636F6E6E656374696F6E90
:1007E0002E2E2E200054657374696E6720004265BA
:1007F00064204C6576656C696E6720004661696CA3
:10080000656420746F20656E61626C65204265646A
:10081000204C6576656C696E670A00496E76616C7E
:100820006964206D6573682E0A002E0A002F00503F
:10083000726F62696E67206D65736820706F696E94
:10084000742000202844525952554E29004732390D
:10085000204175746F20426564204C6576656C6933
:100860006E67003F20284C2C522C462C4229206FCA
:100870007574206F6620626F756E64732E0A003F78
:100880002856296572626F7365206C6576656C20E9
:10089000696D706C61757369626C652028302D34E8
:1008A000292E0A00426164205A2076616C75650A1F
:1008B000004E6F2062696C696E65617220677269B3
:1008C000640A0020440020204D32303020540020A3
:1008D000204D323030205300202844697361626C0F
:1008E0006564293A0046696C616D656E74207365B4
:1008F0007474696E67730020204D323031205800C7
:100900004D617820416363656C65726174696F6ED7
:100910002028756E6974732F7332290020204D32A0
:1009200030332058004D61782066656564726174CB
:1009300065732028756E6974732F73290020520027
:1009400020204D323034205000416363656C657265
:100950006174696F6E2028756E6974732F73322904
:100960002028503C7072696E742D616363656C3E23
:1009700020523C726574726163742D616363656CAF
:100980003E20543C74726176656C2D616363656CC6
:100990003E290020540020530020204D32303520C5
:1009A0004200416476616E6365642028423C6D6953
:1009B0006E5F7365676D656E745F74696D655F7595
:1009C000733E20533C6D696E5F6665656472617449
:1009D000653E20543C6D696E5F74726176656C5F34
:1009E00066656564726174653E20583C6D61785F30
:1009F0006A65726B3E20593C6D61785F6A65726B07
:100A00003E205A3C6D61785F6A65726B3E20453CC2
:100A10006D61785F6A65726B3E290020204D32312E
:100A20003700546F6F6C2D6368616E67696E670085
:100A300020204D323138205400486F74656E642098
:100A40006F6666736574730020440020490020209F
:100A50004D333031205000486F74656E642050492A
:100A6000440050574D3A20202534640050574D3AE9
:100A700020202534640050574D3A2020253464004E
:100A800050574D3A20202534640050574D3A2020CD
:100A90002534640050574D3A2020253464005057C7
:100AA0004D3A20202534640050574D3A20202534FB
:100AB000640050574D3A20202534640050574D3A79
:100AC00020202534640050574D3A202025346400FE
:100AD00050574D3A20202534640050574D3A20207D
:100AE0002534640050574D3A202025346400505777
:100AF0004D3A20202534640050574D3A20202534AB
:100B000064003A200020202020434F4D0020202068
:100B10006E6F6E2D7374616E646172642050574DF8
:100B2000206D6F646500202020636F6D70617265B9
:100B300020696E7465727275707420656E61626C86
:100B40006564002020206F766572666C6F7720697F
:100B50006E7465727275707420656E61626C656426
:100B6000003A20002020202054494D534B00423AA7
:100B70002000202020205443435200413A200020EE
:100B800020202054434352002020202043533A2069
:100B9000002020202057474D3A200050574D3A2042
:100BA000202534640050574D3A20202534640047F6
:100BB000004800000088008A008C00B300B40000E8
:100BC0000098009A009C00A800AA00AC0028012A06
:100BD000012C012020202054494D4552004400455D
:100BE000006E00800081006F00B000B100700090C6
:100BF0000091007100A000A100720020012101738A
:100C00000020697320616C736F20746965642074BF
:100C10006F20746869732070696E0054494D4552A5
:100C20003143000A202E002020002020506F7274D3
:100C30003A200020202000202020416E616C6F6748
:100C400020696E203D2025356C64003C756E7573FF
:100C500065642F756E6B6E6F776E3E0020284125A0
:100C6000326429202000253364200050494E3A2068
:100C7000004F7574707574203D2000496E70757456
:100C800020203D2000416E616C6F6720696E203D21
:100C90002025356C640070726F7465637465642020
:100CA00000202841253264292020002533642000BB
:100CB00050494E3A2000D3040001CE040101C10482
:100CC0003B00B6043A00AB043900A004430095048D
:100CD0004500880444007B0432016E043301620441
:100CE0003401570435014C041C013E041801320440
:100CF0001A012704220119041E010D042401020413
:100D00002201F4031E01E8032401DD032201CF03C5
:100D10001E01C3032401BB030401AE030A01A103A6
:100D2000070194032F0187032D0178030801700345
:100D30000D016203420155030A01480309013B0307
:100D400008012E030701290335011E030B011303BC
:100D5000150108032701FD022001F3023701E60215
:100D60002601DC020301D1020301C6023601BB02E7
:100D70000301B1023D01A40238019A020F018F0262
:100D80000E0184023C0179020F016F023001620200
:100D90003E01580213014D02120142022E01370298
:100DA0001301270206011702280107023F01F7017C
:100DB0003B01E7014001D7012A01C7014101BB0105
:100DC0000201AA012C01990142018D010F017C0150
:100DD00014016B010C01446F6E652E0A0050756C96
:100DE00073696E6720202000556E746F75636865A7
:100DF0006420005A5F50524F42455F534552564F50
:100E00005F4E52206E6F74207365742075702E0AC9
:100E1000005761746368696E672070696E730A00B9
:100E200064697300656E0061626C65640A00656EDA
:100E30006473746F70206D6F6E69746F7220002E12
:100E40000A00206E6F742064697361626C65642EA1
:100E500020536861726564207769746800737072EA
:100E60006561644379636C6500737465616C746873
:100E700043686F700020647269766572206D6F64DC
:100E8000653A09007370726561644379636C65004B
:100E9000737465616C746843686F70002064726974
:100EA000766572206D6F64653A09007370726561D2
:100EB000644379636C6500737465616C746843683E
:100EC0006F700020647269766572206D6F64653A98
:100ED00009007370726561644379636C65007374B3
:100EE00065616C746843686F700020647269766530
:100EF00072206D6F64653A090073707265616443B6
:100F000079636C6500737465616C746843686F70B5
:100F10000020647269766572206D6F64653A09001D
:100F2000202E68737472743A2000202E68656E64F7
:100F30003A20002063686F70706572202E746F66AF
:100F4000663A2000202E68737472743A2000202EB6
:100F500068656E643A20002063686F707065722067
:100F60002E746F66663A2000202E68737472743A8D
:100F70002000202E68656E643A20002063686F7040
:100F8000706572202E746F66663A2000202E68739A
:100F90007472743A2000202E68656E643A20002036
:100FA00063686F70706572202E746F66663A2000F9
:100FB000202E68737472743A2000202E68656E6467
:100FC0003A20002063686F70706572202E746F661F
:100FD000663A20003F53206F7574206F662072615F
:100FE0006E67652028312E2E38290A003F50206F69
:100FF0007574206F662072616E676520282D332E10
:101000002E3132290A003F4F206F7574206F662001
:1010100072616E67652028312E2E3135290A003B1A
:10102000200020496E76616C696420657874727561
:10103000646572200047322F47332062616420705C
:101040006172616D65746572730A00473238002001
:101050005A3A200020593A200042656420583A202C
:10106000004D65736820706F696E74206F75742011
:101070006F662072616E67650A00616C736F206530
:101080006E61626C6564290A005072696E74207426
:10109000696D653A20000A53746174733A20466999
:1010A0006C616D656E7420757365643A20002C2048
:1010B0004C6F6E67657374206A6F623A2000546FDC
:1010C00074616C2074696D653A20005374617473A7
:1010D0003A20002C204661696C65643A20002C207F
:1010E00046696E69736865643A20005072696E746F
:1010F000733A200053746174733A20006F6B006F71
:10110000666600F904F404ED04E604D8044445429C
:1011100055473A004D3131322053687574646F770A
:101120006E004D3131332053002F2F005741524E66
:10113000494E4721204C6F77205A204A65726B2018
:101140006D6179206C65616420746F20756E7761C4
:101150006E746564207061757365732E0A002020BB
:101160004D61783A2000200020204D696E3A200021
:10117000203B200020204D323131205300536F6638
:101180007420656E6473746F70730046523A002069
:10119000466C6F773A20003A200020536572766FD4
:1011A0002000206F7574206F662072616E67650A7B
:1011B00000536572766F200050726F6265204F6633
:1011C00066736574205A0050726F6265204F6666C0
:1011D000736574205A00496E76616C696420657885
:1011E0007472756465720A0064697300656E004309
:1011F000290A0061626C656420286D696E2074653F
:101200006D702000436F6C6420657874727564653E
:10121000732061726520004D34323120696E636F36
:10122000727265637420706172616D65746572209D
:1012300075736167650A004D65736820706F696E2C
:1012400074206F7574206F662072616E67650A0086
:10125000546F6F206661722066726F6D20726566D2
:101260006572656E636520706F696E740A0045452E
:1012700050524F4D204F4B0A00290A0020746F2016
:10128000003F5A206F7574206F662072616E67652B
:10129000202800290A0020746F20003F59206F7514
:1012A00074206F662072616E676520282D00290A00
:1012B0000020746F20003F58206F7574206F6620E7
:1012C00072616E676520282D0020647269766572F0
:1012D0002063757272656E743A20002064726976BC
:1012E00065722063757272656E743A2000206472B4
:1012F000697665722063757272656E743A2000209B
:101300006472697665722063757272656E743A20D4
:1013100000206472697665722063757272656E74FE
:101320003A20006F6B0020204D32303620580048A4
:101330006F6D65206F6666736574004361703A0077
:10134000434F4E4649475F4558504F5254004D4514
:1013500041545041434B00434F4F4C45525F54451D
:101360004D5045524154555245004348414D424528
:10137000525F54454D5045524154555245004241EB
:1013800042595354455050494E470041524353002F
:101390004D4F54494F4E5F4D4F44455300544845BF
:1013A000524D414C5F50524F54454354494F4E00AB
:1013B000455854454E4445445F4D323000435553E3
:1013C000544F4D5F4649524D574152455F55504C21
:1013D0004F4144004C464E5F5752495445004C4FD4
:1013E0004E475F46494C454E414D45004155544F8F
:1013F0005245504F52545F53445F535441545553D8
:101400000053445F5752495445005245504541549A
:10141000005344434152440050524F4D50545F5387
:101420005550504F525400484F53545F4143544914
:101430004F4E5F434F4D4D414E445300454D455235
:1014400047454E43595F5041525345520043415323
:10145000455F4C494748545F4252494748544E45BE
:10146000535300544F47474C455F4C4947485453EA
:1014700000534F4654574152455F504F5745520015
:101480004255494C445F50455243454E54004C45EB
:1014900056454C494E475F44415441005A5F5052B3
:1014A0004F42450052554E4F5554004155544F4CF4
:1014B0004556454C005052494E545F4A4F420050E9
:1014C000524F4752455353004155544F5245504F88
:1014D00052545F54454D50004155544F5245504F62
:1014E00052545F504F5300564F4C554D455452493E
:1014F0004300454550524F4D0042494E4152595FBD
:1015000046494C455F5452414E534645520053455F
:101510005249414C5F584F4E5F584F46460046492E
:10152000524D574152455F4E414D453A4D61726CA7
:10153000696E206275676669782D322E302E7820AC
:101540002844656320323220323032322031373A3B
:1015500035353A34332920534F555243455F434F75
:1015600044455F55524C3A6769746875622E636FE3
:101570006D2F4D61726C696E4669726D776172652F
:101580002F4D61726C696E2050524F544F434F4C37
:101590005F56455253494F4E3A312E30204D41430C
:1015A00048494E455F545950453A566F6C746572C0
:1015B0007261204475616C2032345620554152547A
:1015C000206A756D70657273207769746820544D58
:1015D0004332323039206F6E204D4B532047656EB9
:1015E0004C2076322E312045585452554445525F96
:1015F000434F554E543A3420555549443A63656437
:1016000065326132662D343161322D343734382DF4
:10161000396231322D63353563363266333637669B
:10162000660A00203B0020204D3835312058005AF2
:101630002D50726F6265204F666673657400256970
:10164000730025696D202569730025696820256967
:101650006D20256973002569642025696820256946
:101660006D20256973002569792025696420256925
:10167000682025696D202569730020573A0020579E
:101680003A0023646566696E652044454641554CC1
:10169000545F004B6420004B6920004B70200050C9
:1016A0004944204175746F74756E652066696E6972
:1016B00073686564212050757420746865206C61BE
:1016C0007374204B702C204B6920616E64204B6436
:1016D00020636F6E7374616E74732066726F6D2019
:1016E00062656C6F7720696E746F20436F6E6669F8
:1016F0006775726174696F6E2E680A0050494420E4
:101700004175746F74756E65206661696C656421DE
:101710002074696D656F75740A00504944204175E5
:10172000746F74756E65206661696C656421205400
:10173000656D706572617475726520746F6F206875
:101740006967680A00204B643A2000204B693A2000
:1017500000204B703A200020436C61737369632052
:10176000504944200A002054753A2000204B753A15
:101770002000206D61783A2000206D696E3A2000CB
:1017800020643A200020626961733A200050494485
:10179000204175746F74756E652073746172740A7C
:1017A00000504944204175746F74756E6520666100
:1017B000696C6564212054656D7065726174757221
:1017C0006520746F6F20686967680A00504944207B
:1017D0004175746F74756E65206661696C6564210E
:1017E00020426164206865617465722069640A0042
:1017F0006F70656E00545249474745524544003A60
:1018000020007A5F70726F6265007A5F6D617800A8
:10181000795F6D617800785F6D696E005265706FF9
:101820007274696E6720656E6473746F7020737470
:10183000617475730A000080C5430000C8430080CE
:10184000CF430000000000000000000000002074F2
:101850006F6F206C6F6E6720657874727573696F37
:101860006E2070726576656E7465640A0020636F21
:101870006C6420657874727573696F6E2070726520
:1018800076656E7465640A00000020C20000C843DB
:101890000080CF435761726E696E673A20486F6D62
:1018A000696E672042756D702044697669736F7246
:1018B000203C20310A000202040080C5430000C819
:1018C000430080CF430000A0400000A04000000083
:1018D0004000000001000000010000800055555547
:1018E000000000400033333300AAAA2A00499224A2
:1018F0000000002000C7711C0099991900D14517FC
:1019000000555515003BB113002449120011111167
:1019100000000010000F0F0F00E3380E0043790D98
:1019200000CCCC0C00C3300C00E8A20B0064210BEF
:1019300000AAAA0A00703D0A009DD80900427B094E
:101940000092240900DCD3080088880800104208AF
:101950000000000800F0C1070087870700755007E6
:1019600000711C07003EEB0600A1BC060069900652
:101970000066660600703E06006118060017F40552
:101980000074D105005BB00500B2900500627205DD
:10199000005555050078390500B81E0500050505F8
:1019A000004EEC040087D40400A1BD040090A704FD
:1019B0000049920400C17D0400EE690400C756048A
:1019C00000444404005C3204000821040041100477
:1019D00000000004003FF00300F8E0030026D203FB
:1019E00000C3C30300CCB503003AA803000A9B035D
:1019F00000388E0300C08103009F750300D0690387
:101A000000505E03001D53030034480300913D0362
:101A1000003333030016290300381F030097150312
:101A200000300C0300030303000BFA020049F1022B
:101A300000BAE802005CE002002DD802002DD002BE
:101A40000059C80200B0C0020031B90200DAB10288
:101A500000AAAA0200A0A30200BC9C0200FA950200
:101A6000005C8F0200DF88020082820200457C0257
:101A7000002776020027700200436A02007C64029D
:101A800000D05E02003F590200C8530200FFFDFC77
:101A9000FAF8F6F4F2F0EEECEAE9E7E5E3E1E0DE8D
:101AA000DCDAD9D7D5D4D2D0CFCDCBCAC8C7C5C33D
:101AB000C2C0BFBDBCBAB9B7B6B4B3B2B0AFADACBB
:101AC000AAA9A8A6A5A4A2A1A09E9D9C9A99989710
:101AD00095949392908F8E8D8B8A89888786848344
:101AE0008281807F7E7D7B7A797877767574737258
:101AF00071706F6E6D6C6B6A69686766656463624E
:101B000061605F5E5D5C5B5A595858575655545337
:101B1000525150504F4E4D4C4B4A4A494847464609
:101B2000454443424241403F3E3E3D3C3B3B3A39C7
:101B3000383837363535343332323130302F2E2E77
:101B40002D2C2B2B2A29292827272625252423231A
:101B500022212120201F1E1E1D1C1C1B1B1A1919AF
:101B60001818171616151514131312121111100F39
:101B70000F0E0E0D0D0C0C0B0A0A090908080707B9
:101B80000606050504040303020201000020746F29
:101B90006F206C6F6E6720657874727573696F6EF5
:101BA0002070726576656E7465640A0020636F6CE0
:101BB0006420657874727573696F6E2070726576D3
:101BC000656E7465640A00290A0020627974657381
:101BD0003B20637263200053657474696E677320E1
:101BE00053746F726564202800454550524F4D2054
:101BF000496E697469616C697A65640A004861724A
:101C000064636F6465642044656661756C74205319
:101C1000657474696E6773204C6F6164656400203D
:101C2000286D6D2900203B204C6576656C696E67D8
:101C3000200020204D3432302053004175746F2035
:101C4000426564204C6576656C696E670020204DA6
:101C500039303600205431204500205430204500D2
:101C60005374657070657220647269766572206362
:101C7000757272656E740020204D353639205331EF
:101C80000054312045005430204500205800447253
:101C900069766572207374657070696E67206D6F08
:101CA000646500204A00202047323920572049002F
:101CB00020204D3134392043203B20556E69747308
:101CC00020696E2043656C736975730A0054656DF5
:101CD000706572617475726520556E697473002049
:101CE00020473231203B004C696E65617220556E91
:101CF00069747300454550524F4D2064617461739F
:101D0000697A65206572726F722E0A00290A0020B6
:101D100062797465733B2063726320002073746F73
:101D20007265642073657474696E6773207265747C
:101D3000726965766564202800202863616C63758C
:101D40006C6174656429210A0020213D200045450D
:101D500050524F4D20435243206D69736D6174633F
:101D600068202D202873746F726564292000205329
:101D7000697A653A2000496E6465783A200000006F
:101D80004843000048430000A041000034420000E6
:101D9000C8420000C842F0F7FB4300000C43DC05DA
:101DA0000000DC0500006400000010270000204D4A
:101DB00061726C696E3D563836290A0045455052AD
:101DC0004F4D2076657273696F6E206D69736D611A
:101DD0007463682028454550524F4D3D0024F4D48B
:101DE0003050C38E20C2A24017828B7011127A919C
:101DF0000D816CD90AA861E108C758660761514393
:101E0000061E4B5D05C145A7041A411104093D9802
:101E100003713931034036DB0265339102D430540B
:101E200002802E1D02632CEE01752AC501B028A088
:101E300001102781018F2564012B244B01E02234FE
:101E400001AC211F018D200D01801FFC00841EEDBF
:101E500000971DDF00B81CD200E61BC600201BBC8B
:101E600000641AB200B219A8000A19A0006A1899F1
:101E700000D117910040178B00B516840031167EF3
:101E800000B31579003A157300C7146F0058146A2F
:101E900000EE1366008813630025135E00C7125B13
:101EA000006C12570015125400C111510070114FEF
:101EB0000021114B00D61049008D104700461044F8
:101EC0000002104200C00F4000800F3E00420F3C55
:101ED00000060F3B00CB0E3800930E37005C0E352A
:101EE00000270E3400F30D3200C10D3100900D308B
:101EF00000600D2E00320D2D00050D2C00D90C2B8D
:101F000000AE0C2900850C29005C0C2700350C273D
:101F1000000E0C2600E80B2400C40B2400A00B23A9
:101F2000007D0B23005A0B2100390B2100180B20D8
:101F300000F80A1F00D90A1E00BB0A1E009D0A1DD8
:101F400000800A1D00630A1C00470A1B002C0A1BA4
:101F500000110A1A00F7091A00DD091900C409194D
:101F600000AB091900920917007B091800630917D3
:101F7000004C09160036091600200916000A09153A
:101F800000F5081500E0081400CC081400B8081487
:101F900000A4081400900813007D0812006B0813B9
:101FA00000580812004608120034081100230811D6
:101FB000001208110001081100F0071000E00710DE
:101FC00000D0071000C0071000B0070F00A10710D5
:101FD0000091070E0083070F0074070F0065070EBE
:101FE0000057070E0049070E003B070D002E070E95
:101FF0000020070D0013070D0006070D00F9060C61
:1020000000ED060D00E0060C00D4060C00C8060C1E
:1020100000BC060C00B0060C00A4060B0099060CD0
:10202000008D060B0082060B0077060B006C060B7A
:102030000061060A0057060B004C060A0042060A19
:102040000038060A002E060A0024060A001A060AAC
:10205000001006090007060A00FD050900F405093D
:1020600000EB050900E2050900D9050900D00509C2
:1020700000C7050900BE050900B5050800AD050843
:1020800000A50509009C050800940508008C0508BA
:1020900000840508007C050800740508006C05072D
:1020A00000650508005D050700560508004E050798
:1020B00000470507004005080038050700310507FF
:1020C000002A050700230507001C05060016050762
:1020D000000F0507000805060002050700FB0406BF
:1020E00000F5040700EE040600E8040600E2040719
:1020F00000DB040600D5040600CF040600C9040670
:1021000000C3040600BD040600B7040600B10405C0
:1021100000AC040600A6040600A00405009B04060B
:102120000095040500900406008A04050085040556
:1021300000800406007A040500750405007004059B
:10214000006B04050066040500610405005C0405DD
:102150000057040500520405004D0405004804051D
:1021600000430405003E0404003A0405003504055C
:1021700000300404002C0405002704040023040597
:10218000001E0404001A04040016040500110404CF
:10219000000D040400090405000404040000040404
:1021A00000FC030400F8030400F4030400F003043B
:1021B00000EC030400E8030400E4030400E003046B
:1021C00000DC030400D8030400D4030400D003049B
:1021D00000CC030400C8030300C503030024F40477
:1021E000D9201BC40C5C0E9804C4095F02650771FA
:1021F00001F405F900FB04B30048048700C103693A
:10220000005803550003034500BE023A0084023122
:102210000053022A002902250004022000E4011CC8
:1022200000C8011900AF01170098011400840113C0
:1022300000710110006101100051010E0043010DF9
:102240000036010B002B010B0020010B00150109CA
:10225000000C01090003010800FB000800F300085E
:1022600000EB000700E4000600DE000600D80006D0
:1022700000D2000600CC000500C7000500C2000522
:1022800000BD000400B9000400B5000400B1000462
:1022900000AD000400A9000400A5000300A2000393
:1022A000009F0004009B00030098000300950002BB
:1022B0000093000300900003008D0002008B0003D8
:1022C00000880002008600020084000300810002F2
:1022D000007F0002007D0002007B00020079000206
:1022E0000077000100760002007400020072000115
:1022F00000710002006F0002006D0001006C00021E
:10230000006A000100690002006700010066000128
:10231000006500010064000200620001006100012C
:1023200000600001005F0002005D0001005C000130
:10233000005B0001005A0001005900010058000133
:102340000057000100560001005500010054000133
:102350000053000000530001005200010051000131
:1023600000500001004F0001004E0000004E00012F
:10237000004D0001004C0001004B0000004B00012B
:10238000004A000100490001004800000048000127
:102390000047000100460000004600010045000023
:1023A000004500010044000100430000004300011B
:1023B0000042000000420001004100000041000115
:1023C00000400001003F0000003F0001003E00000F
:1023D000003E0001003D0000003D0001003C000007
:1023E000003C0000003C0001003B0000003B0001FD
:1023F000003A0000003A00010039000000390001F5
:1024000000380000003800000038000100370000EC
:1024100000370001003600000036000000360001E1
:1024200000350000003500000035000100340000D8
:1024300000340000003400010033000000330000CD
:1024400000330001003200000032000000320001C1
:1024500000310000003100000031000100300000B8
:102460000030000000300001002F0000002F0000AD
:10247000002F0000002F0001002E0000002E0000A1
:10248000002E0001002D0000002D0000002D000096
:10249000002D0001002C0000002C0000002C00008A
:1024A000002C0001002B0000002B0000002B00007E
:1024B000002B0001002A0000002A0000002A000072
:1024C000002A000100290000002900000029000066
:1024D0000029000000290001002800000028000059
:1024E000002800000028000000280001002700004C
:1024F000002700000027000000270000002700013F
:102500000026000000260000002600000026000033
:102510000026000100250000002500000025000025
:102520000025000000250000002500010024000017
:10253000002400000024000000240000002400010A
:1025400000230000002300000023000000230000FF
:1025500000230000002300000023000100220000EF
:1025600000220000002200000022000000220000E3
:1025700000220001002100000021000000210000D5
:1025800000210000002100000021000000210001C6
:1025900000200000002000000020000000200000BB
:1025A00000200000002000000020000000200001AA
:1025B000001F0000001F0000001F0000001F00009F
:1025C000001F0000001F0000001F0001001E00008F
:1025D000001E0000001E0000001E00000039300038
:1025E000003325000087190000B00F0000DB080051
:1025F00000BD040000740200003F010000423A00E8
:1026000020436F756E7420413A0045006265640096
:102610002C2073797374656D2073746F70706564AA
:1026200021204865617465725F49443A200048651D
:102630006174696E67204661696C65640048656114
:1026400074696E67206661696C6564004572723AF0
:10265000204D415854454D50004D415854454D5022
:1026600020747269676765726564004572723A200A
:102670004D494E54454D50004D494E54454D502006
:1026800074726967676572656400544845524D41CC
:102690004C2052554E4157415900546865726D6146
:1026A0006C2052756E61776179000A0A0020205A09
:1026B0005F4D494E5F50524F42453A0020205A5FCD
:1026C0004D41583A002020595F4D41583A00202092
:1026D000585F4D494E3A00202F00204000204240D4
:1026E0003A0020403A00496E76616C696420657852
:1026F0007472756465720A00416374697665204579
:10270000787472756465723A20001000600350019D
:102710002C0190012201D001180110020E0170025B
:102720000401E002FA006003F0000004E600B004D7
:10273000DC00A005D200B006C8000008BE00A00959
:10274000B400800BAA00D00DA00090109600C0131A
:102750008C0070178200901B780010206E00C0243F
:102760006400E02D500080353C00A03A2800A03DD8
:102770001400003F0000A03FECFF00000000300EFE
:102780000100C00E0A00500F1400D00F1E00601090
:102790002800E010320070113C00F0114600701269
:1027A000500000135A008013640000146E0090144F
:1027B00078001015820090158C0010169600901667
:1027C000A0001017AA009017B4001018BE009018AF
:1027D000C8001019D2009019DC00101AE600801A07
:1027E000F000001BFA00801B0401F01B0E01701C9E
:1027F0001801F01C2201601D2C01E01D3601501E45
:102800004001D01E4A01401F5401B01F5E0130201C
:102810006801A020720110217C0190218601002214
:1028200090016026F401902A5802802EBC0250329A
:102830002003E03584035039E803803C4C04202019
:10284000506C616E6E65724275666665724279742F
:1028500065733A20002046726565204D656D6F7284
:10286000793A200020436F6D70696C65643A2044AA
:10287000656320323220323032320A00204C6173DC
:102880007420557064617465643A20323032322DA0
:1028900030332D3134207C20417574686F723A20BA
:1028A00028467261636B74616C20576F726B732C76
:1028B0002064656661756C7420636F6E6669672954
:1028C0000A004D61726C696E206275676669782DC9
:1028D000322E302E780A0020536F6674776172654D
:1028E0002052657365740A00205761746368646FD1
:1028F000672052657365740A002042726F776E20FC
:102900006F75742052657365740A0020457874658C
:10291000726E616C2052657365740A00506F776542
:102920007255700A0073746172740A0020503A0084
:10293000205A3A0020593A0020583A00656E6473D4
:10294000746F7073206869743A20000000210024BD
:102950000027002A002D0030003300010100000490
:102960000107010A0100000A0B02090C0D0E0807FD
:10297000030401000000000000000000000000004F
:102980000000000000000000000000000000000047
:102990000012111000000000000000000000000004
:1029A00000000000000000000000000000200023E4
:1029B00000260029002C002F003200000100000337
:1029C000010601090100002200250028002B002E2D
:1029D000003100340002010000050108010B01056F
:1029E000050505070508080808020202020A0A0888
:1029F00008040404040101010101010101030303AE
:102A00000303030303040707070C0C0C0C0C0C0C4A
:102A10000C0202020206060606060606060B0B0B51
:102A20000B0B0B0B0B01021020200808102040108C
:102A30002040800201020108040201010204081082
:102A400020408080402010080402018004020180A0
:102A500040201008040201080402010102040810C9
:102A60002040800102040810204080486F6D696E8C
:102A700067204661696C656400FF010150726F62F6
:102A8000696E67204661696C65640A00205A3A20C5
:102A90000020593A200042656420583A2000220A5A
:102AA00000556E6B6E6F776E20636F6D6D616E6437
:102AB0003A202200204500205A0020590020204DB5
:102AC0003932205800537465707320706572207518
:102AD0006E697400486F6D6520257325732573201A
:102AE00046697273740020453A00205A3A00205912
:102AF0003A00583A006F6B0A00526573656E643A8B
:102B000020005072696E7465722068616C7465642F
:102B10002E206B696C6C28292063616C6C656421C4
:102B20000A0079B111241FBECFEFD1E2DEBFCDBFC5
:102B300000E00CBF84B78093C61114BE0FB6F894A2
:102B4000A895809160008861809360001092600079
:102B50000FBE13E0A0E0B2E0EEECFFE801E00BBF37
:102B600002C007900D92A03BB107D9F721E1A0EB7D
:102B7000B3E001C01D92A63CB207E1F715E1C2E93E
:102B8000D5E100E006C021970109802FFE010E94D7
:102B9000AFC4C139D10780E00807A9F70E948BB301
:102BA0000C94E5C70C9400009F92AF92BF92CF9215
:102BB000DF92EF92FF920F931F93CF93DF9300D09A
:102BC0001F921F92CDB7DEB7EDE8FAE10027BB27D1
:102BD000462F572FA82FAA2341F4A52F542FB85FB3
:102BE000AA2319F4A52F5527B85FA03138F45295C0
:102BF000A295452F4F70507FA42BBC5FA03428F4C2
:102C0000550FAA1F550FAA1FBE5FA03818F4550F05
:102C1000AA1FB395550FAA1FEA0FF01F449151E068
:102C2000AA27B85079F1C0F0B0FF02C0440F551F79
:102C3000B1FF04C0440F551F440F551FB2FF06C01B
:102C400052954295142F1F70407F512BB3FF1AC02D
:102C5000A52F542F442716C0B195B0FF02C055953B
:102C60004795B1FF04C05595479555954795B2FFD7
:102C700005C05295407F4295452B5F70B3FF02C05F
:102C8000452F5527DD24CC24BB24B2E0649FD01807
:102C9000C108B00AB00B749FC018B108B00B849F74
:102CA000B018B109659FC018B108B00B759FB01876
:102CB000B109859FB0196A9FB018B1097A9FB01900
:102CC0004D9DA12C99243327992722275D9DA00C87
:102CD000911C301F901F201FAD9D900C311D901F27
:102CE000201F4C9DA00C911C301F901F201F5C9D2D
:102CF000900C311D901F201FAC9D300D911D201F89
:102D00004B9D900C311D901F201F5B9D300D911D20
:102D1000201FAB9D900D211D4B9F300D911D201F3D
:102D20005B9F900D211DAB9F200DB1E0BB24CC24F7
:102D3000DD24639FD018C108B00AB00B739FC01880
:102D4000B108B00B839FB018B109699FC018B108D2
:102D5000B00B799FB018B109899FB019629FB01864
:102D6000B109729FB019D61AC70AB80A20F0B1E0AB
:102D70003B0F901F201F1124792F632F90E0822F8B
:102D80000F900F900F900F900F90DF91CF911F91A8
:102D90000F91FF90EF90DF90CF90BF90AF909F90FA
:102DA0000895AF92BF92CF92DF92EF92FF920F936E
:102DB0001F93CF93DF93C8E6DDE00EE614E088E7CB
:102DC000A82E8DE0B82EC12CD12C7601C394699128
:102DD0007991899199910E944FC0288939894A89AE
:102DE0005B890E94B0C00E9437C6F801619371935D
:102DF000819391938F01C616D706E806F90610F461
:102E00006B017C01AC16BD0611F76FEF7FEFCB01B4
:102E1000A70196010E9425C420937E0430937F046D
:102E20004093800450938104DF91CF911F910F91C3
:102E3000FF90EF90DF90CF90BF90AF9008957F927A
:102E40008F929F92AF92BF92CF92DF92EF92FF92BA
:102E50000F931F93CF93DF937090490ACAE5D4E094
:102E60009FE1C92E92E0D92E27E2E22E22E0F22E37
:102E700009E31AE0772009F45EC0F80180809180B0
:102E8000A280B38020E030E0A901C501B4010E9416
:102E90004BC0882309F44FC020E030E040E05FE3FE
:102EA000C501B4010E94B0C09B01AC010E94B0C03A
:102EB0002BED3FE049E450E40E94B0C09B01AC011F
:102EC00060E070E080E89FE30E94CAC54B015C01AE
:102ED00089929992A992B992F601619171916F01CB
:102EE000072E000C880B990B0E9451C02AE037ED89
:102EF00043E25CE30E94B0C0A50194010E94B0C00F
:102F0000F70161937193819391937F010C5F1F4F40
:102F1000F4E0CA36DF0709F0ADCFDF91CF911F9102
:102F20000F91FF90EF90DF90CF90BF90AF909F9068
:102F30008F907F900895812C912C80E8A82E8FE3AC
:102F4000B82EC6CFFC017081472F50E0062E02C07C
:102F5000559547950A94E2F740FF14C04091640BE1
:102F600050E0062E02C0559547950A94E2F740FFBF
:102F700009C021E030E001C0220F6A95EAF72095F0
:102F8000272320830895CF93DF9324E0829FC001FD
:102F90001124EC01C055D24FFC01EE54F44F825B7A
:102FA0009B4FDC012D913D914D915C916081718130
:102FB000828193810E94EEC4688379838A839B8394
:102FC000DF91CF91089580914A0490914B04A09194
:102FD0004C04B0914D0480935A0290935B02A093ED
:102FE0005C02B0935D0280914804909149049093F3
:102FF0001E0280931D02089580915A0290915B02F7
:10300000A0915C02B0915D0280934A0490934B04BE
:10301000A0934C04B0934D0480911D0290911E0228
:10302000909349048093480484E690E090931E02B4
:1030300080931D020895CF93DF9390913B049111EB
:103040001BC0C0911B02D0911C02219797E1899F60
:10305000F0011124E85FF44F20E030E040E05FE34E
:1030600064817581868197810E94EEC40E9432C678
:1030700021E06C177D070CF020E0822FDF91CF91CB
:10308000089590E080E0089540911004509111045B
:10309000833021F445FD10C044FD0CC021E030E038
:1030A00002C0220F331F8A95E2F72423352381E0E3
:1030B000232B09F480E0089581E0089580912D0488
:1030C00084FD0BC080912F0487FD07C090913004D0
:1030D000937081E019F480E0089581E00895082E4E
:1030E000000C990BFC01E152F64DE491EE2391F0B6
:1030F000F0E0EE0FFF1FE555F64DA591B4912C9130
:103100008B5D954DFC018491282381E090E021F4B2
:1031100080E0089580E090E00895082E000C990B5F
:10312000FC01E152F64DE491F0E0EE0FFF1FE55B8C
:10313000F64DA591B4912C918B5D954DFC01849138
:10314000822391E009F490E0892F08952FEB280F56
:103150002A3108F047C0E22FF0E080912D049091D1
:103160002E04A0912F04B091300404C0B695A79509
:10317000979587952A95D2F780FD02C081700895B2
:10318000ED5EFB4FE081EE2341F180914D0D90917A
:103190004E0DE80FF92FF11D808190ED980F9A30B8
:1031A00030F08E3251F4818180538A3098F4F0935C
:1031B0000D04E0930C0481E008958D3211F08B3200
:1031C00049F4818190ED980F9A3088F38E3211F492
:1031D0008281EACFF0E0E0E0EACF10920D04109295
:1031E0000C04E9CF80E00895B1DF882341F081E04D
:1031F00020910C0430910D04232B09F480E00895F4
:103200008F929F92AF92BF92CF92DF92EF92FF92F6
:10321000C090920AD090930AE090940AF090950A98
:1032200020E030E0A901C701B6010E944BC088230D
:10323000E1F1A701960160E070E080E89FE30E9461
:10324000CAC56B017C018090960A9090970AA09065
:10325000980AB090990A20E030E0A901C501B401B4
:103260000E944BC0882329F1A501940160E070E021
:1032700080E89FE30E94CAC5C092FB03D092FC0382
:10328000E092FD03F092FE036093FF03709300044D
:103290008093010490930204FF90EF90DF90CF9011
:1032A000BF90AF909F908F900895C12CD12C760144
:1032B000CACF60E070E0CB01DFCF2F923F924F92F8
:1032C0005F926F927F928F929F92AF92BF92CF92B6
:1032D000DF92EF92FF920F931F93CF93DF93CDB7BF
:1032E000DEB72E970FB6F894DEBF0FBECDBF8A8330
:1032F000162F4983822E262F30E03A872987E4E073
:103300008E9FC00111249C878B87FC01E20FF31F65
:10331000EE0FFF1FEE0FFF1FE65BF54F608171811F
:10332000828193819B01AC010E949AC7882309F492
:103330002EC19A81E9819E0F882D810F24E0929FF2
:10334000F0011124A985BA85AE0FBF1FAA0FBB1FBC
:10335000AA0FBB1FA65BB54FAC901196BC901197FE
:103360001296CC9012971396DC903981930F24E03B
:10337000929FA0011124A985BA85A40FB51FAA0F99
:10338000BB1FAA0FBB1FA65BB54FEC901196FC901C
:10339000119712960C91129713961C91282F30E0DA
:1033A000AB85BC85A20FB31FAA0FBB1FAA0FBB1F03
:1033B000A65BB54F9C9011967C90119712966C90DD
:1033C000129713965C90880D90E0AB85BC85A80F92
:1033D000B91FAA0FBB1FAA0FBB1FA65BB54F8C90CE
:1033E00011964C90119712963C90129713962C9030
:1033F000E20FF31FEE0FFF1FEE0FFF1FE65BF54F0F
:103400003081398321812A8332813B8323812C833C
:10341000FA01E80FF91FEE0FFF1FEE0FFF1FE65B2B
:10342000F54F30813D8381818E8392819F832381FB
:1034300028879701A801B701C8010E949AC788236D
:1034400021F0E12CF12C00E010E09501A601B5017E
:10345000C6010E949AC7882311F057016801282DE0
:10346000342D432D522D682D742D832D922D0E94C5
:103470009AC7882321F0812C412C312C212C292D15
:10348000372D462D552D692D772D862D952D0E9492
:103490009AC7882321F0982C742C632C522C2D81F0
:1034A0003E814F8158856D817E818F8198850E94F4
:1034B0009AC7882321F01D821E821F8218862981C7
:1034C0003A814B815C8169817A818B819C810E94E8
:1034D0009AC7882341F03D8139838E818A839F81F9
:1034E0009B83E885EC832B853C8589859A85280F0D
:1034F000391F220F331F220F331F265B354F3A87A8
:1035000029879501A601B501C6010E94EEC4970165
:10351000A8010E94EDC46B017C01292D372D462D99
:10352000552D692D772D862D952D0E94EEC4282DC1
:10353000342D432D522D0E94EDC49B01AC01C701D7
:10354000B6010E94EEC46B017C0129813A814B8156
:103550005C8169817A818B819C810E94EEC42D817E
:103560003E814F8158850E94EDC49B01AC01C7018B
:10357000B6010E94EEC420E030E040E450E40E9436
:10358000CAC5E985FA8560837183828393832E9609
:103590000FB6F894DEBF0FBECDBFDF91CF911F9164
:1035A0000F91FF90EF90DF90CF90BF90AF909F90E2
:1035B0008F907F906F905F904F903F902F900895E5
:1035C000E8E1F5E09491981739F0319695E0EE3303
:1035D000F907C1F780E0089581E008950F931F93E4
:1035E000CF93DF930CE71DE0C3E8D4E0F80121910D
:1035F0003191419151918F0160E070E080E89FE34B
:103600000E94CAC56993799389939993F4E0C33969
:10361000DF0761F70E943288DF91CF911F910F91F0
:10362000C0CB2F923F924F925F926F927F928F9278
:103630009F92AF92BF92CF92DF92EF92FF920F9341
:103640001F93CF93DF93CDB7DEB76C970FB6F89487
:10365000DEBF0FBECDBF8C015B015A834983FC01E5
:10366000E85BFF4F208131814281538129873A876E
:103670004B875C87CA01B9010E944FC06B017C0176
:10368000D5012D913D914D915C910E94B0C00E9459
:10369000B4C52B013C01E981FA812081318142814D
:1036A0005381C701B6010E94B0C00E94B4C54B014E
:1036B0005C01C301B2010E9437C6698B7A8B8B8B88
:1036C0009C8B683771058105910540F428E730E04F
:1036D00040E050E0298B3A8B4B8B5C8BC501B401E9
:1036E0000E9437C66D877E878F87988B68377105F4
:1036F0008105910540F448E750E060E070E04D87B7
:103700005E876F87788BF801EC5AFF4F40805180BD
:1037100062807380C301B2010E9451C069837A83C1
:103720008B839C8369897A898B899C890E944FC08D
:103730006D8B7E8B8F8B988F20E030E0A9016981A3
:103740007A818B819C810E944BC0882309F4E1C15E
:10375000A7019601C701B6010E94B0C04B015C01F0
:103760002D893E894F89588DCA01B9010E94B0C088
:103770009B01AC01C501B4010E94EDC44B015C0189
:1037800029813A814B815C81CA01B9010E94EEC452
:103790009B01AC01C501B4010E94CAC50E94B4C519
:1037A0000E9437C66D837E838F839887662777272D
:1037B000CB0164197509860997090E9451C04B0114
:1037C0005C016D857E858F8598890E944FC02B0195
:1037D0003C0120E030E0A901C501B4010E944BC0CA
:1037E000882309F49AC1A3019201C301B2010E9486
:1037F000B0C0698F7A8F8B8F9C8FA7019601C7010C
:10380000B6010E94B0C09B01AC01698D7A8D8B8D91
:103810009C8D0E94EDC46B017C01A5019401C50142
:10382000B4010E94EEC49B01AC01C701B6010E9425
:10383000CAC50E9463C6D80195968D909D90AD90A3
:10384000BC909897750164012D813E814F81588508
:10385000C21AD30AE40AF50A0E9437C6C61AD70A62
:10386000E80AF90AF7FE8EC02D893E894F89588DE6
:10387000CA01B9010E94B0C06B017C0129813A8163
:103880004B815C81CA01B9010E94EEC469877A87C5
:103890008B879C8720E030E0A90169817A818B8148
:1038A0009C810E944BC0882309F43BC1C501B4012F
:1038B0000E944FC029853A854B855C850E94B0C027
:1038C000A70196010E94EDC46D837E838F83988744
:1038D000A3019201C301B2010E94B0C09B01AC01DF
:1038E0006D817E818F8198850E94EEC42B013C0101
:1038F00020E030E040E850E469817A818B819C814E
:103900000E94B0C09B01AC01C301B2010E94CAC5B4
:103910000E94B4C52B013C0120E030E0A9010E94C7
:1039200014C718161CF0412C512C3201C301B201EE
:103930000E9437C66D837E838F839887861697068D
:10394000A806B90620F48D829E82AF82B8866D816A
:103950007E818F8198850E944FC029853A854B854D
:103960005C850E94B0C0A70196010E94EEC40E942F
:1039700059C70E9437C669877A878B879C87C12C75
:10398000D12C760169857A858B859C8529893A8930
:103990004B895C89621B730B840B950B0E944FC093
:1039A00029813A814B815C810E94CAC520E034E2C2
:1039B00044EF59E40E94B0C00E9437C64B015C013D
:1039C00069857A858B859C852D853E854F855889AF
:1039D000621B730B840B950B0E944FC029813A81A7
:1039E0004B815C810E94CAC520E034E244EF59E477
:1039F0000E94B0C00E9437C62B013C013FE68316EF
:103A00009104A104B10408F090C0F401EE0FFF1F6F
:103A1000EE0FFF1FEF52F74E85919591A591B4914E
:103A20008983292E3A2EBD8B4FE64416510461043A
:103A3000710408F082C0F201EE0FFF1FEE0FFF1FAE
:103A4000EF52F74E45915591659174919A01CB01D2
:103A50004D815E816F817885D8019A964D935D93F3
:103A60006D937C939D974C0D5D1D6E1D7F1DF80120
:103A700046A757A760AB71ABE45BFF4F49895A89F2
:103A80006B897C894083518362837383D6968D9240
:103A90009D92AD92BC92D997F80142AE53AE64AEFE
:103AA00075AEFE9649814083218232825D895383BF
:103AB0003496208331838283938369857A858B85CD
:103AC0009C85D2966D937D938D939C93D5973E96CE
:103AD0002D853E854F8558892083318342835383CA
:103AE0006C960FB6F894DEBF0FBECDBFDF91CF91BD
:103AF0001F910F91FF90EF90DF90CF90BF90AF900C
:103B00009F908F907F906F905F904F903F902F90FD
:103B1000089560E070E0CB0141CE60E070E0CB0141
:103B200088CE60E070E0CB01F3CEC501B4013CD893
:103B30006983272E382E9D8B77CFC301B20134D8ED
:103B40009B0186CF4F925F926F927F928F929F924E
:103B5000AF92BF92CF92DF92EF92FF920F931F939B
:103B6000CF93DF93EC0120918A0A30918B0A409128
:103B70008C0A50918D0A688179818A819B810E948B
:103B8000EDC46B017C0120918E0A30918F0A409127
:103B9000900A5091910A6C817D818E819F810E9453
:103BA000EDC44B015C01A701960160910302709185
:103BB000040280910502909106020E944BC0882366
:103BC00009F450C0C0920302D0920402E0920502B0
:103BD000F09206022091FB033091FC034091FD031B
:103BE0005091FE03C701B6010E94B0C02B013C01F9
:103BF0000E9463C66B017C0120E030E0A9010E94B5
:103C00004BC087FD70C020E030E040E050E4C701C9
:103C1000B6010E9414C718162CF4C12CD12CE12C2B
:103C2000A0E4FA2EA7019601C301B2010E94EDC4DF
:103C30006093F3037093F4038093F5039093F6037A
:103C4000C701B6010E9432C66093F103062E000C34
:103C5000770B6F5F7F4F6330710514F063E070E0A6
:103C60006093EF03D0910102C091F103A50194018B
:103C700060910702709108028091090290910A02F6
:103C80000E944BC0811133C0DC1381C02091D70347
:103C90003091D8034091D9035091DA036091F30336
:103CA0007091F4038091F5039091F6030E94B0C0E7
:103CB0002091DB033091DC034091DD035091DE0362
:103CC0000E94EEC4DF91CF911F910F91FF90EF9072
:103CD000DF90CF90BF90AF909F908F907F906F902C
:103CE0005F904F900895C12CD12C76019BCF80928C
:103CF000070290920802A0920902B0920A02209153
:103D0000FF03309100044091010450910204C50169
:103D1000B4010E94B0C04B015C010E9463C66B01FC
:103D20007C0120E030E0A9010E944BC087FDF4C077
:103D300020E030E040E050E4C701B6010E9414C723
:103D400018162CF4C12CD12CE12CF0E4FF2EA70185
:103D50009601C501B4010E94EDC46093F70370930E
:103D6000F8038093F9039093FA03C701B6010E9408
:103D700032C66093F203062E000C770B6F5F7F4F05
:103D80006330710514F063E070E06093F00300911C
:103D9000F203DC1305C080910202801709F471C0A0
:103DA0008091F1039091F2039093020280930102BB
:103DB000002E000C110B24E0C202C0011124FC01F2
:103DC000E00FF11FEE0FFF1FEE0FFF1FE65BF54F39
:103DD00020813181428153812093EB033093EC03A6
:103DE0004093ED035093EE03C091F0030C2E000CB2
:103DF000DD0BFC01EC0FFD1FEE0FFF1FEE0FFF1F91
:103E0000E65BF54F60817181828193810E94EDC4F0
:103E10006093E7037093E8038093E9039093EA03C8
:103E20008091EF0324E08202C0011124FC01E00F25
:103E3000F11FEE0FFF1FEE0FFF1FE65BF54F208116
:103E40003181428153812093E3033093E403409313
:103E5000E5035093E603C80FD91FCC0FDD1FCC0F2D
:103E6000DD1FC65BD54F688179818A819B810E9465
:103E7000EDC46093DF037093E0038093E1039093BC
:103E8000E2038090F7039090F803A090F903B090BC
:103E9000FA032091E7033091E8034091E903509140
:103EA000EA03C501B4010E94B0C02091EB03309138
:103EB000EC034091ED035091EE030E94EEC46B01C0
:103EC0007C01C092DB03D092DC03E092DD03F09230
:103ED000DE032091DF033091E0034091E103509134
:103EE000E203C501B4010E94B0C02091E303309108
:103EF000E4034091E5035091E6030E94EEC4A7015C
:103F000096010E94EDC46093D7037093D803809309
:103F1000D9039093DA03BACEC12CD12C760117CFF6
:103F2000CF93DF932091650B222371F0EC010ADE21
:103F30009B01AC01688579858A859B850E94EDC4CB
:103F4000688779878A879B87DF91CF9108952F9221
:103F50003F924F925F926F927F928F929F92AF9219
:103F6000BF92CF92DF92EF92FF920F931F93CF9366
:103F7000DF93D62FC72FFC0180809180A280B38071
:103F8000C501B40120E831E541E050E00E9425C4BC
:103F9000C9016DE671E00E9488C46B017C01C50116
:103FA000B40120E13EE040E050E00E9425C4CA0197
:103FB000B90128E130E040E050E00E9425C4362EEF
:103FC000272E062F172F8CE3482E512C612C712C95
:103FD000C501B401A30192010E9425C4B62EA72EEB
:103FE000CA01B901A30192010E9425C4CB01C114E9
:103FF000D10479F1AF92BF927F936F932F923F924A
:10400000FF92EF92DF92CF9286E696E19F938F9395
:10401000CF93DF930E941CC08DB79EB70E960FB64C
:10402000F8949EBF0FBE8DBF8D2F9C2FDF91CF9137
:104030001F910F91FF90EF90DF90CF90BF90AF90C6
:104040009F908F907F906F905F904F903F902F90B8
:104050000895E114F104C9F0AF92BF927F936F937A
:104060002F923F92FF92EF9286E596E19F938F9376
:10407000CF93DF930E941CC0EDB7FEB73C960FB6FE
:10408000F894FEBF0FBEEDBFCFCF012BB9F0AF92BA
:10409000BF927F936F932F923F928AE496E19F9312
:1040A0008F93CF93DF930E941CC08DB79EB70A9663
:1040B0000FB6F8949EBF0FBE8DBFB6CF892BA9F067
:1040C000AF92BF927F936F9382E496E19F938F9319
:1040D000CF93DF930E941CC0EDB7FEB738960FB6A2
:1040E000F894FEBF0FBEEDBF9FCFAF92BF928EE39D
:1040F00096E19F938F93CF93DF930E941CC00F9004
:104100000F900F900F900F900F908ECFCF92DF9265
:10411000EF92FF920F931F93CF93DF936B017A017E
:10412000EC01C054DC4F28813CE0389F8001399F6E
:10413000100D112427FF24C0FB01118210828881F9
:104140008F5F888388819801280F311D87FD3A95FC
:10415000C90120911910F6012817190629F024F039
:1041600088818C300CF43CC080819181049680342D
:104170009C4908F475C0F60180819181049672C053
:1041800088819801280F311D87FD3A95C90120913A
:1041900019102817190699F294F28881A801480F7E
:1041A000511D87FD5A95FA01EE0FFF1FE40FF51F11
:1041B000EF52F04F808187FFC2CF8881F801E80F6E
:1041C000F11D87FDFA95CF01EE0FFF1FE80FF91FD4
:1041D000EF52F04F808160E08F770E949E8CAFCFCE
:1041E000808191812881A801420F511D27FD5A9598
:1041F0009A01FA01EE0FFF1FE20FF31FEF52F04F8B
:1042000021813281820F931FF701918380838881FE
:104210009801280F311D87FD3A95F901EE0FFF1F18
:10422000E20FF31FEF52F04F808187FF20C088819B
:10423000080F111D87FD1A95F801EE0FFF1FE00F03
:10424000F11FEF52F04F808161E08F77DF91CF91C6
:104250001F910F91FF90EF90DF90CF900C949E8C68
:1042600080E49CE9F701918380838FEF8883DF915D
:10427000CF911F910F91FF90EF90DF90CF90089515
:104280000F931F93CF93DF93CDB7DEB764970FB62D
:10429000F894DEBF0FBECDBFE82FF0E0EB59F64D2E
:1042A000E491E150E23108F006C1F0E08827E45AD9
:1042B000FE4D8F4F0C94AFC46E2195219F21AD21EF
:1042C000BB215B22C921D521E121EF21FD210B2258
:1042D000192227225B22342241224E2284B5807C7F
:1042E00009F4E9C087B51F928F9388EF9AE09F93F6
:1042F0008F938E010F5F1F4F1F930F930E941CC05F
:10430000C8010E9450AC0F900F900F900F900F902B
:104310000F9081E064960FB6F894DEBF0FBECDBF5C
:10432000DF91CF911F910F91089584B5807309F4A7
:10433000C2C088B51F928F938EEE9AE0D8CF80913D
:104340008000807C09F4B7C080918800909189003A
:104350009F938F9384EE9AE0CACF80918000807300
:1043600009F4A9C080918A0090918B009F938F934C
:104370008AED9AE0BCCF809180008C7009F49BC0DC
:1043800080918C0090918D009F938F9380ED9AE0A7
:10439000AECF8091B000807C09F48DC08091B300D5
:1043A0001F928F9386EC9AE0A2CF8091B000807329
:1043B00009F481C08091B4001F928F938CEB9AE036
:1043C00096CF80919000807C09F475C08091980010
:1043D000909199009F938F9382EB9AE088CF809180
:1043E0009000807309F467C080919A0090919B00BF
:1043F0009F938F9388EA9AE07ACF809190008C7097
:1044000009F459C080919C0090919D009F938F93D7
:104410008EE99AE06CCF8091A000807C09F44BC0BB
:104420008091A8009091A9009F938F9384E99AE0CE
:104430005ECF8091A000807309F43DC08091AA00F6
:104440009091AB009F938F938AE89AE050CF809130
:10445000A0008C7081F18091AC009091AD009F9391
:104460008F9380E89AE043CF80912001807C19F1FE
:1044700080912801909129019F938F9386E79AE07C
:1044800036CF809120018073B1F080912A01909104
:104490002B019F938F938CE69AE029CF8091200186
:1044A0008C7049F080912C0190912D019F938F93F6
:1044B00082E69AE01CCF80E02DCF80910C04909191
:1044C0000D04009731F04AE050E070E060E00C9499
:1044D0008BBD60E070E0CB010895EFDF97FD0AC06F
:1044E000ECDF6F3F71058105910509F02CF4E5DFE4
:1044F000862F089580E008958FEF0895CF93C62FFB
:104500000E94F418882311F0CF91E7CF8C2FCF9120
:10451000089580910C0490910D04892B39F0DDDF12
:1045200091E0811101C090E0892F089591E0FCCFC6
:10453000CF93DF93C82FD62F0E94F418882319F049
:10454000DF91CF91E6CF8C2F0E94A618811101C078
:104550008D2FDF91CF910895B0DFCB010895CF93D8
:10456000DF9385E40E94A618811121C080E040916C
:104570002D0450912E0460912F0470913004972FD8
:104580009170C92F90E0D92FCC0FDD1F71FB22272E
:1045900020F930E0220F331F220F331FC22B67FB9D
:1045A000442740F9C42B8C2BDF91CF910895809143
:1045B0000C0490910D04892B59F0CEDF8430B0F6B5
:1045C00093E0980F81E001C0880F9A95EAF7CFCF6A
:1045D00088E7CDCFCF93DF93EB010E94F4188823B7
:1045E00019F0DF91CF91B8CFCE01DF91CF9108952F
:1045F0000F931F93CF9380910C0490910D0400971B
:10460000E9F0FC018F01C1912C2F2F7D81F0C53481
:1046100011F0C536B9F7F801108270E060E00E9431
:1046200036BCF801C083CF911F910F91089570E0BF
:1046300060E0CF911F910F910C9436BC60E070E068
:10464000CB01F1CFCF92DF92EF92FF926A017B0113
:104650000E94F418882329F0FF90EF90DF90CF900C
:10466000C7CFC701B601FF90EF90DF90CF900895BC
:104670008F929F92AF92BF92CF92DF92EF92FF9272
:104680000F931F93CF938AE9E82E8BE0F82E04E86E
:1046900012E090EBC92E9DE0D92EC0E088E58C0F8A
:1046A0000E94F418882309F4A3C0A2DF4B015C0127
:1046B0008C2F0E944418882309F490C0F8012081AF
:1046C000318142815381C501B4010E94EEC4F701DA
:1046D0006083718382839383CF5FF4E0EF0EF11CDC
:1046E0000C5F1F4F84E0C80ED11CC330B9F685E4BF
:1046F0000E94F418882309F486C07ADF6B017C01DC
:1047000083E00E944418882371F020919002309138
:1047100091024091920250919302C701B6010E940A
:10472000EEC46B017C01C092A60BD092A70BE09265
:10473000A80BF092A90B40E050E0BA0186E482DFBA
:1047400020E030E0A9010E9414C718167CF450DF65
:1047500020E030E040E752E40E94CAC560935A026C
:1047600070935B0280935C0290935D028091BF0B1B
:1047700083FD28C08091AB0B882321F1209190020A
:104780003091910240919202509193026091A60B58
:104790007091A70B8091A80B9091A90B0E94EDC47A
:1047A0002091640D3091650D4091660D5091670D1B
:1047B0000E94EEC46093640D7093650D8093660D46
:1047C0009093670DCF911F910F91FF90EF90DF9025
:1047D000CF90BF90AF909F908F900895F601208169
:1047E000318142815381C501B4010E94EDC46FCF74
:1047F000F80180819181A281B381F7018083918347
:10480000A283B38369CF8091900290919102A0918D
:104810009202B09193028093A60B9093A70BA09362
:10482000A80BB093A90B87CFCF93DF932091650B93
:10483000222371F0EC0186D99B01AC016885798552
:104840008A859B850E94EEC4688779878A879B87C3
:10485000DF91CF91089580912E1090912F10891B98
:104860008F7019F490E080E0089590912B109923B7
:1048700051F0833030F48FEF890F19F080932B10B3
:10488000F1CF10922B1080912F1029E5829FC0014B
:1048900011248D569B4FFC01208120FDE3CF2091F8
:1048A0002F102F5F2F7020932C1030912F102091FC
:1048B0002D10321304C020912C1020932D10089538
:1048C00090916F0081E091FD02C080E00895909189
:1048D0006F009D7F90936F000895EFE6F0E0808178
:1048E0008260808308958F929F92AF92BF92CF9201
:1048F000DF92EF92FF920F931F93CF93DF93182FC6
:1049000084E0189FE0011124123008F046C0D8DF7F
:10491000082FD6DF8090C60A9090C70AA090C80AD8
:10492000B090C90A8111D9DFCBDFC090CA0AD090FC
:10493000CB0AE090CC0AF090CD0A8111CEDF0111B4
:10494000CCDF113019F5C501B4016C197D098E0950
:104950009F090E9451C020E030E040E05FE30E94E8
:10496000B0C0CD57DB4F288139814A815B810E94DD
:10497000B0C0DF91CF911F910F91FF90EF90DF902A
:10498000CF90BF90AF909F908F900895C701B601D0
:10499000680D791D8A1D9B1DDCCF92DFFE01EA5355
:1049A000F54FC080D180E280F380811196DFC7018E
:1049B000B6010E9451C0D5CF8F929F92AF92BF9205
:1049C000CF92DF92EF92FF921F93CF93DF93CDB7F9
:1049D000DEB760970FB6F894DEBF0FBECDBF182FBD
:1049E00080E081DF4B015C0180923C0490923D04A9
:1049F000A0923E04B0923F0481E075DF6B017C0120
:104A0000C0924004D0924104E0924204F0924304E8
:104A100082E069DF60934404709345048093460408
:104A2000909347041D861E861F86188A89829A8263
:104A3000AB82BC82CD82DE82EF82F88669877A877C
:104A40008B879C8783E04FDF6D877E878F87988B6E
:104A5000CE01019665DA1E3FD9F480E1FE01319660
:104A6000A4E8B2E001900D928A95E1F760960FB646
:104A7000F894DEBF0FBECDBFDF91CF911F91FF90A5
:104A8000EF90DF90CF90BF90AF909F908F90089560
:104A900084E0189FF0011124DF01AC57BD4F81E085
:104AA00090E08C0F9D1FE80FF91F408151816281BA
:104AB00073814D935D936D937C931397D7CFCF9272
:104AC000DF92EF92FF92CF93DF93C82FF9DE94E04D
:104AD000C99FE0011124FE01E654F54FC080D1804A
:104AE000E280F3808111F9DECD57DB4FC701B601BB
:104AF0000E9451C0288139814A815B810E94B0C0E7
:104B0000DF91CF91FF90EF90DF90CF900895CF93FA
:104B1000DF93CDB7DEB72C970FB6F894DEBF0FBE8C
:104B2000CDBF0E947C87CCDE9CE0E6ECFAE0DE01A3
:104B3000119601900D929A95E1F78111CEDECE018A
:104B400001960E94F5972C960FB6F894DEBF0FBE23
:104B5000CDBFDF91CF910895CF93DF931F92CDB753
:104B6000DEB7898360E0CE0101960E94A21761E062
:104B7000CE0101960E94A21762E0CE0101960E942A
:104B8000A21789810F90DF91CF9108958F929F9204
:104B9000AF92BF92CF92DF92EF92FF92CF93DF93CB
:104BA00020914002222309F48EC0EC018091640B15
:104BB000E82E80FF2CC08090420290904302A0908B
:104BC0004402B0904502288139814A815B81C50148
:104BD000B4010E9414C7181624F488829982AA820C
:104BE000BB8280904E0290904F02A0905002B090F5
:104BF0005102288139814A815B81C501B4010E943B
:104C00004BC087FF04C088829982AA82BB82E1FEE2
:104C10002CC08090460290904702A0904802B0902D
:104C200049022C813D814E815F81C501B4010E9402
:104C300014C7181624F48C829D82AE82BF828090A5
:104C4000520290905302A0905402B09055022C81D1
:104C50003D814E815F81C501B4010E944BC087FF39
:104C600004C08C829D82AE82BF82E2FE2CC0C090C6
:104C70004A02D0904B02E0904C02F0904D02288501
:104C800039854A855B85C701B6010E9414C718168D
:104C900024F4C886D986EA86FB86C0905602D09056
:104CA0005702E0905802F0905902288539854A85CC
:104CB0005B85C701B6010E944BC087FF04C0C88650
:104CC000D986EA86FB86DF91CF91FF90EF90DF9047
:104CD000CF90BF90AF909F908F900895CF92DF922A
:104CE000EF92FF920F931F93CF93DF93E82FF0E0A3
:104CF000EF01CC0FDD1FCC0FDD1F461739F08230DE
:104D000009F049C0C12CD12C760117C08230D1F3F3
:104D1000A0914A0D8A2F90E0DC01AA0FBB1FA80FBB
:104D2000B91FAE0FBF1FAA0FBB1FAA0FBB1FA659EB
:104D3000B44FCD90DD90ED90FC908F01000F111FCE
:104D4000000F111FF801EE5BF74E2591359145914B
:104D50005491C05CDD4FC701B6010E94EEC46A8366
:104D60007B838C839D83F801EA5CF74E2591359116
:104D700045915491C701B6010E94EEC46E877F87AA
:104D8000888B998BDF91CF911F910F91FF90EF90BE
:104D9000DF90CF90089550E0DA01AA0FBB1FA40F57
:104DA000B51FAE0FBF1FAA0FBB1FAA0FBB1FA6596F
:104DB000B44F862F90E0BC01660F771F680F791FF4
:104DC000E60FF71FEE0FFF1FEE0FFF1FE659F44F20
:104DD00020813181428153816D917D918D919C9192
:104DE0000E94EDC46B017C01C05CDD4FAC019B01F6
:104DF0006A817B818C819D810E94EEC46A837B8362
:104E00008C839D83A70196016E857F85888999890A
:104E1000B3CF4F925F926F927F928F929F92AF9299
:104E2000BF92CF92DF92EF92FF92CF934090840295
:104E30005090850260908602709087028090880270
:104E400090908902A0908A02B0908B02C0908C0250
:104E5000D0908D02E0908E02F0908F020E94D116C9
:104E60000E941F17C0E08C2F0E94C31740E060E033
:104E70008C2F34DFCF5FC330B1F70E9400190E943E
:104E8000EE1AA301920160918402709185028091D3
:104E90008602909187020E944BC081111CC0A5011F
:104EA0009401609188027091890280918A029091A8
:104EB0008B020E944BC081110EC020918C02309158
:104EC0008D0240918E0250918F02C701B6010E945F
:104ED0004BC0882371F0CF91FF90EF90DF90CF907F
:104EE000BF90AF909F908F907F906F905F904F900A
:104EF0000ECECF91FF90EF90DF90CF90BF90AF900C
:104F00009F908F907F906F905F904F9008950C943A
:104F100032888091AD0B811105C08091B00B882340
:104F200009F472C080913A04659B5EC081608093F1
:104F30003A049091030180913A0490FF57C0826037
:104F400080933A049091000180913A0493FF50C0FD
:104F5000886080933A0480913A044A9B4BC08460F5
:104F600080933A048091B70A80FF10C08091AE0B05
:104F700087FF0CC080913A0480FF08C08091470DE4
:104F800081608093470D80E00E9429988091B70A44
:104F900081FF12C08091AE0B9091AF0B90FD0CC0C1
:104FA00080913A0481FF08C08091470D8260809310
:104FB000470D81E00E9429988091B70A82FF24C0A2
:104FC0008091AE0B82FF18C08091B00B8823E1F076
:104FD00080913A0483FF18C08091470D88608093C8
:104FE000470D82E00C9429988E7FA1CF8D7FA8CFAA
:104FF000877FAFCF8B7FB4CF80913A0482FF04C00C
:105000008091470D8460EBCF08950F931F9380919B
:10501000570D813019F50E940B8F0091230A1091D2
:10502000240A2091250A3091260A601B710B820BFD
:10503000930B28EE33E040E050E00E9425C46091DD
:10504000270A7091280A8091290A90912A0A620FF2
:10505000731F841F951F1F910F9108956091530D29
:105060007091540D8091550D9091560DD6CF1092A0
:10507000570D1092230A1092240A1092250A1092BA
:10508000260A1092530D1092540D1092550D109245
:10509000560D1092270A1092280A1092290A10928F
:1050A0002A0A0895CF93C091570D80E0C13061F175
:1050B000C23061F5AADF6093270A7093280A8093B3
:1050C000290A90932A0A81E08093570D0E940B8F42
:1050D0006093230A7093240A8093250A9093260AEA
:1050E000C23089F08091580D9091590D019690939E
:1050F000590D8093580D10924F0D1092500D109233
:10510000510D1092520D81E0CF910895B0DFDBCFA9
:10511000CF93DF93C091050BD091060B209729F117
:105120006091010B7091020B8091030B9091040B25
:105130000E9432C66E5F7F4F24976C177D07ACF4D8
:105140007093D70A6093D60A0E940B8F6058774CF1
:105150008E4F9F4F6093D80A7093D90A8093DA0AD2
:105160009093DB0ADF91CF9108951092D80A1092A4
:10517000D90A1092DA0A1092DB0AF4CF0F931F9328
:10518000CF93DF93062F10E0F801EE0FFF1FE75DCE
:10519000FC4FC081D1812F978C179D070CF4EC0137
:1051A00087E1809FF001819FF00D1124E85FF44FAB
:1051B000D187C087209729F1648175818681978185
:1051C0000E9432C66E5F7F4F25976C177D07CCF427
:1051D00086E0809FE001819FD00D1124C452D54FFD
:1051E000798368830E940B8F605C7D4B804F9F4F5B
:1051F0006A837B838C839D83DF91CF911F910F9175
:10520000089586E0809FF001819FF00D1124E45203
:10521000F54F1282138214821582EECF0C940B8705
:105220008F929F92AF92BF92CF92DF92EF92FF92B6
:105230000F931F93CF93DF93109232041092310497
:105240002FE320933504109234041092330410920B
:105250002D0410922E0410922F04109230049C0101
:10526000F90190812F5F3F4F9032D1F39E34C9F402
:10527000818190ED980F9A3020F08D3211F08B32B1
:1052800081F432969F012F5F3F4F808180538A3097
:1052900008F46BC09F012F5F3F4F8081803209F47B
:1052A00066C0F0934E0DE0934D0D8F010F5F1F4FC1
:1052B000C0816AE270E0C8010E94BAC7009731F06D
:1052C000FC01319780818032E1F31182CD3421F0ED
:1052D000C43511F0C734E1F5F80180810F5F1F4F2D
:1052E0008032D1F380538A3098F5C093350430E092
:1052F00020E06AE0AF014F5F5F4F629FC001639F94
:10530000900D11249C01205331098081280F311DFB
:1053100087FD3A95FA01808180538A3058F33093A3
:10532000340420933304DF0131968C918032D9F319
:10533000CD3449F52E31310539F0D8F42731310516
:1053400019F02C313105F9F4B0933204A0933104F3
:10535000DF91CF911F910F91FF90EF90DF90CF9051
:10536000BF90AF909F908F900895F9018BCFF90176
:1053700091CF2537310538F02737310528F3203A0A
:1053800083E0380709F3D0914D0D40E050E0BA01B9
:1053900010E000E0C12CD12C7601C394FD013196C0
:1053A0008C91882309F47FC08132E1F4CD34D1F4AB
:1053B00020323105B9F440932D0450932E046093AC
:1053C0002F0470933004F0933204E093310463E2CD
:1053D00070E0CF010E94BAC7009709F4B9CFFC0171
:1053E0001082B6CF81548A3108F058C0DF019D91F8
:1053F000903291F0A0EDA90FAA30E8F09E3271F43E
:10540000918190539A30B8F00115110519F48F016C
:105410000150110990E013C0FD01E8CF9D3211F059
:105420009B3291F79181A0EDA90FAA3020F09E3216
:1054300059F79281E6CF9E2F9D1B309759F3A82FE5
:10544000B0E04601570104C0880C991CAA1CBB1C83
:105450008A95D2F7482959296A297B29AD5EBB4F25
:105460009C9380818154DF018A3108F497CFDF015A
:105470008191882309F492CF90ED980F9A30B8F378
:1054800093ED980F923098F38B3289F3CD0101960A
:10549000EC91E03209F082CFDC01F8CF0115110563
:1054A00001F78D01DECF1093320400933104409355
:1054B0002D0450932E0460932F047093300448CF32
:1054C000682F880F770B880B990B0C940B87CF9262
:1054D000DF92EF92FF926B017C0183E3C816D10447
:1054E000E104F10470F082E3C81AD108E108F10880
:1054F00062E370E080E090E00E94808E0E9468A6E7
:10550000ECCFC701B6010E94808EFF90EF90DF9034
:10551000CF900C9468A68091AD0B811104C080914E
:10552000B00B882329F062E070E080E090E0CFCFFC
:105530000895BC01990F880B990B0C940B8781E09F
:105540000895DC01EC918E2F90E0FC01EE0FFF1F1F
:10555000E80FF91FEF52F04F80818F778083089515
:10556000CF93DF93EC01E62F660FFF0BEB59F64D5F
:10557000E491E250E13108F0B0C0F0E08827EC534C
:10558000F54D8F4F0C94AFC4D52A6D2B6D2B6D2B21
:105590006D2BFF2AE12A232B212B012B472B452B97
:1055A000252B6D2B6B2B692B492B82E1EAE9F2E06D
:1055B000DE0101900D928A95E1F7CE01DF91CF9146
:1055C000089581E020EB30E03983288321EB30E03F
:1055D0003B832A831D821C8223EB30E03F832E8392
:1055E00024EB30E0398728871B861A861D861C86A7
:1055F00092E09E878F8781E0888B198ADECF80E0DA
:10560000E1CF81E08F5F20E930E03983288321E911
:1056100030E03B832A8322E930E03D832C8328E974
:1056200030E03F832E832AE930E0398728872CE950
:1056300030E03B872A8726E930E03D872C8793E0DE
:10564000D8CF80E0DFCF80E0DECF81E08F5F20EA3F
:1056500030E03983288321EA30E03B832A8322EA41
:1056600030E03D832C8328EA30E03F832E832AEA12
:1056700030E0398728872CEA30E03B872A8726EA02
:1056800030E03D872C8794E0B4CF80E0DFCF80E02E
:10569000DECF81E08F5F20E231E03983288321E291
:1056A00031E03B832A8322E231E03D832C8328E2F0
:1056B00031E03F832E832AE231E0398728872CE2CC
:1056C00031E03B872A8726E231E03D872C8795E051
:1056D00090CF80E0DFCF80E0DECF82E1FE0111924B
:1056E0008A95E9F76ACF8F929F92AF92BF92CF923D
:1056F000DF92EF92FF920F93CF93DF931F92CDB77C
:10570000DEB75C017B0149016B01C40ED51EF501BA
:10571000808191810E9400C48983002311F0F701E8
:105720008083BE016F5F7F4FC4010E948B86F501AD
:1057300080819181019691838083FFEFEF1AFF0AA8
:10574000EC14FD0421F780E00F90DF91CF910F91D1
:10575000FF90EF90DF90CF90BF90AF909F908F9091
:1057600008950F93AB010091AA0A21E002272BEACA
:105770003AE0BC0187E39AE0B6DF0F910895009705
:1057800081F41092900082E0809391001092950035
:1057900010929400C19A8091710082608093710090
:1057A0000895019761F41092A00082E08093A10017
:1057B0001092A5001092A40089BB809372000895F6
:1057C0007F928F929F92AF92BF92CF92DF92EF9291
:1057D000FF920F931F93CF93DF93EC017B0188819E
:1057E000883108F0C2C090E0FC01EE0FFF1FE80F07
:1057F000F91FEF52F04F808161E08F770E94878D13
:1058000019821A8288812CE0622F0E947CC4829FB8
:10581000B001112430E020E0AB01420F531FFA0128
:10582000EE0FFF1FE40FF51FEF52F04F908197FD31
:1058300007C02F5F3F4F2C30310571F790E09FDF9D
:105840007880072D10E06801CC0CDD1CF601E00F1C
:10585000F11FEF52F04F80818068808377FC85C014
:1058600080E2E81682E0F8060CF03FC08A8128E565
:1058700032E0281B310987FD3395220F331F220F99
:10588000331F032E000C440B550B898178E8872EBB
:10589000912C881A910887FD9394880C991C880C88
:1058A000991C092C000CAA08BB0860E070E0CB0131
:1058B000F7FC0AC0B701653B710514F064EB70E0BA
:1058C000072E000C880B990B281939094A095B0926
:1058D0000E9416C424EB30E040E050E00E9447C430
:1058E000820E931EA41EB51E740187E18715D8F0A1
:1058F000298188E890E0821B910927FD9395880F04
:10590000991F880F991FE816F906FCF402972FB724
:10591000F894E601C00FD11FCF52D04F880F991FC6
:105920009A8389832FBF68EE73E080E090E0DF9177
:10593000CF911F910F91FF90EF90DF90CF90BF908C
:10594000AF909F908F907F90C2CD2A8188E592E0A2
:10595000821B910927FD9395880F991F880F991F26
:10596000E816F9069CF6C701D1CFDF91CF911F91C0
:105970000F91FF90EF90DF90CF90BF90AF909F90EE
:105980008F907F9008951F920F920FB60F9211245F
:105990000BB60F922F933F934F935F936F937F9329
:1059A0008F939F93AF93BF93EF93FF9348EA50E099
:1059B00064EA70E081E090E00E948620FF91EF9120
:1059C000BF91AF919F918F917F916F915F914F9117
:1059D0003F912F910F900BBE0F900FBE0F901F9015
:1059E00018951F920F920FB60F9211240BB60F92BB
:1059F0002F933F934F935F936F937F938F939F93D7
:105A0000AF93BF93EF93FF9348E950E064E970E0F0
:105A100090E080E00E948620FF91EF91BF91AF91CE
:105A20009F918F917F916F915F914F913F912F91B6
:105A30000F900BBE0F900FBE0F901F901895909176
:105A4000C00095FFFCCF8093C60008950E9450AC23
:105A50008DE0F5DF8AE0F3CF85E4F1DF81E3EFCF7E
:105A6000CF93C82FC15018F080E2E9DFFBCFCF9170
:105A70000895CF93DF93EC01FE0184912196882352
:105A800011F0DDDFF9CFDF91CF910895CF93C62FCD
:105A9000F0DF6C2F70E090E080E0CF910C940B87EA
:105AA0000F931F93CF938C01C62F8BE393E1E1DF1C
:105AB000C801DFDF8AE3C3DF80E38C0FC0DF8AE049
:105AC000CF911F910F91BBCF8EE195E1D2DF60E0C6
:105AD0008EE095E1E5DF60E089EF94E1E1DF61E0F0
