:100000000C9480160C94C0160C94C0160C94C01658
:100010000C94C0160C94C0160C94C0160C94C01608
:100020000C94C0160C94D0980C94D0980C94D09842
:100030000C94C0160C94C0160C94C0160C94C016E8
:100040000C94C0160C94D7220C94C0160C94C016B5
:100050000C94C0160C949CA40C94C0160C94009E96
:100060000C94C0160C94A38E0C94998E0C94C0160C
:100070000C94C0160C94C0160C94C0160C94C016A8
:100080000C941D350C94C0160C94C0160C94C0161C
:100090000C94C0160C94C0160C94C0160C94C01688
:1000A0000C94C0160C94C0160C94EF340C94C0162B
:1000B0000C94C0160C94C0160C94C0160C94C01668
:1000C0000C94C0160C94C0160C94C0160C94C01658
:1000D0000C94C0160C94C0160C94C0160C94C01648
:1000E0000C94C016084AD73B3BCE016E84BCBFFDC2
:1000F000C12F3D6C74319ABD56833DDA3D00C77FF8
:1001000011BED9E4BB4C3E916BAAAABE0000008090
:100110003F05A84CCDB2D44EB93836A9020C50B91F
:10012000918688083CA6AAAA2ABE000000803F004B
:100130004E414E494E495459494E46CDCCCC3D0ACC
:10014000D7233C17B7D13877CC2B329595E6241FAF
:10015000B14F0A000020410000C84200401C462068
:10016000BCBE4CCA1B0E5AAEC59D74434F4D4D5577
:100170004E49434154494F4E0044525952554E0046
:100180004552524F525300494E464F004543484F47
:10019000004572726F722077726974696E6720749D
:1001A0006F20454550524F4D210A00363726033CFB
:1001B0003D380F2E303E13061A1C1824221E24220E
:1001C0001E24221E0A3A07392F432D4509084400F0
:1001D000015072696E7465722073746F707065641B
:1001E0002064756520746F206572726F72732E20A3
:1001F00046697820746865206572726F7220616E3E
:100200006420757365204D39393920746F2072650B
:1002100073746172742E202854656D7065726174F8
:100220007572652069732072657365742E2053653D
:1002300074206974206166746572207265737461DC
:100240007274696E67290A004E6F20436865636B9C
:1002500073756D2077697468206C696E65206E75A2
:100260006D6265722C204C617374204C696E653A26
:100270002000636865636B73756D206D69736D61D4
:100280007463682C204C617374204C696E653A204D
:10029000004C696E65204E756D6265722069732031
:1002A0006E6F74204C617374204C696E65204E75BE
:1002B0006D6265722B312C204C617374204C696E19
:1002C000653A20004D3131300053657269616C2010
:1002D000737461747573206D69736D617463680AFA
:1002E00000746F6F206D75636820696E6163746957
:1002F00076652074696D65202D2063757272656E58
:100300007420636F6D6D616E643A20002121204B73
:10031000494C4C20636175736564206279200062EA
:100320007573793A2070617573656420666F722009
:10033000696E7075740A00627573793A2070617520
:1003400073656420666F7220757365720A0062754A
:1003500073793A2070726F63657373696E670A0010
:100360006563686F3A004572726F723A004F464695
:10037000004F4E0042696C696E656172204C657673
:10038000656C696E6720477269643A0A004C4F5782
:100390000048494748004F4B004572726F723A203F
:1003A000416C6C200020636F6E6E656374696F6EC4
:1003B0002E2E2E200054657374696E6720004C4FFA
:1003C000570048494748004F4B004572726F723AD8
:1003D00020416C6C200020636F6E6E656374696FE2
:1003E0006E2E2E2E200054657374696E6720004CAB
:1003F0004F570048494748004F4B004572726F7293
:100400003A20416C6C200020636F6E6E65637469E6
:100410006F6E2E2E2E200054657374696E67200057
:100420004C4F570048494748004F4B004572726F88
:10043000723A20416C6C200020636F6E6E656374AD
:10044000696F6E2E2E2E200054657374696E6720BE
:10045000004C4F570048494748004F4B00457272C7
:100460006F723A20416C6C200020636F6E6E656382
:1004700074696F6E2E2E2E200054657374696E673A
:100480002000426564204C6576656C696E672000CB
:100490004661696C656420746F20656E61626C658D
:1004A00020426564204C6576656C696E670A004978
:1004B0006E76616C6964206D6573682E0A002E0A81
:1004C000002F0050726F62696E67206D657368203F
:1004D000706F696E742000202844525952554E297D
:1004E00000473239204175746F20426564204C65A5
:1004F00076656C696E67003F20284C2C522C462C88
:100500004229206F7574206F6620626F756E647368
:100510002E0A003F2856296572626F7365206C654C
:1005200076656C20696D706C61757369626C6520AD
:1005300028302D34292E0A00426164205A20766129
:100540006C75650A004E6F2062696C696E65617238
:1005500020677269640A0020440020204D32303048
:1005600020540020204D3230302053002028446990
:100570007361626C6564293A0046696C616D656EF1
:10058000742073657474696E67730020204D323077
:10059000312058004D617820416363656C6572615C
:1005A00074696F6E2028756E6974732F7332290019
:1005B00020204D3230332058004D6178206665652B
:1005C0006472617465732028756E6974732F732962
:1005D0000020520020204D3230342050004163630F
:1005E000656C65726174696F6E2028756E697473CD
:1005F0002F7332292028503C7072696E742D61630C
:1006000063656C3E20523C726574726163742D6147
:100610006363656C3E20543C74726176656C2D6139
:100620006363656C3E290020540020530020204D58
:10063000323035204200416476616E636564202863
:10064000423C6D696E5F7365676D656E745F74695A
:100650006D655F75733E20533C6D696E5F666565C1
:1006600064726174653E20543C6D696E5F747261A2
:1006700076656C5F66656564726174653E20583CA2
:100680006D61785F6A65726B3E20593C6D61785F81
:100690006A65726B3E205A3C6D61785F6A65726B69
:1006A0003E20453C6D61785F6A65726B3E29002093
:1006B000204D32313700546F6F6C2D6368616E6767
:1006C000696E670020204D323138205400486F7425
:1006D000656E64206F666673657473002044002045
:1006E000490020500020204D333031204500486F14
:1006F00074656E64205049440050574D3A202025BF
:1007000034640050574D3A20202534640050574D32
:100710003A20202534640050574D3A202025346477
:100720000050574D3A20202534640050574D3A2050
:10073000202534640050574D3A2020253464005061
:10074000574D3A20202534640050574D3A2020253B
:1007500034640050574D3A20202534640050574DE2
:100760003A20202534640050574D3A202025346427
:100770000050574D3A20202534640050574D3A2000
:10078000202534640050574D3A2020253464005011
:10079000574D3A2020253464003A200020202020A4
:1007A000434F4D002020206E6F6E2D7374616E6478
:1007B0006172642050574D206D6F646500202020C9
:1007C000636F6D7061726520696E746572727570A9
:1007D0007420656E61626C6564002020206F766510
:1007E00072666C6F7720696E7465727275707420B2
:1007F000656E61626C6564003A2000202020205400
:10080000494D534B00423A200020202020544343BE
:100810005200413A2000202020205443435200201F
:1008200020202043533A20002020202057474D3AD3
:10083000200050574D3A20202534640050574D3A3F
:1008400020202534640047004800000088008A000A
:100850008C00B300B400000098009A009C00A8002F
:10086000AA00AC0028012A012C0120202020544994
:100870004D455200440045006E00800081006F002D
:10088000B000B1007000900091007100A000A100C4
:10089000720020012101730020697320616C736F65
:1008A000207469656420746F2074686973207069AE
:1008B0006E0054494D45523143000A202E0020203D
:1008C000002020506F72743A20004C4F5700484966
:1008D000474800446F6E652E0A0050756C73696E50
:1008E0006720202000556E746F7563686564200072
:1008F0005A5F50524F42455F534552564F5F4E52DA
:10090000206E6F74207365742075702E0A00202D80
:1009100020005761746368696E672070696E0020FB
:100920006973007320617265002070726F74656373
:100930007465642E205573652027492720746F2025
:100940006F766572726964652E0A0053706563691B
:10095000666965642070696E0064697300656E0085
:1009600061626C65640A00656E6473746F70206DFB
:100970006F6E69746F722000616C736F20656E61B9
:10098000626C6564290A002E0A001618A72CA42C94
:10099000A12C206E6F742064697361626C65642E93
:1009A000205368617265642077697468007370729F
:1009B0006561644379636C6500737465616C746828
:1009C00043686F700020647269766572206D6F6491
:1009D000653A09007370726561644379636C650000
:1009E000737465616C746843686F70002064726929
:1009F000766572206D6F64653A0900737072656187
:100A0000644379636C6500737465616C74684368F2
:100A10006F700020647269766572206D6F64653A4C
:100A200009007370726561644379636C6500737467
:100A300065616C746843686F7000206472697665E4
:100A400072206D6F64653A0900737072656164436A
:100A500079636C6500737465616C746843686F706A
:100A60000020647269766572206D6F64653A0900D2
:100A7000202E68737472743A2000202E68656E64AC
:100A80003A20002063686F70706572202E746F6664
:100A9000663A2000202E68737472743A2000202E6B
:100AA00068656E643A20002063686F70706572201C
:100AB0002E746F66663A2000202E68737472743A42
:100AC0002000202E68656E643A20002063686F70F5
:100AD000706572202E746F66663A2000202E68734F
:100AE0007472743A2000202E68656E643A200020EB
:100AF00063686F70706572202E746F66663A2000AE
:100B0000202E68737472743A2000202E68656E641B
:100B10003A20002063686F70706572202E746F66D3
:100B2000663A20003F53206F7574206F6620726113
:100B30006E67652028312E2E38290A003F50206F1D
:100B40007574206F662072616E676520282D332EC4
:100B50002E3132290A003F4F206F7574206F6620B6
:100B600072616E67652028312E2E3135290A003BCF
:100B7000200020496E76616C696420657874727516
:100B8000646572200047322F473320626164207011
:100B90006172616D65746572730A00473238005A7C
:100BA0002050726F6265205061737420426564004A
:100BB000205A3A200020593A200042656420583AD1
:100BC00020004D65736820706F696E74206F7574B6
:100BD000206F662072616E67650A005072696E74DC
:100BE0002074696D653A20000A53746174733A2069
:100BF00046696C616D656E7420757365643A20009A
:100C00002C204C6F6E67657374206A6F623A200007
:100C1000546F74616C2074696D653A20005374617F
:100C200074733A20002C204661696C65643A200098
:100C30002C2046696E69736865643A2000507269B9
:100C40006E74733A200053746174733A20006F6BB2
:100C5000006F6666008C018701800179016B014499
:100C6000454255473A004D3131322053687574641E
:100C70006F776E004D3131332053002F2F00206CE1
:100C8000696D6974656420746F2000204D6178205F
:100C900000416363656C65726174696F6E005741F2
:100CA000524E494E4721204C6F77205A204A657298
:100CB0006B206D6179206C65616420746F20756EA6
:100CC00077616E746564207061757365732E0A00B8
:100CD00020204D61783A2000200020204D696E3A96
:100CE0002000203B200020204D3231312053005382
:100CF0006F667420656E6473746F707300250A00EC
:100D000046523A0020466C6F773A20003A20002085
:100D1000536572766F2000206F7574206F662072A5
:100D2000616E67650A00536572766F200050726FBE
:100D30006265204F6666736574205A0050726F6258
:100D400065204F6666736574205A00496E76616C43
:100D500069642065787472756465720A00646973E9
:100D600000656E0043290A0061626C656420286D8D
:100D7000696E2074656D702000436F6C6420657827
:100D80007472756465732061726520004D34323170
:100D900020696E636F727265637420706172616D39
:100DA000657465722075736167650A004D657368C7
:100DB00020706F696E74206F7574206F6620726189
:100DC0006E67650A00546F6F206661722066726FED
:100DD0006D207265666572656E636520706F696E01
:100DE000740A00454550524F4D204F4B0A00290AC6
:100DF0000020746F20003F5A206F7574206F6620AA
:100E000072616E67652028003F59206D75737420EC
:100E10006265203020284E4F5A5A4C455F41535F3F
:100E200050524F4245292E0A003F58206D75737469
:100E3000206265203020284E4F5A5A4C455F41535E
:100E40005F50524F4245292E0A0020647269766530
:100E5000722063757272656E743A20002064726944
:100E60007665722063757272656E743A2000206434
:100E700072697665722063757272656E743A2000CD
:100E8000206472697665722063757272656E743A59
:100E90002000206472697665722063757272656ED7
:100EA000743A20006F6B0020204D323036205800FD
:100EB000486F6D65206F6666736574004361703AB4
:100EC00000434F4E4649475F4558504F5254004DDE
:100ED0004541545041434B00434F4F4C45525F54A2
:100EE000454D5045524154555245004348414D42AD
:100EF00045525F54454D504552415455524500426C
:100F00004142595354455050494E47004152435372
:100F1000004D4F54494F4E5F4D4F44455300544888
:100F200045524D414C5F50524F54454354494F4EEA
:100F300000455854454E4445445F4D3230004355BA
:100F400053544F4D5F4649524D574152455F55509E
:100F50004C4F4144004C464E5F5752495445004C5B
:100F60004F4E475F46494C454E414D450041555413
:100F70004F5245504F52545F53445F535441545560
:100F8000530053445F575249544500524550454120
:100F900054005344434152440050524F4D50545F0B
:100FA000535550504F525400484F53545F4143548F
:100FB000494F4E5F434F4D4D414E445300454D45C3
:100FC0005247454E43595F504152534552004341A9
:100FD00053455F4C494748545F4252494748544E35
:100FE00045535300544F47474C455F4C494748547D
:100FF0005300534F4654574152455F504F57455247
:10100000004255494C445F50455243454E54004CB4
:101010004556454C494E475F44415441005A5F5044
:10102000524F42450052554E4F5554004155544F72
:101030004C4556454C005052494E545F4A4F420071
:1010400050524F4752455353004155544F5245500B
:101050004F52545F54454D50004155544F524550E6
:101060004F52545F504F5300564F4C554D455452BC
:10107000494300454550524F4D0042494E41525957
:101080005F46494C455F5452414E534645520053CA
:10109000455249414C5F584F4E5F584F46460046B7
:1010A00049524D574152455F4E414D453A4D61724F
:1010B0006C696E20322E312E322E31202841707212
:1010C00020203520323032342030363A33363A332D
:1010D000312920534F555243455F434F44455F5597
:1010E000524C3A6769746875622E636F6D2F4D615B
:1010F000726C696E4669726D776172652F4D6172AF
:101100006C696E2050524F544F434F4C5F564552BE
:1011100053494F4E3A312E30204D414348494E45B8
:101120005F545950453A536F75746865726E205616
:101130006F6C74657272612032345620554152547E
:10114000206A756D70657273207769746820544DDC
:101150004332323039206F6E204D4B532047656E3D
:101160004C2076322E312045585452554445525F1A
:10117000434F554E543A3420555549443A636564BB
:1011800065326132662D343161322D343734382D79
:10119000396231322D633535633632663336376620
:1011A0006600203B0020204D383531205830205932
:1011B00030205A005A2D50726F6265204F66667358
:1011C0006574002569730025696D20256973002504
:1011D00069682025696D20256973002569642025CB
:1011E00069682025696D20256973002569792025A6
:1011F0006964202569682025696D202569730020B0
:10120000573A0020573A00206661696C65642120D6
:10121000426164206865617465722069640A0050E7
:101220004944204175746F74756E6500236465666A
:10123000696E652044454641554C545F004B64201F
:10124000004B6920004B7020002066696E6973684E
:101250006564212050757420746865206C61737416
:10126000204B702C204B6920616E64204B642063FE
:101270006F6E7374616E74732066726F6D20626539
:101280006C6F7720696E746F20436F6E6669677547
:10129000726174696F6E2E680A005049442041756E
:1012A000746F74756E6500206661696C65642120D9
:1012B00074696D656F75740A0050494420417574F6
:1012C0006F74756E6500206661696C6564212054D9
:1012D000656D706572617475726520746F6F2068DA
:1012E0006967680A00504944204175746F74756ECF
:1012F0006500204B643A2000204B693A2000204BC7
:10130000703A200020436C61737369632050494434
:10131000200A002054753A2000204B753A20002006
:101320006D61783A2000206D696E3A200020643AA1
:10133000200020626961733A200020737461727426
:101340000A00504944204175746F74756E65002021
:101350006661696C6564212054656D7065726174A5
:1013600075726520746F6F20686967680A0050495C
:1013700044204175746F74756E65006F70656E0002
:10138000545249474745524544003A20007A5F701D
:10139000726F6265007A5F6D617800795F6D617868
:1013A00000785F6D696E005265706F7274696E6768
:1013B00020656E6473746F70207374617475730A42
:1013C000000080C5430000C8430080CF43000000F8
:1013D00000000000000000000020746F6F206C6FA0
:1013E0006E6720657874727573696F6E20707265B0
:1013F00076656E7465640A0020636F6C642065789E
:1014000074727573696F6E2070726576656E74653F
:10141000640A00000020C20000C8430080CF435788
:1014200061726E696E673A20486F6D696E6720421F
:10143000756D702044697669736F72203C20310AA3
:10144000000202040080C5430000C8430080CF436F
:101450000000A0400000A04000000040000000018B
:1014600000000001000080005555550000004000BC
:1014700033333300AAAA2A00499224000000200036
:10148000C7711C0099991900D145170055551500D1
:101490003BB113002449120011111100000010008B
:1014A0000F0F0F00E3380E0043790D00CCCC0C0079
:1014B000C3300C00E8A20B0064210B00AAAA0A00AA
:1014C000703D0A009DD80900427B09009224090062
:1014D000DCD30800888808001042080000000800DB
:1014E000F0C107008787070075500700711C0700CF
:1014F0003EEB0600A1BC0600699006006666060089
:10150000703E06006118060017F4050074D105004E
:101510005BB00500B29005006272050055550500EC
:1015200078390500B81E0500050505004EEC0400DD
:1015300087D40400A1BD040090A7040049920400D0
:10154000C17D0400EE690400C75604004444040051
:101550005C32040008210400411004000000040073
:101560003FF00300F8E0030026D20300C3C30300EA
:10157000CCB503003AA803000A9B0300388E030091
:10158000C08103009F750300D0690300505E030013
:101590001D53030034480300913D0300333303001F
:1015A00016290300381F030097150300300C0300B1
:1015B000030303000BFA020049F10200BAE802003B
:1015C0005CE002002DD802002DD0020059C80200B4
:1015D000B0C0020031B90200DAB10200AAAA0200CA
:1015E000A0A30200BC9C0200FA9502005C8F0200DE
:1015F000DF88020082820200457C0200277602001A
:1016000027700200436A02007C640200D05E020080
:101610003F590200C8530200FFFDFCFAF8F6F4F24D
:10162000F0EEECEAE9E7E5E3E1E0DEDCDAD9D7D594
:10163000D4D2D0CFCDCBCAC8C7C5C3C2C0BFBDBC32
:10164000BAB9B7B6B4B3B2B0AFADACAAA9A8A6A5A3
:10165000A4A2A1A09E9D9C9A9998979594939290EC
:101660008F8E8D8B8A8988878684838281807F7E16
:101670007D7B7A797877767574737271706F6E6D21
:101680006C6B6A696867666564636261605F5E5D12
:101690005C5B5A5958585756555453525150504FF5
:1016A0004E4D4C4B4A4A49484746464544434242C0
:1016B00041403F3E3E3D3C3B3B3A3938383736357A
:1016C00035343332323130302F2E2E2D2C2B2B2A25
:1016D00029292827272625252423232221212020C4
:1016E0001F1E1E1D1C1C1B1B1A1919181817161655
:1016F000151514131312121111100F0F0E0E0D0DDC
:101700000C0C0B0A0A090908080707060605050458
:10171000040303020201000020746F6F206C6F6EDF
:101720006720657874727573696F6E207072657664
:10173000656E7465640A0020636F6C64206578745C
:10174000727573696F6E2070726576656E7465640C
:101750000A00290A002062797465733B2063726372
:10176000200053657474696E67732053746F7265DB
:1017700064202800454550524F4D20496E697469D8
:10178000616C697A65640A0048617264636F6465BC
:10179000642044656661756C742053657474696E69
:1017A0006773204C6F616465640020286D6D2900AB
:1017B000203B204C6576656C696E67200020204DCB
:1017C0003432302053004175746F20426564204CE0
:1017D0006576656C696E670020204D3930360020D3
:1017E00054312045002054302045005374657070FA
:1017F0006572206472697665722063757272656EB7
:10180000740020204D3536392053310054312045A5
:1018100000543020450020580044726976657220DB
:101820007374657070696E67206D6F646500204A1F
:10183000002020473239205720490020204D3134E4
:10184000392043203B20556E69747320696E204314
:10185000656C736975730A0054656D7065726174A7
:1018600075726520556E69747300202047323120EF
:101870003B004C696E65617220556E69747300455A
:101880004550524F4D206461746173697A652065DB
:1018900072726F722E0A00202863616C63756C612E
:1018A00074656429210A0020213D200045455052DD
:1018B0004F4D20435243206D69736D6174636820FE
:1018C0002D202873746F726564292000454550529D
:1018D0004F4D20436F72727570740A002053697AFD
:1018E000653A2000496E6465783A2000290A002094
:1018F00062797465733B2063726320002073746F98
:101900007265642073657474696E677320726574A0
:10191000726965766564202800000048430000482D
:10192000430000A041000034420000C8420000C84B
:1019300042F0F7FB4300000C43DC050000DC05002F
:10194000006400000010270000204D61726C696E79
:101950003D563838290A00454550524F4D2076658E
:101960007273696F6E206D69736D6174636820288E
:10197000454550524F4D3D0045315F534552494119
:101980004C5F52585F50494E0045315F53455249B4
:10199000414C5F54585F50494E0045305F534552AB
:1019A00049414C5F52585F50494E0045305F5345A6
:1019B0005249414C5F54585F50494E005A5F53455D
:1019C0005249414C5F52585F50494E005A5F53454F
:1019D0005249414C5F54585F50494E00595F53453E
:1019E0005249414C5F52585F50494E00595F534530
:1019F0005249414C5F54585F50494E00585F53451F
:101A00005249414C5F52585F50494E00585F534510
:101A10005249414C5F54585F50494E005A5F5354ED
:101A200045505F50494E005A5F454E41424C455F1C
:101A300050494E005A5F4449525F50494E00595F29
:101A4000535445505F50494E00595F454E41424CFA
:101A5000455F50494E00595F4449525F50494E001E
:101A6000585F535445505F50494E00585F454E41B2
:101A7000424C455F50494E00585F4449525F5049BF
:101A80004E005A5F4D494E5F50524F42455F50499C
:101A90004E0045315F444941475F50494E00453053
:101AA0005F444941475F50494E005A5F44494147AE
:101AB0005F50494E00595F444941475F50494E00CD
:101AC000585F444941475F50494E005A5F53544F55
:101AD000505F50494E005A5F4D41585F50494E008B
:101AE000595F53544F505F50494E00595F4D415814
:101AF0005F50494E00585F53544F505F50494E005D
:101B0000585F4D494E5F50494E00534552564F3332
:101B10005F50494E00534552564F325F50494E0078
:101B2000534552564F315F50494E00534552564F20
:101B3000305F50494E0053445F53535F50494E004D
:101B4000534453530053445F53434B5F50494E003B
:101B500053445F4D4F53495F50494E0053445F4DCE
:101B600049534F5F50494E004D4F534645545F44D3
:101B70005F50494E004D4F534645545F435F5049B7
:101B80004E004D4F534645545F425F50494E004D05
:101B90004F534645545F415F50494E0054454D50A8
:101BA0005F305F43535F50494E004C45445F50499E
:101BB0004E004845415445525F4245445F50494EAE
:101BC000004845415445525F335F50494E004845F7
:101BD000415445525F325F50494E0048454154459B
:101BE000525F315F50494E004845415445525F3085
:101BF0005F50494E0046414E5F50494E0045335FAD
:101C0000535445505F50494E0045335F454E414265
:101C10004C455F50494E0045335F4449525F50493F
:101C20004E0045325F535445505F50494E00453297
:101C30005F454E41424C455F50494E0045325F443E
:101C400049525F50494E0045315F535445505F50F3
:101C5000494E0045315F454E41424C455F50494E2B
:101C60000045315F4449525F50494E0045305F5353
:101C70005445505F50494E0045305F454E41424CFF
:101C8000455F50494E0045305F4449525F50494ED0
:101C900000455850325F30385F50494E004558502B
:101CA000325F30375F50494E00455850325F303612
:101CB0005F50494E00455850325F30355F50494EB5
:101CC00000455850325F30345F50494E00455850FF
:101CD000325F30335F50494E00455850325F3032EA
:101CE0005F50494E00455850325F30315F50494E89
:101CF00000455850315F30385F50494E00455850CC
:101D0000315F30375F50494E00455850315F3036B3
:101D10005F50494E00455850315F30355F50494E55
:101D200000455850315F30345F50494E004558509F
:101D3000315F30335F50494E00455850315F30328B
:101D40005F50494E00455850315F30315F50494E29
:101D5000004156525F53535F50494E004156525F07
:101D600053434B5F50494E004156525F4D4F5349CC
:101D70005F50494E004156525F4D49534F5F5049A5
:101D80004E0054454D505F4245445F50494E00540B
:101D9000454D505F335F50494E0054454D505F32C2
:101DA0005F50494E0054454D505F315F50494E00E1
:101DB00054454D505F305F50494E0046494C57499D
:101DC0004454485F50494E005458443000525844DF
:101DD0003000423A0020436F756E7420413A00454E
:101DE00000626564002C2073797374656D207374D0
:101DF0006F7070656421204865617465725F494445
:101E00003A20004572723A204D415854454D5000D9
:101E10004D415854454D502074726967676572652D
:101E2000640048656174696E67204661696C656429
:101E30000048656174696E67206661696C6564005D
:101E40004572723A204D494E54454D50004D494E11
:101E500054454D502074726967676572656400541B
:101E60004845524D414C2052554E4157415900541E
:101E70006865726D616C2052756E61776179000AD8
:101E80000A0020205A5F4D494E5F50524F42453A5A
:101E90000020205A5F4D41583A002020595F4D41A3
:101EA000583A002020585F4D494E3A00202F00201C
:101EB00040002042403A0020403A00496E76616C72
:101EC00069642065787472756465720A0041637490
:101ED0006976652045787472756465723A200010E1
:101EE00000600350012C0190012201D00118011063
:101EF000020E0170020401E002FA006003F000002B
:101F000004E600B004DC00A005D200B006C8000062
:101F100008BE00A009B400800BAA00D00DA000905C
:101F2000109600C0138C0070178200901B78001070
:101F3000206E00C0246400E02D500080353C00A0DD
:101F40003A2800A03D1400003F0000A03FECFF0035
:101F5000000000300E0100C00E0A00500F1400D027
:101F60000F1E0060102800E010320070113C00F0DD
:101F70001146007012500000135A008013640000D4
:101F8000146E00901478001015820090158C0010CB
:101F90001696009016A0001017AA009017B4001013
:101FA00018BE009018C8001019D2009019DC00105B
:101FB0001AE600801AF000001BFA00801B0401F0F2
:101FC0001B0E01701C1801F01C2201601D2C01E089
:101FD0001D3601501E4001D01E4A01401F5401B061
:101FE0001F5E0130206801A020720110217C019049
:101FF000218601002290016026F401902A58028077
:102000002EBC0250322003E03584035039E80380AF
:102010003C4C042020506C616E6E657242756666A1
:10202000657242797465733A2000204672656520B6
:102030004D656D6F72793A200020436F6D70696C49
:1020400065643A2041707220203520323032340AE3
:1020500000204C61737420557064617465643A208B
:10206000323032332D30352D3136207C204175749D
:10207000686F723A2028467261636B74616C2057F6
:102080006F726B732C2064656661756C7420636F6E
:102090006E666967290A004D61726C696E20322E86
:1020A000312E322E310A0020536F667477617265CB
:1020B0002052657365740A00205761746368646F09
:1020C000672052657365740A002042726F776E2034
:1020D0006F75742052657365740A002045787465C5
:1020E000726E616C2052657365740A00506F77657B
:1020F0007255700A0073746172740A0020503A00BD
:10210000205A3A0020593A0020583A00656E64730C
:10211000746F7073206869743A20000000210024F5
:102120000027002A002D00300033000101000004C8
:102130000107010A0100000A0B02090C0D0E080735
:102140000304010000000000000000000000000087
:10215000000000000000000000000000000000007F
:10216000001211100000000000000000000000003C
:10217000000000000000000000000000002000231C
:1021800000260029002C002F00320000010000036F
:10219000010601090100002200250028002B002E65
:1021A000003100340002010000050108010B0105A7
:1021B000050505070508080808020202020A0A08C0
:1021C00008040404040101010101010101030303E6
:1021D0000303030303040707070C0C0C0C0C0C0C83
:1021E0000C0202020206060606060606060B0B0B8A
:1021F0000B0B0B0B0B0102102020080810204010C5
:1022000020408002010201080402010102040810BA
:1022100020408080402010080402018004020180D8
:102220004020100804020108040201010204081001
:10223000204080010204081020408024F404D920AA
:102240001BC40C5C0E9804C4095F0265077101F49D
:1022500005F900FB04B30048048700C10369005876
:1022600003550003034500BE023A008402310053C7
:10227000022A002902250004022000E4011C00C8F3
:10228000011900AF011700980114008401130071B7
:102290000110006101100051010E0043010D0036D4
:1022A000010B002B010B0020010B00150109000C94
:1022B00001090003010800FB000800F3000800EB1F
:1022C000000700E4000600DE000600D8000600D289
:1022D000000600CC000500C7000500C2000500BDD7
:1022E000000400B9000400B5000400B1000400AD12
:1022F000000400A9000400A5000300A20003009F41
:102300000004009B00030098000300950002009366
:10231000000300900003008D0002008B0003008882
:102320000002008600020084000300810002007F9A
:102330000002007D0002007B0002007900020077AD
:1023400000010076000200740002007200010071BA
:102350000002006F0002006D0001006C0002006AC4
:1023600000010069000200670001006600010065CD
:1023700000010064000200620001006100010060D1
:102380000001005F0002005D0001005C0001005BD5
:102390000001005A000100590001005800010057D7
:1023A00000010056000100550001005400010053D7
:1023B00000000053000100520001005100010050D4
:1023C0000001004F0001004E0000004E0001004DD2
:1023D0000001004C0001004B0000004B0001004ACE
:1023E00000010049000100480000004800010047CA
:1023F00000010046000000460001004500000045C5
:1024000000010044000100430000004300010042BD
:1024100000000042000100410000004100010040B6
:102420000001003F0000003F0001003E0000003EB0
:102430000001003D0000003D0001003C0000003CA8
:102440000000003C0001003B0000003B0001003A9E
:102450000000003A00010039000000390001003896
:10246000000000380000003800010037000000378D
:102470000001003600000036000000360001003583
:102480000000003500000035000100340000003479
:10249000000000340001003300000033000000336E
:1024A0000001003200000032000000320001003163
:1024B0000000003100000031000100300000003059
:1024C000000000300001002F0000002F0000002F4E
:1024D0000000002F0001002E0000002E0000002E42
:1024E0000001002D0000002D0000002D0000002D37
:1024F0000001002C0000002C0000002C0000002C2B
:102500000001002B0000002B0000002B0000002B1E
:102510000001002A0000002A0000002A0000002A12
:102520000001002900000029000000290000002906
:1025300000000029000100280000002800000028F9
:1025400000000028000000280001002700000027EC
:1025500000000027000000270000002700010026DF
:1025600000000026000000260000002600000026D3
:1025700000010025000000250000002500000025C6
:1025800000000025000000250001002400000024B8
:1025900000000024000000240000002400010023AB
:1025A000000000230000002300000023000000239F
:1025B0000000002300000023000100220000002290
:1025C0000000002200000022000000220000002283
:1025D0000001002100000021000000210000002176
:1025E0000000002100000021000000210001002067
:1025F000000000200000002000000020000000205B
:102600000000002000000020000000200001001F4A
:102610000000001F0000001F0000001F0000001F3E
:102620000000001F0000001F0001001E0000001E2F
:102630000000001E0000001E00000024F4D43050F2
:10264000C38E20C2A24017828B7011127A910D8125
:102650006CD90AA861E108C7586607615143061E94
:102660004B5D05C145A7041A411104093D9803714A
:102670003931034036DB0265339102D43054028095
:102680002E1D02632CEE01752AC501B028A0011091
:102690002781018F2564012B244B01E0223401ACFA
:1026A000211F018D200D01801FFC00841EED00976D
:1026B0001DDF00B81CD200E61BC600201BBC006456
:1026C0001AB200B219A8000A19A0006A189900D11C
:1026D00017910040178B00B516840031167E00B3A9
:1026E0001579003A157300C7146F0058146A00EE8C
:1026F0001366008813630025135E00C7125B006C2D
:1027000012570015125400C111510070114F0021D1
:10271000114B00D61049008D1047004610440002AE
:10272000104200C00F4000800F3E00420F3C0006E8
:102730000F3B00CB0E3800930E37005C0E350027A0
:102740000E3400F30D3200C10D3100900D300060E9
:102750000D2E00320D2D00050D2C00D90C2B00AED6
:102760000C2900850C29005C0C2700350C27000E75
:102770000C2600E80B2400C40B2400A00B23007DD2
:102780000B23005A0B2100390B2100180B2000F8F5
:102790000A1F00D90A1E00BB0A1E009D0A1D0080E8
:1027A0000A1D00630A1C00470A1B002C0A1B0011AB
:1027B0000A1A00F7091A00DD091900C4091900AB4B
:1027C000091900920917007B091800630917004CCA
:1027D00009160036091600200916000A091500F529
:1027E000081500E0081400CC081400B8081400A470
:1027F000081400900813007D0812006B081300589D
:1028000008120046081200340811002308110012B3
:1028100008110001081100F0071000E0071000D0B7
:10282000071000C0071000B0070F00A107100091AB
:10283000070E0083070F0074070F0065070E00578F
:10284000070E0049070E003B070D002E070E002063
:10285000070D0013070D0006070D00F9060C00ED2B
:10286000060D00E0060C00D4060C00C8060C00BCE7
:10287000060C00B0060C00A4060B0099060C008D97
:10288000060B0082060B0077060B006C060B00613E
:10289000060A0057060B004C060A0042060A0038DA
:1028A000060A002E060A0024060A001A060A00106C
:1028B00006090007060A00FD050900F4050900EBFA
:1028C000050900E2050900D9050900D0050900C77E
:1028D000050900BE050900B5050800AD050800A5FD
:1028E0000509009C050800940508008C0508008473
:1028F0000508007C050800740508006C05070065E4
:102900000508005D050700560508004E050700474D
:102910000507004005080038050700310507002AB3
:10292000050700230507001C050600160507000F14
:102930000507000805060002050700FB040600F570
:10294000040700EE040600E8040600E2040700DBCA
:10295000040600D5040600CF040600C9040600C31F
:10296000040600BD040600B7040600B1040500AC6F
:10297000040600A6040600A00405009B04060095BA
:10298000040500900406008A040500850405008003
:102990000406007A04050075040500700405006B48
:1029A00004050066040500610405005C0405005789
:1029B000040500520405004D0405004804050043C9
:1029C0000405003E0404003A040500350405003007
:1029D0000404002C04050027040400230405001E41
:1029E0000404001A04040016040500110404000D78
:1029F000040400090405000404040000040400FCAD
:102A0000030400F8030400F4030400F0030400ECE2
:102A1000030400E8030400E4030400E0030400DC12
:102A2000030400D8030400D4030400D0030400CC42
:102A3000030400C8030300C5030300722900007CDF
:102A4000200000AD160000270E00001208000057FD
:102A50000400004102000026010000486F6D696E0D
:102A600067204661696C656400FF010150726F6206
:102A7000696E67204661696C65640A00205A3A20D5
:102A80000020593A200042656420583A2000202056
:102A90002000202020416E616C6F6720696E203D10
:102AA0002025356C64003C756E757365642F756EFA
:102AB0006B6E6F776E3E00202841253264292020FE
:102AC00000253364200050494E3A20004F75747041
:102AD00075742000496E707574202000416E616C21
:102AE0006F6720696E203D2025356C640070726F21
:102AF00074656374656420002028412532642920B0
:102B00002000253364200050494E3A2000CD1D009E
:102B100001C81D0101BB1D3B00B01D3A00A51D39B8
:102B2000009A1D43008F1D4500821D4400751D3213
:102B300001681D33015C1D3401511D3501451D2502
:102B400001391D23012D1D1101211D1001151D1716
:102B500001091D1901FD1C1B01F11C1D01E51C32A1
:102B600001D91C3401CD1C1F01C11C3501B51C212C
:102B700001A91C33019D1C3101911C2901861C1CDB
:102B800001781C18016C1C1A01611C2201531C1EC7
:102B900001471C24013C1C22012E1C1E01221C2466
:102BA00001171C2201091C1E01FD1B2401F51B0934
:102BB00001E81B0A01DB1B0701CE1B2F01C11B2DE6
:102BC00001B21B0801AA1B0D019C1B42018F1B0AAD
:102BD00001821B0901751B0801681B07015C1B3280
:102BE00001501B3301451B3401401B3501361B3599
:102BF000012B1B0B01201B1501151B27010A1B2094
:102C000001001B0301F51A0301EB1A0F01E01A0F73
:102C100001D61A1301CB1A1301C01A0301B51A0EFB
:102C200001AA1A12019E1A0201921A0F01821A06B3
:102C300001781A37016B1A2601601A3601561A3DBF
:102C400001491A38013E1A3C01341A3001271A3E54
:102C5000011C1A2E010C1A2801FC193F01EC193B2A
:102C600001DC194001CC192A01BC194101AB192C16
:102C7000019A1942018919140178190C01486F6DE4
:102C80006520257320466972737400220A00556E10
:102C90006B6E6F776E20636F6D6D616E643A20228C
:102CA00000204500205A0020590020204D393220B4
:102CB000580053746570732070657220756E697466
:102CC000006F6B0A00526573656E643A2000204500
:102CD0003A00205A3A0020593A00583A0050726996
:102CE0006E7465722068616C7465642E206B696C0B
:102CF0006C28292063616C6C6564210A0000C8AFF0
:102D000011241FBECFEFD1E2DEBFCDBF00E00CBF6C
:102D100084B78093D51114BE0FB6F894A89580910E
:102D20006000886180936000109260000FBE13E025
:102D3000A0E0B2E0EEEBFBE801E00BBF02C00790C1
:102D40000D92A83AB107D9F721E1A8EAB3E001C092
:102D50001D92A53DB207E1F716E1C0E8D6E100E01B
:102D600006C021970109802FFE010E94A7C2CF371C
:102D7000D10780E00807A9F70E94FCB10C94DDC5DB
:102D80000C940000EF92FF920F931F93E092B50313
:102D9000F092B6030093B7031093B8036093B9039E
:102DA0007093BA038093BB039FEFFF27621B730BE3
:102DB000840B30F4809570956195790B890B992778
:102DC0009093B403A6E06A9F0092A803512DEE27CA
:102DD0007A9F500DE11D8A9FE00D5093A903E09367
:102DE000AA03AFE06A9F0092AC03512DEE277A9FB1
:102DF000500DE11D8A9FE00D5093AD03E093AE03AB
:102E0000AAE06A9F0092B003512DEE277A9F500DE1
:102E1000E11D8A9FE00D5093B103E093B2031F912F
:102E20000F91FF90EF90089593E0980FE92FF0E055
:102E300021E030E002C0220F331F9A95E2F720957F
:102E4000309590912805922390932805E55DFC4FDD
:102E50002081922321E019F020E0822F0895823012
:102E600031F0833021F0813011F0129AF6CF479A79
:102E7000F4CFE82FF0E021E030E0082E02C0220F6E
:102E8000331F0A94E2F720953095909128059223FC
:102E900090932805E55DFC4F2081922321E019F0F5
:102EA00020E0822F08958130A1F060F08230C9F7D0
:102EB00090910801909591709093060190919B07D5
:102EC0009B7F04C05F9A90919B079E7F90939B0786
:102ED000E8CF8A9A90919B079D7FF8CF9F92AF92FF
:102EE000BF92CF92DF92EF92FF920F931F93CF93F7
:102EF000DF9300D01F921F92CDB7DEB7E8E1F6E175
:102F00000027BB27462F572FA82FAA2341F4A52F10
:102F1000542FB85FAA2319F4A52F5527B85FA03105
:102F200038F45295A295452F4F70507FA42BBC5F6B
:102F3000A03428F4550FAA1F550FAA1FBE5FA03852
:102F400018F4550FAA1FB395550FAA1FEA0FF01FCB
:102F5000449151E0AA27B85079F1C0F0B0FF02C007
:102F6000440F551FB1FF04C0440F551F440F551F98
:102F7000B2FF06C052954295142F1F70407F512B0F
:102F8000B3FF1AC0A52F542F442716C0B195B0FF28
:102F900002C055954795B1FF04C055954795559585
:102FA0004795B2FF05C05295407F4295452B5F7013
:102FB000B3FF02C0452F5527DD24CC24BB24B2E04B
:102FC000649FD018C108B00AB00B749FC018B10834
:102FD000B00B849FB018B109659FC018B108B00B41
:102FE000759FB018B109859FB0196A9FB018B109D3
:102FF0007A9FB0194D9DA12C992433279927222718
:103000005D9DA00C911C301F901F201FAD9D900C4A
:10301000311D901F201F4C9DA00C911C301F901F34
:10302000201F5C9D900C311D901F201FAC9D300D0A
:10303000911D201F4B9D900C311D901F201F5B9DEB
:10304000300D911D201FAB9D900D211D4B9F300D0C
:10305000911D201F5B9F900D211DAB9F200DB1E0A6
:10306000BB24CC24DD24639FD018C108B00AB00B68
:10307000739FC018B108B00B839FB018B109699F46
:10308000C018B108B00B799FB018B109899FB01969
:10309000629FB018B109729FB019D61AC70AB80A50
:1030A00020F0B1E03B0F901F201F1124792F632FD8
:1030B00090E0822F0F900F900F900F900F90DF9164
:1030C000CF911F910F91FF90EF90DF90CF90BF9025
:1030D000AF909F900895AF92BF92CF92DF92EF9200
:1030E000FF920F931F93CF93DF93C8EBD7E008E7CE
:1030F00014E088ECA82E87E0B82EC12CD12C7601E4
:10310000C39469917991899199910E9447BE2889C8
:1031100039894A895B890E94A8BE0E942FC4F801A0
:1031200061937193819391938F01C616D706E80638
:10313000F90610F46B017C01AC16BD0611F76FEFB8
:103140007FEFCB01A70196010E941DC22093880446
:103150003093890440938A0450938B04DF91CF917C
:103160001F910F91FF90EF90DF90CF90BF90AF90A5
:1031700008957F928F929F92AF92BF92CF92DF92EB
:10318000EF92FF920F931F93CF93DF937090D4042D
:10319000C4E6D4E095E1C92E92E0D92E2DE1E22ECD
:1031A00022E0F22E04EC14E0772009F45EC0F8016E
:1031B00080809180A280B38020E030E0A901C50129
:1031C000B4010E9443BE882309F44FC020E030E0E0
:1031D00040E05FE3C501B4010E94A8BE9B01AC01C1
:1031E0000E94A8BE2BED3FE049E450E40E94A8BE37
:1031F0009B01AC0160E070E080E89FE30E94C2C3E5
:103200004B015C0189929992A992B992F601619160
:1032100071916F01072E000C880B990B0E9449BE1B
:103220002AE037ED43E25CE30E94A8BEA5019401C9
:103230000E94A8BEF70161937193819391937F01DE
:103240000C5F1F4FF4E0C437DF0709F0ADCFDF910B
:10325000CF911F910F91FF90EF90DF90CF90BF9093
:10326000AF909F908F907F900895812C912C80E853
:10327000A82E8FE3B82EC6CF8091CA109091CB10A4
:10328000891B8F7019F490E080E008959091C71029
:10329000992351F0833030F48FEF890F19F0809328
:1032A000C710F1CF1092C7108091CB1029E5829FF3
:1032B000C00111248050984FFC01208120FDE3CFF4
:1032C0002091CB102F5F2F702093C8103091CB101E
:1032D0002091C910321304C02091C8102093C91046
:1032E0000895FC017081472F50E0062E02C05595CD
:1032F00047950A94E2F740FF14C04091C20550E0A0
:10330000062E02C0559547950A94E2F740FF09C082
:1033100021E030E001C0220F6A95EAF720952723CB
:1033200020830895CF93DF9324E0829FC00111246E
:10333000EC01C758D14FFC01E755F84F885A9B4F15
:10334000DC012D913D914D915C9160817181828173
:1033500093810E94E6C2688379838A839B83DF918D
:10336000CF9108958091540490915504A0915604F2
:10337000B09157048093500290935102A09352024F
:10338000B09353028091520490915304909314028D
:103390008093130208958091500290915102A09160
:1033A0005202B09153028093540490935504A09319
:1033B0005604B09357048091130290911402909395
:1033C00053048093520484E690E090931402809317
:1033D00013020895CF93DF939091450491111BC080
:1033E000C0911102D091120221979CE2899FF001B5
:1033F0001124E156F14F20E030E040E05FE36481CA
:103400007581868197810E94E6C20E942AC421E0CC
:103410006C177D070CF020E0822FDF91CF9108958B
:1034200090E080E0089540911A0450911B0483308D
:1034300021F445FD10C044FD0CC021E030E002C085
:10344000220F331F8A95E2F72423352381E0232BB3
:1034500009F480E0089581E008958091370484FDA7
:103460000BC08091390487FD07C090913A04937096
:1034700081E019F480E0089581E00895EFE9FEE02D
:1034800081E0838787AB8093020F80932E0F08958E
:103490002FEB280F2A3108F047C0E22FF0E080918F
:1034A000370490913804A0913904B0913A0404C0D3
:1034B000B695A795979587952A95D2F780FD02C076
:1034C00081700895E35EFB4FE081EE2341F180912E
:1034D000B6079091B707E80FF92FF11D808190EDA5
:1034E000980F9A3030F08E3251F4818180538A30B7
:1034F00098F4F0931704E093160481E008958D3258
:1035000011F08B3249F4818190ED980F9A3088F355
:103510008E3211F48281EACFF0E0E0E0EACF10923F
:10352000170410921604E9CF80E00895B1DF8823D4
:1035300041F081E02091160430911704232B09F407
:1035400080E00895E5E0F4E080EF9FEFA9E7B4ECB8
:1035500084839583A683B78380839183A283B38377
:10356000EFEEF3E08DE98183808308958F929F923F
:10357000AF92BF92CF92DF92EF92FF92FC0198E060
:10358000AAEBB4E001900D929A95E1F788E0FB0177
:10359000A1EBB4E001900D928A95E1F7C090BA04D6
:1035A000D090BB04E090BC04F090BD0420E030E07B
:1035B000A901C701B6010E9443BE8823E1F1A7011A
:1035C000960160E070E080E89FE30E94C2C36B0157
:1035D0007C018090BE049090BF04A090C004B09085
:1035E000C10420E030E0A901C501B4010E9443BE3E
:1035F000882329F1A501940160E070E080E89FE351
:103600000E94C2C3C092FD03D092FE03E092FF036A
:10361000F092000460930104709302048093030409
:1036200090930404FF90EF90DF90CF90BF90AF9005
:103630009F908F900895C12CD12C7601CACF60E065
:1036400070E0CB01DFCF1092B5041092B604109257
:10365000B7041092B8041092B1041092B204109200
:10366000B3041092B4041092BE041092BF041092DE
:10367000C0041092C1041092BA041092BB041092BC
:10368000BC041092BD04E5EDF4E080E090E0A0EC15
:10369000BFE780839183A283B38384839583A683CA
:1036A000B78380879187A287B38784879587A6870A
:1036B000B787709625E0E531F20759F708950F9323
:1036C0001F93CF93DF930CEC17E0CDE8D4E0F80123
:1036D00021913191419151918F0160E070E080E83A
:1036E0009FE30E94C2C36993799389939993F4E00D
:1036F000CD39DF0761F70E94EC94DF91CF911F91E4
:103700000F91E9CC2F923F924F925F926F927F92EE
:103710008F929F92AF92BF92CF92DF92EF92FF92E1
:103720000F931F93CF93DF93CDB7DEB7A0970FB65C
:10373000F894DEBF0FBECDBF1C017B015E834D83BD
:10374000FC01E85BFF4F2081318142815381298355
:103750003A834B835C83CA01B9010E9447BE4B0187
:103760005C01D7012D913D914D915C910E94A8BEC5
:103770000E94ACC32B013C01ED81FE81208131818F
:1037800042815381C501B4010E94A8BE0E94ACC30E
:103790006B017C01C301B2010E942FC469877A8743
:1037A0008B879C87683771058105910540F428E770
:1037B00030E040E050E029873A874B875C87C701BB
:1037C000B6010E942FC46D877E878F87988B6837DC
:1037D00071058105910548F428E7C22ED12CE12C12
:1037E000F12CCD86DE86EF86F88AD1019596CD90B4
:1037F000DD90ED90FC909897CD82DE82EF82F88686
:10380000F101EC5AFF4F60817181828193816115D2
:1038100071058105910509F49FC10E9449BE6D8B18
:103820007E8B8F8B988F9B01AC0160E070E080E80D
:103830009FE30E94C2C3698F7A8F8B8F9C8F20E099
:1038400030E040E05FE30E94A8BE6B017C01A5016F
:103850009401C501B4010E94A8BE2B013C016D85F5
:103860007E858F8598890E9447BE9B01AC010E948E
:10387000A8BE9B01AC01C301B2010E94E5C2A70131
:1038800096010E94A8BE4B015C0169857A858B85F3
:103890009C850E9447BE9B01AC010E94A8BE6D8F13
:1038A0007E8F8F8F98A39B01AC01C301B2010E9450
:1038B000E5C2A70196010E94A8BE2B013C010E940F
:1038C000ACC30E942FC46B017C01C501B4010E94EE
:1038D0005BC40E942FC4698B7A8B8B8B9C8BDC0121
:1038E000CB018C0D9D1DAE1DBF1D2D813E814F81D5
:1038F0005885281B390B4A0B5B0BDA01C901B7FF4E
:1039000061C06D817E818F8198850E9447BEA30131
:1039100092010E94E6C2A50194010E94E5C220E046
:1039200030E040E05FE30E94A8BE0E94ACC36B01A0
:103930007C0120E030E0A9010E940CC518161CF0A3
:10394000C12CD12C7601C701B6010E942FC46B0196
:103950007C014D815E816F8178854C155D056E051A
:103960007F0510F46A017B016D817E818F819885CE
:103970006C197D098E099F09698B7A8B8B8B9C8BC7
:10398000C701B6010E9447BE4B015C012D893E89EB
:103990004F89588DCA01B9010E94E6C29B01AC0152
:1039A000C501B4010E94A8BE2D8D3E8D4F8D58A13A
:1039B0000E94E6C20E9451C50E942FC469837A8387
:1039C0008B839C8320E034E244EF59E4698D7A8D47
:1039D0008B8D9C8D0E94A8BE4B015C0169817A8110
:1039E0008B819C8129853A854B855C85621B730B95
:1039F000840B950B0E9447BEA50194010E94A8BEAE
:103A00000E942FC42B013C0169817A818B819C81AA
:103A10002D853E854F855889621B730B840B950B52
:103A20000E9447BEA50194010E94A8BE0E942FC417
:103A30004B015C013FE6431651046104710408F038
:103A400097C0F201EE0FFF1FEE0FFF1FE45AFB4E6F
:103A500085919591A591B4918C01AD8BBD834FE675
:103A600084169104A104B10408F089C0F401EE0F9A
:103A7000FF1FEE0FFF1FE45AFB4E459155916591D4
:103A800074919A01CB01D1019A96CD92DD92ED927B
:103A9000FC929D9795964D915D916D917C91989733
:103AA000C988DA88EB88FC884C195D096E097F09A2
:103AB0009E964D935D936D937C93D197F101E45B5A
:103AC000FF4FC984DA84EB84FC84C082D182E28215
:103AD000F382D6964D925D926D927C92D997F101C8
:103AE00082AE93AEA4AEB5AEFE9600831183CD88B0
:103AF000C282DD80D3823496208331838283938394
:103B0000C980DA80EB80FC80D296CD92DD92ED9276
:103B1000FC92D5973E96CD84DE84EF84F888C082EF
:103B2000D182E282F382A0960FB6F894DEBF0FBE78
:103B3000CDBFDF91CF911F910F91FF90EF90DF905C
:103B4000CF90BF90AF909F908F907F906F905F903D
:103B50004F903F902F900895198E1A8E1B8E1C8EB9
:103B6000198A1A8A1B8A1C8AC12CD12C76012ACF69
:103B7000C301B201B3D98B018D8B9D8370CFC50179
:103B8000B401ACD99B017FCF4F925F926F927F922D
:103B90008F929F92AF92BF92CF92DF92EF92FF925D
:103BA0000F931F93CF93DF93EC012091B1043091D9
:103BB000B2044091B3045091B404688179818A8140
:103BC0009B810E94E5C26B017C012091B50430917C
:103BD000B6044091B7045091B8046C817D818E8108
:103BE0009F810E94E5C24B015C01A7019601609193
:103BF00005047091060480910704909108040E94C6
:103C000043BE882309F450C0C0920504D092060434
:103C1000E0920704F09208042091FD033091FE0326
:103C20004091FF0350910004C701B6010E94A8BE55
:103C30002B013C010E945BC46B017C0120E030E061
:103C4000A9010E9443BE87FD70C020E030E040E043
:103C500050E4C701B6010E940CC518162CF4C12C03
:103C6000D12CE12CA0E4FA2EA7019601C301B201E8
:103C70000E94E5C26093F5037093F6038093F70307
:103C80009093F803C701B6010E942AC46093F3031E
:103C9000062E000C770B6F5F7F4F6330710514F0B9
:103CA00063E070E06093F103D091EF03C091F30300
:103CB000A50194016091090470910A0480910B049C
:103CC00090910C040E9443BE811133C0DC1381C06B
:103CD0002091D7033091D8034091D9035091DA0352
:103CE0006091F5037091F6038091F7039091F803CA
:103CF0000E94A8BE2091DB033091DC034091DD03DC
:103D00005091DE030E94E6C2DF91CF911F910F9187
:103D1000FF90EF90DF90CF90BF90AF909F908F90EB
:103D20007F906F905F904F900895C12CD12C7601B9
:103D30009BCF8092090490920A04A0920B04B09247
:103D40000C0420910104309102044091030450912D
:103D50000404C501B4010E94A8BE4B015C010E948D
:103D60005BC46B017C0120E030E0A9010E9443BEEE
:103D700087FDF4C020E030E040E050E4C701B60128
:103D80000E940CC518162CF4C12CD12CE12CF0E4A7
:103D9000FF2EA7019601C501B4010E94E5C2609300
:103DA000F9037093FA038093FB039093FC03C7011C
:103DB000B6010E942AC46093F403062E000C770B10
:103DC0006F5F7F4F6330710514F063E070E06093C4
:103DD000F2030091F403DC1305C08091F003801717
:103DE00009F471C08091F3039091F4039093F00370
:103DF0008093EF03002E000C110B24E0C202C001DF
:103E00001124FC01E00FF11FEE0FFF1FEE0FFF1F4B
:103E1000EB52FB4F20813181428153812093EB0390
:103E20003093EC034093ED035093EE03C091F20303
:103E30000C2E000CDD0BFC01EC0FFD1FEE0FFF1F25
:103E4000EE0FFF1FEB52FB4F6081718182819381E6
:103E50000E94E5C26093E7037093E8038093E9034F
:103E60009093EA038091F10324E08202C0011124BF
:103E7000FC01E00FF11FEE0FFF1FEE0FFF1FEB52D3
:103E8000FB4F20813181428153812093E3033093A2
:103E9000E4034093E5035093E603C80FD91FCC0F0A
:103EA000DD1FCC0FDD1FCB52DB4F688179818A810A
:103EB0009B810E94E5C26093DF037093E0038093CF
:103EC000E1039093E2038090F9039090FA03A090AD
:103ED000FB03B090FC032091E7033091E80340918D
:103EE000E9035091EA03C501B4010E94A8BE2091E4
:103EF000EB033091EC034091ED035091EE030E94EF
:103F0000E6C26B017C01C092DB03D092DC03E0923D
:103F1000DD03F092DE032091DF033091E003409156
:103F2000E1035091E203C501B4010E94A8BE2091B3
:103F3000E3033091E4034091E5035091E6030E94CE
:103F4000E6C2A70196010E94E5C26093D703709371
:103F5000D8038093D9039093DA03BACEC12CD12C25
:103F6000760117CF2F923F924F925F926F927F927E
:103F70008F929F92AF92BF92CF92DF92EF92FF9279
:103F80000F931F93CF93DF93D62FC72FFC01808011
:103F90009180A280B380C501B40120E831E541E001
:103FA00050E00E941DC2C9016DE671E00E9480C20E
:103FB0006B017C01C501B40120E13EE040E050E02E
:103FC0000E941DC2CA01B90128E130E040E050E082
:103FD0000E941DC2362E272E062F172F8CE3482E47
:103FE000512C612C712CC501B401A30192010E94D6
:103FF0001DC2B62EA72ECA01B901A30192010E94CB
:104000001DC2CB01C114D10479F1AF92BF927F934D
:104010006F932F923F92FF92EF92DF92CF928BEEAF
:1040200091E19F938F93CF93DF930E9414BE8DB73E
:104030009EB70E960FB6F8949EBF0FBE8DBF8D2F04
:104040009C2FDF91CF911F910F91FF90EF90DF9008
:10405000CF90BF90AF909F908F907F906F905F9028
:104060004F903F902F900895E114F104C9F0AF9262
:10407000BF927F936F932F923F92FF92EF928BEDBF
:1040800091E19F938F93CF93DF930E9414BEEDB77E
:10409000FEB73C960FB6F894FEBF0FBEEDBFCFCF74
:1040A000012BB9F0AF92BF927F936F932F923F9203
:1040B0008FEC91E19F938F93CF93DF930E9414BE77
:1040C0008DB79EB70A960FB6F8949EBF0FBE8DBFF0
:1040D000B6CF892BA9F0AF92BF927F936F9387ECF5
:1040E00091E19F938F93CF93DF930E9414BEEDB71E
:1040F000FEB738960FB6F894FEBF0FBEEDBF9FCF48
:10410000AF92BF9283EC91E19F938F93CF93DF9314
:104110000E9414BE0F900F900F900F900F900F9071
:104120008ECFAF92BF92CF92DF92EF92FF920F931A
:104130001F93CF935C016B018A0180549C4F7C01DB
:10414000DC01CC91C7FF3DC0FB0111821082CF5F23
:10415000D701CC93CC300CF053C08CE08A9DF00199
:104160008B9DF00D1124CF018C0F911DC7FD9A95E9
:104170002091C3102817190609F00CF441C0F6016C
:1041800020813181FC01EE0FFF1FE80FF91FE55878
:10419000FF4E81819281820F931FD80111969C93CB
:1041A0008E93808187FF3DC061E08F77CF911F9113
:1041B0000F91FF90EF90DF90CF90BF90AF900C9455
:1041C00075998CE08A9DF0018B9DF00D1124CF0133
:1041D0008C0F911DC7FD9A952091C31028171906C1
:1041E00009F00CF4B4CFFC01EE0FFF1FE80FF91F2C
:1041F000E558FF4E808160E08F770E947599A7CFC8
:10420000F6018081918104968034FCE99F0710F4C7
:1042100080E49CE9D80111969C938E938FEFF7016F
:104220008083CF911F910F91FF90EF90DF90CF90FF
:10423000BF90AF9008958091160490911704009755
:1042400031F04AE050E070E060E00C9483BB60E045
:1042500070E0CB010895EFDF97FD0AC0ECDF6F3F00
:1042600071058105910509F02CF4E5DF862F08958D
:1042700080E008958FEF0895CF93C62F57D98823F4
:1042800011F0CF91E8CF8C2FCF9108958091160433
:1042900090911704892B39F0DEDF91E0811101C084
:1042A00090E0892F089591E0FCCFCF93DF93C82F42
:1042B000D62F3CD9882319F0DF91CF91E7CF8C2FEF
:1042C000E7D8811101C08D2FDF91CF910895B3DF21
:1042D000CB010895CF93DF9385E4DAD8811121C013
:1042E00080E0409137045091380460913904709116
:1042F0003A04972F9170C92F90E0D92FCC0FDD1F72
:1043000071FB222720F930E0220F331F220F331FC9
:10431000C22B67FB442740F9C42B8C2BDF91CF9134
:1043200008958091160490911704892B59F0CFDFDE
:104330008430B0F693E0980F81E001C0880F9A9521
:10434000EAF7CFCF88E7CDCFCF93DF93EB01EED85D
:10435000882319F0DF91CF91BACFCE01DF91CF91B1
:1043600008950F931F93CF93809116049091170493
:10437000009709F1FC018F01C1912C2F2F7DA1F035
:10438000C53431F0C53621F0C83511F0C83799F77A
:10439000F801108270E060E00E942EBAF801C0833C
:1043A000CF911F910F91089570E060E0CF911F9120
:1043B0000F910C942EBA60E070E0CB01F1CFCF9258
:1043C000DF92EF92FF926A017B01B0D8882329F037
:1043D000FF90EF90DF90CF90C4CFC701B601FF9060
:1043E000EF90DF90CF9008954F925F926F927F92FF
:1043F000AF92BF92CF92DF92EF92FF920F931F93F3
:10440000CF9382E3A82E83E0B82E97EFE92E95E0B4
:10441000F92E0AE712E029E7C22E2EE0D22EC0E0E4
:10442000F50181915F0182D8882309F4A4C099DF46
:104430002B013C018C2F0E94131A882309F491C090
:10444000F8012081318142815381C301B2010E9470
:10445000E6C2F7016083718382839383CF5FF4E0C8
:10446000EF0EF11C0C5F1F4F84E0C80ED11CC3304F
:10447000B9F685E45BD8882309F488C072DF6B0144
:104480007C0183E00E94131A882371F02091860238
:10449000309187024091880250918902C701B6018C
:1044A0000E94E6C26B017C01C0920306D092040612
:1044B000E0920506F092060640E050E0BA0186E47C
:1044C0007EDF20E030E0A9010E940CC518167CF4C4
:1044D00048DF20E030E040E752E40E94C2C360932E
:1044E0005002709351028093520290935302809134
:1044F0000E0683FD28C080910806882321F12091B3
:104500008602309187024091880250918902609121
:1045100003067091040680910506909106060E949C
:10452000E5C220919A0E30919B0E40919C0E5091C5
:104530009D0E0E94E6C260939A0E70939B0E80932C
:104540009C0E90939D0ECF911F910F91FF90EF9035
:10455000DF90CF90BF90AF907F906F905F904F9023
:104560000895F6012081318142815381C301B20156
:104570000E94E5C26ECFF80180819181A281B38152
:10458000F70180839183A283B38368CF80918602F1
:1045900090918702A0918802B091890280930306CE
:1045A00090930406A0930506B093060685CF0F935B
:1045B0000FB70F9300916E000F930D7F00936E0065
:1045C00000916F000D7F00936F000F930BB70F9357
:1045D0000CB70F921F922F933F934F935F936F935C
:1045E0007F938F939F93AF93BF93EF93FF93112488
:1045F000A1D4FF91EF91BF91AF919F918F917F9146
:104600006F915F914F913F912F911F900F900CBF31
:104610000F910BBF0F910260F89400936F000F9100
:1046200000936E000F910FBF0F91189500008091BD
:104630000B0680FF2AC089988FEF8093290580910F
:104640000B0681FF25C08F988FEF80932A058091FC
:104650000B0682FF20C080910B01827080930901BC
:104660008FEF80932B0580912D0590910B0693FF82
:1046700020C08130D1F0B8F08230C9F08330B9F079
:104680008FEF80932C0500000895899A81E0D5CFA3
:104690008F9A81E0DACF80910B01809582708093B0
:1046A000090181E0DECF1698EBCF439AE9CF43981A
:1046B000E7CF813049F030F0823041F0833031F083
:1046C00081E0DFCF169AFCCF4398FACF439AF8CF18
:1046D00080E00E94141781E00E94141782E00E947B
:1046E000141783E00C94141780E00E94391781E0BE
:1046F0000E94391782E00E943917EACF833009F00F
:1047000060E0860F21E030E001C0220F8A95EAF7D1
:1047100080912805822B809328050895823059F0D6
:10472000833061F0813019F080E00C94B3AC47988D
:1047300061E083E0E3CF479862E0FBCF479863E016
:10474000F8CF813039F020F0823031F060E0D6CF00
:104750005F98FCCF8A98FACF90910801917090935E
:104760000601F4CFCF93DF932091B904222371F097
:10477000EC010ADA9B01AC01688579858A859B8505
:104780000E94E6C2688779878A879B87DF91CF91ED
:10479000089590916F0081E091FD02C080E008953E
:1047A00090916F009D7F90936F000895EFE6F0E089
:1047B00080818260808308958F929F92AF92BF9292
:1047C000CF92DF92EF92FF920F931F93CF93DF93DD
:1047D000182F84E0189FE0011124123008F046C021
:1047E000D8DF082FD6DF8090800590908105A090BB
:1047F0008205B09083058111D9DFCBDFC09084059D
:10480000D0908505E0908605F09087058111CEDF78
:104810000111CCDF113019F5C501B4016C197D0906
:104820008E099F090E9449BE20E030E040E05FE32E
:104830000E94A8BEC357DB4F288139814A815B8122
:104840000E94A8BEDF91CF911F910F91FF90EF9032
:10485000DF90CF90BF90AF909F908F900895C70149
:10486000B601680D791D8A1D9B1DDCCF92DFFE010C
:10487000E058FA4FC080D180E280F380811196DF4A
:10488000C701B6010E9449BED5CF8F929F92AF92C9
:10489000BF92CF92DF92EF92FF921F93CF93DF935D
:1048A000CDB7DEB760970FB6F894DEBF0FBECDBFB1
:1048B000182F80E081DF4B015C01809246049092CA
:1048C0004704A0924804B092490481E075DF6B016F
:1048D0007C01C0924A04D0924B04E0924C04F092C6
:1048E0004D0482E069DF60934E0470934F0480931F
:1048F0005004909351041D861E861F86188A898253
:104900009A82AB82BC82CD82DE82EF82F886698792
:104910007A878B879C8783E04FDF6D877E878F87C1
:10492000988B8091B904882379F0CE0101962CD917
:104930009B01AC0169857A858B859C850E94E5C2C7
:1049400069877A878B879C871E3FD9F480E1FE01B7
:104950003196AAE7B2E001900D928A95E1F7609650
:104960000FB6F894DEBF0FBECDBFDF91CF911F9180
:10497000FF90EF90DF90CF90BF90AF909F908F907F
:10498000089584E0189FF0011124DF01A658BD4F5F
:1049900081E090E08C0F9D1FE80FF91F408151814D
:1049A000628173814D935D936D937C931397D7CF01
:1049B000CF92DF92EF92FF92CF93DF93C82FE9DE81
:1049C00094E0C99FE0011124FE01EC58FA4FC08029
:1049D000D180E280F3808111E9DEC357DB4FC7014C
:1049E000B6010E9449BE288139814A815B810E94BB
:1049F000A8BEDF91CF91FF90EF90DF90CF90089508
:104A0000CF93DF93CDB7DEB72C970FB6F894DEBF08
:104A10000FBECDBF0E94F793BCDE9CE0E0E8F5E05E
:104A2000DE01119601900D929A95E1F78111BEDE9B
:104A3000CE0101960E94B8AC2C960FB6F894DEBF5A
:104A40000FBECDBFDF91CF910895CF93DF931F921B
:104A5000CDB7DEB7898360E0CE0101960E9471195F
:104A600061E0CE0101960E94711962E0CE010196CB
:104A70000E94711989810F90DF91CF9108958F92D3
:104A80009F92AF92BF92CF92DF92EF92FF92CF931D
:104A9000DF9320913602222309F478C0EC01809143
:104AA000C205E82E80FF16C0809044029090450217
:104AB000A0904602B0904702288139814A815B81EB
:104AC000C501B4010E9443BE87FF04C08882998259
:104AD000AA82BB82E1FE2CC080903C0290903D02F5
:104AE000A0903E02B0903F022C813D814E815F81BB
:104AF000C501B4010E940CC5181624F48C829D8255
:104B0000AE82BF828090480290904902A0904A02F3
:104B1000B0904B022C813D814E815F81C501B40173
:104B20000E9443BE87FF04C08C829D82AE82BF82FA
:104B3000E2FE2CC0C0904002D0904102E0904202C0
:104B4000F0904302288539854A855B85C701B60107
:104B50000E940CC5181624F4C886D986EA86FB86FE
:104B6000C0904C02D0904D02E0904E02F0904F0267
:104B7000288539854A855B85C701B6010E9443BEF9
:104B800087FF04C0C886D986EA86FB86DF91CF916D
:104B9000FF90EF90DF90CF90BF90AF909F908F905D
:104BA0000895CF92DF92EF92FF920F931F93CF93CE
:104BB000DF93E82FF0E0EF01CC0FDD1FCC0FDD1FFE
:104BC000461739F0823009F049C0C12CD12C76014A
:104BD00017C08230D1F3A0919A078A2F90E0DC01B0
:104BE000AA0FBB1FA80FB91FAE0FBF1FAA0FBB1F75
:104BF000AA0FBB1FA953BA4FCD90DD90ED90FC904A
:104C00008F01000F111F000F111FF801E353FC4E1D
:104C10002591359145915491CA5CDD4FC701B6018C
:104C20000E94E6C26A837B838C839D83F801EF53E5
:104C3000FC4E2591359145915491C701B6010E94D2
:104C4000E6C26E877F87888B998BDF91CF911F910A
:104C50000F91FF90EF90DF90CF90089550E0DA0130
:104C6000AA0FBB1FA40FB51FAE0FBF1FAA0FBB1FFC
:104C7000AA0FBB1FA953BA4F862F90E0BC01660F45
:104C8000771F680F791FE60FF71FEE0FFF1FEE0F5C
:104C9000FF1FE953FA4F20813181428153816D9189
:104CA0007D918D919C910E94E5C26B017C01CA5C53
:104CB000DD4FAC019B016A817B818C819D810E94CB
:104CC000E6C26A837B838C839D83A70196016E85F0
:104CD0007F8588899989B3CF4F925F926F927F9237
:104CE0008F929F92AF92BF92CF92DF92EF92FF92FC
:104CF000CF93DF9300D01F921F92CDB7DEB74090C5
:104D00007A0250907B0260907C0270907D028090CD
:104D10007E0290907F02A0908002B0908102C090AD
:104D20008202D0908302E0908402F090850280910C
:104D3000860290918702A0918802B09189028983AE
:104D40009A83AB83BC830E946B180E943E1A0E9418
:104D5000B9181D828D810E94921940E060E08D811A
:104D600020DF9D819F5F9D839330A1F70E94A21A4F
:104D70000E945F1BA301920160917A0270917B02F5
:104D800080917C0290917D020E9443BE81112CC0D3
:104D9000A501940160917E0270917F028091800252
:104DA000909181020E9443BE81111EC0A70196010D
:104DB00060918202709183028091840290918502B9
:104DC0000E9443BE811110C029813A814B815C81D0
:104DD0006091860270918702809188029091890289
:104DE0000E9443BE8823A1F00F900F900F900F9068
:104DF0000F90DF91CF91FF90EF90DF90CF90BF9019
:104E0000AF909F908F907F906F905F904F90F8CD74
:104E10000F900F900F900F900F90DF91CF91FF9018
:104E2000EF90DF90CF90BF90AF909F908F907F904A
:104E30006F905F904F9008950C94EC9480910A06C7
:104E4000811105C080919C07882309F472C080916C
:104E50004404659B5EC0816080934404909103018B
:104E60008091440490FF57C08260809344049091E5
:104E700000018091440493FF50C0886080934404F3
:104E8000809144044A9B4BC0846080934404809189
:104E9000630580FF10C080910B0687FF0CC08091D6
:104EA000440480FF08C08091970781608093970732
:104EB00080E00E94ECAC8091630581FF12C080917C
:104EC0000B0690910C0690FD0CC08091440481FF6C
:104ED00008C08091970782608093970781E00E94C5
:104EE000ECAC8091630582FF24C080910B0682FFA9
:104EF00018C080919C078823E1F08091440483FFCF
:104F000018C08091970788608093970782E00C947F
:104F1000ECAC8E7FA1CF8D7FA8CF877FAFCF8B7F6B
:104F2000B4CF8091440482FF04C0809197078460CD
:104F3000EBCF08952F923F924F925F926F927F92A4
:104F40008F929F92AF92BF92CF92DF92EF92FF9299
:104F50000F931F93CF93DF93CDB7DEB762970FB652
:104F6000F894DEBF0FBECDBF8FEF9FEF9093890007
:104F7000809388002AE02A8B312C212C7894809110
:104F80006D0590916E05A0916F05B0917005892B0C
:104F90008A2B8B2B09F0F1C1809173058823E1F0F6
:104FA000809171059091720510927305892BA1F083
:104FB00010927205109271051092640510926305AB
:104FC0009091CA108091CB10981731F08091CB103E
:104FD0008F5F8F708093CB108091710590917205D7
:104FE000892B09F4CAC14091690550916A05609105
:104FF0006B0570916C058091650590916605A09197
:105000006705B0916805481759076A077B0708F0DC
:10501000B4C10091960710E030E020E0841B950BAE
:10502000A60BB70B081719072A073B0710F4D9017D
:10503000C8018983840F951FA61FB71F8093690538
:1050400090936A05A0936B05B0936C05E1E0C09066
:105050003205D0903305E0903405F090350580910D
:10506000420590914305A0914405B0914505C80EB5
:10507000D91EEA1EFB1EC0924205D0924305E09263
:105080004405F0924505F7FC18C080912E059091DB
:105090002F05A0913005B0913105B701A601481B3D
:1050A000590B6A0B7B0BDB01CA018093420590937D
:1050B0004305A0934405B093450500913605109132
:1050C000370520913805309139058091460590913A
:1050D0004705A0914805B0914905080F191F2A1FDF
:1050E0003B1F0093460510934705209348053093D6
:1050F000490537FD18C080912E0590912F05A0918C
:105100003005B091310548015901881A990AAA0A57
:10511000BB0AD501C4018093460590934705A0932F
:105120004805B093490540913A0550913B0560917F
:105130003C0570913D0580914A0590914B05A091E9
:105140004C05B0914D05480F591F6A1F7B1F4093B6
:105150004A0550934B0560934C0570934D0577FDC0
:1051600018C080912E0590912F05A0913005B09127
:1051700031054A015B01881A990AAA0ABB0AD501BE
:10518000C40180934A0590934B05A0934C05B093BE
:105190004D0540903E0550903F0560904005709051
:1051A000410580914E0590914F05A0915005B09119
:1051B0005105840D951DA61DB71D80934E05909336
:1051C0004F05A0935005B0935105B7FD18C040900E
:1051D0002E0550902F0560903005709031054C01E0
:1051E0005D0184189508A608B7082401350140928E
:1051F0004E0550924F056092500570925105E11195
:1052000004C0E0918400F0918500F7FC1CC0409040
:105210002905842C440C9908AA08BB0840908005F5
:10522000509081056090820570908305480C591C50
:105230006A1C7B1C40928005509281056092820519
:1052400070928305889A37FD1CC040902A05842CF3
:10525000440C9908AA08BB08409084055090850525
:105260006090860570908705480C591C6A1C7B1C51
:10527000409284055092850560928605709287055C
:105280008E9A77FD21C040902B05842C440C990800
:10529000AA08BB08409088055090890560908A054F
:1052A00070908B05480C591C6A1C7B1C4092880529
:1052B0005092890560928A0570928B05E0910B01EE
:1052C000E095E870E0930901B7FD28C040902C05F7
:1052D000842C440C9908AA08BB0840908C05509077
:1052E0008D0560908E0570908F05480C591C6A1CC6
:1052F0007B1C40928C0550928D0560928E057092B9
:105300008F05E0912D05E13009F421C208F41DC29A
:10531000E23009F41CC2E33009F419C2E0918400C0
:10532000F0918500E0918400F0918500F7FE889867
:1053300037FF8E9877FD05C020910B0128702093D0
:105340000901B7FD0DC080912D05813009F403C21C
:1053500008F4FFC1823009F4FEC1833009F4FBC1B7
:105360009980992021F08091840090918500298175
:1053700021502983E0E021116ACE80916D05909142
:105380006E05A0916F05B0917005892B8A2B8B2B30
:1053900009F08DC1E0917105F0917205309709F423
:1053A000A2C58091690590916A05A0916B05B091A5
:1053B0006C05409165055091660560916705709197
:1053C000680584179507A607B70708F4C6C11092A9
:1053D0007205109271051092640510926305909108
:1053E000CA108091CB10981709F47DC58091CB101D
:1053F0008F5F8F708093CB10B0EDCB2EB7E0DB2E9C
:10540000E12CF12C8091710590917205892B09F0A6
:1054100046C10E943C199093720580937105892BB7
:1054200009F43DC1E0917105F0917205808183FD21
:105430003CC5458956896789708D818C928CA38C77
:10544000B48CDF01AA5BBF4F2D913C9181E090E0CD
:10545000481559056A057B0509F041C590E080E0D3
:10546000411551056105710571F0B22FB170C90187
:1054700096958795A82FA17001E010E0BA1300E07F
:10548000C801BA132CC5C58CD68CE78CF0A0C1140A
:10549000D104E104F10409F08460909364058093E1
:1054A0006305109252051092530510925405109204
:1054B000550510925B0510925C0510925D051092E7
:1054C0005E0585A196A1A7A1B0A5809365059093DF
:1054D0006605A0936705B0936805442455243201FE
:1054E000481A590A6A0A7B0A4092420550924305BB
:1054F00060924405709245054092460550924705DA
:10550000609248057092490540924A0550924B05B9
:1055100060924C0570924D0540924E0550924F0599
:10552000609250057092510541A052A063A074A0F2
:10553000440C551C661C771C440F551F661F771FB3
:1055400040933205509333056093340570933505CD
:10555000880C991CAA1CBB1C8092360590923705BA
:10556000A0923805B0923905CC0CDD1CEE1CFF1C56
:10557000C0923A05D0923B05E0923C05F0923D0581
:1055800040923E0550923F05609240057092410561
:10559000880F991FAA1FBB1F80932E0590932F057C
:1055A000A0933005B09331051092690510926A05F9
:1055B00010926B0510926C0582A593A5A4A5B5A5C4
:1055C00080935F0590936005A0936105B093620599
:1055D00086A597A5A0A9B1A98093570590935805D2
:1055E000A0935905B0935A0541A540932D0580918C
:1055F0000B0690910C068217930721F480912D02DF
:10560000481739F040932D0230930C0620930B0677
:105610000DD814DC4FEF5FEFBA0140932E02509388
:105620002F026093300270933102E0917105F09186
:105630007205DF01DE96ED90FD900D911C9122A97F
:1056400033A944A955A9E45BFF4F60817181828130
:1056500093810E94C21610925605E0917105F09157
:105660007205E45BFF4F60817181828193810E94AA
:105670005B986B017C0180915B0590915C05A0912A
:105680005D05B0915E058C0D9D1DAE1DBF1D809307
:105690005B0590935C05A0935D05B0935E05C09299
:1056A0006D05D0926E05E0926F05F09270058091C5
:1056B0006D0590916E05A0916F05B0917005AC01DC
:1056C000BD01009721E0A207B10520F04FEF5FEF89
:1056D00060E070E0841B950BA60BB70B80936D0503
:1056E00090936E05A0936F05B0937005F894809128
:1056F00084009091850040963A8931503A8B33234B
:1057000009F4EFC3240E351E2816390608F436CCEA
:10571000309289002092880062960FB6F894DEBF1E
:105720000FBECDBFDF91CF911F910F91FF90EF90F2
:10573000DF90CF90BF90AF909F908F907F906F90B1
:105740005F904F903F902F900895149AE7CD419A23
:10575000E5CD149805CE419803CE40915F05509158
:1057600060056091610570916205481759076A07E5
:105770007B0708F4A2C140915B0550915C056091E4
:105780005D0570915E0586A997A9A0ADB1AD4817DA
:1057900059076A077B0708F08BC141155105610560
:1057A000710529F58091B9039091BA03A091BB03CB
:1057B000B091BC03BC012A2F9B2F822F0E945B98C3
:1057C0006B017C0180915B0590915C05A0915D056A
:1057D000B0915E058C0D9D1DAE1DBF1D80935B05B8
:1057E00090935C05A0935D05B0935E050BCEF0E051
:1057F000EA81CA01262FAB817C816D815E814F8158
:10580000B88539854091B503489F612D5527B091E2
:10581000B603B89F600D511D1090B703189E500D30
:10582000499F600D511DB99F500D429F500DA62FED
:10583000752FA69F412DBB273327A59F400DB11D76
:105840003F1F769F400DB11D3F1F759FB00D311D4D
:10585000AB2F732FA69FE12DBB273327A59FE00D0C
:10586000B11D3F1F769FE00DB11D3F1F759FB00D0D
:10587000311DAB2F732F44278091B9039091BA0348
:105880002091BB030090B4030F2A09F483C0B091A8
:10589000B003BA9F41198F0B9F0B2F0B3091B103AF
:1058A0003A9F401981099F0B2F0BE091B203EA9FA9
:1058B000801991092F0BB79F401981099F0B2F0B5E
:1058C000379F801991092F0BE79F90192109A69FF7
:1058D000E12DBB273327A59FE00DB11D3F1F769F0C
:1058E000E00DB11D3F1F759FB00D311DAB2F732F04
:1058F000B091AC03BA9F410D8F1F9F1F2F1F309196
:10590000AD033A9F400D811D9F1F2F1FE091AE03F5
:10591000EA9F800D911D2F1FB79F400D811D9F1F76
:105920002F1F379F800D911D2F1FE79F900D211D69
:10593000A69FE12DBB273327A59FE00DB11D3F1F7B
:10594000769FE00DB11D3F1F759FB00D311DAB2F30
:10595000732FB091A803BA9F41198F0B9F0B2F0B88
:105960003091A9033A9F401981099F0B2F0BE091B9
:10597000AA03EA9F801991092F0BB79F401981094B
:105980009F0B2F0B379F801991092F0BE79F9019C1
:10599000210982C0B091B003BA9F410D8F1F9F1F94
:1059A0002F1F3091B1033A9F400D811D9F1F2F1F64
:1059B000E091B203EA9F800D911D2F1FB79F400D0C
:1059C000811D9F1F2F1F379F800D911D2F1FE79F48
:1059D000900D211DA69FE12DBB273327A59FE00D2C
:1059E000B11D3F1F769FE00DB11D3F1F759FB00D8C
:1059F000311DAB2F732FB091AC03BA9F41198F0BA0
:105A00009F0B2F0B3091AD033A9F401981099F0BDB
:105A10002F0BE091AE03EA9F801991092F0BB79FDE
:105A2000401981099F0B2F0B379F801991092F0B6C
:105A3000E79F90192109A69FE12DBB273327A59F3A
:105A4000E00DB11D3F1F769FE00DB11D3F1F759FFB
:105A5000B00D311DAB2F732FB091A803BA9F410D2C
:105A60008F1F9F1F2F1F3091A9033A9F400D811D4B
:105A70009F1F2F1FE091AA03EA9F800D911D2F1FEA
:105A8000B79F400D811D9F1F2F1F379F800D911DB8
:105A90002F1FE79F900D211D1124EA83AB837C8388
:105AA0006D835E834F83B8873987B0E0A22F82CEA3
:105AB00062A973A924A995A980CE40915705509158
:105AC00058056091590570915A05481759076A079A
:105AD0007B0708F0C7C180915605811138C0DF01EE
