:100000000C94F2160C9432170C9432170C9432178D
:100010000C9432170C9432170C9432170C9432173C
:100020000C9432170C94E3910C94E3910C94E391AB
:100030000C9432170C9432170C9432170C9432171C
:100040000C9432170C94F2A40C9432170C943217BF
:100050000C9432170C94F6980C9432170C94F59675
:100060000C9432170C94E1420C94D7420C94321742
:100070000C9432170C9432170C9432170C943217DC
:100080000C94562F0C9432170C9432170C94321790
:100090000C9432170C9432170C9432170C943217BC
:1000A0000C9432170C9432170C94282F0C9432179E
:1000B0000C9432170C9432170C9432170C9432179C
:1000C0000C9432170C9432170C9432170C9432178C
:1000D0000C9432170C9432170C9432170C9432177C
:1000E0000C943217084AD73B3BCE016E84BCBFFD4F
:1000F000C12F3D6C74319ABD56833DDA3D00C77FF8
:1001000011BED9E4BB4C3E916BAAAABE0000008090
:100110003F05A84CCDB2D44EB93836A9020C50B91F
:10012000918688083CA6AAAA2ABE000000803F004B
:100130004E414E494E495459494E46CDCCCC3D0ACC
:10014000D7233C17B7D13877CC2B329595E6241FAF
:10015000B14F0A000020410000C84200401C462068
:10016000BCBE4CCA1B0E5AAEC59D7445315F53458B
:100170005249414C5F52585F50494E0045315F53E0
:10018000455249414C5F54585F50494E0045315FDC
:10019000444941475F50494E0045305F53455249FD
:1001A000414C5F52585F50494E0045305F534552B5
:1001B00049414C5F54585F50494E0045305F4449B7
:1001C00041475F50494E005A5F53455249414C5F89
:1001D00052585F50494E005A5F53455249414C5F57
:1001E00054585F50494E00595F53455249414C5F46
:1001F00052585F50494E00595F53455249414C5F38
:1002000054585F50494E00585F53455249414C5F26
:1002100052585F50494E00585F53455249414C5F18
:1002200054585F50494E005A5F4D494E5F50524FEF
:1002300042455F50494E005A5F53544F505F5049FA
:100240004E005A5F535445505F50494E005A5F4428
:100250004941475F50494E005A5F4D41585F5049F0
:100260004E005A5F454E41424C455F50494E005A40
:100270005F4449525F50494E00595F53544F505F9D
:1002800050494E00595F535445505F50494E0059F4
:100290005F444941475F50494E00595F4D41585FA7
:1002A00050494E00595F454E41424C455F50494EC2
:1002B00000595F4449525F50494E00585F53544FB4
:1002C000505F50494E00585F535445505F50494E5F
:1002D00000585F444941475F50494E00585F4D49BF
:1002E0004E5F50494E00585F454E41424C455F506D
:1002F000494E00585F4449525F50494E00534552A1
:10030000564F335F50494E00534552564F325F505F
:10031000494E00534552564F315F50494E005345A8
:1003200052564F305F50494E0053445353004D4F87
:10033000534645545F445F50494E004D4F53464528
:10034000545F435F50494E004D4F534645545F4202
:100350005F50494E004D4F534645545F415F5049F1
:100360004E0054454D505F305F43535F50494E003F
:100370004C45445F50494E004845415445525F4208
:1003800045445F50494E004845415445525F335FF4
:1003900050494E004845415445525F325F50494EE6
:1003A000004845415445525F315F50494E00484531
:1003B000415445525F305F50494E0046414E5F50B8
:1003C000494E0045335F535445505F50494E0045F8
:1003D000335F454E41424C455F50494E0045335FC7
:1003E0004449525F50494E0045325F535445505F77
:1003F00050494E0045325F454E41424C455F5049A1
:100400004E0045325F4449525F50494E0045315FCE
:10041000535445505F50494E0045315F454E41426F
:100420004C455F50494E0045315F4449525F504949
:100430004E0045305F535445505F50494E004530A3
:100440005F454E41424C455F50494E0045305F4448
:1004500049525F50494E004156525F53535F5049D5
:100460004E004156525F53434B5F50494E00415638
:10047000525F4D4F53495F50494E004156525F4DB8
:1004800049534F5F50494E0054454D505F424544DB
:100490005F50494E0054454D505F335F50494E0008
:1004A00054454D505F325F50494E0054454D505FAA
:1004B000315F50494E0054454D505F305F50494EBA
:1004C0000046494C57494454485F50494E005458DF
:1004D0004430005258443000434F4D4D554E49432F
:1004E0004154494F4E0044525952554E00455252C4
:1004F0004F525300494E464F004543484F00457206
:10050000726F722077726974696E6720746F20450C
:100510004550524F4D210A00363726033C3D380FD7
:100520002E303E13061A1C1824221E24221E2422BA
:100530001E0A3A07392F432D450408440001507222
:10054000696E7465722073746F7070656420647571
:100550006520746F206572726F72732E2046697801
:1005600020746865206572726F7220616E642075F8
:100570007365204D39393920746F20726573746149
:1005800072742E202854656D706572617475726581
:100590002069732072657365742E20536574206919
:1005A0007420616674657220726573746172746917
:1005B0006E67290A004E6F20436865636B73756D23
:1005C0002077697468206C696E65206E756D626550
:1005D000722C204C617374204C696E653A20006364
:1005E0006865636B73756D206D69736D61746368A5
:1005F0002C204C617374204C696E653A20004C6964
:100600006E65204E756D626572206973206E6F7421
:10061000204C617374204C696E65204E756D626567
:10062000722B312C204C617374204C696E653A201A
:10063000004D3131300053657269616C2073746113
:10064000747573206D69736D617463680A0021218C
:10065000204B494C4C20636175736564206279209E
:10066000746F6F206D75636820696E61637469765D
:10067000652074696D65202D2063757272656E74D6
:1006800020636F6D6D616E643A20006D41290A0030
:1006900020647269766572206F76657274656D701C
:1006A00065726174757265207761726E696E67211B
:1006B0002028003A20002063757272656E742064F1
:1006C000656372656173656420746F20006D4129F4
:1006D0000A0020647269766572206F7665727465AF
:1006E0006D7065726174757265207761726E696E86
:1006F00067212028003A20002063757272656E74AD
:100700002064656372656173656420746F20006D99
:1007100041290A0020647269766572206F766572DD
:1007200074656D7065726174757265207761726E43
:10073000696E67212028003A200020637572726577
:100740006E742064656372656173656420746F20E4
:10075000006D41290A0020647269766572206F7607
:10076000657274656D70657261747572652077610C
:10077000726E696E67212028003A20006D41290AB7
:100780000020647269766572206F76657274656D9B
:100790007065726174757265207761726E696E67DB
:1007A000212028003A2000627573793A2070617523
:1007B00073656420666F7220696E7075740A0062DA
:1007C0007573793A2070617573656420666F722065
:1007D000757365720A00627573793A2070726F637F
:1007E000657373696E670A006563686F3A004572E6
:1007F000726F723A004F4646004F4E0066616C734E
:100800006500747275650042696C696E656172207D
:100810004C6576656C696E6720477269643A0A00B8
:100820002568753A25303268750025303268753A8A
:1008300025303268750025303268752725303268DA
:100840007500256875642025303268753A25303288
:10085000687500447269766572206572726F720005
:10086000636F696C2073686F72742063697263755B
:1008700069740A006F76657274656D706572617473
:100880007572650A002064726976657220657272FD
:100890006F722064657465637465643A2030780013
:1008A0004C4F570048494748004F4B004572726F04
:1008B000723A20416C6C200020636F6E6E65637429
:1008C000696F6E2E2E2E200054657374696E67203A
:1008D000004C4F570048494748004F4B0045727243
:1008E0006F723A20416C6C200020636F6E6E6563FE
:1008F00074696F6E2E2E2E200054657374696E67B6
:1009000020004C4F570048494748004F4B00457264
:10091000726F723A20416C6C200020636F6E6E65BE
:100920006374696F6E2E2E2E200054657374696E89
:100930006720004C4F570048494748004F4B00453F
:1009400072726F723A20416C6C200020636F6E6E81
:10095000656374696F6E2E2E2E2000546573746962
:100960006E6720004C4F570048494748004F4B00E6
:100970004572726F723A20416C6C200020636F6E7A
:100980006E656374696F6E2E2E2E2000546573742D
:10099000696E672000426564204C6576656C696EFF
:1009A0006720004661696C656420746F20656E6124
:1009B000626C6520426564204C6576656C696E6783
:1009C0000A00496E76616C6964206D6573682E0A51
:1009D000002E0A002F0050726F62696E67206D65ED
:1009E000736820706F696E74200020284452595239
:1009F000554E2900473239204175746F2042656495
:100A0000204C6576656C696E67003F20284C2C523F
:100A10002C462C4229206F7574206F6620626F75FA
:100A20006E64732E0A003F2856296572626F7365E3
:100A3000206C6576656C20696D706C617573696298
:100A40006C652028302D34292E0A00426164205A1A
:100A50002076616C75650A004E6F2062696C696E64
:100A600065617220677269640A0020440020204D8D
:100A700032303020540020204D32303020530020BE
:100A80002844697361626C6564293A0046696C6147
:100A90006D656E742073657474696E6773002020D1
:100AA0004D3230312058004D617820416363656CD0
:100AB00065726174696F6E2028756E6974732F7327
:100AC00032290020204D3230332058004D617820EB
:100AD0006665656472617465732028756E697473E8
:100AE0002F73290020520020204D32303420500036
:100AF000416363656C65726174696F6E2028756E01
:100B00006974732F7332292028503C7072696E7497
:100B10002D616363656C3E20523C72657472616343
:100B2000742D616363656C3E20543C74726176651C
:100B30006C2D616363656C3E2900205400205300D6
:100B400020204D323035204200416476616E63656D
:100B5000642028423C6D696E5F7365676D656E74D5
:100B60005F74696D655F75733E20533C6D696E5FA0
:100B700066656564726174653E20543C6D696E5FA4
:100B800074726176656C5F66656564726174653EFA
:100B900020583C6D61785F6A65726B3E20593C6DF0
:100BA00061785F6A65726B3E205A3C6D61785F6A5E
:100BB00065726B3E20453C6D61785F6A65726B3E85
:100BC000290020204D32313700546F6F6C2D63683F
:100BD000616E67696E670020204D32313820540005
:100BE000486F74656E64206F666673657473002069
:100BF000440020490020204D333031205000486F00
:100C000074656E64205049440050574D3A202025A9
:100C100034640050574D3A20202534640050574D1D
:100C20003A20202534640050574D3A202025346462
:100C30000050574D3A20202534640050574D3A203B
:100C4000202534640050574D3A202025346400504C
:100C5000574D3A20202534640050574D3A20202526
:100C600034640050574D3A20202534640050574DCD
:100C70003A20202534640050574D3A202025346412
:100C80000050574D3A20202534640050574D3A20EB
:100C9000202534640050574D3A20202534640050FC
:100CA000574D3A2020253464003A2000202020208F
:100CB000434F4D002020206E6F6E2D7374616E6463
:100CC0006172642050574D206D6F646500202020B4
:100CD000636F6D7061726520696E74657272757094
:100CE0007420656E61626C6564002020206F7665FB
:100CF00072666C6F7720696E74657272757074209D
:100D0000656E61626C6564003A20002020202054EA
:100D1000494D534B00423A200020202020544343A9
:100D20005200413A2000202020205443435200200A
:100D300020202043533A20002020202057474D3ABE
:100D4000200050574D3A20202534640050574D3A2A
:100D500020202534640047004800000088008A00F5
:100D60008C00B300B400000098009A009C00A8001A
:100D7000AA00AC0028012A012C012020202054497F
:100D80004D455200440045006E00800081006F0018
:100D9000B000B1007000900091007100A000A100AF
:100DA000720020012101730020697320616C736F50
:100DB000207469656420746F207468697320706999
:100DC0006E0054494D45523143000A202E00202028
:100DD000002020506F72743A200020202000202034
:100DE00020416E616C6F6720696E203D2025356C57
:100DF00064003C756E757365642F756E6B6E6F77EE
:100E00006E3E0020284125326429202000253364CD
:100E1000200050494E3A20004F7574707574203D83
:100E20002000496E70757420203D2000416E616C79
:100E30006F6720696E203D2025356C640070726FED
:100E4000746563746564200020284125326429207C
:100E50002000253364200050494E3A2000D304007E
:100E600001CE040101C1043B00B6043A00AB0439D1
:100E700000A004430095044500880444007B04322C
:100E8000016E04330162043401570435014C041C23
:100E9000013E04180132041A012704220119041E1C
:100EA000010D04240102042201F4031E01E80324BD
:100EB00001DD032201CF031E01C3032401BB030490
:100EC00001AE030A01A103070194032F0187032D3B
:100ED000017803080170030D016203420155030A02
:100EE00001480307013B0308012E030701290335CD
:100EF000011E030B011303150108032701FD022046
:100F000001F3023701E6022601DC020301D10203EC
:100F100001C6023601BB020301B1023D01A4023841
:100F2000019A020F018F020E0184023C0179020F27
:100F3000016F02300162023E01580213014D02129C
:100F40000142022E0137021301270206011702286F
:100F50000107023F01F7013B01E7014001D7012AE8
:100F600001C7014101BB010201AA012C0199014203
:100F7000018D010F017C0114016B010C01446F6EA6
:100F8000652E0A0050756C73696E6720202000552D
:100F90006E746F756368656420005A5F50524F42EB
:100FA000455F534552564F5F4E52206E6F7420730B
:100FB00065742075702E0A005761746368696E67E6
:100FC0002070696E730A0064697300656E00616267
:100FD0006C65640A00656E6473746F70206D6F6E6B
:100FE00069746F722000616C736F20656E61626C52
:100FF0006564290A002E0A00206E6F7420646973EC
:1010000061626C65642E2053686172656420776943
:1010100074680020204D61783A2000200020204D87
:10102000696E3A2000203B200020204D32313120D3
:101030005300536F667420656E6473746F70730031
:101040007370726561644379636C65007374656184
:101050006C746843686F70002064726976657220F2
:101060006D6F64653A0900737072656164437963FA
:101070006C6500737465616C746843686F70002000
:10108000647269766572206D6F64653A09007370E9
:10109000726561644379636C6500737465616C7437
:1010A0006843686F700020647269766572206D6FA6
:1010B00064653A09007370726561644379636C65B5
:1010C00000737465616C746843686F7000206472AB
:1010D00069766572206D6F64653A09007370726598
:1010E00061644379636C6500737465616C74684313
:1010F000686F700020647269766572206D6F646538
:101100003A0900202E68737472743A2000202E6809
:10111000656E643A20002063686F70706572202EDF
:10112000746F66663A2000202E68737472743A20D9
:1011300000202E68656E643A20002063686F70702E
:101140006572202E746F66663A2000202E687374D4
:1011500072743A2000202E68656E643A2000206385
:10116000686F70706572202E746F66663A2000207A
:101170002E68737472743A2000202E68656E643A8B
:1011800020002063686F70706572202E746F666631
:101190003A2000202E68737472743A2000202E6862
:1011A000656E643A20002063686F70706572202E4F
:1011B000746F66663A20003F53206F7574206F6627
:1011C0002072616E67652028312E2E38290A003F73
:1011D00050206F7574206F662072616E67652028DD
:1011E0002D332E2E3132290A003F4F206F75742087
:1011F0006F662072616E67652028312E2E31352989
:101200000A003B200020496E76616C696420657895
:10121000747275646572200047322F473320626113
:101220006420706172616D65746572730A00473283
:101230003800205A3A200020593A200042656420A4
:10124000583A20004D65736820706F696E74206F86
:101250007574206F662072616E67650A005072694E
:101260006E742074696D653A20000A53746174735A
:101270003A2046696C616D656E7420757365643AD9
:1012800020002C204C6F6E67657374206A6F623A81
:101290002000546F74616C2074696D653A200053AE
:1012A000746174733A20002C204661696C65643A5D
:1012B00020002C2046696E69736865643A200050EE
:1012C00072696E74733A200053746174733A20002B
:1012D0006F6B006F666600F904F404ED04E604D851
:1012E0000444454255473A004D3131322053687528
:1012F00074646F776E004D3131332053002F2F000F
:101300005741524E494E4721204C6F77205A204A70
:1013100065726B206D6179206C65616420746F204B
:10132000756E77616E746564207061757365732E78
:101330000A0046523A0020466C6F773A20003A2065
:101340000020536572766F2000206F7574206F66E1
:101350002072616E67650A00536572766F200050D7
:10136000726F6265204F6666736574205A00507212
:101370006F6265204F6666736574205A00496E7609
:10138000616C69642065787472756465720A0064C2
:10139000697300656E0043290A0061626C65642010
:1013A000286D696E2074656D702000436F6C642039
:1013B00065787472756465732061726520004D34C0
:1013C000323120696E636F7272656374207061726E
:1013D000616D657465722075736167650A004D659E
:1013E000736820706F696E74206F7574206F66204B
:1013F00072616E67650A00546F6F206661722066C5
:10140000726F6D207265666572656E636520706FC0
:10141000696E740A00454550524F4D204F4B0A00EB
:10142000290A0020746F20003F5A206F7574206FC6
:10143000662072616E6765202800290A0020746F9B
:1014400020003F59206F7574206F662072616E67AF
:101450006520282D00290A0020746F20003F5820A5
:101460006F7574206F662072616E676520282D008D
:10147000206472697665722063757272656E743A63
:101480002000206472697665722063757272656EE1
:10149000743A2000206472697665722063757272F6
:1014A000656E743A200020647269766572206375F7
:1014B0007272656E743A20002064726976657220DB
:1014C00063757272656E743A20002074656D706584
:1014D000726174757265207072657761726E2074C6
:1014E00072696767657265643A20002074656D7083
:1014F00065726174757265207072657761726E20B5
:101500007472696767657265643A20002074656D5E
:101510007065726174757265207072657761726E44
:10152000207472696767657265643A20002074658B
:101530006D70657261747572652070726577617225
:101540006E207472696767657265643A2000207462
:10155000656D706572617475726520707265776112
:10156000726E207472696767657265643A20002044
:101570007072657761726E20666C616720636C655E
:10158000617265640A00207072657761726E206610
:101590006C616720636C65617265640A002070721B
:1015A000657761726E20666C616720636C6561723D
:1015B00065640A00207072657761726E20666C61E6
:1015C0006720636C65617265640A002070726577DC
:1015D00061726E20666C616720636C656172656420
:1015E0000A006F6B0020204D323036205800486FC3
:1015F0006D65206F6666736574004361703A0043E1
:101600004F4E4649475F4558504F5254004D454153
:10161000545041434B00434F4F4C45525F54454D4E
:101620005045524154555245004348414D42455260
:101630005F54454D50455241545552450042414238
:10164000595354455050494E470041524353004D61
:101650004F54494F4E5F4D4F4445530054484552F7
:101660004D414C5F50524F54454354494F4E0045F5
:101670005854454E4445445F4D3230004355535411
:101680004F4D5F4649524D574152455F55504C4F63
:101690004144004C464E5F5752495445004C4F4E12
:1016A000475F46494C454E414D45004155544F52C8
:1016B00045504F52545F53445F5354415455530067
:1016C00053445F57524954450052455045415400D8
:1016D0005344434152440050524F4D50545F535570
:1016E00050504F525400484F53545F414354494F58
:1016F0004E5F434F4D4D414E445300454D4552477B
:10170000454E43595F504152534552004341534562
:101710005F4C494748545F4252494748544E4553ED
:101720005300544F47474C455F4C4947485453007A
:10173000534F4654574152455F504F574552004210
:1017400055494C445F50455243454E54004C455614
:10175000454C494E475F44415441005A5F50524FF7
:1017600042450052554E4F5554004155544F4C453B
:1017700056454C005052494E545F4A4F4200505219
:101780004F4752455353004155544F5245504F52C5
:10179000545F54454D50004155544F5245504F529F
:1017A000545F504F5300564F4C554D45545249438A
:1017B00000454550524F4D0042494E4152595F46F7
:1017C000494C455F5452414E534645520053455291
:1017D00049414C5F584F4E5F584F4646004649526C
:1017E0004D574152455F4E414D453A4D61726C69CE
:1017F0006E206275676669782D322E302E7820282B
:101800004A756E20313620323032322031323A324F
:10181000353A33362920534F555243455F434F44A1
:10182000455F55524C3A6769746875622E636F6DF7
:101830002F4D61726C696E4669726D776172652FAA
:101840004D61726C696E2050524F544F434F4C5F44
:1018500056455253494F4E3A312E30204D41434860
:10186000494E455F545950453A566F6C74657272D3
:1018700061204475616C2032345620554152542009
:101880006A756D70657273207769746820544D4372
:1018900032323039206F6E204D4B532047656E4CED
:1018A0002076322E312045585452554445525F43DC
:1018B0004F554E543A3420555549443A6365646552
:1018C000326132662D343161322D343734382D395E
:1018D0006231322D633535633632663336376666AC
:1018E0000A00203B0020204D3835312058005A2D69
:1018F00050726F6265204F66667365740025697368
:101900000025696D20256973002569682025696DAA
:101910002025697300256964202569682025696D83
:101920002025697300256979202569642025696867
:101930002025696D202569730020573A0020573A09
:101940000023646566696E652044454641554C54E4
:101950005F004B6420004B6920004B702000504911
:1019600044204175746F74756E652066696E697385
:10197000686564212050757420746865206C6173FB
:1019800074204B702C204B6920616E64204B6420C6
:10199000636F6E7374616E74732066726F6D206214
:1019A000656C6F7720696E746F20436F6E66696730
:1019B00075726174696F6E2E680A00504944204147
:1019C00075746F74756E65206661696C656421203D
:1019D00074696D656F75740A0050494420417574CF
:1019E0006F74756E65206661696C6564212054654D
:1019F0006D706572617475726520746F6F206869AF
:101A000067680A00204B643A2000204B693A2000A6
:101A1000204B703A200020436C617373696320503F
:101A20004944200A002054753A2000204B753A2082
:101A300000206D61783A2000206D696E3A20002008
:101A4000643A200020626961733A200050494420C2
:101A50004175746F74756E652073746172740A00D9
:101A6000504944204175746F74756E6520666169D4
:101A70006C6564212054656D706572617475726562
:101A800020746F6F20686967680A005049442041DC
:101A900075746F74756E65206661696C656421206C
:101AA000426164206865617465722069640A006F30
:101AB00070656E00545249474745524544003A20EC
:101AC000007A5F70726F6265007A5F6D617800798D
:101AD0005F6D617800785F6D696E005265706F723E
:101AE00074696E6720656E6473746F7020737461BF
:101AF0007475730A000080C5430000C8430000D21B
:101B00004300000000000000000000000020746F8F
:101B10006F206C6F6E6720657874727573696F6E75
:101B20002070726576656E7465640A0020636F6C60
:101B30006420657874727573696F6E207072657653
:101B4000656E7465640A00000020C20000C843008E
:101B500000D2435761726E696E673A20486F6D69B3
:101B60006E672042756D702044697669736F7220CC
:101B70003C20310A000202040080C5430000C84333
:101B80000000D2430000A0400000A0400000004040
:101B900000000001000000010000800055555500C4
:101BA0000000400033333300AAAA2A0049922400DF
:101BB00000002000C7711C0099991900D145170039
:101BC000555515003BB113002449120011111100A5
:101BD000000010000F0F0F00E3380E0043790D00D6
:101BE000CCCC0C00C3300C00E8A20B0064210B002D
:101BF000AAAA0A00703D0A009DD80900427B09008C
:101C000092240900DCD308008888080010420800EC
:101C100000000800F0C10700878707007550070023
:101C2000711C07003EEB0600A1BC0600699006008F
:101C300066660600703E06006118060017F405008F
:101C400074D105005BB00500B2900500627205001A
:101C50005555050078390500B81E05000505050035
:101C60004EEC040087D40400A1BD040090A704003A
:101C700049920400C17D0400EE690400C7560400C7
:101C8000444404005C3204000821040041100400B4
:101C9000000004003FF00300F8E0030026D2030038
:101CA000C3C30300CCB503003AA803000A9B03009A
:101CB000388E0300C08103009F750300D0690300C4
:101CC000505E03001D53030034480300913D0300A0
:101CD0003333030016290300381F03009715030050
:101CE000300C0300030303000BFA020049F1020069
:101CF000BAE802005CE002002DD802002DD00200FC
:101D000059C80200B0C0020031B90200DAB10200C5
:101D1000AAAA0200A0A30200BC9C0200FA9502003D
:101D20005C8F0200DF88020082820200457C020094
:101D30002776020027700200436A02007C640200DA
:101D4000D05E02003F590200C8530200FFFDFCFABA
:101D5000F8F6F4F2F0EEECEAE9E7E5E3E1E0DEDCE8
:101D6000DAD9D7D5D4D2D0CFCDCBCAC8C7C5C3C294
:101D7000C0BFBDBCBAB9B7B6B4B3B2B0AFADACAA10
:101D8000A9A8A6A5A4A2A1A09E9D9C9A9998979562
:101D9000949392908F8E8D8B8A8988878684838294
:101DA00081807F7E7D7B7A797877767574737271A6
:101DB000706F6E6D6C6B6A6968676665646362619B
:101DC000605F5E5D5C5B5A59585857565554535284
:101DD0005150504F4E4D4C4B4A4A49484746464554
:101DE0004443424241403F3E3E3D3C3B3B3A393812
:101DF0003837363535343332323130302F2E2E2DC0
:101E00002C2B2B2A29292827272625252423232262
:101E1000212120201F1E1E1D1C1C1B1B1A191918F6
:101E200018171616151514131312121111100F0F7F
:101E30000E0E0D0D0C0C0B0A0A09090808070706FF
:101E400006050504040303020201000020746F6FFD
:101E5000206C6F6E6720657874727573696F6E2081
:101E600070726576656E7465640A0020636F6C64D9
:101E700020657874727573696F6E2070726576650F
:101E80006E7465640A00290A002062797465733BE8
:101E900020637263200053657474696E6773205306
:101EA000746F726564202800454550524F4D20499B
:101EB0006E697469616C697A65640A00486172646C
:101EC000636F6465642044656661756C7420536556
:101ED0007474696E6773204C6F61646564002028B8
:101EE0006D6D2900203B204C6576656C696E67201E
:101EF0000020204D3432302053004175746F204251
:101F00006564204C6576656C696E670020204D39EC
:101F100030360020543120450020543020450053F5
:101F2000746570706572206472697665722063757D
:101F30007272656E740020204D35363920533100A1
:101F40005431204500543020450020580044726927
:101F5000766572207374657070696E67206D6F644A
:101F60006500204A002020473239205720490020B0
:101F7000204D3134392043203B20556E6974732045
:101F8000696E2043656C736975730A0054656D70E2
:101F90006572617475726520556E697473002020D6
:101FA000473231203B004C696E65617220556E6985
:101FB000747300454550524F4D20646174617369DC
:101FC0007A65206572726F722E0A00290A002062FB
:101FD000797465733B2063726320002073746F72A1
:101FE00065642073657474696E67732072657472BA
:101FF0006965766564202800202863616C63756CD0
:102000006174656429210A0020213D200045455066
:10201000524F4D20435243206D69736D6174636864
:10202000202D202873746F72656429200020536965
:102030007A653A2000496E6465783A2000000048CD
:1020400043000048430000A041000034420000C8A3
:10205000420000C842F0F7FB4300000C43DC0500DF
:1020600000DC0500006400000010270000204D6126
:10207000726C696E3D563836290A00454550524FFC
:102080004D2076657273696F6E206D69736D617432
:1020900063682028454550524F4D3D0024F4D4300C
:1020A00050C38E20C2A24017828B7011127A910DFC
:1020B000816CD90AA861E108C758660761514306D7
:1020C0001E4B5D05C145A7041A411104093D980343
:1020D000713931034036DB0265339102D43054024A
:1020E000802E1D02632CEE01752AC501B028A001C7
:1020F000102781018F2564012B244B01E02234013C
:10210000AC211F018D200D01801FFC00841EED00FD
:10211000971DDF00B81CD200E61BC600201BBC00C8
:10212000641AB200B219A8000A19A0006A1899002E
:10213000D117910040178B00B516840031167E0030
:10214000B31579003A157300C7146F0058146A006C
:10215000EE1366008813630025135E00C7125B0050
:102160006C12570015125400C111510070114F002C
:1021700021114B00D61049008D1047004610440035
:1021800002104200C00F4000800F3E00420F3C0092
:10219000060F3B00CB0E3800930E37005C0E350067
:1021A000270E3400F30D3200C10D3100900D3000C8
:1021B000600D2E00320D2D00050D2C00D90C2B00CA
:1021C000AE0C2900850C29005C0C2700350C27007B
:1021D0000E0C2600E80B2400C40B2400A00B2300E7
:1021E0007D0B23005A0B2100390B2100180B200016
:1021F000F80A1F00D90A1E00BB0A1E009D0A1D0016
:10220000800A1D00630A1C00470A1B002C0A1B00E1
:10221000110A1A00F7091A00DD091900C40919008A
:10222000AB091900920917007B0918006309170010
:102230004C09160036091600200916000A09150077
:10224000F5081500E0081400CC081400B8081400C4
:10225000A4081400900813007D0812006B081300F6
:102260005808120046081200340811002308110013
:102270001208110001081100F0071000E00710001B
:10228000D0071000C0071000B0070F00A107100012
:1022900091070E0083070F0074070F0065070E00FB
:1022A00057070E0049070E003B070D002E070E00D2
:1022B00020070D0013070D0006070D00F9060C009E
:1022C000ED060D00E0060C00D4060C00C8060C005C
:1022D000BC060C00B0060C00A4060B0099060C000E
:1022E0008D060B0082060B0077060B006C060B00B8
:1022F00061060A0057060B004C060A0042060A0057
:1023000038060A002E060A0024060A001A060A00E9
:102310001006090007060A00FD050900F40509007A
:10232000EB050900E2050900D9050900D0050900FF
:10233000C7050900BE050900B5050800AD05080080
:10234000A50509009C050800940508008C050800F7
:10235000840508007C050800740508006C0507006A
:10236000650508005D050700560508004E050700D5
:10237000470507004005080038050700310507003C
:102380002A050700230507001C050600160507009F
:102390000F0507000805060002050700FB040600FC
:1023A000F5040700EE040600E8040600E204070056
:1023B000DB040600D5040600CF040600C9040600AD
:1023C000C3040600BD040600B7040600B1040500FE
:1023D000AC040600A6040600A00405009B04060049
:1023E00095040500900406008A0405008504050094
:1023F000800406007A0405007504050070040500D9
:102400006B04050066040500610405005C0405001A
:1024100057040500520405004D040500480405005A
:10242000430405003E0404003A0405003504050099
:10243000300404002C0405002704040023040500D4
:102440001E0404001A04040016040500110404000C
:102450000D04040009040500040404000004040041
:10246000FC030400F8030400F4030400F003040078
:10247000EC030400E8030400E4030400E0030400A8
:10248000DC030400D8030400D4030400D0030400D8
:10249000CC030400C8030300C503030024F404D9DB
:1024A000201BC40C5C0E9804C4095F02650771010F
:1024B000F405F900FB04B30048048700C103690078
:1024C0005803550003034500BE023A008402310060
:1024D00053022A002902250004022000E4011C0006
:1024E000C8011900AF0117009801140084011300FE
:1024F000710110006101100051010E0043010D0037
:1025000036010B002B010B0020010B001501090007
:102510000C01090003010800FB000800F30008009B
:10252000EB000700E4000600DE000600D80006000D
:10253000D2000600CC000500C7000500C20005005F
:10254000BD000400B9000400B5000400B10004009F
:10255000AD000400A9000400A5000300A2000300D0
:102560009F0004009B0003009800030095000200F8
:1025700093000300900003008D0002008B00030015
:10258000880002008600020084000300810002002F
:102590007F0002007D0002007B0002007900020043
:1025A0007700010076000200740002007200010052
:1025B000710002006F0002006D0001006C0002005B
:1025C0006A00010069000200670001006600010066
:1025D000650001006400020062000100610001006A
:1025E000600001005F0002005D0001005C0001006E
:1025F0005B0001005A000100590001005800010071
:102600005700010056000100550001005400010070
:10261000530000005300010052000100510001006E
:10262000500001004F0001004E0000004E0001006C
:102630004D0001004C0001004B0000004B00010068
:102640004A00010049000100480000004800010064
:102650004700010046000000460001004500000060
:102660004500010044000100430000004300010058
:102670004200000042000100410000004100010052
:10268000400001003F0000003F0001003E0000004C
:102690003E0001003D0000003D0001003C00000044
:1026A0003C0000003C0001003B0000003B0001003A
:1026B0003A0000003A000100390000003900010032
:1026C000380000003800000038000100370000002A
:1026D000370001003600000036000000360001001F
:1026E0003500000035000000350001003400000016
:1026F000340000003400010033000000330000000B
:1027000033000100320000003200000032000100FE
:1027100031000000310000003100010030000000F5
:1027200030000000300001002F0000002F000000EA
:102730002F0000002F0001002E0000002E000000DE
:102740002E0001002D0000002D0000002D000000D3
:102750002D0001002C0000002C0000002C000000C7
:102760002C0001002B0000002B0000002B000000BB
:102770002B0001002A0000002A0000002A000000AF
:102780002A000100290000002900000029000000A3
:102790002900000029000100280000002800000096
:1027A0002800000028000000280001002700000089
:1027B000270000002700000027000000270001007C
:1027C0002600000026000000260000002600000071
:1027D0002600010025000000250000002500000063
:1027E0002500000025000000250001002400000055
:1027F0002400000024000000240000002400010048
:10280000230000002300000023000000230000003C
:10281000230000002300000023000100220000002C
:102820002200000022000000220000002200000020
:102830002200010021000000210000002100000012
:102840002100000021000000210000002100010003
:1028500020000000200000002000000020000000F8
:1028600020000000200000002000000020000100E7
:102870001F0000001F0000001F0000001F000000DC
:102880001F0000001F0000001F0001001E000000CC
:102890001E0000001E0000001E0000003930000075
:1028A0003325000087190000B00F0000DB0800008E
:1028B000BD040000740200003F010000423A002005
:1028C000436F756E7420413A004500626564002CC8
:1028D0002073797374656D2073746F7070656421F3
:1028E000204865617465725F49443A20004865611B
:1028F00074696E67204661696C656400486561743F
:10290000696E67206661696C6564004572723A2081
:102910004D415854454D50004D415854454D50205F
:10292000747269676765726564004572723A204D1A
:10293000494E54454D50004D494E54454D5020741C
:10294000726967676572656400544845524D414C31
:102950002052554E4157415900546865726D616C63
:102960002052756E61776179000A0A0020205A5F53
:102970004D494E5F50524F42453A0020205A5F4D1C
:1029800041583A002020595F4D41583A00202058C4
:102990005F4D494E3A00202F002040002042403A2F
:1029A0000020403A00496E76616C69642065787455
:1029B00072756465720A00416374697665204578B2
:1029C0007472756465723A20001000600350012C27
:1029D0000190012201D001180110020E01700204C1
:1029E00001E002FA006003F0000004E600B004DC3D
:1029F00000A005D200B006C8000008BE00A009B4BF
:102A000000800BAA00D00DA00090109600C0138C7F
:102A10000070178200901B780010206E00C02464A4
:102A200000E02D500080353C00A03A2800A03D1465
:102A300000003F0000A03FECFF00000000300E014E
:102A400000C00E0A00500F1400D00F1E00601028A6
:102A500000E010320070113C00F01146007012507E
:102A60000000135A008013640000146E0090147864
:102A7000001015820090158C00101696009016A07C
:102A8000001017AA009017B4001018BE009018C8C4
:102A9000001019D2009019DC00101AE600801AF01C
:102AA00000001BFA00801B0401F01B0E01701C18B3
:102AB00001F01C2201601D2C01E01D3601501E405A
:102AC00001D01E4A01401F5401B01F5E0130206832
:102AD00001A020720110217C01902186010022902A
:102AE000016026F401902A5802802EBC0250322048
:102AF00003E03584035039E803803C4C0420205027
:102B00006C616E6E65724275666665724279746557
:102B1000733A20002046726565204D656D6F7279AD
:102B20003A200020436F6D70696C65643A204A75E5
:102B30006E20313620323032320A00204C617374FC
:102B400020557064617465643A20323032322D3021
:102B5000332D3134207C20417574686F723A2028FF
:102B6000467261636B74616C20576F726B732C20BB
:102B700064656661756C7420636F6E666967290AA7
:102B8000004D61726C696E206275676669782D32DE
:102B90002E302E780A0020536F667477617265209C
:102BA00052657365740A00205761746368646F67C7
:102BB0002052657365740A002042726F776E206F31
:102BC00075742052657365740A00204578746572C7
:102BD0006E616C2052657365740A00506F77657280
:102BE00055700A0073746172740A0020503A002014
:102BF0005A3A0020593A0020583A00656E647374BE
:102C00006F7073206869743A20000000210024006E
:102C100027002A002D0030003300010100000401CC
:102C200007010A0100000A0B02090C0D0E08070338
:102C3000040100000000000000000000000000008F
:102C40000000000000000000000000000000000084
:102C50001211100000000000000000000000000041
:102C60000000000000000000000000002000230021
:102C7000260029002C002F00320000010000030173
:102C80000601090100002200250028002B002E006B
:102C90003100340002010000050108010B010505A7
:102CA0000505070508080808020202020A0A0808C2
:102CB00004040404010101010101010103030303F0
:102CC00003030303040707070C0C0C0C0C0C0C0C7F
:102CD0000202020206060606060606060B0B0B0B90
:102CE0000B0B0B0B010210202008081020401020B5
:102CF00040800201020108040201010204081020C0
:102D000040808040201008040201800402018040BD
:102D10002010080402010804020101020408102026
:102D200040800102040810204080486F6D696E6782
:102D3000204661696C656400FF010150726F626931
:102D40006E67204661696C65640A00205A3A20006B
:102D500020593A200042656420583A2000220A0097
:102D6000556E6B6E6F776E20636F6D6D616E643A3A
:102D7000202200204500205A0020590020204D39F3
:102D80003220580053746570732070657220756E20
:102D9000697400486F6D652025732573257320467F
:102DA000697273740020453A00205A3A0020593A5B
:102DB00000583A006F6B0A00526573656E643A20E2
:102DC000005072696E7465722068616C7465642E5F
:102DD000206B696C6C28292063616C6C6564210A26
:102DE0000000F8B711241FBECFEFD1E2DEBFCDBF88
:102DF00000E00CBF84B78093D91114BE0FB6F894CD
:102E0000A8958091600088618093600010926000B6
:102E10000FBE13E0A0E0B2E0E8E0FDE901E00BBF87
:102E200002C007900D92A03BB107D9F721E1A0EBBA
:102E3000B3E001C01D92A93DB207E1F716E1C2EF70
:102E4000D6E100E006C021970109802FFE010E9413
:102E50004CCBC13FD10780E00807A9F70E9428BAF0
:102E60000C9482CE0C9400009F92AF92BF92CF92AE
:102E7000DF92EF92FF920F931F93CF93DF9300D0D7
:102E80001F921F92CDB7DEB7ECE4FDE10027BB2710
:102E9000462F572FA82FAA2341F4A52F542FB85FF0
:102EA000AA2319F4A52F5527B85FA03138F45295FD
:102EB000A295452F4F70507FA42BBC5FA03428F4FF
:102EC000550FAA1F550FAA1FBE5FA03818F4550F43
:102ED000AA1FB395550FAA1FEA0FF01F449151E0A6
:102EE000AA27B85079F1C0F0B0FF02C0440F551FB7
:102EF000B1FF04C0440F551F440F551FB2FF06C059
:102F000052954295142F1F70407F512BB3FF1AC06A
:102F1000A52F542F442716C0B195B0FF02C0559578
:102F20004795B1FF04C05595479555954795B2FF14
:102F300005C05295407F4295452B5F70B3FF02C09C
:102F4000452F5527DD24CC24BB24B2E0649FD01844
:102F5000C108B00AB00B749FC018B108B00B849FB1
:102F6000B018B109659FC018B108B00B759FB018B3
:102F7000B109859FB0196A9FB018B1097A9FB0193D
:102F80004D9DA12C99243327992722275D9DA00CC4
:102F9000911C301F901F201FAD9D900C311D901F64
:102FA000201F4C9DA00C911C301F901F201F5C9D6A
:102FB000900C311D901F201FAC9D300D911D201FC6
:102FC0004B9D900C311D901F201F5B9D300D911D5E
:102FD000201FAB9D900D211D4B9F300D911D201F7B
:102FE0005B9F900D211DAB9F200DB1E0BB24CC2435
:102FF000DD24639FD018C108B00AB00B739FC018BE
:10300000B108B00B839FB018B109699FC018B1080F
:10301000B00B799FB018B109899FB019629FB018A1
:10302000B109729FB019D61AC70AB80A20F0B1E0E8
:103030003B0F901F201F1124792F632F90E0822FC8
:103040000F900F900F900F900F90DF91CF911F91E5
:103050000F91FF90EF90DF90CF90BF90AF909F9037
:103060000895AF92BF92CF92DF92EF92FF920F93AB
:103070001F93CF93DF93CCE6DDE002E714E08CE70B
:10308000A82E8DE0B82EC12CD12C7601C394699165
:103090007991899199910E94ECC6288939894A8948
:1030A0005B890E944DC70E94D4CCF8016193719353
:1030B000819391938F01C616D706E806F90610F49E
:1030C0006B017C01AC16BD0611F76FEF7FEFCB01F2
:1030D000A70196010E94C2CA209382043093830400
:1030E0004093840450938504DF91CF911F910F91F9
:1030F000FF90EF90DF90CF90BF90AF9008957F92B8
:103100008F929F92AF92BF92CF92DF92EF92FF92F7
:103110000F931F93CF93DF9370904D0ACEE5D4E0C9
:103120009FE1C92E92E0D92E27E2E22E22E0F22E74
:103130000DE31AE0772009F45EC0F80180809180E9
:10314000A280B38020E030E0A901C501B4010E9453
:10315000E8C6882309F44FC020E030E040E05FE398
:10316000C501B4010E944DC79B01AC010E944DC72F
:103170002BED3FE049E450E40E944DC79B01AC01B8
:1031800060E070E080E89FE30E9467CC4B015C0147
:1031900089929992A992B992F601619171916F0108
:1031A000072E000C880B990B0E94EEC62AE037ED23
:1031B00043E25CE30E944DC7A50194010E944DC704
:1031C000F70161937193819391937F010C5F1F4F7E
:1031D000F4E0CE36DF0709F0ADCFDF91CF911F913C
:1031E0000F91FF90EF90DF90CF90BF90AF909F90A6
:1031F0008F907F900895812C912C80E8A82E8FE3EA
:10320000B82EC6CFFC017081472F50E0062E02C0B9
:10321000559547950A94E2F740FF14C04091680B1A
:1032200050E0062E02C0559547950A94E2F740FFFC
:1032300009C021E030E001C0220F6A95EAF720952D
:10324000272320830895CF93DF9324E0829FC0013A
:103250001124EC01CC54D24FFC01EA54F44F8E5AA5
:103260009B4FDC012D913D914D915C91608171816D
:10327000828193810E948BCB688379838A839B832D
:10328000DF91CF91089580914E0490914F04A091C9
:103290005004B091510480935A0290935B02A09322
:1032A0005C02B0935D0280914C0490914D04909328
:1032B0001E0280931D02089580915A0290915B0234
:1032C000A0915C02B0915D0280934E0490934F04F4
:1032D000A0935004B093510480911D0290911E025E
:1032E00090934D0480934C0484E690E090931E02EA
:1032F00080931D020895CF93DF9390913F04911125
:103300001BC0C0911B02D0911C02219797E1899F9D
:10331000F0011124E45FF44F20E030E040E05FE38F
:1033200064817581868197810E948BCB0E94CFCC6E
:1033300021E06C177D070CF020E0822FDF91CF9108
:10334000089590E080E00895409114045091150490
:10335000833021F445FD10C044FD0CC021E030E075
:1033600002C0220F331F8A95E2F72423352381E020
:10337000232B09F480E0089581E0089580913104C1
:1033800084FD0BC08091330487FD07C09091340405
:10339000937081E019F480E0089581E00895082E8B
:1033A000000C990BFC01E256F34DE491EE2391F0F1
:1033B000F0E0EE0FFF1FE659F34DA591B4912C916B
:1033C0008C51934DFC018491282381E090E021F4FD
:1033D00080E0089580E090E00895082E000C990B9D
:1033E000FC01E256F34DE491F0E0EE0FFF1FE65FC3
:1033F000F34DA591B4912C918C51934DFC01849186
:10340000822391E009F490E0892F08952FEB280F93
:103410002A3108F047C0E22FF0E08091310490910A
:103420003204A0913304B091340404C0B695A7953A
:10343000979587952A95D2F780FD02C081700895EF
:10344000E95EFB4FE081EE2341F18091510D9091B7
:10345000520DE80FF92FF11D808190ED980F9A30F1
:1034600030F08E3251F4818180538A3098F4F09399
:103470001104E093100481E008958D3211F08B3235
:1034800049F4818190ED980F9A3088F38E3211F4CF
:103490008281EACFF0E0E0E0EACF109211041092CE
:1034A0001004E9CF80E00895B1DF882341F081E086
:1034B0002091100430911104232B09F480E0089529
:1034C000CF92DF92EF92FF92CF93DF9300D01F92C3
:1034D0001F92CDB7DEB7DC01ED91FC910084F18540
:1034E000E02D199569837A838B839C832D8160FB02
:1034F00020F96B017C01F694E794D794C794C0FA45
:1035000021F92D836C7377278827992721E0672B72
:10351000682B692B09F420E06D8120FB62F9298179
:103520003A814B815C8170E080E090E00F900F90D9
:103530000F900F900F90DF91CF91FF90EF90DF9061
:10354000CF9008958F929F92AF92BF92CF92DF92C9
:10355000EF92FF92C090960AD090970AE090980A56
:10356000F090990A20E030E0A901C701B6010E945D
:10357000E8C68823E1F1A701960160E070E080E8E9
:103580009FE30E9467CC6B017C0180909A0A909027
:103590009B0AA0909C0AB0909D0A20E030E0A9010F
:1035A000C501B4010E94E8C6882329F1A501940150
:1035B00060E070E080E89FE30E9467CCC092FF0368
:1035C000D0920004E0920104F0920204609303049C
:1035D000709304048093050490930604FF90EF9089
:1035E000DF90CF90BF90AF909F908F900895C12CA7
:1035F000D12C7601CACF60E070E0CB01DFCF2F92F3
:103600003F924F925F926F927F928F929F92AF9272
:10361000BF92CF92DF92EF92FF920F931F93CF93BF
:10362000DF93CDB7DEB72E970FB6F894DEBF0FBE8F
:10363000CDBF8A83162F4983822E262F30E03A870A
:103640002987E4E08E9FC00111249C878B87FC01B1
:10365000E20FF31FEE0FFF1FEE0FFF1FE25BF54FB0
:1036600060817181828193819B01AC010E9437CE80
:10367000882309F42EC19A81E9819E0F882D810F3C
:1036800024E0929FF0011124A985BA85AE0FBF1FD7
:10369000AA0FBB1FAA0FBB1FA25BB54FAC90119620
:1036A000BC9011971296CC9012971396DC903981AA
:1036B000930F24E0929FA0011124A985BA85A40F3D
:1036C000B51FAA0FBB1FAA0FBB1FA25BB54FEC9083
:1036D0001196FC90119712960C91129713961C91CB
:1036E000282F30E0AB85BC85A20FB31FAA0FBB1FEC
:1036F000AA0FBB1FA25BB54F9C9011967C901197AF
:1037000012966C90129713965C90880D90E0AB85A2
:10371000BC85A80FB91FAA0FBB1FAA0FBB1FA25BB6
:10372000B54F8C9011964C90119712963C90129731
:1037300013962C90E20FF31FEE0FFF1FEE0FFF1FEB
:10374000E25BF54F3081398321812A8332813B83CB
:1037500023812C83FA01E80FF91FEE0FFF1FEE0FF4
:10376000FF1FE25BF54F30813D8381818E83928123
:103770009F83238128879701A801B701C8010E9470
:1037800037CE882321F0E12CF12C00E010E09501E8
:10379000A601B501C6010E9437CE882311F057015A
:1037A0006801282D342D432D522D682D742D832D25
:1037B000922D0E9437CE882321F0812C412C312C70
:1037C000212C292D372D462D552D692D772D862D10
:1037D000952D0E9437CE882321F0982C742C632CD1
:1037E000522C2D813E814F8158856D817E818F8144
:1037F00098850E9437CE882321F01D821E821F8269
:10380000188629813A814B815C8169817A818B811B
:103810009C810E9437CE882341F03D8139838E817F
:103820008A839F819B83E885EC832B853C858985F2
:103830009A85280F391F220F331F220F331F225B57
:10384000354F3A8729879501A601B501C6010E9427
:103850008BCB9701A8010E948ACB6B017C01292D9B
:10386000372D462D552D692D772D862D952D0E94AE
:103870008BCB282D342D432D522D0E948ACB9B01BA
:10388000AC01C701B6010E948BCB6B017C01298181
:103890003A814B815C8169817A818B819C810E9414
:1038A0008BCB2D813E814F8158850E948ACB9B0115
:1038B000AC01C701B6010E948BCB20E030E040E4B0
:1038C00050E40E9467CCE985FA8560837183828326
:1038D00093832E960FB6F894DEBF0FBECDBFDF9157
:1038E000CF911F910F91FF90EF90DF90CF90BF90FD
:1038F000AF909F908F907F906F905F904F903F9090
:103900002F900895E8E1F5E09491981739F03196F9
:1039100095E0EE33F907C1F780E0089581E008955E
:103920000F931F93CF93DF9300E81DE0C7E8D4E027
:10393000F80121913191419151918F0160E070E046
:1039400080E89FE30E9467CC699379938993999368
:10395000F4E0C739DF0761F70E940D8EDF91CF9148
:103960001F910F917ECB2F923F924F925F926F9259
:103970007F928F929F92AF92BF92CF92DF92EF92FF
:10398000FF920F931F93CF93DF93CDB7DEB76C9762
:103990000FB6F894DEBF0FBECDBF8C015B015A831A
:1039A0004983FC01E85BFF4F2081318142815381D3
:1039B00029873A874B875C87CA01B9010E94ECC608
:1039C0006B017C01D5012D913D914D915C910E943F
:1039D0004DC70E9451CC2B013C01E981FA81208125
:1039E000318142815381C701B6010E944DC70E94B7
:1039F00051CC4B015C01C301B2010E94D4CC698B54
:103A00007A8B8B8B9C8B683771058105910540F40F
:103A100028E730E040E050E0298B3A8B4B8B5C8B01
:103A2000C501B4010E94D4CC6D877E878F87988BA7
:103A3000683771058105910540F448E750E060E082
:103A400070E04D875E876F87788BF801EC5AFF4FE7
:103A50004080518062807380C301B2010E94EEC633
:103A600069837A838B839C8369897A898B899C8912
:103A70000E94ECC66D8B7E8B8F8B988F20E030E0A0
:103A8000A90169817A818B819C810E94E8C6882383
:103A900009F4E1C1A7019601C701B6010E944DC713
:103AA0004B015C012D893E894F89588DCA01B901AE
:103AB0000E944DC79B01AC01C501B4010E948ACB95
:103AC0004B015C0129813A814B815C81CA01B901BA
:103AD0000E948BCB9B01AC01C501B4010E9467CC55
:103AE0000E9451CC0E94D4CC6D837E838F839887B3
:103AF00066277727CB0164197509860997090E9403
:103B0000EEC64B015C016D857E858F8598890E948C
:103B1000ECC62B013C0120E030E0A901C501B40155
:103B20000E94E8C6882309F49AC1A3019201C30147
:103B3000B2010E944DC7698F7A8F8B8F9C8FA7012E
:103B40009601C701B6010E944DC79B01AC01698D6A
:103B50007A8D8B8D9C8D0E948ACB6B017C01A50197
:103B60009401C501B4010E948BCB9B01AC01C7013C
:103B7000B6010E9467CC0E9400CDD80195968D9029
:103B80009D90AD90BC909897750164012D813E8108
:103B90004F815885C21AD30AE40AF50A0E94D4CC90
:103BA000C61AD70AE80AF90AF7FE8EC02D893E899F
:103BB0004F89588DCA01B9010E944DC76B017C0124
:103BC00029813A814B815C81CA01B9010E948BCB6A
:103BD00069877A878B879C8720E030E0A90169811B
:103BE0007A818B819C810E94E8C6882309F43BC1BD
:103BF000C501B4010E94ECC629853A854B855C85D8
:103C00000E944DC7A70196010E948ACB6D837E83D7
:103C10008F839887A3019201C301B2010E944DC70F
:103C20009B01AC016D817E818F8198850E948BCB39
:103C30002B013C0120E030E040E850E469817A81CA
:103C40008B819C810E944DC79B01AC01C301B201D5
:103C50000E9467CC0E9451CC2B013C0120E030E057
:103C6000A9010E94B1CD18161CF0412C512C320133
:103C7000C301B2010E94D4CC6D837E838F83988769
:103C800086169706A806B90620F48D829E82AF821A
:103C9000B8866D817E818F8198850E94ECC62985CA
:103CA0003A854B855C850E944DC7A70196010E940D
:103CB0008BCB0E94F6CD0E94D4CC69877A878B8704
:103CC0009C87C12CD12C760169857A858B859C8552
:103CD00029893A894B895C89621B730B840B950B8C
:103CE0000E94ECC629813A814B815C810E9467CC9D
:103CF00020E034E244EF59E40E944DC70E94D4CC46
:103D00004B015C0169857A858B859C852D853E8577
:103D10004F855889621B730B840B950B0E94ECC670
:103D200029813A814B815C810E9467CC20E034E29A
:103D300044EF59E40E944DC70E94D4CC2B013C01B2
:103D40003FE683169104A104B10408F090C0F40189
:103D5000EE0FFF1FEE0FFF1FE057F44E8591959178
:103D6000A591B4918983292E3A2EBD8B4FE6441636
:103D700051046104710408F083C0F201EE0FFF1FCB
:103D8000EE0FFF1FE057F44E4591559165917491E8
:103D90009A01CB014D815E816F817885D8019A9619
:103DA0004D935D936D937C939D974C0D5D1D6E1DA2
:103DB0007F1DF80146A757A760AB71ABE45BFF4FCF
:103DC00049895A896B897C894083518362837383D3
:103DD000D6968D929D92AD92BC92D997F80142AE43
:103DE00053AE64AE75AEFE96498140832182328225
:103DF0005D895383349620833183828393836985DD
:103E00007A858B859C85D2966D937D938D939C93BB
:103E1000D5973E962D853E854F85588920833183E1
:103E2000428353836C960FB6F894DEBF0FBECDBFAE
:103E3000DF91CF911F910F91FF90EF90DF90CF9086
:103E4000BF90AF909F908F907F906F905F904F90BA
:103E50003F902F90089560E070E0CB0141CE60E08C
:103E600070E0CB0188CE60E070E0CB01F3CEC501FD
:103E7000B4010E9434176983272E382E9D8B76CF8C
:103E8000C301B2010E9434179B0184CF4F925F920D
:103E90006F927F928F929F92AF92BF92CF92DF925A
:103EA000EF92FF920F931F93CF93DF93EC0120913A
:103EB0008E0A30918F0A4091900A5091910A688140
:103EC00079818A819B810E948ACB6B017C01209140
:103ED000920A3091930A4091940A5091950A6C810C
:103EE0007D818E819F810E948ACB4B015C01A7015D
:103EF00096016091030270910402809105029091F5
:103F000006020E94E8C6882309F450C0C09203024A
:103F1000D0920402E0920502F09206022091FF0383
:103F2000309100044091010450910204C701B60190
:103F30000E944DC72B013C010E9400CD6B017C010A
:103F400020E030E0A9010E94E8C687FD70C020E0B3
:103F500030E040E050E4C701B6010E94B1CD181630
:103F60002CF4C12CD12CE12CA0E4FA2EA70196014F
:103F7000C301B2010E948ACB6093F7037093F803E8
:103F80008093F9039093FA03C701B6010E94CFCC46
:103F90006093F503062E000C770B6F5F7F4F633045
:103FA000710514F063E070E06093F303D0910102B7
:103FB000C091F503A5019401609107027091080278
:103FC0008091090290910A020E94E8C6811133C0D3
:103FD000DC1381C02091DB033091DC034091DD03D1
:103FE0005091DE036091F7037091F8038091F9031B
:103FF0009091FA030E944DC72091DF033091E003B6
:104000004091E1035091E2030E948BCBDF91CF916D
:104010001F910F91FF90EF90DF90CF90BF90AF90E6
:104020009F908F907F906F905F904F900895C12CDC
:10403000D12C76019BCF8092070290920802A09229
:104040000902B0920A0220910304309104044091C5
:10405000050450910604C501B4010E944DC74B01EF
:104060005C010E9400CD6B017C0120E030E0A901E1
:104070000E94E8C687FDF4C020E030E040E050E454
:10408000C701B6010E94B1CD18162CF4C12CD12C59
:10409000E12CF0E4FF2EA7019601C501B4010E94B6
:1040A0008ACB6093FB037093FC038093FD03909392
:1040B000FE03C701B6010E94CFCC6093F603062E23
:1040C000000C770B6F5F7F4F6330710514F063E076
:1040D00070E06093F4030091F603DC1305C0809157
:1040E0000202801709F471C08091F5039091F603E4
:1040F0009093020280930102002E000C110B24E029
:10410000C202C0011124FC01E00FF11FEE0FFF1FDE
:10411000EE0FFF1FE25BF54F208131814281538119
:104120002093EF033093F0034093F1035093F20395
:10413000C091F4030C2E000CDD0BFC01EC0FFD1FF5
:10414000EE0FFF1FEE0FFF1FE25BF54F60817181E5
:10415000828193810E948ACB6093EB037093EC037E
:104160008093ED039093EE038091F30324E08202A9
:10417000C0011124FC01E00FF11FEE0FFF1FEE0F35
:10418000FF1FE25BF54F20813181428153812093F3
:10419000E7033093E8034093E9035093EA03C80F21
:1041A000D91FCC0FDD1FCC0FDD1FC25BD54F68813F
:1041B00079818A819B810E948ACB6093E30370930B
:1041C000E4038093E5039093E6038090FB039090D3
:1041D000FC03A090FD03B090FE032091EB0330910F
:1041E000EC034091ED035091EE03C501B4010E9430
:1041F0004DC72091EF033091F0034091F1035091AE
:10420000F2030E948BCB6B017C01C092DF03D09242
:10421000E003E092E103F092E2032091E3033091A6
:10422000E4034091E5035091E603C501B4010E9407
:104230004DC72091E7033091E8034091E903509185
:10424000EA030E948BCBA70196010E948ACB609360
:10425000DB037093DC038093DD039093DE03BACE1F
:10426000C12CD12C760117CFCF93DF932091690B0E
:10427000222371F0EC010ADE9B01AC01688579858F
:104280008A859B850E948ACB688779878A879B87E6
:10429000DF91CF9108952F923F924F925F926F924C
:1042A0007F928F929F92AF92BF92CF92DF92EF92C6
:1042B000FF920F931F93CF93DF93D62FC72FFC014D
:1042C00080809180A280B380C501B40120E831E5EF
:1042D00041E050E00E94C2CAC9016DE671E00E944F
:1042E00025CB6B017C01C501B40120E13EE040E03B
:1042F00050E00E94C2CACA01B90128E130E040E0A2
:1043000050E00E94C2CA362E272E062F172F8CE3AC
:10431000482E512C612C712CC501B401A3019201CE
:104320000E94C2CAB62EA72ECA01B901A3019201EA
:104330000E94C2CACB01C114D10479F1AF92BF92DD
:104340007F936F932F923F92FF92EF92DF92CF92E3
:1043500085E299E19F938F93CF93DF930E94B9C633
:104360008DB79EB70E960FB6F8949EBF0FBE8DBF49
:104370008D2F9C2FDF91CF911F910F91FF90EF9088
:10438000DF90CF90BF90AF909F908F907F906F9075
:104390005F904F903F902F900895E114F104C9F081
:1043A000AF92BF927F936F932F923F92FF92EF92C3
:1043B00085E199E19F938F93CF93DF930E94B9C6D4
:1043C000EDB7FEB73C960FB6F894FEBF0FBEEDBF3B
:1043D000CFCF012BB9F0AF92BF927F936F932F9203
:1043E0003F9289E099E19F938F93CF93DF930E944F
:1043F000B9C68DB79EB70A960FB6F8949EBF0FBE8A
:104400008DBFB6CF892BA9F0AF92BF927F936F93E8
:1044100081E099E19F938F93CF93DF930E94B9C678
:10442000EDB7FEB738960FB6F894FEBF0FBEEDBFDE
:104430009FCFAF92BF928DEF98E19F938F93CF93D1
:10444000DF930E94B9C60F900F900F900F900F90BE
:104450000F908ECF2F923F924F925F926F927F92EA
:104460008F929F92AF92BF92CF92DF92EF92FF9284
:104470000F931F93CF93DF93162F072F242EFC014A
:1044800080809180A280B380C501B40120E13EE02C
:1044900040E050E00E94C2CAE22ED32EC22FD32F9A
:1044A0008CE3482E512C612C712CC501B401A30161
:1044B00092010E94C2CAC62E372ECA01B901A301B9
:1044C00092010E94C2CAF62E772E222059F1C50110
:1044D000B40120E831E541E050E00E94C2CA690120
:1044E0007F92FF92CE0168E170E00E9425CB9F93FE
:1044F0008F933F932F9382E498E09F938F930F9332
:104500001F930E94B9C6EDB7FEB73A960FB6F8945E
:10451000FEBF0FBEEDBF88E0FAE0CF16D104C8F0B1
:1045200089E017C0209741F53F92CF927F936F9318
:1045300086E398E09F938F930F931F930E94B9C6D1
:104540008DB79EB708960FB6F8949EBF0FBE8DBF6D
:1045500085E0DF91CF911F910F91FF90EF90DF9059
:10456000CF90BF90AF909F908F907F906F905F9013
:104570004F903F902F900895C436D105A8F47F93B3
:104580006F93DF92EF928AE298E09F938F930F935D
:104590001F930E94B9C6EDB7FEB738960FB6F894D0
:1045A000FEBF0FBEEDBFD4CF7F936F93DF92EF922C
:1045B00080E298E09F938F930F931F930E94B9C658
:1045C0008DB79EB708960FB6F8949EBF0FBE8DBFED
:1045D00086E0BFCFCF92DF92EF92FF920F931F93AF
:1045E000CF93DF936B017A01EC01C054DC4F28813B
:1045F0003CE0389F8001399F100D112427FF24C013
:10460000FB011182108288818F5F888388819801E5
:10461000280F311D87FD3A95C90120912C10F60114
:104620002817190629F024F088818C300CF43CC03E
:1046300080819181049680349C4908F475C0F6010C
:1046400080819181049672C088819801280F311D64
:1046500087FD3A95C90120912C102817190699F267
:1046600094F28881A801480F511D87FD5A95FA01DF
:10467000EE0FFF1FE40FF51FEC51F04F808187FF15
:10468000C2CF8881F801E80FF11D87FDFA95CF01AF
:10469000EE0FFF1FE80FF91FEC51F04F808160E033
:1046A0008F770E948892AFCF808191812881A80165
:1046B000420F511D27FD5A959A01FA01EE0FFF1F77
:1046C000E20FF31FEC51F04F21813281820F931FD3
:1046D000F7019183808388819801280F311D87FD20
:1046E0003A95F901EE0FFF1FE20FF31FEC51F04F67
:1046F000808187FF20C08881080F111D87FD1A95D2
:10470000F801EE0FFF1FE00FF11FEC51F04F808119
:1047100061E08F77DF91CF911F910F91FF90EF9024
:10472000DF90CF900C94889280E49CE9F70191830C
:1047300080838FEF8883DF91CF911F910F91FF903E
:10474000EF90DF90CF9008950F931F93CF93DF9357
:10475000CDB7DEB764970FB6F894DEBF0FBECDBFFE
:10476000E82FF0E0EC5DF34DE491E150E23108F028
:1047700006C1F0E08827E054FC4D8F4F0C944CCBE1
:10478000D223F923032411241F24BF242D243924E8
:104790004524532461246F247D248B24BF24982432
:1047A000A524B22484B5807C09F4E9C087B51F92A2
:1047B0008F938FE99CE09F938F938E010F5F1F4F24
:1047C0001F930F930E94B9C6C8010E94DEA80F90E4
:1047D0000F900F900F900F900F9081E064960FB69E
:1047E000F894DEBF0FBECDBFDF91CF911F910F9127
:1047F000089584B5807309F4C2C088B51F928F9361
:1048000085E99CE0D8CF80918000807C09F4B7C016
:1048100080918800909189009F938F938BE89CE012
:10482000CACF80918000807309F4A9C080918A006A
:1048300090918B009F938F9381E89CE0BCCF8091F7
:1048400080008C7009F49BC080918C0090918D0049
:104850009F938F9387E79CE0AECF8091B000807CE0
:1048600009F48DC08091B3001F928F938DE69CE078
:10487000A2CF8091B000807309F481C08091B40010
:104880001F928F9383E69CE096CF80919000807C6E
:1048900009F475C080919800909199009F938F932F
:1048A00089E59CE088CF80919000807309F467C00F
:1048B00080919A0090919B009F938F938FE49CE04E
:1048C0007ACF809190008C7009F459C080919C003F
:1048D00090919D009F938F9385E49CE06CCF809195
:1048E000A000807C09F44BC08091A8009091A900A1
:1048F0009F938F938BE39CE05ECF8091A0008073A9
:1049000009F43DC08091AA009091AB009F938F93D2
:1049100081E39CE050CF8091A0008C7081F1809168
:10492000AC009091AD009F938F9387E29CE043CFC2
:1049300080912001807C19F18091280190912901BA
:104940009F938F938DE19CE036CF809120018073FF
:10495000B1F080912A0190912B019F938F9383E175
:104960009CE029CF809120018C7049F080912C012E
:1049700090912D019F938F9389E09CE01CCF80E064
:104980002DCF8091100490911104009731F04AE0EE
:1049900050E070E060E00C9428C460E070E0CB016F
:1049A0000895EFDF97FD0AC0ECDF6F3F71058105C9
:1049B000910509F02CF4E5DF862F089580E0089535
:1049C0008FEF0895CF93C62F0E94541A882311F0B9
:1049D000CF91E7CF8C2FCF910895809110049091C3
:1049E0001104892B39F0DDDF91E0811101C090E0E5
:1049F000892F089591E0FCCFCF93DF93C82FD62F56
:104A00000E94541A882319F0DF91CF91E6CF8C2FA2
:104A10000E94061A811101C08D2FDF91CF91089558
:104A2000B0DFCB010895CF93DF9385E40E94061A8F
:104A3000811121C080E04091310450913204609195
:104A4000330470913404972F9170C92F90E0D92FBF
:104A5000CC0FDD1F71FB222720F930E0220F331F1E
:104A6000220F331FC22B67FB442740F9C42B8C2B2A
:104A7000DF91CF9108958091100490911104892BBA
:104A800059F0CEDF8430B0F693E0980F81E001C09A
:104A9000880F9A95EAF7CFCF88E7CDCFCF93DF93F2
:104AA000EB010E94541A882319F0DF91CF91B8CFFF
:104AB000CE01DF91CF9108950F931F93CF938091F3
:104AC0001004909111040097E9F0FC018F01C1914D
:104AD0002C2F2F7D81F0C53411F0C536B9F7F801C0
:104AE000108270E060E00E94D3C2F801C083CF91D1
:104AF0001F910F91089570E060E0CF911F910F9189
:104B00000C94D3C260E070E0CB01F1CFCF92DF9282
:104B1000EF92FF926A017B010E94541A882329F0C8
:104B2000FF90EF90DF90CF90C7CFC701B601FF9005
:104B3000EF90DF90CF9008958F929F92AF92BF92A7
:104B4000CF92DF92EF92FF920F931F93CF938EE954
:104B5000E82E8BE0F82E04E812E094EBC92E9DE0DD
:104B6000D92EC0E088E58C0F0E94541A882309F4DE
:104B7000A3C0A2DF4B015C018C2F0E94A4198823E3
:104B800009F490C0F8012081318142815381C5012F
:104B9000B4010E948BCBF70160837183828393837E
:104BA000CF5FF4E0EF0EF11C0C5F1F4F84E0C80EE6
:104BB000D11CC330B9F685E40E94541A882309F445
:104BC00086C07ADF6B017C0183E00E94A4198823F0
:104BD00071F0209190023091910240919202509197
:104BE0009302C701B6010E948BCB6B017C01C0927E
:104BF000AA0BD092AB0BE092AC0BF092AD0B40E065
:104C000050E0BA0186E482DF20E030E0A9010E9492
:104C1000B1CD18167CF450DF20E030E040E752E4DC
:104C20000E9467CC60935A0270935B0280935C028F
:104C300090935D028091C30B83FD28C08091AF0BE0
:104C4000882321F1209190023091910240919202AB
:104C5000509193026091AA0B7091AB0B8091AC0BB9
:104C60009091AD0B0E948ACB2091680D3091690D17
:104C700040916A0D50916B0D0E948BCB6093680D33
:104C80007093690D80936A0D90936B0DCF911F9176
:104C90000F91FF90EF90DF90CF90BF90AF909F90DB
:104CA0008F900895F6012081318142815381C501A1
:104CB000B4010E948ACB6FCFF80180819181A281DB
:104CC000B381F70180839183A283B38369CF8091FD
:104CD000900290919102A0919202B09193028093E0
:104CE000AA0B9093AB0BA093AC0BB093AD0B87CFFB
:104CF000CF93DF932091690B222371F0EC01C6D88A
:104D00009B01AC01688579858A859B850E948BCB48
:104D1000688779878A879B87DF91CF9108958091F3
:104D2000411090914210891B8F7019F490E080E03F
:104D3000089590913E10992351F0833030F48FEF15
:104D4000890F19F080933E10F1CF10923E108091A0
:104D5000421029E5829FC001112489569B4FFC0116
:104D6000208120FDE3CF209142102F5F2F702093F0
:104D70003F103091421020914010321304C0209116
:104D80003F1020934010089590916F0081E091FDB5
:104D900002C080E0089590916F009D7F90936F0016
:104DA0000895EFE6F0E080818260808308958F921D
:104DB0009F92AF92BF92CF92DF92EF92FF920F93AA
:104DC0001F93CF93DF93182F84E0189FE0011124E5
:104DD000123008F046C0D8DF082FD6DF8090CA0A0C
:104DE0009090CB0AA090CC0AB090CD0A8111D9DF67
:104DF000CBDFC090CE0AD090CF0AE090D00AF090DE
:104E0000D10A8111CEDF0111CCDF113019F5C501B6
:104E1000B4016C197D098E099F090E94EEC620E03D
:104E200030E040E05FE30E944DC7C957DB4F288167
:104E300039814A815B810E944DC7DF91CF911F91DB
:104E40000F91FF90EF90DF90CF90BF90AF909F9029
:104E50008F900895C701B601680D791D8A1D9B1DAD
:104E6000DCCF92DFFE01E653F54FC080D180E280B7
:104E7000F380811196DFC701B6010E94EEC6D5CF3F
:104E8000CF92DF92EF92FF92CF93DF93C82F7CDF18
:104E900094E0C99FE0011124FE01E254F54FC08067
:104EA000D180E280F38081117CDFC957DB4FC701DD
:104EB000B6010E94EEC6288139814A815B810E9439
:104EC0004DC7DF91CF91FF90EF90DF90CF90089585
:104ED000CF93DF93CDB7DEB72C970FB6F894DEBF34
:104EE0000FBECDBF0E94578D4FDF9CE0EAECFAE089
:104EF000DE01119601900D929A95E1F7811151DF33
:104F0000CE0101960E94B69A2C960FB6F894DEBF99
:104F10000FBECDBFDF91CF910895CF93DF931F9246
:104F2000CDB7DEB7898360E0CE0101960E940219F9
:104F300061E0CE0101960E94021962E0CE01019665
:104F40000E94021989810F90DF91CF9108958F926D
:104F50009F92AF92BF92CF92DF92EF92FF92CF9348
:104F6000DF9320914002222309F48EC0EC0180914E
:104F7000680BE82E80FF2CC0809042029090430284
:104F8000A0904402B0904502288139814A815B811A
:104F9000C501B4010E94B1CD181624F4888299820B
:104FA000AA82BB8280904E0290904F02A090500245
:104FB000B0905102288139814A815B81C501B401D9
:104FC0000E94E8C687FF04C088829982AA82BB82B9
:104FD000E1FE2CC08090460290904702A0904802CB
:104FE000B09049022C813D814E815F81C501B401A1
:104FF0000E94B1CD181624F48C829D82AE82BF82AD
:105000008090520290905302A0905402B0905502AA
:105010002C813D814E815F81C501B4010E94E8C6AB
:1050200087FF04C08C829D82AE82BF82E2FE2CC0CC
:10503000C0904A02D0904B02E0904C02F0904D029A
:10504000288539854A855B85C701B6010E94B1CDA7
:10505000181624F4C886D986EA86FB86C0905602C4
:10506000D0905702E0905802F09059022885398577
:105070004A855B85C701B6010E94E8C687FF04C068
:10508000C886D986EA86FB86DF91CF91FF90EF90A4
:10509000DF90CF90BF90AF909F908F900895CF9268
:1050A000DF92EF92FF920F931F93CF93DF93E82F3E
:1050B000F0E0EF01CC0FDD1FCC0FDD1F461739F0FC
:1050C000823009F049C0C12CD12C760117C0823042
:1050D000D1F3A0914D0D8A2F90E0DC01AA0FBB1FE8
:1050E000A80FB91FAE0FBF1FAA0FBB1FAA0FBB1F70
:1050F000A259B44FCD90DD90ED90FC908F01000F40
:10510000111F000F111FF801EF5FF44E259135912B
:1051100045915491C05CDD4FC701B6010E948BCB15
:105120006A837B838C839D83F801EB50F54E259138
:10513000359145915491C701B6010E948BCB6E8782
:105140007F87888B998BDF91CF911F910F91FF9073
:10515000EF90DF90CF90089550E0DA01AA0FBB1FC7
:10516000A40FB51FAE0FBF1FAA0FBB1FAA0FBB1FF7
:10517000A259B44F862F90E0BC01660F771F680FCD
:10518000791FE60FF71FEE0FFF1FEE0FFF1FE2590B
:10519000F44F20813181428153816D917D918D91B8
:1051A0009C910E948ACB6B017C01C05CDD4FAC01FD
:1051B0009B016A817B818C819D810E948BCB6A835C
:1051C0007B838C839D83A70196016E857F8588896B
:1051D0009989B3CF4F925F926F927F928F929F92F5
:1051E000AF92BF92CF92DF92EF92FF92CF93409017
:1051F00084025090850260908602709087028090B1
:10520000880290908902A0908A02B0908B02C09090
:105210008C02D0908D02E0908E02F0908F020E945E
:1052200031180E947F18C0E08C2F0E94231940E0A3
:1052300060E08C2F34DFCF5FC330B1F70E94A21A39
:105240000E94901CA30192016091840270918502DA
:1052500080918602909187020E94E8C681111CC04D
:10526000A5019401609188027091890280918A025F
:1052700090918B020E94E8C681110EC020918C0291
:1052800030918D0240918E0250918F02C701B6017C
:105290000E94E8C6882371F0CF91FF90EF90DF90D5
:1052A000CF90BF90AF909F908F907F906F905F90C6
:1052B0004F900ECECF91FF90EF90DF90CF90BF90A8
:1052C000AF909F908F907F906F905F904F900895D8
:1052D0008F929F92AF92BF92CF92DF92EF92FF9206
:1052E0001F93CF93DF93CDB7DEB760970FB6F894D7
:1052F000DEBF0FBECDBF182F80E059DD4B015C0132
:105300008092400490924104A0924204B0924304DF
:1053100081E04DDD6B017C01C0924404D0924504D4
:10532000E0924604F092470482E041DD6093480435
:105330007093490480934A0490934B041D861E8603
:105340001F86188A89829A82AB82BC82CD82DE82D5
:10535000EF82F88669877A878B879C8783E027DDD1
:105360006D877E878F87988BCE0101960E943421AE
:105370001E3FD9F480E1FE013196A4E8B2E001902D
:105380000D928A95E1F760960FB6F894DEBF0FBED6
:10539000CDBFDF91CF911F91FF90EF90DF90CF9025
:1053A000BF90AF909F908F90089584E0189FF00178
:1053B0001124DF01AC57BD4F81E090E08C0F9D1FA1
:1053C000E80FF91F40815181628173814D935D9394
:1053D0006D937C931397D7CF0C940D8E8091B10B66
:1053E000811105C08091B40B882309F472C08091AB
:1053F0003E04659B5EC0816080933E0490910301F2
:1054000080913E0490FF57C0826080933E0490914B
:10541000000180913E0493FF50C0886080933E0459
:1054200080913E044A9B4BC0846080933E048091EF
:10543000BB0A80FF10C08091B20B87FF0CC0809127
:105440003E0480FF08C080914E0D816080934E0D18
:1054500080E00E94EA9A8091BB0A81FF12C080918D
:10546000B20B9091B30B90FD0CC080913E0481FF74
:1054700008C080914E0D826080934E0D81E00E94A5
:10548000EA9A8091BB0A82FF24C08091B20B82FF0E
:1054900018C08091B40B8823E1F080913E0483FF13
:1054A00018C080914E0D886080934E0D82E00C9460
:1054B000EA9A8E7FA1CF8D7FA8CF877FAFCF8B7FDA
:1054C000B4CF80913E0482FF04C080914E0D846071
:1054D000EBCF08950F931F9380915B0D813019F5E9
:1054E0000E94F5940091270A1091280A2091290A18
:1054F00030912A0A601B710B820B930B28EE33E06C
:1055000040E050E00E94C2CA60912B0A70912C0AC0
:1055100080912D0A90912E0A620F731F841F951F90
:105520001F910F9108956091570D7091580D8091C2
:10553000590D90915A0DD6CF10925B0D1092270AFB
:105540001092280A1092290A10922A0A1092570DD6
:105550001092580D1092590D10925A0D10922B0A5C
:1055600010922C0A10922D0A10922E0A0895CF93B1
:10557000C0915B0D80E0C13061F1C23061F5AADFFE
:1055800060932B0A70932C0A80932D0A90932E0A15
:1055900081E080935B0D0E94F5946093270A7093DD
:1055A000280A8093290A90932A0AC23089F08091B0
:1055B0005C0D90915D0D019690935D0D80935C0D57
:1055C0001092530D1092540D1092550D1092560DCD
:1055D00081E0CF910895B0DFDBCFCF93DF93C0910F
:1055E000090BD0910A0B209729F16091050B70915E
:1055F000060B8091070B9091080B0E94CFCC6E5F39
:105600007F4F24976C177D07ACF47093DB0A60938F
:10561000DA0A0E94F5946058774C8E4F9F4F609342
:10562000DC0A7093DD0A8093DE0A9093DF0ADF9133
:10563000CF9108951092DC0A1092DD0A1092DE0AD2
:105640001092DF0AF4CF0F931F93CF93DF93062FAF
:1056500010E0F801EE0FFF1FE75DFC4FC081D18124
:105660002F978C179D070CF4EC0187E1809FF001C8
:10567000819FF00D1124E45FF44FD187C0872097FC
:1056800029F164817581868197810E94CFCC6E5FFC
:105690007F4F25976C177D07CCF486E0809FE00153
:1056A000819FD00D1124C052D54F798368830E9409
:1056B000F594605C7D4B804F9F4F6A837B838C8326
:1056C0009D83DF91CF911F910F91089586E0809F78
:1056D000F001819FF00D1124E052F54F12821382E8
:1056E00014821582EECF0C94CBB18F929F92AF9221
:1056F000BF92CF92DF92EF92FF920F931F93CF93BF
:10570000DF9310923604109235042FE3209339046E
:10571000109238041092370410923104109232041F
:1057200010923304109234049C01F90190812F5F90
:105730003F4F9032D1F39E34C9F4818190ED980FA0
:105740009A3020F08D3211F08B3281F432969F0125
:105750002F5F3F4F808180538A3008F46BC09F01D8
:105760002F5F3F4F8081803209F466C0F093520D65
:10577000E093510D8F010F5F1F4FC0816AE270E00F
:10578000C8010E9457CE009731F0FC01319780810B
:105790008032E1F31182CD3421F0C43511F0C734E9
:1057A000E1F5F80180810F5F1F4F8032D1F3805304
:1057B0008A3098F5C093390430E020E06AE0AF0108
:1057C0004F5F5F4F629FC001639F900D11249C014A
:1057D000205331098081280F311D87FD3A95FA0148
:1057E000808180538A3058F33093380420933704F3
:1057F000DF0131968C918032D9F3CD3449F52E31C9
:10580000310539F0D8F42731310519F02C31310543
:10581000F9F4B0933604A0933504DF91CF911F9132
:105820000F91FF90EF90DF90CF90BF90AF909F903F
:105830008F900895F9018BCFF90191CF253731056C
:1058400038F02737310528F3203A83E0380709F389
:10585000D091510D40E050E0BA0110E000E0C12CC1
:10586000D12C7601C394FD0131968C91882309F4E3
:105870007FC08132E1F4CD34D1F420323105B9F466
:105880004093310450933204609333047093340492
:10589000F0933604E093350463E270E0CF010E9498
:1058A00057CE009709F4B9CFFC011082B6CF8154CE
:1058B0008A3108F058C0DF019D91903291F0A0ED3F
:1058C000A90FAA30E8F09E3271F4918190539A307A
:1058D000B8F00115110519F48F010150110990E07C
:1058E00013C0FD01E8CF9D3211F09B3291F79181F9
:1058F000A0EDA90FAA3020F09E3259F79281E6CF91
:105900009E2F9D1B309759F3A82FB0E046015701F9
:1059100004C0880C991CAA1CBB1C8A95D2F7482984
:1059200059296A297B29A95EBB4F9C9380818154A8
:10593000DF018A3108F497CFDF018191882309F4D0
:1059400092CF90ED980F9A30B8F393ED980F923074
:1059500098F38B3289F3CD010196EC91E03209F096
:1059600082CFDC01F8CF0115110501F78D01DECFE3
:10597000109336040093350440933104509332045D
:10598000609333047093340448CF682F880F770BEB
:10599000880B990B0C94CBB1CF92DF92EF92FF92D0
:1059A0006B017C0183E3C816D104E104F10470F0BB
:1059B00082E3C81AD108E108F10862E370E080E0F0
:1059C00090E00E946A940E94C1B3ECCFC701B60177
:1059D0000E946A94FF90EF90DF90CF900C94C1B337
:1059E0008091B10B811104C08091B40B882329F000
:1059F00062E070E080E090E0CFCF0895BC01990FA5
:105A0000880B990B0C94CBB181E00895DC01EC91EB
:105A10008E2F90E0FC01EE0FFF1FE80FF91FEC51F5
:105A2000F04F80818F7780830895CF93DF93EC01CF
:105A3000E62F660FFF0BEC5DF34DE491E250E13190
:105A400008F0B0C0F0E08827E75DF24D8F4F0C946E
:105A50004CCB3A2DD22DD22DD22DD22D642D462DC8
:105A6000882D862D662DAC2DAA2D8A2DD22DD02DD8
:105A7000CE2DAE2D82E1EAE9F2E0DE0101900D9239
:105A80008A95E1F7CE01DF91CF91089581E020EB77
:105A900030E03983288321EB30E03B832A831D8269
:105AA0001C8223EB30E03F832E8324EB30E03987E8
:105AB00028871B861A861D861C8692E09E878F8704
:105AC00081E0888B198ADECF80E0E1CF81E08F5FB3
:105AD00020E930E03983288321E930E03B832A83C1
