:100000000C9465160C94A5160C94A5160C94A516C4
:100010000C94A5160C94A5160C94A5160C94A51674
:100020000C94A5160C948A990C948A990C948A992C
:100030000C94A5160C94A5160C94A5160C94A51654
:100040000C94A5160C9477220C94A5160C94A51666
:100050000C94A5160C94F0A40C94A5160C94BA9EBE
:100060000C94A5160C94418E0C94378E0C94A51606
:100070000C94A5160C94A5160C94A5160C94A51614
:100080000C949F340C94A5160C94A5160C94A516EC
:100090000C94A5160C94A5160C94A5160C94A516F4
:1000A0000C94A5160C94A5160C9471340C94A516FA
:1000B0000C94A5160C94A5160C94A5160C94A516D4
:1000C0000C94A5160C94A5160C94A5160C94A516C4
:1000D0000C94A5160C94A5160C94A5160C94A516B4
:1000E0000C94A516084AD73B3BCE016E84BCBFFDDD
:1000F000C12F3D6C74319ABD56833DDA3D00C77FF8
:1001000011BED9E4BB4C3E916BAAAABE0000008090
:100110003F05A84CCDB2D44EB93836A9020C50B91F
:10012000918688083CA6AAAA2ABE000000803F004B
:100130004E414E494E495459494E46CDCCCC3D0ACC
:10014000D7233C17B7D13877CC2B329595E6241FAF
:10015000B14F0A000020410000C84200401C462068
:10016000BCBE4CCA1B0E5AAEC59D74434F4D4D5577
:100170004E49434154494F4E0044525952554E0046
:100180004552524F525300494E464F004543484F47
:10019000004572726F722077726974696E6720749D
:1001A0006F20454550524F4D210A00363726033CFB
:1001B0003D380F2E303E13061A1C1824221E0A3A10
:1001C000073904084400015072696E746572207327
:1001D000746F707065642064756520746F2065723B
:1001E000726F72732E20466978207468652065727C
:1001F000726F7220616E6420757365204D393939D4
:1002000020746F20726573746172742E2028546597
:100210006D706572617475726520697320726573A3
:1002200065742E205365742069742061667465724C
:100230002072657374617274696E67290A004E6F6B
:1002400020436865636B73756D2077697468206CF3
:10025000696E65206E756D6265722C204C617374D9
:10026000204C696E653A2000636865636B73756D39
:10027000206D69736D617463682C204C6173742008
:100280004C696E653A20004C696E65204E756D6252
:100290006572206973206E6F74204C617374204CFA
:1002A000696E65204E756D6265722B312C204C6134
:1002B0007374204C696E653A20004D313130005323
:1002C000657269616C20737461747573206D6973F4
:1002D0006D617463680A00746F6F206D75636820C8
:1002E000696E6163746976652074696D65202D207F
:1002F00063757272656E7420636F6D6D616E643AC2
:1003000020002121204B494C4C20636175736564AA
:100310002062792000627573793A20706175736587
:100320006420666F7220696E7075740A006275735E
:10033000793A2070617573656420666F72207573F9
:1003400065720A00627573793A2070726F63657323
:1003500073696E670A006563686F3A004572726F71
:10036000723A004F4646004F4E0042696C696E6516
:100370006172204C6576656C696E672047726964AE
:100380003A0A004C4F570048494748004F4B004538
:1003900072726F723A20416C6C200020636F6E6E37
:1003A000656374696F6E2E2E2E2000546573746918
:1003B0006E6720004C4F570048494748004F4B009C
:1003C0004572726F723A20416C6C200020636F6E30
:1003D0006E656374696F6E2E2E2E200054657374E3
:1003E000696E6720004C4F570048494748004F4B03
:1003F000004572726F723A20416C6C200020636F6E
:100400006E6E656374696F6E2E2E2E2000546573B8
:1004100074696E6720004C4F570048494748004FA9
:100420004B004572726F723A20416C6C2000206361
:100430006F6E6E656374696F6E2E2E2E200054658C
:100440007374696E6720004C4F5700484947480055
:100450004F4B004572726F723A20416C6C20002045
:10046000636F6E6E656374696F6E2E2E2E2000545E
:10047000657374696E672000426564204C6576651B
:100480006C696E6720004661696C656420746F203A
:10049000656E61626C6520426564204C6576656CB2
:1004A000696E670A00496E76616C6964206D6573D8
:1004B000682E0A002E0A002F0050726F62696E6764
:1004C000206D65736820706F696E74200020284469
:1004D000525952554E2900473239204175746F20C8
:1004E000426564204C6576656C696E67003F202824
:1004F0004C2C522C462C4229206F7574206F66209C
:10050000626F756E64732E0A003F28562965726209
:100510006F7365206C6576656C20696D706C6175B4
:100520007369626C652028302D34292E0A004261DF
:1005300064205A2076616C75650A004E6F206269EE
:100540006C696E65617220677269640A00204400FC
:1005500020204D32303020540020204D32303020C9
:100560005300202844697361626C6564293A00462F
:10057000696C616D656E742073657474696E677300
:100580000020204D3230312058004D6178204163E9
:1005900063656C65726174696F6E2028756E69742D
:1005A000732F7332290020204D3230332058004DF4
:1005B0006178206665656472617465732028756E64
:1005C0006974732F73290020520020204D3230347B
:1005D000205000416363656C65726174696F6E20C1
:1005E00028756E6974732F7332292028503C7072FD
:1005F000696E742D616363656C3E20523C72657454
:10060000726163742D616363656C3E20543C747247
:100610006176656C2D616363656C3E290020540032
:1006200020530020204D3230352042004164766155
:100630006E6365642028423C6D696E5F7365676D0B
:10064000656E745F74696D655F75733E20533C6DB4
:10065000696E5F66656564726174653E20543C6DC9
:10066000696E5F74726176656C5F66656564726100
:1006700074653E20583C6D61785F6A65726B3E2000
:10068000593C6D61785F6A65726B3E205A3C6D61C2
:10069000785F6A65726B3E20453C6D61785F6A6584
:1006A000726B3E290020204D32313700546F6F6C41
:1006B0002D6368616E67696E670020204D323138A6
:1006C000205400486F74656E64206F6666736574AD
:1006D000730020440020490020500020204D33307A
:1006E00031204500486F74656E64205049440050C5
:1006F000574D3A20202534640050574D3A2020258C
:1007000034640050574D3A20202534640050574D32
:100710003A20202534640050574D3A202025346477
:100720000050574D3A20202534640050574D3A2050
:10073000202534640050574D3A2020253464005061
:10074000574D3A20202534640050574D3A2020253B
:1007500034640050574D3A20202534640050574DE2
:100760003A20202534640050574D3A202025346427
:100770000050574D3A20202534640050574D3A2000
:10078000202534640050574D3A2020253464003A27
:10079000200020202020434F4D002020206E6F6E2F
:1007A0002D7374616E646172642050574D206D6FBB
:1007B000646500202020636F6D7061726520696E32
:1007C0007465727275707420656E61626C65640028
:1007D0002020206F766572666C6F7720696E746575
:1007E000727275707420656E61626C6564003A2087
:1007F000002020202054494D534B00423A20002035
:100800002020205443435200413A20002020202041
:1008100054434352002020202043533A20002020FC
:10082000202057474D3A200050574D3A202025347C
:10083000640050574D3A202025346400470048009A
:10084000000088008A008C00B300B400000098000B
:100850009A009C00A800AA00AC0028012A012C01E3
:100860002020202054494D455200440045006E0090
:10087000800081006F00B000B10070009000910016
:100880007100A000A1007200200121017300206905
:100890007320616C736F207469656420746F2074B9
:1008A0006869732070696E0054494D4552314300A8
:1008B0000A202E002020002020506F72743A200061
:1008C0004C4F57004849474800446F6E652E0A0058
:1008D00050756C73696E6720202000556E746F75BB
:1008E0006368656420005A5F50524F42455F53452C
:1008F00052564F5F4E52206E6F7420736574207590
:10090000702E0A00202D20005761746368696E679D
:100910002070696E00206973007320617265002089
:1009200070726F7465637465642E2055736520273B
:10093000492720746F206F766572726964652E0A8C
:10094000005370656369666965642070696E006450
:10095000697300656E0061626C65640A00656E64AF
:1009600073746F70206D6F6E69746F722000737096
:10097000726561644379636C6500737465616C745E
:100980006843686F700020647269766572206D6FCD
:1009900064653A09007370726561644379636C65DC
:1009A00000737465616C746843686F7000206472D2
:1009B00069766572206D6F64653A090073707265BF
:1009C00061644379636C6500737465616C7468433A
:1009D000686F700020647269766572206D6F64655F
:1009E0003A09007370726561644379636C650073E2
:1009F0007465616C746843686F7000206472697616
:100A00006572206D6F64653A090073707265616488
:100A10004379636C6500737465616C746843686FD7
:100A2000700020647269766572206D6F64653A09A2
:100A300000202E68737472743A2000202E68656E50
:100A4000643A20002063686F70706572202E746FA6
:100A500066663A2000202E68737472743A20002073
:100A60002E68656E643A20002063686F707065724E
:100A7000202E746F66663A2000202E68737472749C
:100A80003A2000202E68656E643A20002063686F6B
:100A900070706572202E746F66663A2000202E6892
:100AA000737472743A2000202E68656E643A2000D8
:100AB0002063686F70706572202E746F66663A20CE
:100AC00000202E68737472743A2000202E68656EC0
:100AD000643A20002063686F70706572202E746F16
:100AE00066663A20003F53206F7574206F6620724F
:100AF000616E67652028312E2E38290A003F50206C
:100B00006F7574206F662072616E676520282D33C3
:100B10002E2E3132290A003F4F206F7574206F66E8
:100B20002072616E67652028312E2E3135290A002A
:100B30003B200020496E76616C6964206578747290
:100B400075646572200047322F473320626164204C
:100B5000706172616D65746572730A0047323800A6
:100B60005A2050726F626520506173742042656430
:100B700000205A3A200020593A200042656420584B
:100B80003A20004D65736820706F696E74206F7530
:100B900074206F662072616E67650A005072696E1C
:100BA000742074696D653A20000A53746174733A55
:100BB0002046696C616D656E7420757365643A20BA
:100BC000002C204C6F6E67657374206A6F623A2048
:100BD00000546F74616C2074696D653A2000537421
:100BE0006174733A20002C204661696C65643A2078
:100BF000002C2046696E69736865643A2000507263
:100C0000696E74733A200053746174733A20006FF4
:100C10006B006F6666008C018701800179016B01B2
:100C200044454255473A004D31313220536875747E
:100C3000646F776E004D3131332053002F2F002029
:100C40006C696D6974656420746F2000204D617853
:100C50002000416363656C65726174696F6E005753
:100C600041524E494E4721204C6F77205A204A6509
:100C7000726B206D6179206C65616420746F2075E2
:100C80006E77616E746564207061757365732E0A8A
:100C90000020204D61783A2000200020204D696E10
:100CA0003A2000203B200020204D323131205300DB
:100CB000536F667420656E6473746F707300250AD9
:100CC0000046523A0020466C6F773A20003A2000E6
:100CD00020536572766F2000206F7574206F662038
:100CE00072616E67650A00536572766F20005072FC
:100CF0006F6265204F6666736574205A0050726F8C
:100D00006265204F6666736574205A00496E76618D
:100D10006C69642065787472756465720A00646930
:100D20007300656E0043290A0061626C65642028C7
:100D30006D696E2074656D702000436F6C64206572
:100D4000787472756465732061726520004D343269
:100D50003120696E636F72726563742070617261B5
:100D60006D657465722075736167650A004D657302
:100D70006820706F696E74206F7574206F662072C2
:100D8000616E67650A00546F6F206661722066723B
:100D90006F6D207265666572656E636520706F6940
:100DA0006E740A00454550524F4D204F4B0A0029A2
:100DB0000A0020746F20003F5A206F7574206F6600
:100DC0002072616E6765202800290A0020746F2058
:100DD000003F59206F7574206F662072616E6765E1
:100DE00020282D00290A0020746F20003F58206F12
:100DF0007574206F662072616E676520282D002053
:100E00006472697665722063757272656E743A20D9
:100E100000206472697665722063757272656E7403
:100E20003A2000206472697665722063757272657B
:100E30006E743A2000206472697665722063757260
:100E400072656E743A200020647269766572206360
:100E5000757272656E743A20006F6B0020204D32FF
:100E60003036205800486F6D65206F666673657474
:100E7000004361703A00434F4E4649475F45585022
:100E80004F5254004D4541545041434B00434F4F46
:100E90004C45525F54454D504552415455524500C2
:100EA0004348414D4245525F54454D50455241548F
:100EB00055524500424142595354455050494E47BE
:100EC0000041524353004D4F54494F4E5F4D4F44E4
:100ED000455300544845524D414C5F50524F544584
:100EE0004354494F4E00455854454E4445445F4D88
:100EF000323000435553544F4D5F4649524D574190
:100F000052455F55504C4F4144004C464E5F57523E
:100F1000495445004C4F4E475F46494C454E414D64
:100F200045004155544F5245504F52545F53445F12
:100F30005354415455530053445F5752495445004C
:100F4000524550454154005344434152440050528D
:100F50004F4D50545F535550504F525400484F53CB
:100F6000545F414354494F4E5F434F4D4D414E44B2
:100F70005300454D455247454E43595F50415253EA
:100F8000455200434153455F4C494748545F4252E4
:100F9000494748544E45535300544F47474C455FCB
:100FA0004C494748545300534F4654574152455FAC
:100FB000504F574552004255494C445F50455243AB
:100FC000454E54004C4556454C494E475F444154AC
:100FD00041005A5F50524F42450052554E4F5554B2
:100FE000004155544F4C4556454C005052494E54C3
:100FF0005F4A4F420050524F4752455353004155AC
:10100000544F5245504F52545F54454D5000415536
:10101000544F5245504F52545F504F5300564F4C0F
:10102000554D455452494300454550524F4D00429D
:10103000494E4152595F46494C455F5452414E53C7
:101040004645520053455249414C5F584F4E5F58F8
:101050004F4646004649524D574152455F4E414D1D
:10106000453A4D61726C696E20322E312E322E312E
:10107000202844656320313420323032332031342B
:101080003A32343A35392920534F555243455F435C
:101090004F44455F55524C3A6769746875622E63D8
:1010A0006F6D2F4D61726C696E4669726D776172FA
:1010B000652F4D61726C696E2050524F544F434FF3
:1010C0004C5F56455253494F4E3A312E30204D41D8
:1010D0004348494E455F545950453A54565320565B
:1010E0006F6C7465727261204475616C2032345685
:1010F0002055415254206A756D706572732077696E
:10110000746820544D4332323039206F6E204D4B7D
:10111000532047656E4C2076322E3120455854526C
:10112000554445525F434F554E543A332055554927
:10113000443A63656465326132662D343161322D23
:10114000343734382D396231322D633535633632D8
:1011500066333637666600203B0020204D38353137
:101160002058005A2D50726F6265204F6666736575
:1011700074002569730025696D2025697300256950
:10118000682025696D20256973002569642025691B
:10119000682025696D2025697300256979202569F6
:1011A00064202569682025696D2025697300205712
:1011B0003A0020573A00206661696C65642120423C
:1011C0006164206865617465722069640A00504931
:1011D00044204175746F74756E650023646566699B
:1011E0006E652044454641554C545F004B642000D9
:1011F0004B6920004B7020002066696E697368653A
:1012000064212050757420746865206C61737420AB
:101210004B702C204B6920616E64204B6420636FFF
:101220006E7374616E74732066726F6D2062656C8C
:101230006F7720696E746F20436F6E666967757291
:101240006174696F6E2E680A0050494420417574BC
:101250006F74756E6500206661696C656421207429
:10126000696D656F75740A00504944204175746F4B
:1012700074756E6500206661696C65642120546533
:101280006D706572617475726520746F6F20686926
:1012900067680A00504944204175746F74756E6523
:1012A00000204B643A2000204B693A2000204B700C
:1012B0003A200020436C61737369632050494420D5
:1012C0000A002054753A2000204B753A2000206D0A
:1012D00061783A2000206D696E3A200020643A203F
:1012E0000020626961733A20002073746172740A8D
:1012F00000504944204175746F74756E6500206616
:1013000061696C6564212054656D706572617475E6
:10131000726520746F6F20686967680A00504944DD
:10132000204175746F74756E65006F70656E005442
:101330005249474745524544003A20007A5F70724F
:101340006F6265007A5F6D617800795F6D6178002A
:10135000785F6D696E005265706F7274696E672098
:10136000656E6473746F70207374617475730A00B2
:101370000080C5430000C8430080CF430000000048
:10138000000000000000000020746F6F206C6F6E82
:101390006720657874727573696F6E2070726576F8
:1013A000656E7465640A0020636F6C6420657874F0
:1013B000727573696F6E2070726576656E746564A0
:1013C0000A00000020C20000C8430080CF435761DC
:1013D000726E696E673A20486F6D696E672042755C
:1013E0006D702044697669736F72203C20310A0069
:1013F0000202040080C5430000C8430080CF4300C0
:1014000000A0400000A040000000400000000100DB
:1014100000000100008000555555000000400033D9
:10142000333300AAAA2A004992240000002000C7F2
:10143000711C0099991900D1451700555515003BAD
:10144000B113002449120011111100000010000F07
:101450000F0F00E3380E0043790D00CCCC0C00C315
:10146000300C00E8A20B0064210B00AAAA0A00704D
:101470003D0A009DD80900427B090092240900DC46
:10148000D30800888808001042080000000800F017
:10149000C107008787070075500700711C07003ED1
:1014A000EB0600A1BC0600699006006666060070A7
:1014B0003E06006118060017F4050074D105005BB4
:1014C000B00500B290050062720500555505007820
:1014D000390500B81E0500050505004EEC0400871F
:1014E000D40400A1BD040090A7040049920400C1E7
:1014F0007D0400EE690400C7560400444404005C07
:101500003204000821040041100400000004003FE0
:10151000F00300F8E0030026D20300C3C30300CCAD
:10152000B503003AA803000A9B0300388E0300C0ED
:101530008103009F750300D0690300505E03001D06
:1015400053030034480300913D0300333303001676
:10155000290300381F030097150300300C03000314
:101560000303000BFA020049F10200BAE802005C32
:10157000E002002DD802002DD0020059C80200B0B0
:10158000C0020031B90200DAB10200AAAA0200A02A
:10159000A30200BC9C0200FA9502005C8F0200DFEF
:1015A00088020082820200457C0200277602002722
:1015B000700200436A02007C640200D05E02003FB9
:1015C000590200C8530200FFFDFCFAF8F6F4F2F0ED
:1015D000EEECEAE9E7E5E3E1E0DEDCDAD9D7D5D401
:1015E000D2D0CFCDCBCAC8C7C5C3C2C0BFBDBCBA9D
:1015F000B9B7B6B4B3B2B0AFADACAAA9A8A6A5A40A
:10160000A2A1A09E9D9C9A99989795949392908F51
:101610008E8D8B8A8988878684838281807F7E7D78
:101620007B7A797877767574737271706F6E6D6C82
:101630006B6A696867666564636261605F5E5D5C72
:101640005B5A5958585756555453525150504F4E53
:101650004D4C4B4A4A49484746464544434242411D
:10166000403F3E3E3D3C3B3B3A39383837363535D6
:10167000343332323130302F2E2E2D2C2B2B2A2981
:101680002928272726252524232322212120201F1E
:101690001E1E1D1C1C1B1B1A1919181817161615AF
:1016A0001514131312121111100F0F0E0E0D0D0C35
:1016B0000C0B0A0A090908080707060605050404B1
:1016C0000303020201000020746F6F206C6F6E67CD
:1016D00020657874727573696F6E207072657665B7
:1016E0006E7465640A0020636F6C642065787472A0
:1016F0007573696F6E2070726576656E7465640AC5
:1017000000290A002062797465733B2063726320AC
:101710000053657474696E67732053746F726564E7
:10172000202800454550524F4D20496E697469612B
:101730006C697A65640A0048617264636F64656409
:101740002044656661756C742053657474696E67B6
:1017500073204C6F616465640020286D6D29002042
:101760003B204C6576656C696E67200020204D3407
:1017700032302053004175746F20426564204C65FF
:1017800076656C696E670020204D39303600205434
:101790003120450020543020450053746570706539
:1017A00072206472697665722063757272656E74F8
:1017B0000020204D3536392053310054312045006A
:1017C00054302045002058004472697665722073B9
:1017D00074657070696E67206D6F646500204A00E3
:1017E0002020473239205720490020204D313439FC
:1017F0002043203B20556E69747320696E20436539
:101800006C736975730A0054656D706572617475E7
:10181000726520556E697473002020473231203B79
:10182000004C696E65617220556E697473004545A0
:1018300050524F4D206461746173697A65206572FE
:10184000726F722E0A00202863616C63756C61747C
:10185000656429210A0020213D2000454550524F52
:101860004D20435243206D69736D61746368202D70
:10187000202873746F726564292000454550524FCB
:101880004D20436F72727570740A002053697A6537
:101890003A2000496E6465783A2000290A002062E7
:1018A000797465733B2063726320002073746F72D8
:1018B00065642073657474696E67732072657472F1
:1018C00069657665642028000000484300004843AD
:1018D0000000A041000034420000C8420000C8429D
:1018E000F0F7FB4300000C43DC050000DC050000C2
:1018F0006400000010270000204D61726C696E3D8D
:10190000563838290A00454550524F4D20766572A9
:1019100073696F6E206D69736D617463682028450B
:101920004550524F4D3D0045315F53455249414C62
:101930005F52585F50494E0045315F53455249410F
:101940004C5F54585F50494E0045305F53455249F3
:10195000414C5F52585F50494E0045305F534552ED
:1019600049414C5F54585F50494E005A5F534552AD
:1019700049414C5F52585F50494E005A5F5345529F
:1019800049414C5F54585F50494E00595F5345528E
:1019900049414C5F52585F50494E00595F53455280
:1019A00049414C5F54585F50494E00585F5345526F
:1019B00049414C5F52585F50494E00585F53455261
:1019C00049414C5F54585F50494E005A5F5354454B
:1019D000505F50494E005A5F454E41424C455F5062
:1019E000494E005A5F4449525F50494E00595F5377
:1019F0005445505F50494E00595F454E41424C4559
:101A00005F50494E00595F4449525F50494E00585B
:101A10005F535445505F50494E00585F454E414218
:101A20004C455F50494E00585F4449525F50494E03
:101A3000005A5F4D494E5F50524F42455F50494EEC
:101A40000045315F444941475F50494E0045305F92
:101A5000444941475F50494E005A5F444941475FFE
:101A600050494E00595F444941475F50494E005824
:101A70005F444941475F50494E005A5F53544F50AD
:101A80005F50494E005A5F4D41585F50494E0059D2
:101A90005F53544F505F50494E00595F4D41585F5E
:101AA00050494E00585F53544F505F50494E0058B4
:101AB0005F4D494E5F50494E00534552564F335F7C
:101AC00050494E00534552564F325F50494E0053D5
:101AD0004552564F315F50494E00534552564F3094
:101AE0005F50494E0053445F53535F50494E00537B
:101AF0004453530053445F53434B5F50494E00538C
:101B0000445F4D4F53495F50494E0053445F4D4928
:101B1000534F5F50494E004D4F534645545F445F0D
:101B200050494E004D4F534645545F435F50494E18
:101B3000004D4F534645545F425F50494E004D4F54
:101B4000534645545F415F50494E0054454D505FE8
:101B5000305F43535F50494E004C45445F50494EFF
:101B6000004845415445525F4245445F50494E004C
:101B70004845415445525F335F50494E0048454106
:101B80005445525F325F50494E00484541544552DA
:101B90005F315F50494E004845415445525F305FC8
:101BA00050494E0046414E5F50494E0045335F4319
:101BB000535F50494E0045325F43535F50494E00DA
:101BC00045335F535445505F50494E0045335F45A0
:101BD0004E41424C455F50494E0045335F444952A7
:101BE0005F50494E0045325F535445505F50494E57
:101BF0000045325F454E41424C455F50494E0045DD
:101C0000325F4449525F50494E0045315F5354455D
:101C1000505F50494E0045315F454E41424C455F53
:101C200050494E0045315F4449525F50494E00458E
:101C3000305F535445505F50494E0045305F454E2C
:101C400041424C455F50494E0045305F4449525F28
:101C500050494E00455850325F30385F50494E0071
:101C6000455850325F30375F50494E00455850322A
:101C70005F30365F50494E00455850325F30355F17
:101C800050494E00455850325F30345F50494E0045
:101C9000455850325F30335F50494E0045585032FE
:101CA0005F30325F50494E00455850325F30315FEF
:101CB00050494E00455850315F30385F50494E0012
:101CC000455850315F30375F50494E0045585031CC
:101CD0005F30365F50494E00455850315F30355FB8
:101CE00050494E00455850315F30345F50494E00E6
:101CF000455850315F30335F50494E0045585031A0
:101D00005F30325F50494E00455850315F30315F8F
:101D100050494E004156525F53535F50494E004167
:101D200056525F53434B5F50494E004156525F4DF0
:101D30004F53495F50494E004156525F4D49534FF2
:101D40005F50494E0054454D505F4245445F5049F5
:101D50004E0054454D505F335F50494E0054454D41
:101D6000505F325F50494E0054454D505F315F50D7
:101D7000494E0054454D505F305F50494E00464932
:101D80004C57494454485F50494E00545844300021
:101D90005258443000423A0020436F756E7420411F
:101DA0003A004500626564002C2073797374656D98
:101DB0002073746F7070656421204865617465726A
:101DC0005F49443A20004572723A204D41585445CB
:101DD0004D50004D415854454D502074726967670D
:101DE000657265640048656174696E672046616963
:101DF0006C65640048656174696E67206661696C32
:101E00006564001000600350012C0190012201D094
:101E100001180110020E0170020401E002FA0060D4
:101E200003F0000004E600B004DC00A005D200B01E
:101E300006C8000008BE00A009B400800BAA00D0AC
:101E40000DA00090109600C0138C007017820090B7
:101E50001B780010206E00C0246400E02D5000802C
:101E6000353C00A03A2800A03D1400003F0000A02F
:101E70003FECFF4572723A204D494E54454D50009B
:101E80004D494E54454D50207472696767657265BF
:101E90006400544845524D414C2052554E415741E3
:101EA0005900546865726D616C2052756E6177617E
:101EB00079000A0A0020205A5F4D494E5F50524F68
:101EC00042453A0020205A5F4D41583A002020599F
:101ED0005F4D41583A002020585F4D494E3A00204E
:101EE0002F002040002042403A0020403A00496E36
:101EF00076616C69642065787472756465720A0035
:101F00004163746976652045787472756465723AC8
:101F1000200000000000300E0100C00E0A00500F2B
:101F20001400D00F1E0060102800E0103200701165
:101F30003C00F01146007012500000135A0080134C
:101F4000640000146E009014780010158200901543
:101F50008C00101696009016A0001017AA0090177B
:101F6000B4001018BE009018C8001019D2009019C3
:101F7000DC00101AE600801AF000001BFA00801B3B
:101F80000401F01B0E01701C1801F01C2201601DE1
:101F90002C01E01D3601501E4001D01E4A01401F99
:101FA0005401B01F5E0130206801A0207201102191
:101FB0007C0190218601002290016026F401902A84
:101FC0005802802EBC0250322003E0358403503981
:101FD000E803803C4C042020506C616E6E657242B8
:101FE000756666657242797465733A2000204672A0
:101FF0006565204D656D6F72793A200020436F6DE5
:1020000070696C65643A2044656320313420323055
:1020100032330A00204C617374205570646174651A
:10202000643A20323032332D30352D3136207C2049
:10203000417574686F723A2028467261636B7461EF
:102040006C20576F726B732C2064656661756C74BD
:1020500020636F6E666967290A004D61726C696E54
:1020600020322E312E322E310A0020536F667477C3
:102070006172652052657365740A0020576174634C
:1020800068646F672052657365740A002042726F3E
:10209000776E206F75742052657365740A00204551
:1020A000787465726E616C2052657365740A0050B5
:1020B0006F77657255700A0073746172740A00203C
:1020C000503A00205A3A0020593A0020583A006508
:1020D0006E6473746F7073206869743A2000000036
:1020E0002100240027002A002D00300033000101C8
:1020F0000000040107010A0100000A0B02090C0D8F
:102100000E080703040100000000000000000000AA
:1021100000000000000000000000000000000000BF
:10212000000000001211100000000000000000007C
:10213000000000000000000000000000000000009F
:1021400020002300260029002C002F00320000016F
:1021500000000301060109010000220025002800FB
:102160002B002E003100340002010000050108019F
:102170000B0105050505070508080808020202020B
:102180000A0A080804040404010101010101010113
:102190000303030303030303040707070C0C0C0CDE
:1021A0000C0C0C0C020202020606060606060606C7
:1021B0000B0B0B0B0B0B0B0B010210202008081054
:1021C00020401020408002010201080402010102A7
:1021D0000408102040808040201008040201800480
:1021E00002018040201008040201080402010102DB
:1021F000040810204080010204081020408024F4CC
:1022000004D9201BC40C5C0E9804C4095F02650746
:102210007101F405F900FB04B30048048700C10311
:1022200069005803550003034500BE023A008402CA
:10223000310053022A002902250004022000E40193
:102240001C00C8011900AF01170098011400840197
:102250001300710110006101100051010E004301D3
:102260000D0036010B002B010B0020010B001501A6
:1022700009000C01090003010800FB000800F3003D
:102280000800EB000700E4000600DE000600D800AE
:102290000600D2000600CC000500C7000500C20001
:1022A0000500BD000400B9000400B5000400B10041
:1022B0000400AD000400A9000400A5000300A20072
:1022C00003009F0004009B0003009800030095009A
:1022D000020093000300900003008D0002008B00B9
:1022E00003008800020086000200840003008100D1
:1022F00002007F0002007D0002007B0002007900E6
:1023000002007700010076000200740002007200F3
:102310000100710002006F0002006D0001006C00FE
:1023200002006A0001006900020067000100660007
:10233000010065000100640002006200010061000C
:102340000100600001005F0002005D0001005C0010
:1023500001005B0001005A00010059000100580013
:102360000100570001005600010055000100540013
:102370000100530000005300010052000100510011
:102380000100500001004F0001004E0000004E000F
:1023900001004D0001004C0001004B0000004B000B
:1023A00001004A0001004900010048000000480007
:1023B0000100470001004600000046000100450002
:1023C00000004500010044000100430000004300FC
:1023D00001004200000042000100410000004100F5
:1023E0000100400001003F0000003F0001003E00EE
:1023F00000003E0001003D0000003D0001003C00E7
:1024000000003C0000003C0001003B0000003B00DD
:1024100001003A0000003A000100390000003900D4
:1024200001003800000038000000380001003700CB
:1024300000003700010036000000360000003600C2
:1024400001003500000035000000350001003400B7
:1024500000003400000034000100330000003300AD
:1024600000003300010032000000320000003200A2
:102470000100310000003100000031000100300097
:10248000000030000000300001002F0000002F008D
:1024900000002F0000002F0001002E0000002E0081
:1024A00000002E0001002D0000002D0000002D0076
:1024B00000002D0001002C0000002C0000002C006A
:1024C00000002C0001002B0000002B0000002B005E
:1024D00000002B0001002A0000002A0000002A0052
:1024E00000002A0001002900000029000000290046
:1024F0000000290000002900010028000000280039
:10250000000028000000280000002800010027002B
:10251000000027000000270000002700000027001F
:102520000100260000002600000026000000260012
:102530000000260001002500000025000000250005
:1025400000002500000025000000250001002400F7
:1025500000002400000024000000240000002400EB
:1025600001002300000023000000230000002300DE
:1025700000002300000023000000230001002200CF
:1025800000002200000022000000220000002200C3
:1025900000002200010021000000210000002100B5
:1025A00000002100000021000000210000002100A7
:1025B000010020000000200000002000000020009A
:1025C000000020000000200000002000000020008B
:1025D00001001F0000001F0000001F0000001F007E
:1025E00000001F0000001F0000001F0001001E006F
:1025F00000001E0000001E0000001E00000024F469
:10260000D43050C38E20C2A24017828B7011127A30
:10261000910D816CD90AA861E108C758660761511C
:1026200043061E4B5D05C145A7041A411104093D2F
:102630009803713931034036DB0265339102D4309F
:102640005402802E1D02632CEE01752AC501B028AC
:10265000A001102781018F2564012B244B01E0226A
:102660003401AC211F018D200D01801FFC00841E50
:10267000ED00971DDF00B81CD200E61BC600201B32
:10268000BC00641AB200B219A8000A19A0006A18A6
:102690009900D117910040178B00B51684003116B0
:1026A0007E00B31579003A157300C7146F005814F3
:1026B0006A00EE1366008813630025135E00C712DC
:1026C0005B006C12570015125400C11151007011BB
:1026D0004F0021114B00D61049008D1047004610C5
:1026E000440002104200C00F4000800F3E00420F25
:1026F0003C00060F3B00CB0E3800930E37005C0EFB
:102700003500270E3400F30D3200C10D3100900D5D
:102710003000600D2E00320D2D00050D2C00D90C5F
:102720002B00AE0C2900850C29005C0C2700350C11
:1027300027000E0C2600E80B2400C40B2400A00B7D
:1027400023007D0B23005A0B2100390B2100180BAD
:102750002000F80A1F00D90A1E00BB0A1E009D0AAD
:102760001D00800A1D00630A1C00470A1B002C0A7A
:102770001B00110A1A00F7091A00DD091900C40923
:102780001900AB091900920917007B0918006309A9
:1027900017004C09160036091600200916000A0910
:1027A0001500F5081500E0081400CC081400B8085E
:1027B0001400A4081400900813007D0812006B0890
:1027C00013005808120046081200340811002308AC
:1027D00011001208110001081100F0071000E007B5
:1027E0001000D0071000C0071000B0070F00A107AD
:1027F000100091070E0083070F0074070F00650794
:102800000E0057070E0049070E003B070D002E076C
:102810000E0020070D0013070D0006070D00F90636
:102820000C00ED060D00E0060C00D4060C00C806F6
:102830000C00BC060C00B0060C00A4060B009906A8
:102840000C008D060B0082060B0077060B006C0651
:102850000B0061060A0057060B004C060A004206F0
:102860000A0038060A002E060A0024060A001A0684
:102870000A001006090007060A00FD050900F40514
:102880000900EB050900E2050900D9050900D0059A
:102890000900C7050900BE050900B5050800AD051A
:1028A0000800A50509009C050800940508008C0592
:1028B0000800840508007C050800740508006C0504
:1028C0000700650508005D050700560508004E0570
:1028D00007004705070040050800380507003105D7
:1028E00007002A050700230507001C05060016053A
:1028F00007000F0507000805060002050700FB0496
:102900000600F5040700EE040600E8040600E204F1
:102910000700DB040600D5040600CF040600C90446
:102920000600C3040600BD040600B7040600B10497
:102930000500AC040600A6040600A00405009B04E4
:10294000060095040500900406008A04050085042D
:102950000500800406007A04050075040500700473
:1029600005006B04050066040500610405005C04B5
:10297000050057040500520405004D0405004804F5
:102980000500430405003E0404003A040500350434
:102990000500300404002C0405002704040023046F
:1029A00005001E0404001A040400160405001104A6
:1029B00004000D04040009040500040404000004DC
:1029C0000400FC030400F8030400F4030400F00313
:1029D0000400EC030400E8030400E4030400E00343
:1029E0000400DC030400D8030400D4030400D00373
:1029F0000400CC030400C8030300C50303007229CC
:102A000000007C200000AD160000270E0000120818
:102A10000000570400004102000026010000486F3A
:102A20006D696E67204661696C656400FF01015045
:102A3000726F62696E67204661696C65640A002086
:102A40005A3A200020593A200042656420583A2022
:102A50000020202000202020416E616C6F672069DB
:102A60006E203D2025356C64003C756E7573656481
:102A70002F756E6B6E6F776E3E0020284125326495
:102A800029202000253364200050494E3A20004F71
:102A900075747075742000496E7075742020004143
:102AA0006E616C6F6720696E203D2025356C640077
:102AB00070726F746563746564200020284125324C
:102AC0006429202000253364200050494E3A20001C
:102AD000901D00018B1D01017E1D3B00731D3A00FE
:102AE000681D39005D1D4300521D4500451D440011
:102AF000381D32012B1D33011F1D3401141D3501FA
:102B0000081D2501FC1C2301F01C1101E41C10010F
:102B1000D81C1701CC1C1901C01C1B01B41C1D01C1
:102B2000A81C32019C1C3401901C1F01841C35011F
:102B3000781C21016C1C3301601C3101541C2901DB
:102B4000491C1C013B1C18012F1C1A01241C2201CA
:102B5000161C1E010A1C2401FF1B2201F11B1E0171
:102B6000E51B2401DA1B2201CC1B1E01C01B240122
:102B7000B61B2C01AC1B2C01A41B0401971B0A01E2
:102B80008A1B07017D1B2F01701B2D01611B080192
:102B9000591B0D014B1B42013E1B0A01311B090150
:102BA000241B0801171B07010B1B3201FF1A3301FD
:102BB000F41A3401EF1A3501E51A3501DA1A0B015E
:102BC000CF1A1501C41A2701B91A2001AF1A03013F
:102BD000A41A03019A1A0F018F1A0F01851A130103
:102BE0007A1A13016F1A0301641A0E01591A12019D
:102BF0004D1A0201411A0F01311A0601271A370135
:102C00001A1A26010F1A3601051A3D01F819380162
:102C1000ED193C01E3193001D6193E01CB192E0103
:102C2000BB192801AB193F019B193B018B194001CE
:102C30007B192A016B1941015A192C0149194201CA
:102C40003819140127190C01486F6D652025732070
:102C5000466972737400220A00556E6B6E6F776E50
:102C600020636F6D6D616E643A2022002045002064
:102C70005A0020590020204D3932205800537465E5
:102C800070732070657220756E6974006F6B0A0036
:102C9000526573656E643A200020453A00205A3A26
:102CA0000020593A00583A005072696E74657220DB
:102CB00068616C7465642E206B696C6C28292063D4
:102CC000616C6C6564210A0027AF11241FBECFEF31
:102CD000D1E2DEBFCDBF00E00CBF84B780930E1100
:102CE00014BE0FB6F894A895809160008861809317
:102CF0006000109260000FBE13E0A0E0B2E0E2EBD3
:102D0000F9E801E00BBF02C007900D92A837B107A8
:102D1000D9F721E1A8E7B3E001C01D92AE30B207B8
:102D2000E1F716E1C5E6D6E100E006C0219701090A
:102D3000802FFE010E94A1C1C436D10780E00807A0
:102D4000A9F70E94CEB10C94D7C40C940000EF9266
:102D5000FF920F931F93E0928503F09286030093F6
:102D60008703109388036093890370938A03809389
:102D70008B039FEFFF27621B730B840B30F480954E
:102D800070956195790B890B992790938403A6E040
:102D90006A9F00927803512DEE277A9F500DE11D16
:102DA0008A9FE00D50937903E0937A03AFE06A9F26
:102DB00000927C03512DEE277A9F500DE11D8A9FD2
:102DC000E00D50937D03E0937E03AAE06A9F00929A
:102DD0008003512DEE277A9F500DE11D8A9FE00D53
:102DE00050938103E09382031F910F91FF90EF9026
:102DF000089593E0980F21E030E002C0220F331FC6
:102E00009A95E2F7209530959091590529232093C2
:102E10005905882321F0813021F081E00895129A2C
:102E2000FCCF479AFACF21E030E0082E02C0220FF3
:102E3000331F0A94E2F72095309590915905292384
:102E400020935905813061F020F0823071F081E0EB
:102E500008955F9A80914D078E7F80934D07F7CF3D
:102E60008A9A80914D078D7FF8CF809108018095D7
:102E700081708093060180914D078B7FEECF9F92EA
:102E8000AF92BF92CF92DF92EF92FF920F931F9378
:102E9000CF93DF9300D01F921F92CDB7DEB7E7EC40
:102EA000F5E10027BB27462F572FA82FAA2341F46F
:102EB000A52F542FB85FAA2319F4A52F5527B85F63
:102EC000A03138F45295A295452F4F70507FA42B16
:102ED000BC5FA03428F4550FAA1F550FAA1FBE5F70
:102EE000A03818F4550FAA1FB395550FAA1FEA0F63
:102EF000F01F449151E0AA27B85079F1C0F0B0FF1B
:102F000002C0440F551FB1FF04C0440F551F440FAA
:102F1000551FB2FF06C052954295142F1F70407F77
:102F2000512BB3FF1AC0A52F542F442716C0B195BB
:102F3000B0FF02C055954795B1FF04C05595479520
:102F400055954795B2FF05C05295407F4295452B58
:102F50005F70B3FF02C0452F5527DD24CC24BB246E
:102F6000B2E0649FD018C108B00AB00B749FC018BB
:102F7000B108B00B849FB018B109659FC018B108A3
:102F8000B00B759FB018B109859FB0196A9FB01832
:102F9000B1097A9FB0194D9DA12C99243327992707
:102FA00022275D9DA00C911C301F901F201FAD9DFE
:102FB000900C311D901F201F4C9DA00C911C301FA8
:102FC000901F201F5C9D900C311D901F201FAC9DF9
:102FD000300D911D201F4B9D900C311D901F201F07
:102FE0005B9D300D911D201FAB9D900D211D4B9FB2
:102FF000300D911D201F5B9F900D211DAB9F200D5B
:10300000B1E0BB24CC24DD24639FD018C108B00AF2
:10301000B00B739FC018B108B00B839FB018B109F3
:10302000699FC018B108B00B799FB018B109899F8A
:10303000B019629FB018B109729FB019D61AC70AA9
:10304000B80A20F0B1E03B0F901F201F1124792F08
:10305000632F90E0822F0F900F900F900F900F90A2
:10306000DF91CF911F910F91FF90EF90DF90CF9064
:10307000BF90AF909F900895AF92BF92CF92DF9292
:10308000EF92FF920F931F93CF93DF93C2E5D7E0A8
:1030900004E414E082E6A82E87E0B82EC12CD12CDF
:1030A0007601C39469917991899199910E9441BD6A
:1030B000288939894A895B890E94A2BD0E9429C357
:1030C000F80161937193819391938F01C616D7068E
:1030D000E806F90610F46B017C01AC16BD0611F789
:1030E0006FEF7FEFCB01A70196010E9417C12093DC
:1030F0005404309355044093560450935704DF9181
:10310000CF911F910F91FF90EF90DF90CF90BF90E4
:10311000AF9008957F928F929F92AF92BF92CF927D
:10312000DF92EF92FF920F931F93CF93DF937090F4
:103130009E04C4E3D4E095E1C92E92E0D92E2BE1A0
:10314000E22E22E0F22E02E914E0772009F45EC0BC
:10315000F80180809180A280B38020E030E0A90156
:10316000C501B4010E943DBD882309F44FC020E091
:1031700030E040E05FE3C501B4010E94A2BD9B01C5
:10318000AC010E94A2BD2BED3FE049E450E40E9457
:10319000A2BD9B01AC0160E070E080E89FE30E946B
:1031A000BCC24B015C0189929992A992B992F60135
:1031B000619171916F01072E000C880B990B0E9491
:1031C00043BD2AE037ED43E25CE30E94A2BDA501C6
:1031D00094010E94A2BDF701619371938193919331
:1031E0007F010C5F1F4FF4E0C034DF0709F0ADCF63
:1031F000DF91CF911F910F91FF90EF90DF90CF90D3
:10320000BF90AF909F908F907F900895812C912CCC
:1032100080E8A82E8FE3B82EC6CF80911A10909127
:103220001B10891B8F7019F490E080E00895909135
:103230001710992351F0833030F48FEF890F19F074
:1032400080931710F1CF1092171080911B1029E571
:10325000829FC00111248656984FFC01208120FDD9
:10326000E3CF20911B102F5F2F7020931810309107
:103270001B1020911910321304C0209118102093B4
:1032800019100895FC017081472F50E0062E02C0EE
:10329000559547950A94E2F740FF14C04091800588
:1032A00050E0062E02C0559547950A94E2F740FF7C
:1032B00009C021E030E001C0220F6A95EAF72095AD
:1032C000272320830895CF93DF9324E0829FC001BA
:1032D0001124EC01CD5ED14FFC01EC54FA4F885D16
:1032E0009B4FDC012D913D914D915C9160817181ED
:1032F000828193810E94E0C1688379838A839B8362
:10330000DF91CF9108958091240490912504A0919C
:103310002604B091270480934A0290934B02A09315
:103320004C02B0934D02809122049091230490931B
:10333000140280931302089580914A0290914B02E7
:10334000A0914C02B0914D028093240490932504E7
:10335000A0932604B0932704809113029091140245
:10336000909323048093220484E690E090931402C7
:10337000809313020895CF93DF93909115049111D8
:103380001BC0C0911102D091120221979CE2899F2B
:10339000F0011124E75CF14F20E030E040E05FE312
:1033A00064817581868197810E94E0C10E9424C357
:1033B00021E06C177D070CF020E0822FDF91CF9188
:1033C000089590E080E008954091EA035091EB0366
:1033D000833021F445FD10C044FD0CC021E030E0F5
:1033E00002C0220F331F8A95E2F72423352381E0A0
:1033F000232B09F480E0089581E00895809107046B
:1034000084FD0BC08091090487FD07C090910A04D8
:10341000937081E019F480E0089581E00895E9E374
:10342000FEE081E0838787AB08952FEB280F2A31D8
:1034300008F047C0E22FF0E0809107049091080463
:10344000A0910904B0910A0404C0B695A795979578
:1034500087952A95D2F780FD02C081700895E351C7
:10346000FC4FE081EE2341F180915007909151078C
:10347000E80FF92FF11D808190ED980F9A3030F010
:103480008E3251F4818180538A3098F4F093E703AF
:10349000E093E60381E008958D3211F08B3249F418
:1034A000818190ED980F9A3088F38E3211F48281E9
:1034B000EACFF0E0E0E0EACF1092E7031092E603F3
:1034C000E9CF80E00895B1DF882341F081E02091C9
:1034D000E6033091E703232B09F480E00895E5ED3E
:1034E000F3E080EF9FEFA9E7B4EC84839583A68394
:1034F000B78380839183A283B383EFEBF3E08DE9FD
:103500008183808308958F929F92AF92BF92CF92D2
:10351000DF92EF92FF92FC0198E0A8E8B4E00190FE
:103520000D929A95E1F788E0FB01AFE7B4E00190D6
:103530000D928A95E1F7C0908804D0908904E090BC
:103540008A04F0908B0420E030E0A901C701B601A5
:103550000E943DBD8823E1F1A701960160E070E083
:1035600080E89FE30E94BCC26B017C0180908C04C8
:1035700090908D04A0908E04B0908F0420E030E0F5
:10358000A901C501B4010E943DBD882329F1A5010F
:10359000940160E070E080E89FE30E94BCC2C092AA
:1035A000CD03D092CE03E092CF03F092D00360938C
:1035B000D1037093D2038093D3039093D403FF90ED
:1035C000EF90DF90CF90BF90AF909F908F90089535
:1035D000C12CD12C7601CACF60E070E0CB01DFCFE7
:1035E0001092830410928404109285041092860431
:1035F00010927F0410928004109281041092820431
:1036000010928C0410928D0410928E0410928F04EC
:10361000109288041092890410928A0410928B04EC
:10362000EFE9F4E080E090E0A0ECBFE780839183D5
:10363000A283B38384839583A683B783808791878E
:10364000A287B38784879587A687B787709624E07B
:10365000EF3DF20759F70895882319F0813021F0E2
:10366000089580E00C9463AC47988091590580617F
:103670008093590508950F931F93CF93DF9306E628
:1036800017E0CBE5D4E0F8012191319141915191BE
:103690008F0160E070E080E89FE30E94BCC2699304
:1036A000799389939993F4E0CB36DF0761F70E9411
:1036B0000C95DF91CF911F910F91DECC2F923F920D
:1036C0004F925F926F927F928F929F92AF92BF9232
:1036D000CF92DF92EF92FF920F931F93CF93DF93DE
:1036E000CDB7DEB7A0970FB6F894DEBF0FBECDBF43
:1036F0001C017B015E834D83FC01E85BFF4F208151
:1037000031814281538129833A834B835C83CA018F
:10371000B9010E9441BD4B015C01D7012D913D9142
:103720004D915C910E94A2BD0E94A6C22B013C015A
:10373000ED81FE812081318142815381C501B40137
:103740000E94A2BD0E94A6C26B017C01C301B2010E
:103750000E9429C369877A878B879C8768377105A0
:103760008105910540F428E730E040E050E02987EA
:103770003A874B875C87C701B6010E9429C36D87D2
:103780007E878F87988B683771058105910548F48E
:1037900028E7C22ED12CE12CF12CCD86DE86EF86D7
:1037A000F88AD1019596CD90DD90ED90FC90989798
:1037B000CD82DE82EF82F886F101EC5AFF4F608104
:1037C000718182819381611571058105910509F4EB
:1037D0009FC10E9443BD6D8B7E8B8F8B988F9B0109
:1037E000AC0160E070E080E89FE30E94BCC2698F9A
:1037F0007A8F8B8F9C8F20E030E040E05FE30E9467
:10380000A2BD6B017C01A5019401C501B4010E9418
:10381000A2BD2B013C016D857E858F8598890E9414
:1038200041BD9B01AC010E94A2BD9B01AC01C30143
:10383000B2010E94DFC1A70196010E94A2BD4B0107
:103840005C0169857A858B859C850E9441BD9B01C1
:10385000AC010E94A2BD6D8F7E8F8F8F98A39B01BC
:10386000AC01C301B2010E94DFC1A70196010E9411
:10387000A2BD2B013C010E94A6C20E9429C36B017C
:103880007C01C501B4010E9455C30E9429C3698B04
:103890007A8B8B8B9C8BDC01CB018C0D9D1DAE1D1F
:1038A000BF1D2D813E814F815885281B390B4A0B46
:1038B0005B0BDA01C901B7FF61C06D817E818F8129
:1038C00098850E9441BDA30192010E94E0C1A5011B
:1038D00094010E94DFC120E030E040E05FE30E94FD
:1038E000A2BD0E94A6C26B017C0120E030E0A901CC
:1038F0000E9406C418161CF0C12CD12C7601C701F9
:10390000B6010E9429C36B017C014D815E816F81EC
:1039100078854C155D056E057F0510F46A017B0105
:103920006D817E818F8198856C197D098E099F0933
:10393000698B7A8B8B8B9C8BC701B6010E9441BD32
:103940004B015C012D893E894F89588DCA01B9010F
:103950000E94E0C19B01AC01C501B4010E94A2BD5F
:103960002D8D3E8D4F8D58A10E94E0C10E944BC409
:103970000E9429C369837A838B839C8320E034E28D
:1039800044EF59E4698D7A8D8B8D9C8D0E94A2BD88
:103990004B015C0169817A818B819C8129853A8503
:1039A0004B855C85621B730B840B950B0E9441BD9C
:1039B000A50194010E94A2BD0E9429C32B013C01D4
:1039C00069817A818B819C812D853E854F855889BF
:1039D000621B730B840B950B0E9441BDA5019401E2
:1039E0000E94A2BD0E9429C34B015C013FE6431621
:1039F00051046104710408F097C0F201EE0FFF1F3B
:103A0000EE0FFF1FE55FFB4E85919591A591B49157
:103A10008C01AD8BBD834FE684169104A104B104E3
:103A200008F089C0F401EE0FFF1FEE0FFF1FE55FE6
:103A3000FB4E45915591659174919A01CB01D1014D
:103A40009A96CD92DD92ED92FC929D9795964D912E
:103A50005D916D917C919897C988DA88EB88FC8894
:103A60004C195D096E097F099E964D935D936D9388
:103A70007C93D197F101E45BFF4FC984DA84EB8436
:103A8000FC84C082D182E282F382D6964D925D920E
:103A90006D927C92D997F10182AE93AEA4AEB5AE91
:103AA000FE9600831183CD88C282DD80D382349656
:103AB0002083318382839383C980DA80EB80FC800A
:103AC000D296CD92DD92ED92FC92D5973E96CD8422
:103AD000DE84EF84F888C082D182E282F382A096ED
:103AE0000FB6F894DEBF0FBECDBFDF91CF911F910F
:103AF0000F91FF90EF90DF90CF90BF90AF909F908D
:103B00008F907F906F905F904F903F902F9008958F
:103B1000198E1A8E1B8E1C8E198A1A8A1B8A1C8A71
:103B2000C12CD12C76012ACFC301B201A8D98B01B7
:103B30008D8B9D8370CFC501B401A1D99B017FCF2F
:103B40004F925F926F927F928F929F92AF92BF92AD
:103B5000CF92DF92EF92FF920F931F93CF93DF9359
:103B6000EC0120917F0430918004409181045091B8
:103B70008204688179818A819B810E94DFC16B0107
:103B80007C012091830430918404409185045091FC
:103B900086046C817D818E819F810E94DFC14B01F3
:103BA0005C01A70196016091D5037091D6038091C5
:103BB000D7039091D8030E943DBD882309F450C0DB
:103BC000C092D503D092D603E092D703F092D803E7
:103BD0002091CD033091CE034091CF035091D0037B
:103BE000C701B6010E94A2BD2B013C010E9455C332
:103BF0006B017C0120E030E0A9010E943DBD87FD02
:103C000070C020E030E040E050E4C701B6010E94FF
:103C100006C418162CF4C12CD12CE12CA0E4FA2EE9
:103C2000A7019601C301B2010E94DFC16093C503E1
:103C30007093C6038093C7039093C803C701B6016E
:103C40000E9424C36093C303062E000C770B6F5FA2
:103C50007F4F6330710514F063E070E06093C1033F
:103C6000D091BF03C091C303A50194016091D90312
:103C70007091DA038091DB039091DC030E943DBDDB
:103C8000811133C0DC1381C02091A7033091A803B8
:103C90004091A9035091AA036091C5037091C60396
:103CA0008091C7039091C8030E94A2BD2091AB03ED
:103CB0003091AC034091AD035091AE030E94E0C13E
:103CC000DF91CF911F910F91FF90EF90DF90CF90F8
:103CD000BF90AF909F908F907F906F905F904F902C
:103CE0000895C12CD12C76019BCF8092D90390925C
:103CF000DA03A092DB03B092DC032091D103309170
:103D0000D2034091D3035091D403C501B4010E9462
:103D1000A2BD4B015C010E9455C36B017C0120E0F8
:103D200030E0A9010E943DBD87FDF4C020E030E0F5
:103D300040E050E4C701B6010E9406C418162CF4F6
:103D4000C12CD12CE12CF0E4FF2EA7019601C50176
:103D5000B4010E94DFC16093C9037093CA038093CA
:103D6000CB039093CC03C701B6010E9424C3609398
:103D7000C403062E000C770B6F5F7F4F6330710515
:103D800014F063E070E06093C2030091C403DC139D
:103D900005C08091C003801709F471C08091C303EE
:103DA0009091C4039093C0038093BF03002E000C36
:103DB000110B24E0C202C0011124FC01E00FF11F2D
:103DC000EE0FFF1FEE0FFF1FE156FB4F20813181E9
:103DD000428153812093BB033093BC034093BD03C6
:103DE0005093BE03C091C2030C2E000CDD0BFC01EE
:103DF000EC0FFD1FEE0FFF1FEE0FFF1FE156FB4FF5
:103E000060817181828193810E94DFC16093B703D9
:103E10007093B8038093B9039093BA038091C10360
:103E200024E08202C0011124FC01E00FF11FEE0F1B
:103E3000FF1FEE0FFF1FE156FB4F208131814281B2
:103E400053812093B3033093B4034093B50350934D
:103E5000B603C80FD91FCC0FDD1FCC0FDD1FC15615
:103E6000DB4F688179818A819B810E94DFC16093E9
:103E7000AF037093B0038093B1039093B20380902B
:103E8000C9039090CA03A090CB03B090CC032091BB
:103E9000B7033091B8034091B9035091BA03C501FB
:103EA000B4010E94A2BD2091BB033091BC0340919C
:103EB000BD035091BE030E94E0C16B017C01C09222
:103EC000AB03D092AC03E092AD03F092AE0320912D
:103ED000AF033091B0034091B1035091B203C501DB
:103EE000B4010E94A2BD2091B3033091B40340916C
:103EF000B5035091B6030E94E0C1A70196010E944C
:103F0000DFC16093A7037093A8038093A9039093E4
:103F1000AA03BACEC12CD12C760117CF2F923F9293
:103F20004F925F926F927F928F929F92AF92BF92C9
:103F3000CF92DF92EF92FF920F931F93CF93DF9375
:103F4000D62FC72FFC0180809180A280B380C5014D
:103F5000B40120E831E541E050E00E9417C1C901F9
:103F60006DE671E00E947AC16B017C01C501B4016C
:103F700020E13EE040E050E00E9417C1CA01B901D3
:103F800028E130E040E050E00E9417C1362E272E95
:103F9000062F172F8CE3482E512C612C712CC50154
:103FA000B401A30192010E9417C1B62EA72ECA0127
:103FB000B901A30192010E9417C1CB01C114D10420
:103FC00079F1AF92BF927F936F932F923F92FF92BE
:103FD000EF92DF92CF928AE991E19F938F93CF93F3
:103FE000DF930E940EBD8DB79EB70E960FB6F89464
:103FF0009EBF0FBE8DBF8D2F9C2FDF91CF911F9144
:104000000F91FF90EF90DF90CF90BF90AF909F9077
:104010008F907F906F905F904F903F902F9008957A
:10402000E114F104C9F0AF92BF927F936F932F9286
:104030003F92FF92EF928AE891E19F938F93CF9303
:10404000DF930E940EBDEDB7FEB73C960FB6F89415
:10405000FEBF0FBEEDBFCFCF012BB9F0AF92BF9225
:104060007F936F932F923F928EE791E19F938F936F
:10407000CF93DF930E940EBD8DB79EB70A960FB601
:10408000F8949EBF0FBE8DBFB6CF892BA9F0AF921B
:10409000BF927F936F9386E791E19F938F93CF9326
:1040A000DF930E940EBDEDB7FEB738960FB6F894B9
:1040B000FEBF0FBEEDBF9FCFAF92BF9282E791E1EF
:1040C0009F938F93CF93DF930E940EBD0F900F901D
:1040D0000F900F900F900F908ECFAF92BF92CF9214
:1040E000DF92EF92FF920F931F93CF935C016B01CE
:1040F0008A0180579C4F7C01DC01CC91C7FF3DC0F9
:10410000FB0111821082CF5FD701CC93CC300CF031
:1041100053C08CE08A9DF0018B9DF00D1124CF01DE
:104120008C0F911DC7FD9A9520910510281719062F
:1041300009F00CF441C0F60120813181FC01EE0F41
:10414000FF1FE80FF91FE354F04F81819281820F26
:10415000931FD80111969C938E93808187FF3DC059
:1041600061E08F77CF911F910F91FF90EF90DF90DB
:10417000CF90BF90AF900C942F9A8CE08A9DF00165
:104180008B9DF00D1124CF018C0F911DC7FD9A95C9
:10419000209105102817190609F00CF4B4CFFC0182
:1041A000EE0FFF1FE80FF91FE354F04F808160E02E
:1041B0008F770E942F9AA7CFF60180819181049674
:1041C0008034FCE99F0710F480E49CE9D801119643
:1041D0009C938E938FEFF7018083CF911F910F9166
:1041E000FF90EF90DF90CF90BF90AF9008958091B7
:1041F000E6039091E703009731F04AE050E070E069
:1042000060E00C947DBA60E070E0CB010895EFDFD0
:1042100097FD0AC0ECDF6F3F71058105910509F03C
:104220002CF4E5DF862F089580E008958FEF089540
:10423000CF93C62F48D9882311F0CF91E8CF8C2F88
:10424000CF9108958091E6039091E703892B39F08F
:10425000DEDF91E0811101C090E0892F089591E0A7
:10426000FCCFCF93DF93C82FD62F2DD9882319F0F9
:10427000DF91CF91E7CF8C2FD8D8811101C08D2F3E
:10428000DF91CF910895B3DFCB010895CF93DF93F2
:10429000EB0119D9882319F0DF91CF91F4CFCE012A
:1042A000DF91CF9108950F931F93CF938091E603F1
:1042B0009091E703009709F1FC018F01C1912C2F28
:1042C0002F7DA1F0C53431F0C53621F0C83511F08D
:1042D000C83799F7F801108270E060E00E9428B9B1
:1042E000F801C083CF911F910F91089570E060E0B5
:1042F000CF911F910F910C9428B960E070E0CB0131
:10430000F1CFCF92DF92EF92FF926A017B01DBD86F
:10431000882329F0FF90EF90DF90CF90C4CFC701A2
:10432000B601FF90EF90DF90CF9008954F925F928B
:104330006F927F92AF92BF92CF92DF92EF92FF92F5
:104340000F931F93CF938DE0A82E83E0B82E9DE9A5
:10435000E92E95E0F92E04E612E023E1C22E2EE0CC
:10436000D22EC0E0F50181915F01ADD8882309F418
:10437000A2C099DF2B013C018C2F26D8882309F499
:1043800090C0F8012081318142815381C301B20183
:104390000E94E0C1F7016083718382839383CF5FC2
:1043A000F4E0EF0EF11C0C5F1F4F84E0C80ED11C2F
:1043B000C330C1F685E487D8882309F487C073DF4A
:1043C0006B017C0183E000D8882371F0209170029A
:1043D000309171024091720250917302C701B6018F
:1043E0000E94E0C16B017C01C092A905D092AA0590
:1043F000E092AB05F092AC0540E050E0BA0186E4F3
:1044000080DF20E030E0A9010E9406C418167CF489
:104410004ADF20E030E040E752E40E94BCC26093F3
:104420004A0270934B0280934C0290934D0280910C
:10443000C00583FD28C08091AE05882321F120911D
:10444000700230917102409172025091730260913A
:10445000A9057091AA058091AB059091AC050E94C9
:10446000DFC12091340E3091350E4091360E5091BF
:10447000370E0E94E0C16093340E7093350E809326
:10448000360E9093370ECF911F910F91FF90EF90C2
:10449000DF90CF90BF90AF907F906F905F904F90E4
:1044A0000895F6012081318142815381C301B20117
:1044B0000E94DFC16FCFF80180819181A281B38119
:1044C000F70180839183A283B38369CF80917002C7
:1044D00090917102A0917202B09173028093A9052C
:1044E0009093AA05A093AB05B093AC0585CF0F932D
:1044F0000FB70F9300916E000F930D7F00936E0026
:1045000000916F000D7F00936F000F930BB70F9317
:104510000CB70F921F922F933F934F935F936F931C
:104520007F938F939F93AF93BF93EF93FF93112448
:1045300095D4FF91EF91BF91AF919F918F917F9112
:104540006F915F914F913F912F911F900F900CBFF2
:104550000F910BBF0F910260F89400936F000F91C1
:1045600000936E000F910FBF0F911895000080917E
:10457000B10580FF29C089988FEF8093F204809164
:10458000B10581FF24C08F988FEF8093F304809151
:10459000B10582FF1FC080910B01809582708093CE
:1045A00009018FEF8093F4048091F6049091B10596
:1045B00093FF1DC08130B9F0A0F08230B1F08FEFD1
:1045C0008093F50400000895899A81E0D6CF8F9AF0
:1045D00081E0DBCF80910B0182708093090181E043
:1045E000E1CF1698ECCF169AEACF439AE8CF813004
:1045F00039F020F0823031F081E0E2CF169AFCCF22
:104600001698FACF4398F8CF80E00E94F91681E01F
:104610000E94F91682E00C94F91680E00E941317AC
:1046200081E00E94131782E00E941317EDCF8130C2
:1046300089F070F0823081F021E030E001C0220F7B
:104640008A95EAF780915905822B80935905089540
:104650005F98F2CF8A98F0CF909108019170909373
:104660000601EACFCF93DF9320918704222371F0D4
:10467000EC0166DA9B01AC01688579858A859B85AA
:104680000E94E0C1688779878A879B87DF91CF91F5
:10469000089590916F0081E091FD02C080E008953F
:1046A00090916F009D7F90936F000895EFE6F0E08A
:1046B00080818260808308958F929F92AF92BF9293
:1046C000CF92DF92EF92FF920F931F93CF93DF93DE
:1046D000182F84E0189FE0011124123008F046C022
:1046E000D8DF082FD6DF8090490590904A05A0902A
:1046F0004B05B0904C058111D9DFCBDFC0904D0543
:10470000D0904E05E0904F05F09050058111CEDF1E
:104710000111CCDF113019F5C501B4016C197D0907
:104720008E099F090E9443BD20E030E040E05FE336
:104730000E94A2BDC55ADB4F288139814A815B8125
:104740000E94A2BDDF91CF911F910F91FF90EF903A
:10475000DF90CF90BF90AF909F908F900895C7014A
:10476000B601680D791D8A1D9B1DDCCF92DFFE010D
:10477000E75BFA4FC080D180E280F380811196DF41
:10478000C701B6010E9443BDD5CF8F929F92AF92D1
:10479000BF92CF92DF92EF92FF921F93CF93DF935E
:1047A000CDB7DEB760970FB6F894DEBF0FBECDBFB2
:1047B000182F80E081DF4B015C01809216049092FB
:1047C0001704A0921804B092190481E075DF6B0100
:1047D0007C01C0921A04D0921B04E0921C04F09257
:1047E0001D0482E069DF60931E0470931F048093B0
:1047F0002004909321041D861E861F86188A8982B4
:104800009A82AB82BC82CD82DE82EF82F886698793
:104810007A878B879C8783E04FDF6D877E878F87C2
:10482000988B80918704882379F0CE01019688D9EE
:104830009B01AC0169857A858B859C850E94DFC1CF
:1048400069877A878B879C871E3FD9F480E1FE01B8
:104850003196A4E6B2E001900D928A95E1F7609658
:104860000FB6F894DEBF0FBECDBFDF91CF911F9181
:10487000FF90EF90DF90CF90BF90AF909F908F9080
:10488000089584E0189FF0011124DF01AC59BD4F59
:1048900081E090E08C0F9D1FE80FF91F408151814E
:1048A000628173814D935D936D937C931397D7CF02
:1048B000CF92DF92EF92FF92CF93DF93C82FE9DE82
:1048C00094E0C99FE0011124FE01E35CFA4FC0802F
:1048D000D180E280F3808111E9DEC55ADB4FC70148
:1048E000B6010E9443BD288139814A815B810E94C3
:1048F000A2BDDF91CF91FF90EF90DF90CF90089510
:10490000CF93DF93CDB7DEB72C970FB6F894DEBF09
:104910000FBECDBF0E941794BCDE9CE0E9E4F5E039
:10492000DE01119601900D929A95E1F78111BEDE9C
:10493000CE0101960E9471AC2C960FB6F894DEBFA2
:104940000FBECDBFDF91CF910895CF93DF931F921C
:10495000CDB7DEB7898360E0CE0101960E9442198F
:1049600061E0CE0101960E94421962E0CE010196FB
:104970000E94421989810F90DF91CF9108958F9203
:104980009F92AF92BF92CF92DF92EF92FF92CF931E
:10499000DF9320913002222309F48EC0EC01809134
:1049A0008005E82E80FF2CC0809032029090330268
:1049B000A0903402B0903502288139814A815B8110
:1049C000C501B4010E9406C4181624F48882998295
:1049D000AA82BB8280903E0290903F02A09040024B
:1049E000B0904102288139814A815B81C501B401BF
:1049F0000E943DBD87FF04C088829982AA82BB8243
:104A0000E1FE2CC08090360290903702A0903802D0
:104A1000B09039022C813D814E815F81C501B40186
:104A20000E9406C4181624F48C829D82AE82BF8236
:104A30008090420290904302A0904402B0904502C0
:104A40002C813D814E815F81C501B4010E943DBD35
:104A500087FF04C08C829D82AE82BF82E2FE2CC0A2
:104A6000C0903A02D0903B02E0903C02F0903D02B0
:104A7000288539854A855B85C701B6010E9406C431
:104A8000181624F4C886D986EA86FB86C0904602AA
:104A9000D0904702E0904802F0904902288539857D
:104AA0004A855B85C701B6010E943DBD87FF04C0F2
:104AB000C886D986EA86FB86DF91CF91FF90EF907A
:104AC000DF90CF90BF90AF909F908F900895CF923E
:104AD000DF92EF92FF920F931F93CF93DF93E82F14
:104AE000F0E0EF01CC0FDD1FCC0FDD1F461739F0D2
:104AF000823009F049C0C12CD12C760117C0823018
:104B0000D1F3A0914C078A2F90E0DC01AA0FBB1FC4
:104B1000A80FB91FAE0FBF1FAA0FBB1FAA0FBB1F45
:104B2000AF57BA4FCD90DD90ED90FC908F01000F04
:104B3000111F000F111FF801E458FC4E259135910B
:104B400045915491C05DDD4FC701B6010E94E0C19F
:104B50006A837B838C839D83F801E059FC4E259109
:104B6000359145915491C701B6010E94E0C16E870D
:104B70007F87888B998BDF91CF911F910F91FF9049
:104B8000EF90DF90CF90089550E0DA01AA0FBB1F9D
:104B9000A40FB51FAE0FBF1FAA0FBB1FAA0FBB1FCD
:104BA000AF57BA4F862F90E0BC01660F771F680F92
:104BB000791FE60FF71FEE0FFF1FEE0FFF1FEF57D6
:104BC000FA4F20813181428153816D917D918D9188
:104BD0009C910E94DFC16B017C01C05DDD4FAC0187
:104BE0009B016A817B818C819D810E94E0C16A83E7
:104BF0007B838C839D83A70196016E857F85888941
:104C00009989B3CF4F925F926F927F928F929F92CA
:104C1000AF92BF92CF92DF92EF92FF92CF93DF934A
:104C200000D01F921F92CDB7DEB740906402509023
:104C300065026090660270906702809068029090B2
:104C40006902A0906A02B0906B02C0906C02D09092
:104C50006D02E0906E02F0906F0280917002909170
:104C60007102A0917202B091730289839A83AB831F
:104C7000BC830E943C180E940F1A0E948A181D8251
:104C80008D810E94631940E060E08D8120DF9D816D
:104C90009F5F9D839330A1F70E946F1A0E943B1B78
:104CA000A301920160916402709165028091660295
:104CB000909167020E943DBD81112CC0A501940115
:104CC000609168027091690280916A0290916B0212
:104CD0000E943DBD81111EC0A701960160916C022A
:104CE00070916D0280916E0290916F020E943DBDA5
:104CF000811110C029813A814B815C8160917002E1
:104D00007091710280917202909173020E943DBD78
:104D10008823A1F00F900F900F900F900F90DF91CC
:104D2000CF91FF90EF90DF90CF90BF90AF909F908A
:104D30008F907F906F905F904F90E2CD0F900F908B
:104D40000F900F900F90DF91CF91FF90EF90DF9039
:104D5000CF90BF90AF909F908F907F906F905F901B
:104D60004F9008950C940C958091B005811105C069
:104D700080914E07882309F470C080911404659BCC
:104D80005CC08160809314049091030180911404AD
:104D900090FF55C08260809314049091000180912F
:104DA000140493FF4EC0886080931404809114040F
:104DB0004A9B49C084608093140480912C0580FF35
:104DC00010C08091B10586FF0CC08091140480FF53
:104DD00008C08091490781608093490780E00E9464
:104DE000A5AC80912C0581FF10C08091B10587FD95
:104DF0000CC08091140481FF08C080914907826033
:104E00008093490781E00E94A5AC80912C0582FF28
:104E100024C08091B10582FF18C080914E0788237D
:104E2000E1F08091140483FF18C0809149078860E5
:104E30008093490782E00C94A5AC8E7FA3CF8D7F31
:104E4000AACF877FB1CF8B7FB6CF8091140482FF2A
:104E500004C0809149078460EBCF08952F923F9260
:104E60004F925F926F927F928F929F92AF92BF927A
:104E7000CF92DF92EF92FF920F931F93CF93DF9326
:104E8000CDB7DEB762970FB6F894DEBF0FBECDBFC9
:104E90008FEF9FEF90938900809388002AE02A8B00
:104EA000312C212C78948091360590913705A09172
:104EB0003805B0913905892B8A2B8B2B09F0E3C17A
:104EC00080913C058823E1F080913A0590913B0563
:104ED00010923C05892BA1F010923B0510923A05E7
:104EE00010922D0510922C0590911A1080911B1094
:104EF000981731F080911B108F5F8F7080931B107B
:104F000080913A0590913B05892B09F4BCC14091F1
:104F100032055091330560913405709135058091CB
:104F20002E0590912F05A0913005B09131054817BD
:104F300059076A077B0708F0A6C10091480710E0EF
:104F400030E020E0841B950BA60BB70B0817190760
:104F50002A073B0710F4D901C8018983840F951FE4
:104F6000A61FB71F8093320590933305A093340595
:104F7000B0933505E1E0C090FB04D090FC04E090D4
:104F8000FD04F090FE0480910B0590910C05A0911A
:104F90000D05B0910E05C80ED91EEA1EFB1EC0926B
:104FA0000B05D0920C05E0920D05F0920E05F7FC72
:104FB00018C08091F7049091F804A091F904B09181
:104FC000FA04B701A601481B590B6A0B7B0BDB01E6
:104FD000CA0180930B0590930C05A0930D05B09327
:104FE0000E050091FF0410910005209101053091FC
:104FF000020580910F0590911005A0911105B091C7
:105000001205080F191F2A1F3B1F00930F0510934D
:105010001005209311053093120537FD18C08091BB
:10502000F7049091F804A091F904B091FA044801B2
:105030005901881A990AAA0ABB0AD501C4018093AA
:105040000F0590931005A0931105B09312054091A0
:105050000305509104056091050570910605809146
:10506000130590911405A0911505B0911605480FF0
:10507000591F6A1F7B1F40931305509314056093BB
:1050800015057093160577FD18C08091F70490916F
:10509000F804A091F904B091FA044A015B01881A5E
:1050A000990AAA0ABB0AD501C401809313059093FB
:1050B0001405A0931505B093160540900705509070
:1050C00008056090090570900A0580911705909178
:1050D0001805A0911905B0911A05840D951DA61DFE
:1050E000B71D8093170590931805A0931905B093E9
:1050F0001A05B7FD18C04090F7045090F80460906E
:10510000F9047090FA044C015D0184189508A60812
:10511000B708240135014092170550921805609296
:10512000190570921A05E11104C0E0918400F09114
:105130008500F7FC1CC04090F204842C440C9908B4
:10514000AA08BB084090490550904A0560904B055D
:1051500070904C05480C591C6A1C7B1C40924905F8
:1051600050924A0560924B0570924C05889A37FD23
:105170001CC04090F304842C440C9908AA08BB0876
:1051800040904D0550904E0560904F057090500531
:10519000480C591C6A1C7B1C40924D0550924E05D0
:1051A00060924F05709250058E9A77FD21C0409015
:1051B000F404842C440C9908AA08BB0840905105BB
:1051C000509052056090530570905405480C591C3E
:1051D0006A1C7B1C40925105509252056092530507
:1051E00070925405E0910B01E095E870E09309019D
:1051F000B7FD21C04090F504842C440C9908AA08FE
:10520000BB0840905505509056056090570570902A
:105210005805480C591C6A1C7B1C4092550550923D
:1052200056056092570570925805E091F604E230F9
:1052300008F011C2149AE0918400F0918500E09189
:105240008400F0918500F7FE889837FF8E9877FDEF
:1052500005C020910B01287020930901B7FD06C0FD
:105260008091F604823008F0F8C114989980992052
:1052700021F080918400909185002981215029831B
:10528000E0E0211178CE8091360590913705A0910C
:105290003805B0913905892B8A2B8B2B09F08DC1EC
:1052A000E0913A05F0913B05309709F49EC5809155
:1052B000320590913305A0913405B09135054091A8
:1052C0002E0550912F05609130057091310584179E
:1052D0009507A607B70708F4C2C110923B051092C4
:1052E0003A0510922D0510922C0590911A1080917C
:1052F0001B10981709F479C580911B108F5F8F7070
:1053000080931B10B0EDCB2EB7E0DB2EE12CF12CFF
:1053100080913A0590913B05892B09F046C10E9486
:105320000D1990933B0580933A05892B09F43DC1F3
:10533000E0913A05F0913B05808183FD38C54589B0
:1053400056896789708D818C928CA38CB48CDF0117
:10535000AA5BBF4F2D913C9181E090E04815590523
:105360006A057B0509F03DC590E080E041155105D7
:105370006105710571F0B22FB170C90196958795DD
:10538000A82FA17001E010E0BA1300E0C801BA1321
:1053900028C5C58CD68CE78CF0A0C114D104E104DB
:1053A000F10409F0846090932D0580932C051092F0
:1053B0001B0510921C0510921D0510921E051092DF
:1053C000240510922505109226051092270585A127
:1053D00096A1A7A1B0A580932E0590932F05A09329
:1053E0003005B0933105442455243201481A590A36
:1053F0006A0A7B0A40920B0550920C0560920D05DB
:1054000070920E0540920F055092100560921105A2
:105410007092120540921305509214056092150582
:105420007092160540921705509218056092190562
:1054300070921A0541A052A063A074A0440C551CA0
:10544000661C771C440F551F661F771F4093FB0493
:105450005093FC046093FD047093FE04880C991C27
:10546000AA1CBB1C8092FF0490920005A09201052B
:10547000B0920205CC0CDD1CEE1CFF1CC092030593
:10548000D0920405E0920505F092060540920705CA
:10549000509208056092090570920A05880F991FBD
:1054A000AA1FBB1F8093F7049093F804A093F904FC
:1054B000B093FA041092320510923305109234051D
:1054C0001092350582A593A5A4A5B5A580932805BE
:1054D00090932905A0932A05B0932B0586A597A53F
:1054E000A0A9B1A98093200590932105A09322053E
:1054F000B093230541A54093F6048091B1059091A6
:10550000B2058217930721F480912702481739F0DA
:10551000409327023093B2052093B10527D824DCAD
:105520004FEF5FEFBA014093280250932902609336
:105530002A0270932B02E0913A05F0913B05DF01BE
:10554000DE96ED90FD900D911C9122A933A944A9FE
:1055500055A9E45BFF4F60817181828193810E9434
:10556000A71610921F05E0913A05F0913B05E45B08
:10557000FF4F60817181828193810E9415996B0137
:105580007C018091240590912505A0912605B0917C
:1055900027058C0D9D1DAE1DBF1D80932405909386
:1055A0002505A0932605B0932705C0923605D09215
:1055B0003705E0923805F0923905809136059091D3
:1055C0003705A0913805B0913905AC01BD010097B0
:1055D00021E0A207B10520F04FEF5FEF60E070E03F
:1055E000841B950BA60BB70B80933605909337055C
:1055F000A0933805B0933905F89480918400909178
:10560000850040963A8931503A8B332309F4EBC335
:10561000240E351E2816390608F444CC3092890031
:105620002092880062960FB6F894DEBF0FBECDBF01
:10563000DF91CF911F910F91FF90EF90DF90CF906E
:10564000BF90AF909F908F907F906F905F904F90A2
:105650003F902F900895419AEECD419807CE40910A
:1056600028055091290560912A0570912B0548174E
:1056700059076A077B0708F4A2C14091240550919D
:105680002505609126057091270586A997A9A0ADEB
:10569000B1AD481759076A077B0708F08BC1411560
:1056A00051056105710529F58091890390918A035F
:1056B000A0918B03B0918C03BC012A2F9B2F822FCA
:1056C0000E9415996B017C0180912405909125051C
:1056D000A0912605B09127058C0D9D1DAE1DBF1D07
:1056E0008093240590932505A0932605B093270564
:1056F0000FCEF0E0EA81CA01262FAB817C816D815B
:105700005E814F81B885398540918503489F612D21
:105710005527B0918603B89F600D511D10908703E7
:10572000189E500D499F600D511DB99F500D429F0D
:10573000500DA62F752FA69F412DBB273327A59F60
:10574000400DB11D3F1F769F400DB11D3F1F759F3E
:10575000B00D311DAB2F732FA69FE12DBB27332733
:10576000A59FE00DB11D3F1F769FE00DB11D3F1FAE
:10577000759FB00D311DAB2F732F44278091890386
:1057800090918A0320918B03009084030F2A09F4DF
:1057900083C0B0918003BA9F41198F0B9F0B2F0BD1
:1057A000309181033A9F401981099F0B2F0BE091A3
:1057B0008203EA9F801991092F0BB79F4019810935
:1057C0009F0B2F0B379F801991092F0BE79F901983
:1057D0002109A69FE12DBB273327A59FE00DB11D11
:1057E0003F1F769FE00DB11D3F1F759FB00D311D0E
:1057F000AB2F732FB0917C03BA9F410D8F1F9F1F5A
:105800002F1F30917D033A9F400D811D9F1F2F1F39
:10581000E0917E03EA9F800D911D2F1FB79F400DE1
:10582000811D9F1F2F1F379F800D911D2F1FE79FE9
:10583000900D211DA69FE12DBB273327A59FE00DCD
:10584000B11D3F1F769FE00DB11D3F1F759FB00D2D
:10585000311DAB2F732FB0917803BA9F41198F0B75
:105860009F0B2F0B309179033A9F401981099F0BB1
:105870002F0BE0917A03EA9F801991092F0BB79FB4
:10588000401981099F0B2F0B379F801991092F0B0E
:10589000E79F9019210982C0B0918003BA9F410D02
:1058A0008F1F9F1F2F1F309181033A9F400D811D35
:1058B0009F1F2F1FE0918203EA9F800D911D2F1FD4
:1058C000B79F400D811D9F1F2F1F379F800D911D7A
:1058D0002F1FE79F900D211DA69FE12DBB2733278A
:1058E000A59FE00DB11D3F1F769FE00DB11D3F1F2D
:1058F000759FB00D311DAB2F732FB0917C03BA9FF4
:1059000041198F0B9F0B2F0B30917D033A9F40194C
:1059100081099F0B2F0BE0917E03EA9F801991096B
:105920002F0BB79F401981099F0B2F0B379F8019B1
:1059300091092F0BE79F90192109A69FE12DBB2705
:105940003327A59FE00DB11D3F1F769FE00DB11DD0
:105950003F1F759FB00D311DAB2F732FB091780392
:10596000BA9F410D8F1F9F1F2F1F309179033A9FC0
:10597000400D811D9F1F2F1FE0917A03EA9F800D2C
:10598000911D2F1FB79F400D811D9F1F2F1F379FF8
:10599000800D911D2F1FE79F900D211D1124EA837B
:1059A000AB837C836D835E834F83B8873987B0E098
:1059B000A22F82CE62A973A924A995A980CE409175
:1059C000200550912105609122057091230548170B
:1059D00059076A077B0708F0C7C180911F0581112D
:1059E00038C0DF01AE5BBF4FED90FD900D911C9173
:1059F00013971E962D913D914D915C9162A973A9CB
:105A000084A995A90E94A71631E030931F05E09163
:105A10003A05F0913B0562A973A924A995A9822FA3
:105A20000E9415996B017C0180911B0590911C05CA
:105A3000A0911D05B0911E058C0D9D1DAE1DBF1DB5
:105A400080931B0590931C05A0931D05B0931E0524
:105A50005FCC40911B0550911C0560911D05709114
:105A60001E0582AD93ADA4ADB5AD481759076A07C1
:105A70007B0708F072C1411551056105710561F49C
:105A80008091890390918A03A0918B03B0918C033C
:105A9000BC012A2F9B2FC3CFE0E0FA85CA01262F35
:105AA000BB85AC857D856E855F8548893989509138
:105AB0008503589F712D662740918603489F700D7E
:105AC000611D10908703189E600D599F700D611D18
:105AD000499F600D529F600DB72FA62FB79F512D84
