:100000000C9482160C94C2160C94C2160C94C21650
:100010000C94C2160C94C2160C94C2160C94C21600
:100020000C94C2160C9470A90C9470A90C9470A92D
:100030000C94C2160C94C2160C94C2160C94C216E0
:100040000C94C2160C9421270C94C2160C94C21660
:100050000C94C2160C9420260C94C2160C94B6B1C3
:100060000C94C2160C94F3460C94E9460C94C216F8
:100070000C94C2160C94C2160C94C2160C94C216A0
:100080000C9433390C94C2160C94C2160C94C216FC
:100090000C94C2160C94C2160C94C2160C94C21680
:1000A0000C94C2160C94C2160C9405390C94C2160A
:1000B0000C94C2160C94C2160C94C2160C94C21660
:1000C0000C94C2160C94C2160C94C2160C94C21650
:1000D0000C94C2160C94C2160C94C2160C94C21640
:1000E0000C94C216084AD73B3BCE016E84BCBFFDC0
:1000F000C12F3D6C74319ABD56833DDA3D00C77FF8
:1001000011BED9E4BB4C3E916BAAAABE0000008090
:100110003F05A84CCDB2D44EB93836A9020C50B91F
:10012000918688083CA6AAAA2ABE000000803F004B
:100130004E414E494E495459494E46CDCCCC3D0ACC
:10014000D7233C17B7D13877CC2B329595E6241FAF
:10015000B14F0A000020410000C84200401C462068
:10016000BCBE4CCA1B0E5AAEC59D7445315F53458B
:100170005249414C5F52585F50494E0045315F53E0
:10018000455249414C5F54585F50494E0045315FDC
:10019000444941475F50494E0045305F53455249FD
:1001A000414C5F52585F50494E0045305F534552B5
:1001B00049414C5F54585F50494E0045305F4449B7
:1001C00041475F50494E005A5F53455249414C5F89
:1001D00052585F50494E005A5F53455249414C5F57
:1001E00054585F50494E00595F53455249414C5F46
:1001F00052585F50494E00595F53455249414C5F38
:1002000054585F50494E00585F53455249414C5F26
:1002100052585F50494E00585F53455249414C5F18
:1002200054585F50494E005A5F4D494E5F50524FEF
:1002300042455F50494E005A5F53544F505F5049FA
:100240004E005A5F535445505F50494E005A5F4428
:100250004941475F50494E005A5F4D41585F5049F0
:100260004E005A5F454E41424C455F50494E005A40
:100270005F4449525F50494E00595F53544F505F9D
:1002800050494E00595F535445505F50494E0059F4
:100290005F444941475F50494E00595F4D41585FA7
:1002A00050494E00595F454E41424C455F50494EC2
:1002B00000595F4449525F50494E00585F53544FB4
:1002C000505F50494E00585F535445505F50494E5F
:1002D00000585F444941475F50494E00585F4D49BF
:1002E0004E5F50494E00585F454E41424C455F506D
:1002F000494E00585F4449525F50494E00534552A1
:10030000564F335F50494E00534552564F325F505F
:10031000494E00534552564F315F50494E005345A8
:1003200052564F305F50494E0053445353004D4F87
:10033000534645545F445F50494E004D4F53464528
:10034000545F435F50494E004D4F534645545F4202
:100350005F50494E004D4F534645545F415F5049F1
:100360004E0054454D505F305F43535F50494E003F
:100370004C45445F50494E004845415445525F4208
:1003800045445F50494E004845415445525F335FF4
:1003900050494E004845415445525F325F50494EE6
:1003A000004845415445525F315F50494E00484531
:1003B000415445525F305F50494E0046414E5F50B8
:1003C000494E0045315F535445505F50494E0045FA
:1003D000315F454E41424C455F50494E0045315FCB
:1003E0004449525F50494E0045305F535445505F79
:1003F00050494E0045305F454E41424C455F5049A3
:100400004E0045305F4449525F50494E00415652BC
:100410005F53535F50494E004156525F53434B5F09
:1004200050494E004156525F4D4F53495F50494E1F
:10043000004156525F4D49534F5F50494E0054455D
:100440004D505F4245445F50494E0054454D505F0A
:10045000335F50494E0054454D505F325F50494E16
:100460000054454D505F315F50494E0054454D504A
:100470005F305F50494E0046494C57494454485FED
:1004800050494E0054584430005258443000434FB5
:100490004D4D554E49434154494F4E0044525952D7
:1004A000554E004552524F525300494E464F00455B
:1004B00043484F004572726F722077726974696E9B
:1004C0006720746F20454550524F4D210A00363742
:1004D00026033C3D380F2E303E13051A1C182422EB
:1004E0001E0A3A073904084400015072696E7465A7
:1004F000722073746F707065642064756520746F0A
:10050000206572726F72732E204669782074686558
:10051000206572726F7220616E6420757365204D64
:1005200039393920746F20726573746172742E20AA
:100530002854656D706572617475726520697320E9
:1005400072657365742E205365742069742061662A
:100550007465722072657374617274696E67290ABA
:10056000004E6F20436865636B73756D2077697407
:1005700068206C696E65206E756D6265722C204C0A
:10058000617374204C696E653A20004E6F20436899
:1005900065636B73756D2077697468206C696E652F
:1005A000206E756D6265722C204C617374204C69ED
:1005B0006E653A2000636865636B73756D206D69C5
:1005C000736D617463682C204C617374204C696E88
:1005D000653A20004C696E65204E756D626572202B
:1005E0006973206E6F74204C617374204C696E6562
:1005F000204E756D6265722B312C204C6173742016
:100600004C696E653A20004D313130005365726996
:10061000616C20737461747573206D69736D61749E
:1006200063680A0053442072656164206572726FCA
:10063000720A002121204B494C4C2063617573657F
:100640006420627920746F6F206D75636820696E15
:100650006163746976652074696D65202D2063750A
:100660007272656E7420636F6D6D616E643A200006
:10067000627573793A2070617573656420666F7274
:1006800020696E7075740A00627573793A20706122
:100690007573656420666F7220757365720A0062F7
:1006A0007573793A2070726F63657373696E670A48
:1006B000006563686F3A004572726F723A004F4688
:1006C00046004F4E0042696C696E656172204C6550
:1006D00076656C696E6720477269643A0A004C4F10
:1006E000570048494748004F4B004572726F723AB5
:1006F00020416C6C200020636F6E6E656374696FBF
:100700006E2E2E2E200054657374696E6720004C87
:100710004F570048494748004F4B004572726F726F
:100720003A20416C6C200020636F6E6E65637469C3
:100730006F6E2E2E2E200054657374696E67200034
:100740004C4F570048494748004F4B004572726F65
:10075000723A20416C6C200020636F6E6E6563748A
:10076000696F6E2E2E2E200054657374696E67209B
:10077000004C4F570048494748004F4B00457272A4
:100780006F723A20416C6C200020636F6E6E65635F
:1007900074696F6E2E2E2E200054657374696E6717
:1007A00020004C4F570048494748004F4B004572C6
:1007B000726F723A20416C6C200020636F6E6E6520
:1007C0006374696F6E2E2E2E200054657374696EEB
:1007D000672000426564204C6576656C696E672011
:1007E000004661696C656420746F20656E61626C9F
:1007F0006520426564204C6576656C696E670A0009
:10080000496E76616C6964206D6573682E0A002EEE
:100810000A002F0050726F62696E67206D65736801
:1008200020706F696E742000202844525952554E32
:100830002900473239204175746F20426564204C8D
:100840006576656C696E67003F20284C2C522C46FB
:100850002C4229206F7574206F6620626F756E645C
:10086000732E0A003F2856296572626F7365206CEB
:100870006576656C20696D706C61757369626C6515
:100880002028302D34292E0A00426164205A207617
:10089000616C75650A004E6F2062696C696E6561F6
:1008A0007220677269640A0020440020204D3230B3
:1008B0003020540020204D32303020530020284476
:1008C000697361626C6564293A0046696C616D65A3
:1008D0006E742073657474696E67730020204D32E6
:1008E00030312058004D617820416363656C65723A
:1008F0006174696F6E2028756E6974732F73322965
:100900000020204D3230332058004D61782066653C
:10091000656472617465732028756E6974732F73D2
:10092000290020520020204D3230342050004163F5
:1009300063656C65726174696F6E2028756E697489
:10094000732F7332292028503C7072696E742D61A8
:100950006363656C3E20523C726574726163742DF2
:10096000616363656C3E20543C74726176656C2DE6
:10097000616363656C3E29005741524E494E4721E1
:10098000204C6F77205A204A65726B206D61792068
:100990006C65616420746F20756E77616E74656438
:1009A000207061757365732E0A0020540020530077
:1009B00020204D323035204200416476616E6365FF
:1009C000642028423C6D696E5F7365676D656E7467
:1009D0005F74696D655F75733E20533C6D696E5F32
:1009E00066656564726174653E20543C6D696E5F36
:1009F00074726176656C5F66656564726174653E8C
:100A000020583C6D61785F6A65726B3E20593C6D81
:100A100061785F6A65726B3E205A3C6D61785F6AEF
:100A200065726B3E20453C6D61785F6A65726B3E16
:100A3000290020204D32313700546F6F6C2D6368D0
:100A4000616E67696E670020204D32313820540096
:100A5000486F74656E64206F6666736574730020FA
:100A6000440020490020204D333031205000486F91
:100A700074656E64205049440050574D3A2020253B
:100A800034640050574D3A20202534640050574DAF
:100A90003A20202534640050574D3A2020253464F4
:100AA0000050574D3A20202534640050574D3A20CD
:100AB000202534640050574D3A20202534640050DE
:100AC000574D3A20202534640050574D3A202025B8
:100AD00034640050574D3A20202534640050574D5F
:100AE0003A20202534640050574D3A2020253464A4
:100AF0000050574D3A20202534640050574D3A207D
:100B0000202534640050574D3A202025346400508D
:100B1000574D3A2020253464003A20002020202020
:100B2000434F4D002020206E6F6E2D7374616E64F4
:100B30006172642050574D206D6F64650020202045
:100B4000636F6D7061726520696E74657272757025
:100B50007420656E61626C6564002020206F76658C
:100B600072666C6F7720696E74657272757074202E
:100B7000656E61626C6564003A200020202020547C
:100B8000494D534B00423A2000202020205443433B
:100B90005200413A2000202020205443435200209C
:100BA00020202043533A20002020202057474D3A50
:100BB000200050574D3A20202534640050574D3ABC
:100BC00020202534640047004800000088008A0087
:100BD0008C00B300B400000098009A009C00A800AC
:100BE000AA00AC0028012A012C0120202020544911
:100BF0004D455200440045006E00800081006F00AA
:100C0000B000B1007000900091007100A000A10040
:100C1000720020012101730020697320616C736FE1
:100C2000207469656420746F20746869732070692A
:100C30006E0054494D45523143000A202E002020B9
:100C4000002020506F72743A2000202020002020C5
:100C500020416E616C6F6720696E203D2025356CE8
:100C600064003C756E757365642F756E6B6E6F777F
:100C70006E3E00202841253264292020002533645F
:100C8000200050494E3A20004F7574707574203D15
:100C90002000496E70757420203D2000416E616C0B
:100CA0006F6720696E203D2025356C640070726F7F
:100CB000746563746564200020284125326429200E
:100CC0002000253364200050494E3A20008904005A
:100CD000018404010177043B006C043A006104398B
:100CE00000560443004B0445003E044400310432E6
:100CF0000124043301180434010D04350102041CDD
:100D000001F4031801E8031A01DD032201CF031ED9
:100D100001C3032401BB030401AE030A01A10307BD
:100D20000194032F0187032D017803080170030D3F
:100D3000016203420155030A01480307013B03080E
:100D4000012E030701290335011E030B01130315AF
:100D50000108032701FD022001F3023701E6022604
:100D600001DC020301D1020301C6023601BB02030A
:100D700001B1023D01A40238019A020F018F020E57
:100D80000184023C0179020F016F02300162023ED0
:100D900001580213014D02120142022E01370213C3
:100DA00001270205011702280107023F01F7013B55
:100DB00001E7014001D7012A01C7014101BB01023E
:100DC00001AA012C01990142018D010F017C01143E
:100DD000016B010C01446F6E652E0A0050756C7337
:100DE000696E6720202000556E746F7563686564B6
:100DF00020005A5F50524F42455F534552564F5F55
:100E00004E52206E6F74207365742075702E0A0028
:100E10005761746368696E672070696E730A006455
:100E2000697300656E0061626C65640A00656E64DA
:100E300073746F70206D6F6E69746F722000202064
:100E40004D61783A2000200020204D696E3A200044
:100E5000203B200020204D323131205300536F665B
:100E60007420656E6473746F707300737072656163
:100E7000644379636C6500737465616C746843687E
:100E80006F700020647269766572206D6F64653AD8
:100E900009007370726561644379636C65007374F3
:100EA00065616C746843686F700020647269766570
:100EB00072206D6F64653A090073707265616443F6
:100EC00079636C6500737465616C746843686F70F6
:100ED0000020647269766572206D6F64653A09005E
:100EE0007370726561644379636C650073746561E6
:100EF0006C746843686F7000206472697665722054
:100F00006D6F64653A09007370726561644379635B
:100F10006C6500737465616C746843686F70002061
:100F2000647269766572206D6F64653A0900202EDF
:100F300068737472743A2000202E68656E643A20DB
:100F4000002063686F70706572202E746F66663A59
:100F50002000202E68737472743A2000202E686579
:100F60006E643A20002063686F70706572202E7482
:100F70006F66663A2000202E68737472743A2000FF
:100F8000202E68656E643A20002063686F7070657B
:100F900072202E746F66663A2000202E6873747279
:100FA000743A2000202E68656E643A200020636841
:100FB0006F70706572202E746F66663A2000202E66
:100FC00068737472743A2000202E68656E643A204B
:100FD000002063686F70706572202E746F66663AC9
:100FE00020003F53206F7574206F662072616E671A
:100FF000652028312E2E38290A003F50206F757445
:10100000206F662072616E676520282D332E2E3189
:1010100032290A003F4F206F7574206F662072617D
:101020006E67652028312E2E3135290A003B2000BD
:1010300020496E76616C69642065787472756465A8
:1010400072200047322F4733206261642070617242
:10105000616D65746572730A0047323800205A3A30
:10106000200020593A200042656420583A20004D63
:1010700065736820706F696E74206F7574206F6679
:101080002072616E67650A00456E642066696C6552
:10109000206C6973740A00426567696E2066696C2A
:1010A00065206C6973740A004E6F206D6564696118
:1010B0000A00286E6F2066696C652900437572729C
:1010C000656E742066696C653A2000534420707226
:1010D000696E74696E67206279746520004E6F7462
:1010E000205344207072696E74696E670A002E0A7C
:1010F0000044656C6574696F6E206661696C656437
:101100002C2046696C653A200046696C6520646550
:101110006C657465643A005072696E742074696D10
:10112000653A20000A53746174733A2046696C6111
:101130006D656E7420757365643A20002C204C6FC9
:101140006E67657374206A6F623A2000546F746131
:101150006C2074696D653A200053746174733A2091
:10116000002C204661696C65643A20002C20466999
:101170006E69736865643A20005072696E74733AE0
:10118000200053746174733A20006F6B006F6666C1
:1011900000AF04AA04A3049C048E044445425547AE
:1011A0003A004D3131322053687574646F776E00A8
:1011B0004D3131332053002F2F0046523A00204644
:1011C0006C6F773A20003A200020536572766F20CA
:1011D00000206F7574206F662072616E67650A006B
:1011E000536572766F200050726F6265204F66669D
:1011F000736574205A0050726F6265204F66667383
:101200006574205A00496E76616C69642065787453
:1012100072756465720A0064697300656E00432923
:101220000A0061626C656420286D696E2074656DCA
:10123000702000436F6C6420657874727564657308
:101240002061726520004D34323120696E636F7207
:101250007265637420706172616D6574657220756A
:10126000736167650A004D65736820706F696E74FD
:10127000206F7574206F662072616E67650A005476
:101280006F6F206661722066726F6D207265666591
:1012900072656E636520706F696E740A0045455013
:1012A000524F4D204F4B0A00290A0020746F200036
:1012B0003F5A206F7574206F662072616E676520DB
:1012C0002800290A0020746F20003F59206F757490
:1012D000206F662072616E676520282D00290A0044
:1012E00020746F20003F58206F7574206F66207245
:1012F000616E676520282D00206472697665722012
:1013000063757272656E743A200020647269766546
:10131000722063757272656E743A2000206472697F
:101320007665722063757272656E743A200020646F
:1013300072697665722063757272656E743A200008
:10134000206472697665722063757272656E743A94
:1013500020004D383400446F6E65207072696E74E1
:10136000696E672066696C650A004D3737004D333A
:10137000310020204D323036205800486F6D6520F6
:101380006F6666736574004361703A00434F4E4662
:1013900049475F4558504F5254004D4541545041C4
:1013A000434B00434F4F4C45525F54454D504552BF
:1013B0004154555245004348414D4245525F5445C2
:1013C0004D504552415455524500424142595354A3
:1013D000455050494E470041524353004D4F5449E8
:1013E0004F4E5F4D4F44455300544845524D414C7C
:1013F0005F50524F54454354494F4E004558544551
:101400004E4445445F4D323000435553544F4D5F79
:101410004649524D574152455F55504C4F4144004B
:101420004C464E5F5752495445004C4F4E475F461D
:10143000494C454E414D45004155544F5245504F42
:1014400052545F53445F5354415455530053445FC7
:10145000575249544500524550454154004D554C52
:1014600054495F564F4C554D4500534443415244F7
:101470000050524F4D50545F535550504F525400EE
:10148000484F53545F414354494F4E5F434F4D4D76
:10149000414E445300454D455247454E43595F50D8
:1014A000415253455200434153455F4C49474854CC
:1014B0005F4252494748544E45535300544F4747A3
:1014C0004C455F4C494748545300534F465457418D
:1014D00052455F504F574552004255494C445F506A
:1014E000455243454E54004C4556454C494E475F86
:1014F00044415441005A5F50524F42450052554EAC
:101500004F5554004155544F4C4556454C00505290
:10151000494E545F4A4F420050524F475245535331
:10152000004155544F5245504F52545F54454D5011
:10153000004155544F5245504F52545F504F530045
:10154000564F4C554D455452494300454550524F16
:101550004D0042494E4152595F46494C455F5452F5
:10156000414E534645520053455249414C5F584FF6
:101570004E5F584F4646004649524D574152455FCF
:101580004E414D453A4D61726C696E2062756766D9
:1015900069782D322E302E7820284A756E20203919
:1015A00020323032322031363A31383A3434292040
:1015B000534F555243455F434F44455F55524C3A54
:1015C0006769746875622E636F6D2F4D61726C6907
:1015D0006E4669726D776172652F4D61726C696ECE
:1015E0002050524F544F434F4C5F56455253494F32
:1015F0004E3A312E30204D414348494E455F5459B3
:1016000050453A566F6C7465727261204475616C16
:10161000203234562055415254206A756D706572DF
:1016200073207769746820544D4332323039206F0B
:101630006E204D4B532047656E4C2076322E312064
:1016400045585452554445525F434F554E543A32D3
:1016500020555549443A63656465326132662D34DC
:101660003161322D343734382D396231322D6335C2
:10167000356336326633363766660A00203B002013
:10168000204D3835312058005A2D50726F62652038
:101690004F6666736574002569730025696D2025A2
:1016A0006973002569682025696D20256973002507
:1016B0006964202569682025696D202569730025E6
:1016C000697920256964202569682025696D2025B0
:1016D00069730020573A0020573A00236465666911
:1016E0006E652044454641554C545F004B642000D4
:1016F0004B6920004B702000504944204175746FA5
:1017000074756E652066696E697368656421205022
:10171000757420746865206C617374204B702C2084
:101720004B6920616E64204B6420636F6E7374613B
:101730006E74732066726F6D2062656C6F772069BE
:101740006E746F20436F6E66696775726174696F3E
:101750006E2E680A00504944204175746F74756E8E
:1017600065206661696C6564212074696D656F75BB
:10177000740A00504944204175746F74756E652079
:101780006661696C6564212054656D706572617471
:1017900075726520746F6F20686967680A00204B56
:1017A000643A2000204B693A2000204B703A200018
:1017B00020436C617373696320504944200A002000
:1017C00054753A2000204B753A2000206D61783A1C
:1017D0002000206D696E3A200020643A20002062CB
:1017E0006961733A2000504944204175746F7475E3
:1017F0006E652073746172740A005049442041750B
:10180000746F74756E65206661696C65642120541F
:10181000656D706572617475726520746F6F206894
:101820006967680A00504944204175746F74756E89
:1018300065206661696C6564212042616420686589
:10184000617465722069640A006F70656E0054529D
:1018500049474745524544003A20007A5F70726F0D
:101860006265007A5F6D617800795F6D61780078FC
:101870005F6D696E005265706F7274696E67206586
:101880006E6473746F70207374617475730A0000F2
:1018900080C5430080C5430000C84300000000002D
:1018A0000000000000000020746F6F206C6F6E67F6
:1018B00020657874727573696F6E207072657665D5
:1018C0006E7465640A0020636F6C642065787472BE
:1018D0007573696F6E2070726576656E7465640AE3
:1018E00000000020C10080C5430000C8435761725A
:1018F0006E696E673A20486F6D696E672042756D3C
:10190000702044697669736F72203C20310A0002AE
:1019100002040080C5430080C5430000C8430000A6
:10192000A0400000A04000000040000000010000B6
:101930000001000080005555550000004000333381
:101940003300AAAA2A004992240000002000C7718F
:101950001C0099991900D1451700555515003BB148
:1019600013002449120011111100000010000F0F84
:101970000F00E3380E0043790D00CCCC0C00C330CF
:101980000C00E8A20B0064210B00AAAA0A00703D1B
:101990000A009DD80900427B090092240900DCD38B
:1019A0000800888808001042080000000800F0C104
:1019B00007008787070075500700711C07003EEB82
:1019C0000600A1BC06006990060066660600703E2F
:1019D00006006118060017F4050074D105005BB01D
:1019E0000500B29005006272050055550500783972
:1019F0000500B81E0500050505004EEC040087D45F
:101A00000400A1BD040090A7040049920400C17D18
:101A10000400EE690400C7560400444404005C322C
:101A200004000821040041100400000004003FF0FD
:101A30000300F8E0030026D20300C3C30300CCB5C3
:101A400003003AA803000A9B0300388E0300C081FC
:101A500003009F750300D0690300505E03001D530F
:101A6000030034480300913D03003333030016297B
:101A70000300381F030097150300300C0300030315
:101A800003000BFA020049F10200BAE802005CE030
:101A900002002DD802002DD0020059C80200B0C0AB
:101AA000020031B90200DAB10200AAAA0200A0A322
:101AB0000200BC9C0200FA9502005C8F0200DF88E5
:101AC000020082820200457C020027760200277015
:101AD0000200436A02007C640200D05E02003F59AB
:101AE0000200C8530200FFFDFCFAF8F6F4F2F0EE33
:101AF000ECEAE9E7E5E3E1E0DEDCDAD9D7D5D4D2F8
:101B0000D0CFCDCBCAC8C7C5C3C2C0BFBDBCBAB990
:101B1000B7B6B4B3B2B0AFADACAAA9A8A6A5A4A2FB
:101B2000A1A09E9D9C9A99989795949392908F8E40
:101B30008D8B8A8988878684838281807F7E7D7B66
:101B40007A797877767574737271706F6E6D6C6B6D
:101B50006A696867666564636261605F5E5D5C5B5D
:101B60005A5958585756555453525150504F4E4D3C
:101B70004C4B4A4A49484746464544434242414005
:101B80003F3E3E3D3C3B3B3A3938383736353534BD
:101B90003332323130302F2E2E2D2C2B2B2A292967
:101BA00028272726252524232322212120201F1E04
:101BB0001E1D1C1C1B1B1A19191818171616151593
:101BC00014131312121111100F0F0E0E0D0D0C0C19
:101BD0000B0A0A0909080807070606050504040395
:101BE00003020201000020746F6F206C6F6E67208B
:101BF000657874727573696F6E2070726576656E44
:101C00007465640A0020636F6C6420657874727573
:101C100073696F6E2070726576656E7465640A0014
:101C2000290A002062797465733B20637263200087
:101C300053657474696E67732053746F72656420A2
:101C40002800454550524F4D20496E697469616CBA
:101C5000697A65640A0048617264636F6465642030
:101C600044656661756C742053657474696E67733E
:101C7000204C6F616465640020286D6D2900203B55
:101C8000204C6576656C696E67200020204D3432EB
:101C9000302053004175746F20426564204C657696
:101CA000656C696E670020204D3930360020543154
:101CB00020450020543020450053746570706572D3
:101CC000206472697665722063757272656E740045
:101CD00020204D35363920533100543120450054F1
:101CE0003020450020580044726976657220737474
:101CF000657070696E67206D6F646500204A002012
:101D000020473239205720490020204D31343920D6
:101D100043203B20556E69747320696E2043656CC7
:101D2000736975730A0054656D70657261747572BC
:101D30006520556E697473002020473231203B00C6
:101D40004C696E65617220556E697473004545502B
:101D5000524F4D206461746173697A6520657272B7
:101D60006F722E0A00290A002062797465733B2085
:101D700063726320002073746F72656420736574EE
:101D800074696E6773207265747269657665642024
:101D90002800202863616C63756C61746564292177
:101DA0000A0020213D2000454550524F4D2043520E
:101DB00043206D69736D61746368202D20287374EE
:101DC0006F7265642920002053697A653A200049C2
:101DD0006E6465783A200000009643000096430048
:101DE00000A041000034420000204300002043F0E6
:101DF000F77B4400008C43DC050000DC0500006438
:101E000000000010270000204D61726C696E3D5685
:101E10003836290A00454550524F4D207665727379
:101E2000696F6E206D69736D617463682028454524
:101E300050524F4D3D0024F4D43050C38E20C2A2E6
:101E40004017828B7011127A910D816CD90AA861AA
:101E5000E108C7586607615143061E4B5D05C14541
:101E6000A7041A411104093D980371393103403622
:101E7000DB0265339102D4305402802E1D02632CA4
:101E8000EE01752AC501B028A001102781018F2518
:101E900064012B244B01E0223401AC211F018D2071
:101EA0000D01801FFC00841EED00971DDF00B81C93
:101EB000D200E61BC600201BBC00641AB200B21997
:101EC000A8000A19A0006A189900D11791004017BC
:101ED0008B00B516840031167E00B31579003A15D3
:101EE0007300C7146F0058146A00EE13660088135D
:101EF000630025135E00C7125B006C1257001512B9
:101F00005400C111510070114F0021114B00D61027
:101F100049008D1047004610440002104200C00FD7
:101F20004000800F3E00420F3C00060F3B00CB0EEE
:101F30003800930E37005C0E3500270E3400F30D89
:101F40003200C10D3100900D3000600D2E00320DB9
:101F50002D00050D2C00D90C2B00AE0C2900850C92
:101F600029005C0C2700350C27000E0C2600E80B1E
:101F70002400C40B2400A00B23007D0B23005A0B6C
:101F80002100390B2100180B2000F80A1F00D90A84
:101F90001E00BB0A1E009D0A1D00800A1D00630A68
:101FA0001C00470A1B002C0A1B00110A1A00F70923
:101FB0001A00DD091900C4091900AB0919009209BA
:101FC00017007B091800630917004C091600360931
:101FD0001600200916000A091500F5081500E0088A
:101FE0001400CC081400B8081400A40814009008C9
:101FF00013007D0812006B081300580812004608F1
:102000001200340811002308110012081100010801
:102010001100F0071000E0071000D0071000C00703
:102020001000B0070F00A107100091070E008307F2
:102030000F0074070F0065070E0057070E004907D1
:102040000E003B070D002E070E0020070D001307A2
:102050000D0006070D00F9060C00ED060D00E00668
:102060000C00D4060C00C8060C00BC060C00B00620
:102070000C00A4060B0099060C008D060B008206CE
:102080000B0077060B006C060B0061060A00570672
:102090000B004C060A0042060A0038060A002E060B
:1020A0000A0024060A001A060A001006090007069C
:1020B0000A00FD050900F4050900EB050900E20529
:1020C0000900D9050900D0050900C7050900BE05AA
:1020D0000900B5050800AD050800A50509009C0527
:1020E0000800940508008C050800840508007C059C
:1020F0000800740508006C050700650508005D050B
:102100000700560508004E05070047050700400573
:10211000080038050700310507002A0507002305D8
:1021200007001C050600160507000F050700080537
:10213000060002050700FB040600F5040700EE0494
:102140000600E8040600E2040700DB040600D504EC
:102150000600CF040600C9040600C3040600BD043F
:102160000600B7040600B1040500AC040600A6048E
:102170000600A00405009B040600950405009004D9
:1021800006008A04050085040500800406007A0420
:10219000050075040500700405006B040500660465
:1021A0000500610405005C040500570405005204A5
:1021B00005004D04050048040500430405003E04E5
:1021C00004003A04050035040500300404002C0422
:1021D000050027040400230405001E0404001A045B
:1021E000040016040500110404000D040400090491
:1021F00005000404040000040400FC030400F803C8
:102200000400F4030400F0030400EC030400E803FA
:102210000400E4030400E0030400DC030400D8032A
:102220000400D4030400D0030400CC030400C8035A
:102230000300C503030024F404D9201BC40C5C0E66
:102240009804C4095F0265077101F405F900FB04F5
:10225000B30048048700C103690058035500030315
:102260004500BE023A008402310053022A002902CE
:10227000250004022000E4011C00C8011900AF0180
:10228000170098011400840113007101100061010E
:10229000100051010E0043010D0036010B002B010F
:1022A0000B0020010B00150109000C0109000301BE
:1022B0000800FB000800F3000800EB000700E40042
:1022C0000600DE000600D8000600D2000600CC00A2
:1022D0000500C7000500C2000500BD000400B900EC
:1022E0000400B5000400B1000400AD000400A90022
:1022F0000400A5000300A20003009F0004009B004F
:102300000300980003009500020093000300900072
:1023100003008D0002008B0003008800020086008D
:10232000020084000300810002007F0002007D00A3
:1023300002007B00020079000200770001007600B5
:1023400002007400020072000100710002006F00C0
:1023500002006D0001006C0002006A0001006900CB
:1023600002006700010066000100650001006400D2
:1023700002006200010061000100600001005F00D6
:1023800002005D0001005C0001005B0001005A00DA
:1023900001005900010058000100570001005600DB
:1023A00001005500010054000100530000005300DB
:1023B00001005200010051000100500001004F00D7
:1023C00001004E0000004E0001004D0001004C00D5
:1023D00001004B0000004B0001004A0001004900D1
:1023E00001004800000048000100470001004600CD
:1023F00000004600010045000000450001004400C7
:1024000001004300000043000100420000004200C0
:1024100001004100000041000100400001003F00B8
:1024200000003F0001003E0000003E0001003D00B2
:1024300000003D0001003C0000003C0000003C00AA
:1024400001003B0000003B0001003A0000003A00A0
:102450000100390000003900010038000000380098
:10246000000038000100370000003700010036008E
:102470000000360000003600010035000000350085
:10248000000035000100340000003400000034007A
:10249000010033000000330000003300010032006F
:1024A0000000320000003200010031000000310065
:1024B000000031000100300000003000000030005A
:1024C00001002F0000002F0000002F0000002F004F
:1024D00001002E0000002E0000002E0001002D0043
:1024E00000002D0000002D0000002D0001002C0038
:1024F00000002C0000002C0000002C0001002B002C
:1025000000002B0000002B0000002B0001002A001F
:1025100000002A0000002A0000002A000100290013
:102520000000290000002900000029000000290007
:1025300001002800000028000000280000002800FA
:1025400000002800010027000000270000002700ED
:1025500000002700000027000100260000002600E0
:1025600000002600000026000000260001002500D3
:1025700000002500000025000000250000002500C7
:1025800000002500010024000000240000002400B9
:1025900000002400000024000100230000002300AC
:1025A000000023000000230000002300000023009F
:1025B0000000230001002200000022000000220091
:1025C0000000220000002200000022000100210083
:1025D0000000210000002100000021000000210077
:1025E0000000210000002100010020000000200068
:1025F000000020000000200000002000000020005B
:10260000000020000000200001001F0000001F004B
:1026100000001F0000001F0000001F0000001F003E
:1026200000001F0001001E0000001E0000001E0030
:1026300000001E000000393000003325000087191B
:102640000000B00F0000DB080000BD0400007402B1
:1026500000003F010000423A0020436F756E742075
:10266000413A004500626564002C207379737465FB
:102670006D2073746F7070656421204865617465A6
:10268000725F49443A200048656174696E6720466C
:1026900061696C65640048656174696E6720666194
:1026A000696C6564001000600350012C01900122E8
:1026B00001D001180110020E0170020401E002FABB
:1026C000006003F0000004E600B004DC00A005D2C6
:1026D00000B006C8000008BE00A009B400800BAA24
:1026E00000D00DA00090109600C0138C00701782CF
:1026F00000901B780010206E00C0246400E02D5074
:102700000080353C00A03A2800A03D1400003F00A6
:1027100000A03FECFF4572723A204D415854454DA0
:1027200050004D415854454D50207472696767659B
:10273000726564004572723A204D494E54454D50C1
:10274000004D494E54454D5020747269676765725B
:102750006564000A0A0020205A5F4D494E5F5052BE
:102760004F42453A0020205A5F4D41583A00202000
:10277000595F4D41583A002020585F4D494E3A006C
:10278000202F002040002042403A0020403A0049DB
:102790006E76616C69642065787472756465720A1E
:1027A000004163746976652045787472756465725A
:1027B0003A20007C3C3E5E2B3D3F2F5B5D3B2C2A4C
:1027C000225C0043616E6E6F74206F70656E2073C3
:1027D0007562646972200053442063617264206FE3
:1027E0006B0A006F70656E526F6F74206661696C62
:1027F00065640A00766F6C756D652E696E6974206C
:102800006661696C65640A004E6F20534420636101
:1028100072640A002E0A006F70656E206661696C32
:1028200065642C2046696C653A200046696C652019
:1028300073656C65637465640A002053697A653A50
:10284000200046696C65206F70656E65643A2000F3
:10285000454E4420535542524F5554494E450A0067
:102860002220706F73002220706172656E743A22AC
:1028700000535542524F5554494E452043414C4C0C
:10288000207461726765743A220053756263616CEB
:102890006C204F766572666C6F770045786365656E
:1028A000646564206D617820535542524F555449F8
:1028B0004E452064657074683A0057726974696E99
:1028C0006720746F2066696C653A200066726573D4
:1028D0006800646F696E67002066696C653A200065
:1028E0004E6F7720000A4D3234004D32332025736D
:1028F000002F6175746F25632E67000000000030A3
:102900000E0100C00E0A00500F1400D00F1E006010
:10291000102800E010320070113C00F011460070E9
:1029200012500000135A008013640000146E0090CF
:102930001478001015820090158C001016960090E7
:1029400016A0001017AA009017B4001018BE00902F
:1029500018C8001019D2009019DC00101AE6008087
:102960001AF000001BFA00801B0401F01B0E01701E
:102970001C1801F01C2201601D2C01E01D360150C5
:102980001E4001D01E4A01401F5401B01F5E01309D
:10299000206801A020720110217C01902186010095
:1029A0002290016026F401902A5802802EBC025029
:1029B000322003E03584035039E803803C4C042086
:1029C00020506C616E6E6572427566666572427902
:1029D0007465733A20002046726565204D656D6F01
:1029E00072793A200020436F6D70696C65643A20FB
:1029F0004A756E20203920323032320A00204C6174
:102A0000737420557064617465643A2032303232D8
:102A10002D30332D3134207C20417574686F723A2B
:102A20002028467261636B74616C20576F726B7300
:102A30002C2064656661756C7420636F6E666967CF
:102A4000290A004D61726C696E206275676669784B
:102A50002D322E302E780A0020536F667477617203
:102A6000652052657365740A002057617463686459
:102A70006F672052657365740A002042726F776E2B
:102A8000206F75742052657365740A002045787450
:102A900065726E616C2052657365740A00506F77C1
:102AA000657255700A0073746172740A0047323897
:102AB0005859004D31303031006F6B006572726FC4
:102AC000722077726974696E6720746F2066696C12
:102AD000650A00446F6E6520736176696E672066D3
:102AE000696C652E0A004D32390020503A00205A98
:102AF0003A0020593A0020583A00656E6473746FAA
:102B00007073206869743A200000002100240027B7
:102B1000002A002D003000330001010000040107ED
:102B2000010A0100000A0B02090C0D0E080703043C
:102B30000100000000000000000000000000000094
:102B40000000000000000000000000000000001273
:102B50001110000000000000000000000000000054
:102B600000000000000000000000002000230026FC
:102B70000029002C002F0032000001000003010694
:102B800001090100002200250028002B002E003141
:102B900000340002010000050108010B01050505D4
:102BA00005070508080808020202020A0A080804C4
:102BB00004040401010101010101010303030303F2
:102BC000030303040707070C0C0C0C0C0C0C0C0281
:102BD00002020206060606060606060B0B0B0B0B88
:102BE0000B0B0B0102102020080810204010204081
:102BF00080020102010804020101020408102040C1
:102C000080804020100804020180040201804020DE
:102C10001008040201080402010102040810204007
:102C2000800102040810204080486F6D696E6720A3
:102C30004661696C656400FF010150726F62696EE4
:102C400067204661696C65640A00205A3A200020BA
:102C5000593A200042656420583A2000220A005563
:102C60006E6B6E6F776E20636F6D6D616E643A2070
:102C70002200204500205A0020590020204D3932E2
:102C800020580053746570732070657220756E69EA
:102C90007400544845524D414C2052554E415741C5
:102CA0005900546865726D616C2052756E61776170
:102CB0007900486F6D65202573257325732046695B
:102CC0007273740020453A00205A3A0020593A00A5
:102CD000583A006F6B0A00526573656E643A2000C3
:102CE0005072696E7465722068616C7465642E2020
:102CF0006B696C6C28292063616C6C6564210A0027
:102D000073C7CDD211241FBECFEFD1E2DEBFCDBF3E
:102D100000E00CBF84B78093821514BE0FB6F89400
:102D2000A895809160008861809360001092600097
:102D30000FBE13E0A0E0B2E0EEE2F0EC01E00BBF6A
:102D400002C007900D92A43AB107D9F725E1A4EA91
:102D5000B3E001C01D92A238B207E1F716E1C1E865
:102D6000D6E100E006C021970109802FFE010E94F4
:102D700090DCC038D10780E00807A9F70E94E7C9B6
:102D80000C9406E00C94000012988D5F21E030E076
:102D900001C0220F8A95EAF78091FA0A822B80936C
:102DA000FA0A08958F929F92AF92BF92CF92DF92CC
:102DB000EF92FF920F931F93DC011896CD90DD9058
:102DC000ED90FC901B974D915D916D917C911397C7
:102DD00014960D911D912D913C911797EAEEFAE012
:102DE0004A015B01800E911EA21EB31E8082918259
:102DF000A282B382401B510B620B730B4483558339
:102E000066837783C086D186E286F3861C968D9191
:102E10009D910D90BC91A02D84879587A687B7873B
:102E20001F910F91FF90EF90DF90CF90BF90AF90E8
:102E30009F908F900895BC012091DB0A3091DC0AAD
:102E40004091DB0A5091DC0A2417350731F481E008
:102E50002617370709F080E008959A01F1CFEF9225
:102E6000FF920F931F93E092B103F092B20300938D
:102E7000B3031093B4036093B5037093B6038093C8
:102E8000B7039FEFFF27621B730B840B30F4809511
:102E900070956195790B890B99279093B003A6E003
:102EA0006A9F0092A403512DEE277A9F500DE11DD9
:102EB0008A9FE00D5093A503E093A603AFE06A9FBD
:102EC0000092A803512DEE277A9F500DE11D8A9F95
:102ED000E00D5093A903E093AA03AAE06A9F009231
:102EE000AC03512DEE277A9F500DE11D8A9FE00D16
:102EF0005093AD03E093AE031F910F91FF90EF90BD
:102F0000089593E0980F21E030E002C0220F331FB4
:102F10009A95E2F7209530959091FA0A292320930B
:102F2000FA0A882321F0813021F081E00895129A75
:102F3000FCCF479AFACF882319F0813019F0089511
:102F400080E022CF47988091FA0A80618093FA0A44
:102F5000089521E030E0082E02C0220F331F0A94AA
:102F6000E2F7209530959091FA0A29232093FA0AE6
:102F7000813051F0823069F05F9A80914D0C8E7FE4
:102F800080934D0C81E008958A9A80914D0C8D7F3D
:102F9000F7CF809108018095817080930601809120
:102FA0004D0C8B7FEDCF813079F0823079F05F98D6
:102FB00021E030E001C0220F8A95EAF78091FA0AF9
:102FC000822B8093FA0A08958A98F2CF9091080193
:102FD000917090930601ECCF9F92AF92BF92CF92E7
:102FE000DF92EF92FF920F931F93CF93DF9300D066
:102FF0001F921F92CDB7DEB7E6EEFAE10027BB279E
:10300000462F572FA82FAA2341F4A52F542FB85F7E
:10301000AA2319F4A52F5527B85FA03138F452958B
:10302000A295452F4F70507FA42BBC5FA03428F48D
:10303000550FAA1F550FAA1FBE5FA03818F4550FD1
:10304000AA1FB395550FAA1FEA0FF01F449151E034
:10305000AA27B85079F1C0F0B0FF02C0440F551F45
:10306000B1FF04C0440F551F440F551FB2FF06C0E7
:1030700052954295142F1F70407F512BB3FF1AC0F9
:10308000A52F542F442716C0B195B0FF02C0559507
:103090004795B1FF04C05595479555954795B2FFA3
:1030A00005C05295407F4295452B5F70B3FF02C02B
:1030B000452F5527DD24CC24BB24B2E0649FD018D3
:1030C000C108B00AB00B749FC018B108B00B849F40
:1030D000B018B109659FC018B108B00B759FB01842
:1030E000B109859FB0196A9FB018B1097A9FB019CC
:1030F0004D9DA12C99243327992722275D9DA00C53
:10310000911C301F901F201FAD9D900C311D901FF2
:10311000201F4C9DA00C911C301F901F201F5C9DF8
:10312000900C311D901F201FAC9D300D911D201F54
:103130004B9D900C311D901F201F5B9D300D911DEC
:10314000201FAB9D900D211D4B9F300D911D201F09
:103150005B9F900D211DAB9F200DB1E0BB24CC24C3
:10316000DD24639FD018C108B00AB00B739FC0184C
:10317000B108B00B839FB018B109699FC018B1089E
:10318000B00B799FB018B109899FB019629FB01830
:10319000B109729FB019D61AC70AB80A20F0B1E077
:1031A0003B0F901F201F1124792F632F90E0822F57
:1031B0000F900F900F900F900F90DF91CF911F9174
:1031C0000F91FF90EF90DF90CF90BF90AF909F90C6
:1031D0000895AF92BF92CF92DF92EF92FF920F933A
:1031E0001F93CF93DF93C1E5DCE002E614E081E6B4
:1031F000A82E8CE0B82EC12CD12C7601C3946991F5
:103200007991899199910E9430D8288939894A8980
:103210005B890E9491D80E9418DEF8016193719336
:10322000819391938F01C616D706E806F90610F42C
:103230006B017C01AC16BD0611F76FEF7FEFCB0180
:10324000A70196010E9406DC209372043093730458
:103250004093740450937504DF91CF911F910F91A7
:10326000FF90EF90DF90CF90BF90AF9008957F9246
:103270008F929F92AF92BF92CF92DF92EF92FF9286
:103280000F931F93CF93DF9370902E0AC6E5D4E07F
:103290009FE1C92E92E0D92E23E2E22E22E0F22E07
:1032A00006E21AE0772009F45EC0F8018080918080
:1032B000A280B38020E030E0A901C501B4010E94E2
:1032C0002CD8882309F44FC020E030E040E05FE3D1
:1032D000C501B4010E9491D89B01AC010E9491D814
:1032E0002BED3FE049E450E40E9491D89B01AC01F2
:1032F00060E070E080E89FE30E94ABDD4B015C0181
:1033000089929992A992B992F601619171916F0196
:10331000072E000C880B990B0E9432D82AE037ED5B
:1033200043E25CE30E9491D8A50194010E9491D8E8
:10333000F70161937193819391937F010C5F1F4F0C
:10334000F4E0CE35DF0709F0ADCFDF91CF911F91CB
:103350000F91FF90EF90DF90CF90BF90AF909F9034
:103360008F907F900895812C912C80E8A82E8FE378
:10337000B82EC6CF8091EF109091F010891B8F70FE
:1033800019F490E080E008959091EC10992351F0A9
:10339000833030F48FEF890F19F08093EC10F1CF68
:1033A0001092EC108091F01028E5829FC00111244A
:1033B0008A579B4FFC01208120FDE3CF2091F01024
:1033C0002F5F2F702093ED103091F0102091EE10B0
:1033D000321304C02091ED102093EE1008959091C7
:1033E0006F0081E091FD02C080E0089590916F0030
:1033F0009D7F90936F000895FC017081472F50E0EE
:10340000062E02C0559547950A94E2F740FF14C076
:103410004091870B50E0062E02C0559547950A94BF
:10342000E2F740FF09C021E030E001C0220F6A95B9
:10343000EAF72095272320830895CF93DF9324E094
:10344000829FC0011124EC01C756D34FFC01E65CFA
:10345000F34F865B9B4FDC012D913D914D915C912B
:1034600060817181828193810E94CFDC688379833E
:103470008A839B83DF91CF91089580914604909138
:103480004704A0914804B091490480934E02909360
:103490004F02A0935002B093510280914404909146
:1034A000450490931E0280931D02089580914E0260
:1034B00090914F02A0915002B09151028093460426
:1034C00090934704A0934804B093490480911D024F
:1034D00090911E02909345048093440484E690E00A
:1034E00090931E0280931D020895CF93DF939091D5
:1034F000370491111BC0C0911B02D0911C0221976F
:1035000097E1899FF0011124E75AF44F20E030E061
:1035100040E05FE364817581868197810E94CFDC02
:103520000E9413DE21E06C177D070CF020E0822F53
:10353000DF91CF910895CF93DF93DB01F9019C9147
:103540009130C1F0943080F094509C938830D1F445
:1035500080819181009771F0019791838083480F5A
:10356000591FEA01188206C08C3539F49C5F9C9380
:10357000943041F4DF91CF9108958B3339F781E096
:103580008C93F8CF20813181B9016F5F7F4F7183B8
:103590006083420F531FEA018883808191818F35B8
:1035A00091056CF7E7CF0F931F9381E000911B11FA
:1035B00010911C1120911D1130911E114091171175
:1035C000509118116091191170911A110417150773
:1035D0002607370708F480E01F910F91089590E0C7
:1035E00080E0089520910D04833021F425FD0CC066
:1035F00024FD0CC030E0A90102C0559547958A957D
:10360000E2F7CA018170089581E0089580E008958D
:103610008091290484FD0BC080912B0487FD07C095
:1036200090912C04937081E019F480E0089581E07A
:103630000895082E000C990BFC01E356F44DE4911B
:10364000EE2391F0F0E0EE0FFF1FE759F44DA59146
:10365000B4912C918D51944DFC018491282381E0EB
:1036600090E021F480E0089580E090E00895082E35
:10367000000C990BFC01E356F44DE491F0E0EE0FE1
:10368000FF1FE75FF44DA591B4912C918D51944D9E
:10369000FC018491822391E009F490E0892F089540
:1036A0002FEB280F2A3108F047C0E22FF0E080917D
:1036B000290490912A04A0912B04B0912C0404C0F9
:1036C000B695A795979587952A95D2F780FD02C064
:1036D00081700895E15FFB4FE081EE2341F180911D
:1036E0004F0C9091500CE80FF92FF11D808190ED57
:1036F000980F9A3030F08E3251F4818180538A30A5
:1037000098F4F0930604E093050481E008958D3267
:1037100011F08B3249F4818190ED980F9A3088F343
:103720008E3211F48281EACFF0E0E0E0EACF10922D
:10373000060410920504E9CF80E00895B1DF8823E4
:1037400041F081E02091050430910604232B09F417
:1037500080E008958F929F92AF92BF92CF92DF92B6
:10376000EF92FF92C090770AD090780AE090790AA1
:10377000F0907A0A20E030E0A901C701B6010E946A
:103780002CD88823E1F1A701960160E070E080E881
:103790009FE30E94ABDD6B017C0180907B0A9090DF
:1037A0007C0AA0907D0AB0907E0A20E030E0A9015A
:1037B000C501B4010E942CD8882329F1A5019401E8
:1037C00060E070E080E89FE30E94ABDDC092F80308
:1037D000D092F903E092FA03F092FB036093FC03AA
:1037E0007093FD038093FE039093FF03FF90EF908F
:1037F000DF90CF90BF90AF909F908F900895C12C95
:10380000D12C7601CACF60E070E0CB01DFCF2F92E0
:103810003F924F925F926F927F928F929F92AF9260
:10382000BF92CF92DF92EF92FF920F931F93CF93AD
:10383000DF93CDB7DEB72E970FB6F894DEBF0FBE7D
:10384000CDBF8A83162F4983822E262F30E03A87F8
:103850002987E4E08E9FC00111249C878B87FC019F
:10386000E20FF31FEE0FFF1FEE0FFF1FE15DF54F9D
:1038700060817181828193819B01AC010E947BDF19
:10388000882309F42EC19A81E9819E0F882D810F2A
:1038900024E0929FF0011124A985BA85AE0FBF1FC5
:1038A000AA0FBB1FAA0FBB1FA15DB54FAC9011960D
:1038B000BC9011971296CC9012971396DC90398198
:1038C000930F24E0929FA0011124A985BA85A40F2B
:1038D000B51FAA0FBB1FAA0FBB1FA15DB54FEC9070
:1038E0001196FC90119712960C91129713961C91B9
:1038F000282F30E0AB85BC85A20FB31FAA0FBB1FDA
:10390000AA0FBB1FA15DB54F9C9011967C9011979B
:1039100012966C90129713965C90880D90E0AB8590
:10392000BC85A80FB91FAA0FBB1FAA0FBB1FA15DA3
:10393000B54F8C9011964C90119712963C9012971F
:1039400013962C90E20FF31FEE0FFF1FEE0FFF1FD9
:10395000E15DF54F3081398321812A8332813B83B8
:1039600023812C83FA01E80FF91FEE0FFF1FEE0FE2
:10397000FF1FE15DF54F30813D8381818E83928110
:103980009F83238128879701A801B701C8010E945E
:103990007BDF882321F0E12CF12C00E010E0950181
:1039A000A601B501C6010E947BDF882311F05701F3
:1039B0006801282D342D432D522D682D742D832D13
:1039C000922D0E947BDF882321F0812C412C312C09
:1039D000212C292D372D462D552D692D772D862DFE
:1039E000952D0E947BDF882321F0982C742C632C6A
:1039F000522C2D813E814F8158856D817E818F8132
:103A000098850E947BDF882321F01D821E821F8201
:103A1000188629813A814B815C8169817A818B8109
:103A20009C810E947BDF882341F03D8139838E8118
:103A30008A839F819B83E885EC832B853C858985E0
:103A40009A85280F391F220F331F220F331F215D44
:103A5000354F3A8729879501A601B501C6010E9415
:103A6000CFDC9701A8010E94CEDC6B017C01292DDF
:103A7000372D462D552D692D772D862D952D0E949C
:103A8000CFDC282D342D432D522D0E94CEDC9B01FE
:103A9000AC01C701B6010E94CFDC6B017C0129811A
:103AA0003A814B815C8169817A818B819C810E9402
:103AB000CFDC2D813E814F8158850E94CEDC9B0159
:103AC000AC01C701B6010E94CFDC20E030E040E449
:103AD00050E40E94ABDDE985FA85608371838283BF
:103AE00093832E960FB6F894DEBF0FBECDBFDF9145
:103AF000CF911F910F91FF90EF90DF90CF90BF90EB
:103B0000AF909F908F907F906F905F904F903F907D
:103B10002F900895EEECF4E09491981739F03196D7
:103B200094E0EA3EF907C1F780E0089581E0089546
:103B30000F931F938091130A813019F50E94C2AC34
:103B40000091070A1091080A2091090A30910A0A87
:103B5000601B710B820B930B28EE33E040E050E0CA
:103B60000E9406DC60910B0A70910C0A80910D0A8C
:103B700090910E0A620F731F841F951F1F910F9162
:103B8000089560910F0A7091100A8091110A909126
:103B9000120AD6CFCF93DF93C091560BD091570B1B
:103BA000209729F16091520B7091530B8091540B27
:103BB0009091550B0E9413DE6E5F7F4F24976C1718
:103BC0007D07ACF470932B0B60932A0B0E94C2AC60
:103BD0006058774C8E4F9F4F60932C0B70932D0B3A
:103BE00080932E0B90932F0BDF91CF91089510921D
:103BF0002C0B10922D0B10922E0B10922F0BF4CF3A
:103C00000F931F93CF93DF93062F10E0F801EE0F71
:103C1000FF1FE25EFC4FC081D1812F978C179D075B
:103C20000CF4EC0187E1809FF001819FF00D1124DD
:103C3000E75AF44FD187C087209729F164817581B5
:103C4000868197810E9413DE6E5F7F4F25976C17E8
:103C50007D07CCF486E0809FE001819FD00D112488
:103C6000C05DD44F798368830E94C2AC60547B42AC
:103C70008E4F9F4F6A837B838C839D83DF91CF918F
:103C80001F910F91089586E0809FF001819FF00DB4
:103C90001124E05DF44F1282138214821582EECF5C
:103CA0000F931F93CF93DF9305E61CE0C6E7D4E0A4
:103CB000F80121913191419151918F0160E070E0C3
:103CC00080E89FE30E94ABDD699379938993999390
:103CD000F4E0C638DF0761F70E94B4A4DF91CF910A
:103CE0001F910F9176CA2F923F924F925F926F92DF
:103CF0007F928F929F92AF92BF92CF92DF92EF927C
:103D0000FF920F931F93CF93DF93CDB7DEB76C97DE
:103D10000FB6F894DEBF0FBECDBF8C015B015A8396
:103D20004983FC01E95BFF4F20813181428153814E
:103D300029873A874B875C87CA01B9010E9430D82E
:103D40006B017C01D5012D913D914D915C910E94BB
:103D500091D80E9495DD2B013C01E981FA812081F7
:103D6000318142815381C701B6010E9491D80E94DE
:103D700095DD4B015C01C301B2010E9418DE698B25
:103D80007A8B8B8B9C8B683771058105910540F48C
:103D900028E730E040E050E0298B3A8B4B8B5C8B7E
:103DA000C501B4010E9418DE6D877E878F87988BCE
:103DB000683771058105910540F448E750E060E0FF
:103DC00070E04D875E876F87788BF801ED5AFF4F63
:103DD0004080518062807380C301B2010E9432D85A
:103DE00069837A838B839C8369897A898B899C898F
:103DF0000E9430D86D8B7E8B8F8B988F20E030E0C7
:103E0000A90169817A818B819C810E942CD88823A9
:103E100009F4E1C1A7019601C701B6010E9491D83A
:103E20004B015C012D893E894F89588DCA01B9012A
:103E30000E9491D89B01AC01C501B4010E94CEDC67
:103E40004B015C0129813A814B815C81CA01B90136
:103E50000E94CFDC9B01AC01C501B4010E94ABDD27
:103E60000E9495DD0E9418DE6D837E838F83988784
:103E700066277727CB0164197509860997090E947F
:103E800032D84B015C016D857E858F8598890E94B3
:103E900030D82B013C0120E030E0A901C501B4017C
:103EA0000E942CD8882309F49AC1A3019201C3016E
:103EB000B2010E9491D8698F7A8F8B8F9C8FA70156
:103EC0009601C701B6010E9491D89B01AC01698D92
:103ED0007A8D8B8D9C8D0E94CEDC6B017C01A501BF
:103EE0009401C501B4010E94CFDC9B01AC01C70164
:103EF000B6010E94ABDD0E9444DED80195968D90FC
:103F00009D90AD90BC909897750164012D813E8184
:103F10004F815885C21AD30AE40AF50A0E9418DEB6
:103F2000C61AD70AE80AF90AF7FE8EC02D893E891B
:103F30004F89588DCA01B9010E9491D86B017C014B
:103F400029813A814B815C81CA01B9010E94CFDC91
:103F500069877A878B879C8720E030E0A901698197
:103F60007A818B819C810E942CD8882309F43BC1E3
:103F7000C501B4010E9430D829853A854B855C85FE
:103F80000E9491D8A70196010E94CEDC6D837E83AA
:103F90008F839887A3019201C301B2010E9491D837
:103FA0009B01AC016D817E818F8198850E94CFDC61
:103FB0002B013C0120E030E040E850E469817A8147
:103FC0008B819C810E9491D89B01AC01C301B201FD
:103FD0000E94ABDD0E9495DD2B013C0120E030E02A
:103FE000A9010E94F5DE18161CF0412C512C32015B
:103FF000C301B2010E9418DE6D837E838F83988790
:1040000086169706A806B90620F48D829E82AF8296
:10401000B8866D817E818F8198850E9430D82985F0
:104020003A854B855C850E9491D8A70196010E9434
:10403000CFDC0E943ADF0E9418DE69877A878B877F
:104040009C87C12CD12C760169857A858B859C85CE
:1040500029893A894B895C89621B730B840B950B08
:104060000E9430D829813A814B815C810E94ABDD6E
:1040700020E034E244EF59E40E9491D80E9418DE17
:104080004B015C0169857A858B859C852D853E85F4
:104090004F855889621B730B840B950B0E9430D897
:1040A00029813A814B815C810E94ABDD20E034E2C2
:1040B00044EF59E40E9491D80E9418DE2B013C0184
:1040C0003FE683169104A104B10408F090C0F40106
:1040D000EE0FFF1FEE0FFF1FE65DF64E85919591E7
:1040E000A591B4918983292E3A2EBD8B4FE64416B3
:1040F00051046104710408F083C0F201EE0FFF1F48
:10410000EE0FFF1FE65DF64E459155916591749156
:104110009A01CB014D815E816F817885D8019A9695
:104120004D935D936D937C939D974C0D5D1D6E1D1E
:104130007F1DF80146A757A760AB71ABE55BFF4F4A
:1041400049895A896B897C8940835183628373834F
:10415000D6968D929D92AD92BC92D997F80142AEBF
:1041600053AE64AE75AEFE964981408321823282A1
:104170005D89538334962083318382839383698559
:104180007A858B859C85D2966D937D938D939C9338
:10419000D5973D962D853E854F855889208331835F
:1041A000428353836C960FB6F894DEBF0FBECDBF2B
:1041B000DF91CF911F910F91FF90EF90DF90CF9003
:1041C000BF90AF909F908F907F906F905F904F9037
:1041D0003F902F90089560E070E0CB0141CE60E009
:1041E00070E0CB0188CE60E070E0CB01F3CEC5017A
:1041F000B4010E94EC176983272E382E9D8B76CF51
:10420000C301B2010E94EC179B0184CF4F925F92D1
:104210006F927F928F929F92AF92BF92CF92DF92D6
:10422000EF92FF920F931F93CF93DF93EC012091B6
:104230006F0A3091700A4091710A5091720A688138
:1042400079818A819B810E94CEDC6B017C01209167
:10425000730A3091740A4091750A5091760A6C8104
:104260007D818E819F810E94CEDC4B015C01A70184
:10427000960160910402709105028091060290916E
:1042800007020E942CD8882309F450C0C09204026F
:10429000D0920502E0920602F09207022091F80304
:1042A0003091F9034091FA035091FB03C701B60125
:1042B0000E9491D82B013C010E9444DE6B017C01DD
:1042C00020E030E0A9010E942CD887FD70C020E0DA
:1042D00030E040E050E4C701B6010E94F5DE181658
:1042E0002CF4C12CD12CE12CA0E4FA2EA7019601CC
:1042F000C301B2010E94CEDC6093F0037093F1031E
:104300008093F2039093F303C701B6010E9413DE7A
:104310006093EE03062E000C770B6F5F7F4F6330C8
:10432000710514F063E070E06093EC03D091020239
:10433000C091EE03A50194016091080270910902F9
:1043400080910A0290910B020E942CD8811133C0F7
:10435000DC1381C02091D4033091D5034091D60362
:104360005091D7036091F0037091F1038091F203B3
:104370009091F3030E9491D82091D8033091D903F2
:104380004091DA035091DB030E94CFDCDF91CF91A3
:104390001F910F91FF90EF90DF90CF90BF90AF9063
:1043A0009F908F907F906F905F904F900895C12C59
:1043B000D12C76019BCF8092080290920902A092A4
:1043C0000A02B0920B022091FC033091FD03409150
:1043D000FE035091FF03C501B4010E9491D84B0127
:1043E0005C010E9444DE6B017C0120E030E0A90109
:1043F0000E942CD887FDF4C020E030E040E050E47B
:10440000C701B6010E94F5DE18162CF4C12CD12C80
:10441000E12CF0E4FF2EA7019601C501B4010E9432
:10442000CEDC6093F4037093F5038093F6039093CE
:10443000F703C701B6010E9413DE6093EF03062E57
:10444000000C770B6F5F7F4F6330710514F063E0F2
:1044500070E06093ED030091EF03DC1305C08091E1
:104460000302801709F471C08091EE039091EF036D
:104470009093030280930202002E000C110B24E0A3
:10448000C202C0011124FC01E00FF11FEE0FFF1F5B
:10449000EE0FFF1FE15DF54F208131814281538195
:1044A0002093E8033093E9034093EA035093EB032E
:1044B000C091ED030C2E000CDD0BFC01EC0FFD1F79
:1044C000EE0FFF1FEE0FFF1FE15DF54F6081718161
:1044D000828193810E94CEDC6093E4037093E503B4
:1044E0008093E6039093E7038091EC0324E082023B
:1044F000C0011124FC01E00FF11FEE0FFF1FEE0FB2
:10450000FF1FE15DF54F208131814281538120936E
:10451000E0033093E1034093E2035093E303C80FB9
:10452000D91FCC0FDD1FCC0FDD1FC15DD54F6881BA
:1045300079818A819B810E94CEDC6093DC03709339
:10454000DD038093DE039093DF038090F40390906B
:10455000F503A090F603B090F7032091E4033091A7
:10456000E5034091E6035091E703C501B4010E94C1
:1045700091D82091E8033091E9034091EA035091EA
:10458000EB030E94CFDC6B017C01C092D803D09278
:10459000D903E092DA03F092DB032091DC0330913F
:1045A000DD034091DE035091DF03C501B4010E9499
:1045B00091D82091E0033091E1034091E2035091C2
:1045C000E3030E94CFDCA70196010E94CEDC60933A
:1045D000D4037093D5038093D6039093D703BACEB8
:1045E000C12CD12C760117CFCF93DF932091880B6C
:1045F000222371F0EC010ADE9B01AC01688579850C
:104600008A859B850E94CEDC688779878A879B870D
:10461000DF91CF9108952F923F924F925F926F92C8
:104620007F928F929F92AF92BF92CF92DF92EF9242
:10463000FF920F931F93CF93DF93D62FC72FFC01C9
:1046400080809180A280B380C501B40120E831E56B
:1046500041E050E00E9406DCC9016DE671E00E9475
:1046600069DC6B017C01C501B40120E13EE040E062
:1046700050E00E9406DCCA01B90128E130E040E0C8
:1046800050E00E9406DC362E272E062F172F8CE3D3
:10469000482E512C612C712CC501B401A30192014B
:1046A0000E9406DCB62EA72ECA01B901A301920111
:1046B0000E9406DCCB01C114D10479F1AF92BF9204
:1046C0007F936F932F923F92FF92EF92DF92CF9260
:1046D0008FEB96E19F938F93CF93DF930E94FDD74B
:1046E0008DB79EB70E960FB6F8949EBF0FBE8DBFC6
:1046F0008D2F9C2FDF91CF911F910F91FF90EF9005
:10470000DF90CF90BF90AF909F908F907F906F90F1
:104710005F904F903F902F900895E114F104C9F0FD
:10472000AF92BF927F936F932F923F92FF92EF923F
:104730008FEA96E19F938F93CF93DF930E94FDD7EB
:10474000EDB7FEB73C960FB6F894FEBF0FBEEDBFB7
:10475000CFCF012BB9F0AF92BF927F936F932F927F
:104760003F9283EA96E19F938F93CF93DF930E94CA
:10477000FDD78DB79EB70A960FB6F8949EBF0FBEB1
:104780008DBFB6CF892BA9F0AF92BF927F936F9365
:104790008BE996E19F938F93CF93DF930E94FDD790
:1047A000EDB7FEB738960FB6F894FEBF0FBEEDBF5B
:1047B0009FCFAF92BF9287E996E19F938F93CF935C
:1047C000DF930E94FDD70F900F900F900F900F90E6
:1047D0000F908ECFCF92DF92EF92FF920F931F93A5
:1047E000CF93DF936B017A01EC01C454DC4F288135
:1047F0003CE0389F8001399F100D112427FF24C011
:10480000FB011182108288818F5F888388819801E3
:10481000280F311D87FD3A95C9012091DA10F60164
:104820002817190629F024F088818C300CF43CC03C
:1048300080819181049680349C4908F475C0F6010A
:1048400080819181049672C088819801280F311D62
:1048500087FD3A95C9012091DA102817190699F2B7
:1048600094F28881A801480F511D87FD5A95FA01DD
:10487000EE0FFF1FE40FF51FEE56FF4E808187FFFE
:10488000C2CF8881F801E80FF11D87FDFA95CF01AD
:10489000EE0FFF1FE80FF91FEE56FF4E808160E01C
:1048A0008F770E9415AAAFCF808191812881A801BE
:1048B000420F511D27FD5A959A01FA01EE0FFF1F75
:1048C000E20FF31FEE56FF4E21813281820F931FBC
:1048D000F7019183808388819801280F311D87FD1E
:1048E0003A95F901EE0FFF1FE20FF31FEE56FF4E50
:1048F000808187FF20C08881080F111D87FD1A95D0
:10490000F801EE0FFF1FE00FF11FEE56FF4E808102
:1049100061E08F77DF91CF911F910F91FF90EF9022
:10492000DF90CF900C9415AA80E49CE9F701918365
:1049300080838FEF8883DF91CF911F910F91FF903C
:10494000EF90DF90CF900895809105049091060438
:10495000009731F04AE050E070E060E00C9461D5DF
:1049600060E070E0CB010895EFDF97FD0AC0ECDF57
:104970006F3F71058105910509F02CF4E5DF862F65
:10498000089580E008958FEF0895CF93C62F0E9479
:104990009E1B882311F0CF91E7CF8C2FCF910895E4
:1049A0008091050490910604892B39F0DDDF91E0B8
:1049B000811101C090E0892F089591E0FCCFCF9341
:1049C000DF93C82FD62F0E949E1B882319F0DF91FA
:1049D000CF91E6CF8C2F0E94501B811101C08D2FEB
:1049E000DF91CF910895B0DFCB010895CF93DF938E
:1049F000EB010E949E1B882319F0DF91CF91F3CF2A
:104A0000CE01DF91CF9108950F931F93CF938091A3
:104A10000504909106040097E9F0FC018F01C19113
:104A20002C2F2F7D81F0C53411F0C536B9F7F80170
:104A3000108270E060E00E940CD4F801C083CF9136
:104A40001F910F91089570E060E0CF911F910F9139
:104A50000C940CD460E070E0CB01F1CFCF92DF92E8
:104A6000EF92FF926A017B010E949E1B882329F02E
:104A7000FF90EF90DF90CF90C7CFC701B601FF90B6
:104A8000EF90DF90CF9008958F929F92AF92BF9258
:104A9000CF92DF92EF92FF920F931F93CF9385EA0D
:104AA000E82E8BE0F82E09E612E099E9C92E9CE089
:104AB000D92EC0E088E58C0F0E949E1B882309F444
:104AC000A3C0A2DF4B015C018C2F0E94F21A882345
:104AD00009F490C0F8012081318142815381C501E0
:104AE000B4010E94CFDCF7016083718382839383DA
:104AF000CF5FF4E0EF0EF11C0C5F1F4F84E0C80E97
:104B0000D11CC330B9F685E40E949E1B882309F4AA
:104B100086C07ADF6B017C0183E00E94F21A882351
:104B200071F0209175023091760240917702509198
:104B30007802C701B6010E94CFDC6B017C01C092F4
:104B4000B10BD092B20BE092B30BF092B40B40E0F9
:104B500050E0BA0186E482DF20E030E0A9010E9443
:104B6000F5DE18167CF450DF20E030E040E752E438
:104B70000E94ABDD60934E0270934F02809350020F
:104B8000909351028091060A83FD28C08091250CE4
:104B9000882321F1209175023091760240917702AD
:104BA000509178026091B10B7091B20B8091B30B70
:104BB0009091B40B0E94CEDC2091320C3091330CDA
:104BC0004091340C5091350C0E94CFDC6093320C34
:104BD0007093330C8093340C9093350CCF911F91CC
:104BE0000F91FF90EF90DF90CF90BF90AF909F908C
:104BF0008F900895F6012081318142815381C50152
:104C0000B4010E94CEDC6FCFF80180819181A28136
:104C1000B381F70180839183A283B38369CF8091AD
:104C2000750290917602A0917702B09178028093FC
:104C3000B10B9093B20BA093B30BB093B40B87CF8F
:104C40000F930FB70F9300916E000D7F00936E00CE
:104C500078940F930BB70F930CB70F921F922F936B
:104C60003F934F935F936F937F938F939F93AF93F4
:104C7000BF93EF93FF9311240E94943AFF91EF9119
:104C8000BF91AF919F918F917F916F915F914F9164
:104C90003F912F911F900F900CBF0F910BBF0F9161
:104CA0000260F89400936E000F910FBF0F9118955A
:104CB000EF92FF920F931F93CF93DF9310923D0BD0
:104CC00060E090E080E00E94001EC9E5DBE01A860B
:104CD00061E090E080E00E94001E19A22C9802E0A2
:104CE00011E0F80180818071C0E0D1E088838EE41A
:104CF000E82E8BE0F82EF701118610860E94CA1D5F
:104D0000F7011286F801808180728883DF91CF914C
:104D10001F910F91FF90EF9008958F929F92AF9205
:104D2000BF92CF92DF92EF92FF920F931F93CF9398
:104D3000DF93BCE1A0E06A2F70E0AB014B0F511D87
:104D400055954795411119C0E7EAF6E265917491CE
:104D5000072E000C880B990B0E9432D8DF91CF915F
:104D60001F910F91FF90EF90DF90CF90BF90AF9089
:104D70009F908F900895B42FE0CFA41711F0B41333
:104D800003C0E3E1F7E2E2CF9A0121503109220F9B
:104D9000331F220F331FF901EB55F94DE590F490C5
:104DA000F901E755F94DC591D4918E159F051CF376
:104DB000A42FC817D9070CF4BECFF901E955F94D56
:104DC00005911491F901E555F94DC590D490BC01B8
:104DD0006E197F09072E000C880B990B0E9432D8A0
:104DE0004B015C01B601601B710B072E000C880B98
:104DF000990B0E9432D89B01AC01C501B4010E94FD
:104E000091D84B015C01BE016E197F09072E000C81
:104E1000880B990B0E9432D89B01AC01C501B401EB
:104E20000E94ABDD6B017C01B801110F880B990B5F
:104E30000E9432D89B01AC01C701B6010E94CFDCB1
:104E40008DCF0F930FB70F9300916E000F930D7FCF
:104E500000936E0000916F000D7F00936F000F9321
:104E60000BB70F930CB70F921F922F933F934F9353
:104E70005F936F937F938F939F93AF93BF93EF93C2
:104E8000FF93112489D2FF91EF91BF91AF919F9130
:104E90008F917F916F915F914F913F912F911F90D3
:104EA0000F900CBF0F910BBF0F910260F89400930D
:104EB0006F000F9100936E000F910FBF0F91189527
:104EC00000008091380C80FF26C089988FEF809376
:104ED000930A8091380C81FF21C08F988FEF8093C7
:104EE000940A8091380C82FF1CC080910B01827063
:104EF000809309018FEF8093950A8091970A909192
:104F0000380C93FF18C0811114C0169A8FEF80934C
:104F1000960A00000895899A81E0D9CF8F9A81E09E
:104F2000DECF80910B01809582708093090181E032
:104F3000E2CF4398EBCF811103C0169881E0E7CF11
:104F4000439AFCCFCF92DF92EF92FF920F931F9381
:104F5000CF93DF9344EC50E070E060E086E590E1B1
:104F60000E941FB306E510E1F80113AE43E051E8DB
:104F700060E070E1C8010E9453B3C0EBD4E0F801D7
:104F8000D2AFC1AFC12CD12CE12C8FE3F82EC58656
:104F9000D686E786F08A60EB74E0C8010E9448B2CA
:104FA00064E0C8010E942DA1C8010E94E4A460E849
:104FB000C8010E9400B244E25EE06DE078ECC801F6
:104FC0000E94EBB2C8010E94D8A468EC70E080E0B7
:104FD00090E00E9437AC44EC50E070E060E08AE181
:104FE00090E10E941FB30AE110E1F80113AE43E023
:104FF00051E860E070E1C8010E9453B3F801D2AFFC
:10500000C1AFC586D686E786F08A60EB74E0C8013A
:105010000E9448B264E0C8010E942DA1C8010E940C
:10502000E4A460E8C8010E9400B244E25EE06DE0E2
:1050300078ECC8010E94EBB2C8010E94D8A468ECC9
:1050400070E080E090E00E9437AC44EC50E070E00B
:1050500060E08EED9FE00E941FB30EED1FE0F801AF
:1050600013AE43E051E860E070E1C8010E9453B321
:10507000F801D2AFC1AFC586D686E786F08A60EB6D
:1050800074E0C8010E9448B264E0C8010E942DA1EA
:10509000C8010E94E4A460E8C8010E9400B244E292
:1050A0005EE06DE078ECC8010E94EBB2C8010E949E
:1050B000D8A468EC70E080E090E00E9437AC44EC4B
:1050C00050E070E060E082EA9FE00E941FB302EAD5
:1050D0001FE0F80113AE43E051E860E070E1C80161
:1050E0000E9453B3F801D2AFC1AFC586D686E7861A
:1050F000F08A60EB74E0C8010E9448B264E0C80125
:105100000E942DA1C8010E94E4A460E8C8010E9489
:1051100000B244E25EE06DE078ECC8010E94EBB2C0
:10512000C8010E94D8A468EC70E080E090E00E9482
:1051300037AC44EC50E070E060E086E69FE00E940F
:105140001FB306E61FE0F80113AE43E051E860E04C
:1051500070E1C8010E9453B3F801D2AFC1AFC58658
:10516000D686E786F08A60EB74E0C8010E9448B2F8
:1051700064E0C8010E942DA1C8010E94E4A460E877
:10518000C8010E9400B244E25EE06DE078ECC80124
:105190000E94EBB2C8010E94D8A468EC70E080E0E5
:1051A00090E00E9437ACDF91CF911F910F91FF905B
:1051B000EF90DF90CF9084CE80E00E94811781E055
:1051C0000C94811780E00E94A91781E00E94A91722
:1051D00082E00E94A917F0CFCF93DF932091880B34
:1051E000222371F0EC0112D89B01AC01688579850E
:1051F0008A859B850E94CFDC688779878A879B8711
:10520000DF91CF910895EFE6F0E0808182608083A6
:1052100008950F931F93CF93DF93C82F0E94EF1928
:10522000D82F4091EA0A5091EB0A6091EC0A7091F4
:10523000ED0A8091EE0A9091EF0AA091F00AB091E8
:10524000F10AC13031F58A019B01081B190B2A0BA9
:105250003B0BC901B8010E9432D820E030E040E0A9
:105260005FE30E9491D80E9413DE14E0C19FF00119
:105270001124E252F54F608371838283938381E02E
:105280008093DD0ADD2361F0DF91CF911F910F91B3
:10529000BACF8C019D01040F151F261F371FD9CFD0
:1052A000DF91CF911F910F910895CF93DF9380915C
:1052B000370C811105C08091390C882309F469C02D
:1052C00080913604659B55C081608093360490912F
:1052D00003018091360490FF4EC0826080933604B3
:1052E00080913604639B49C0886080933604809126
:1052F00036044A9B44C0846080933604C091CE0A31
:10530000C0FF0FC08091380C85FF0BC08091360420
:1053100080FF07C080914C0C816080934C0C80E032
:1053200078DFC1FF0FC08091380C86FD0BC08091E3
:10533000360481FF07C080914C0C826080934C0C36
:1053400081E067DFC2FF25C08091380C82FF19C061
:105350008091390C8823E9F08091360483FF19C0CD
:1053600080914C0C886080934C0C82E0DF91CF914F
:1053700050CF8E7FAACF8D7FB1CF877FB6CF8B7F67
:10538000BBCF8091360482FF04C080914C0C8460B6
:10539000EACFDF91CF9108952F923F924F925F9283
:1053A0006F927F928F929F92AF92BF92CF92DF9235
:1053B000EF92FF920F931F93CF93DF93CDB7DEB79A
:1053C00063970FB6F894DEBF0FBECDBF8FEF9FEF90
:1053D00090938900809388002AE02983312C212C26
:1053E00078948091D70A9091D80AA091D90AB09167
:1053F000DA0A892B8A2B8B2B09F0D7C18091DD0A21
:105400008823D1F08091DB0A9091DC0A1092DD0AAA
:10541000892B91F01092DC0A1092DB0A1092CE0ACE
:105420009091EF108091F010981731F08091F0106A
:105430008F5F8F708093F0108091DB0A9091DC0A6F
:10544000892B09F4B2C14091D30A5091D40A6091DA
:10545000D50A7091D60A8091CF0A9091D00AA09176
:10546000D10AB091D20A0091C50A10E030E020E0E4
:10547000841B950BA60BB70B081719072A073B07C8
:1054800010F4D901C8018A8B840F951FA61FB71F7E
:105490008093D30A9093D40AA093D50AB093D60AE6
:1054A000E1E0C0909C0AD0909D0AE0909E0AF090A6
:1054B0009F0A8091AC0A9091AD0AA091AE0AB0917A
:1054C000AF0AC80ED91EEA1EFB1EC092AC0AD092CB
:1054D000AD0AE092AE0AF092AF0AF7FC33C04091F9
:1054E000930A042E000C550B660B770B8091EA0A89
:1054F0009091EB0AA091EC0AB091ED0A840F951FF0
:10550000A61FB71F8093EA0A9093EB0AA093EC0AB8
:10551000B093ED0A8091980A9091990AA0919A0A05
:10552000B0919B0AB701A601481B590B6A0B7B0B74
:10553000DB01CA018093AC0A9093AD0AA093AE0A36
:10554000B093AF0A0091A00A1091A10A2091A20A7B
:105550003091A30A8091B00A9091B10AA091B20A49
:10556000B091B30A080F191F2A1F3B1F0093B00AFE
:105570001093B10A2093B20A3093B30A37FD33C0B7
:105580004091940A042E000C550B660B770B80910A
:10559000EE0A9091EF0AA091F00AB091F10A840FFF
:1055A000951FA61FB71F8093EE0A9093EF0AA09352
:1055B000F00AB093F10A8091980A9091990AA0910B
:1055C0009A0AB0919B0A28013901481A590A6A0AB5
:1055D0007B0AD301C2018093B00A9093B10AA093D1
:1055E000B20AB093B30A4091A40A5091A50A6091FF
:1055F000A60A7091A70A8091B40A9091B50AA09169
:10560000B60AB091B70A480F591F6A1F7B1F409313
:10561000B40A5093B50A6093B60A7093B70A77FD3F
:1056200033C08090950A082C000C9908AA08BB0882
:105630008091F20A9091F30AA091F40AB091F50AD0
:10564000880D991DAA1DBB1D8093F20A9093F30A41
:10565000A093F40AB093F50A8091980A9091990A60
:10566000A0919A0AB0919B0A3A014B01681A790AF3
:105670008A0A9B0AD401C3018093B40A9093B50AA5
:10568000A093B60AB093B70A8090A80A9090A90A8E
:10569000A090AA0AB090AB0A8091B80A9091B90A7A
:1056A000A091BA0AB091BB0A880D991DAA1DBB1D15
:1056B0008093B80A9093B90AA093BA0AB093BB0A30
:1056C000B7FD33C04090960A042C000C55086608BC
:1056D00077088090F60A9090F70AA090F80AB090A8
:1056E000F90A840C951CA61CB71C8092F60A9092AD
:1056F000F70AA092F80AB092F90A8090980A90905E
:10570000990AA0909A0AB0909B0A2C013D01481872
:1057100059086A087B08530142018092B80A9092A6
:10572000B90AA092BA0AB092BB0AE11104C0E09192
:105730008400F0918500F7FE889A37FF8E9A77FDF6
:1057400006C0E0910B01E095E870E0930901B7FD18
:1057500005C0E091970AE1119EC0149AE09184007F
:10576000F0918500E0918400F0918500F7FE889823
:1057700037FF8E9877FD05C020910B01287020938C
:105780000901B7FD05C08091970A811186C0149860
:105790005A88552021F080918400909185002A89B3
:1057A00021502A8BE0E021117CCE8091D70A909184
:1057B000D80AA091D90AB091DA0A892B8A2B8B2BAF
:1057C00009F0C4C64090DB0A5090DC0A5B8A4A8A22
:1057D000452809F42FC78091D30A9091D40AA0914B
:1057E000D50AB091D60A4091CF0A5091D00A609163
:1057F000D10A7091D20A84179507A607B70708F453
:105800004EC01092DC0A1092DB0A1092CE0A9091E0
:10581000EF108091F010981709F40CC78091F010E8
:105820008F5F8F708093F01010EDC12E17E0D12E96
:10583000E12CF12C8091DB0A9091DC0A892B09F094
:105840007DC60E94BA199093DC0A8093DB0A892BEB
:1058500009F474C64090DB0A5090DC0A5B8A4A8ADD
:10586000D2018C9183FF0BC5C20145960E94D216CE
:105870001092DC0A1092DB0A1092CE0A9091EF107F
:105880008091F0109817E9F28091F0108F5F8F707F
:105890008093F010D6CF419A61CF419879CF409153
:1058A000CA0A5091CB0A6091CC0A7091CD0A481770
:1058B00059076A077B0708F40EC24091C60A509147
:1058C000C70A6091C80A7091C90AEA89FB8986A94A
:1058D00097A9A0ADB1AD481759076A077B0708F033
:1058E000D0C1411551056105710509F066C0809070
:1058F000B5039090B603A090B703B090B80386E3C9
:1059000096E2A1E0FC0105911591259134910815CD
:1059100019052A053B0558F4B694A79497948794E3
:10592000AA0F0496E2E5F6E2E817F90759F7A09303
:10593000C50AF0E28F169104A104B10428F4F0E244
:105940008F2E912CA12CB12C20E2821A9108A10853
:10595000B108811438E09306A104B10408F49AC197
:10596000A4E09A9EC00111248A5C9D4DFC013296F0
:1059700025913491B82DEE27B39F8001B29F010D80
:105980001E1F06940E1F1E1F112430E020E0FC0194
:10599000C590D490F12CE12CC01AD10AE20AF30A86
:1059A0004C0D5D1D6E1D7F1D4093C60A5093C70AA6
:1059B0006093C80A7093C90A3DCF00E01A81942F02
:1059C000852E862FBC81AD81FE81EF8138852985AA
:1059D0004B80E091B103E99FA12DFF273091B203E5
:1059E000399FA00DF11D1090B303199EF00DE89D95
:1059F000A00DF11D389DF00DE89FF00D4A2EBF2F30
:105A00004A9EE12D332722274F9EE00D311D201F96
:105A1000BA9FE00D311D201FBF9F300D211D432E69
:105A2000B22F4A9E112D332722274F9E100D311D74
:105A3000201FBA9F100D311D201FBF9F300D211D4B
:105A4000432EB22FEE279091B5038090B60380913C
:105A5000B7030090B003002A09F483C03091AC036F
:105A6000349DE119900B800A800B2091AD03249D99
:105A7000E0199109800A800B1091AE03149D9019D2
:105A80008108800B3B9FE0199109800A800B2B9FB6
:105A900090198108800B1B9F801881094A9E112D47
:105AA000332722274F9E100D311D201FBA9F100D46
:105AB000311D201FBF9F300D211D432EB22F30916D
:105AC000A803349DE10D901F801E801F2091A90323
:105AD000249DE00D911D801E801F1091AA03149D2E
